{
	"CopyrightAgreementV1.sol": {
		"CopyrightAgreementV1": {
			"abi": [
				{
					"inputs": [
						{
							"internalType": "string",
							"name": "contractNumber_",
							"type": "string"
						},
						{
							"internalType": "string",
							"name": "networkName_",
							"type": "string"
						},
						{
							"internalType": "uint256",
							"name": "chainId_",
							"type": "uint256"
						},
						{
							"internalType": "address",
							"name": "provider_",
							"type": "address"
						},
						{
							"internalType": "address",
							"name": "authorAccount_",
							"type": "address"
						}
					],
					"stateMutability": "nonpayable",
					"type": "constructor"
				},
				{
					"anonymous": false,
					"inputs": [
						{
							"indexed": true,
							"internalType": "uint256",
							"name": "dramaId",
							"type": "uint256"
						},
						{
							"indexed": true,
							"internalType": "address",
							"name": "provider",
							"type": "address"
						}
					],
					"name": "Approved",
					"type": "event"
				},
				{
					"anonymous": false,
					"inputs": [
						{
							"indexed": false,
							"internalType": "string",
							"name": "name",
							"type": "string"
						},
						{
							"indexed": false,
							"internalType": "address",
							"name": "account",
							"type": "address"
						}
					],
					"name": "AuthorUpdated",
					"type": "event"
				},
				{
					"anonymous": false,
					"inputs": [
						{
							"indexed": false,
							"internalType": "address",
							"name": "agency",
							"type": "address"
						}
					],
					"name": "EvidenceAgencyUpdated",
					"type": "event"
				},
				{
					"anonymous": false,
					"inputs": [
						{
							"indexed": true,
							"internalType": "uint256",
							"name": "dramaId",
							"type": "uint256"
						},
						{
							"indexed": true,
							"internalType": "address",
							"name": "provider",
							"type": "address"
						},
						{
							"indexed": false,
							"internalType": "string",
							"name": "reason",
							"type": "string"
						}
					],
					"name": "Rejected",
					"type": "event"
				},
				{
					"anonymous": false,
					"inputs": [
						{
							"indexed": true,
							"internalType": "uint256",
							"name": "dramaId",
							"type": "uint256"
						},
						{
							"indexed": true,
							"internalType": "address",
							"name": "submitter",
							"type": "address"
						}
					],
					"name": "Submitted",
					"type": "event"
				},
				{
					"inputs": [],
					"name": "VERSION",
					"outputs": [
						{
							"internalType": "string",
							"name": "",
							"type": "string"
						}
					],
					"stateMutability": "view",
					"type": "function"
				},
				{
					"inputs": [
						{
							"internalType": "uint256",
							"name": "dramaId",
							"type": "uint256"
						}
					],
					"name": "approve",
					"outputs": [],
					"stateMutability": "nonpayable",
					"type": "function"
				},
				{
					"inputs": [],
					"name": "author",
					"outputs": [
						{
							"internalType": "string",
							"name": "name",
							"type": "string"
						},
						{
							"internalType": "address",
							"name": "account",
							"type": "address"
						},
						{
							"internalType": "bytes32",
							"name": "idHash",
							"type": "bytes32"
						},
						{
							"internalType": "string",
							"name": "contact",
							"type": "string"
						}
					],
					"stateMutability": "view",
					"type": "function"
				},
				{
					"inputs": [],
					"name": "chainId",
					"outputs": [
						{
							"internalType": "uint256",
							"name": "",
							"type": "uint256"
						}
					],
					"stateMutability": "view",
					"type": "function"
				},
				{
					"inputs": [
						{
							"components": [
								{
									"internalType": "bool",
									"name": "reproductionRight",
									"type": "bool"
								},
								{
									"internalType": "bool",
									"name": "distributionRight",
									"type": "bool"
								},
								{
									"internalType": "bool",
									"name": "networkCommunicationRight",
									"type": "bool"
								},
								{
									"internalType": "bool",
									"name": "adaptationRight",
									"type": "bool"
								},
								{
									"internalType": "bool",
									"name": "translationRight",
									"type": "bool"
								},
								{
									"internalType": "string",
									"name": "otherPropertyRights",
									"type": "string"
								}
							],
							"internalType": "struct CopyrightAgreementV1.RightsScope",
							"name": "scope",
							"type": "tuple"
						},
						{
							"internalType": "string",
							"name": "territory_",
							"type": "string"
						},
						{
							"internalType": "uint64",
							"name": "startAt",
							"type": "uint64"
						},
						{
							"internalType": "uint64",
							"name": "endAt",
							"type": "uint64"
						}
					],
					"name": "configureRights",
					"outputs": [],
					"stateMutability": "nonpayable",
					"type": "function"
				},
				{
					"inputs": [],
					"name": "contractNumber",
					"outputs": [
						{
							"internalType": "string",
							"name": "",
							"type": "string"
						}
					],
					"stateMutability": "view",
					"type": "function"
				},
				{
					"inputs": [],
					"name": "deployedAt",
					"outputs": [
						{
							"internalType": "uint64",
							"name": "",
							"type": "uint64"
						}
					],
					"stateMutability": "view",
					"type": "function"
				},
				{
					"inputs": [],
					"name": "evidenceAgency",
					"outputs": [
						{
							"internalType": "address",
							"name": "",
							"type": "address"
						}
					],
					"stateMutability": "view",
					"type": "function"
				},
				{
					"inputs": [
						{
							"internalType": "uint256",
							"name": "dramaId",
							"type": "uint256"
						}
					],
					"name": "getCopyrightInfo",
					"outputs": [
						{
							"internalType": "address",
							"name": "_author",
							"type": "address"
						},
						{
							"internalType": "string",
							"name": "_contentHash",
							"type": "string"
						},
						{
							"internalType": "string",
							"name": "_metadataJson",
							"type": "string"
						},
						{
							"internalType": "bool",
							"name": "_isActive",
							"type": "bool"
						},
						{
							"internalType": "uint64",
							"name": "_submittedAt",
							"type": "uint64"
						},
						{
							"internalType": "uint64",
							"name": "_approvedAt",
							"type": "uint64"
						}
					],
					"stateMutability": "view",
					"type": "function"
				},
				{
					"inputs": [],
					"name": "getSummary",
					"outputs": [
						{
							"internalType": "string",
							"name": "_number",
							"type": "string"
						},
						{
							"internalType": "string",
							"name": "_version",
							"type": "string"
						},
						{
							"internalType": "string",
							"name": "_networkName",
							"type": "string"
						},
						{
							"internalType": "uint256",
							"name": "_chainId",
							"type": "uint256"
						},
						{
							"internalType": "address",
							"name": "_address",
							"type": "address"
						},
						{
							"internalType": "uint64",
							"name": "_deployedAt",
							"type": "uint64"
						}
					],
					"stateMutability": "view",
					"type": "function"
				},
				{
					"inputs": [],
					"name": "networkName",
					"outputs": [
						{
							"internalType": "string",
							"name": "",
							"type": "string"
						}
					],
					"stateMutability": "view",
					"type": "function"
				},
				{
					"inputs": [],
					"name": "provider",
					"outputs": [
						{
							"internalType": "address",
							"name": "",
							"type": "address"
						}
					],
					"stateMutability": "view",
					"type": "function"
				},
				{
					"inputs": [
						{
							"internalType": "uint256",
							"name": "",
							"type": "uint256"
						}
					],
					"name": "records",
					"outputs": [
						{
							"internalType": "bool",
							"name": "exists",
							"type": "bool"
						},
						{
							"internalType": "address",
							"name": "submitter",
							"type": "address"
						},
						{
							"internalType": "string",
							"name": "contentHash",
							"type": "string"
						},
						{
							"internalType": "string",
							"name": "metadataJson",
							"type": "string"
						},
						{
							"internalType": "bool",
							"name": "isActive",
							"type": "bool"
						},
						{
							"internalType": "uint64",
							"name": "submittedAt",
							"type": "uint64"
						},
						{
							"internalType": "uint64",
							"name": "approvedAt",
							"type": "uint64"
						}
					],
					"stateMutability": "view",
					"type": "function"
				},
				{
					"inputs": [
						{
							"internalType": "uint256",
							"name": "dramaId",
							"type": "uint256"
						},
						{
							"internalType": "string",
							"name": "contentHash",
							"type": "string"
						},
						{
							"internalType": "string",
							"name": "metadataJson",
							"type": "string"
						}
					],
					"name": "registerCopyright",
					"outputs": [
						{
							"internalType": "bool",
							"name": "",
							"type": "bool"
						}
					],
					"stateMutability": "nonpayable",
					"type": "function"
				},
				{
					"inputs": [
						{
							"internalType": "uint256",
							"name": "dramaId",
							"type": "uint256"
						},
						{
							"internalType": "string",
							"name": "reason",
							"type": "string"
						}
					],
					"name": "reject",
					"outputs": [],
					"stateMutability": "nonpayable",
					"type": "function"
				},
				{
					"inputs": [],
					"name": "rights",
					"outputs": [
						{
							"internalType": "bool",
							"name": "reproductionRight",
							"type": "bool"
						},
						{
							"internalType": "bool",
							"name": "distributionRight",
							"type": "bool"
						},
						{
							"internalType": "bool",
							"name": "networkCommunicationRight",
							"type": "bool"
						},
						{
							"internalType": "bool",
							"name": "adaptationRight",
							"type": "bool"
						},
						{
							"internalType": "bool",
							"name": "translationRight",
							"type": "bool"
						},
						{
							"internalType": "string",
							"name": "otherPropertyRights",
							"type": "string"
						}
					],
					"stateMutability": "view",
					"type": "function"
				},
				{
					"inputs": [],
					"name": "rightsEndAt",
					"outputs": [
						{
							"internalType": "uint64",
							"name": "",
							"type": "uint64"
						}
					],
					"stateMutability": "view",
					"type": "function"
				},
				{
					"inputs": [],
					"name": "rightsStartAt",
					"outputs": [
						{
							"internalType": "uint64",
							"name": "",
							"type": "uint64"
						}
					],
					"stateMutability": "view",
					"type": "function"
				},
				{
					"inputs": [
						{
							"internalType": "string",
							"name": "name",
							"type": "string"
						},
						{
							"internalType": "address",
							"name": "account",
							"type": "address"
						},
						{
							"internalType": "bytes32",
							"name": "idHash",
							"type": "bytes32"
						},
						{
							"internalType": "string",
							"name": "contact",
							"type": "string"
						}
					],
					"name": "setAuthorInfo",
					"outputs": [],
					"stateMutability": "nonpayable",
					"type": "function"
				},
				{
					"inputs": [
						{
							"internalType": "address",
							"name": "agency",
							"type": "address"
						}
					],
					"name": "setEvidenceAgency",
					"outputs": [],
					"stateMutability": "nonpayable",
					"type": "function"
				},
				{
					"inputs": [],
					"name": "territory",
					"outputs": [
						{
							"internalType": "string",
							"name": "",
							"type": "string"
						}
					],
					"stateMutability": "view",
					"type": "function"
				}
			],
			"devdoc": {
				"kind": "dev",
				"methods": {},
				"version": 1
			},
			"evm": {
				"assembly": "    /* \"CopyrightAgreementV1.sol\":369:6797  contract CopyrightAgreementV1 {... */\n  mstore(0x40, 0xe0)\n    /* \"CopyrightAgreementV1.sol\":3146:3645  constructor(... */\n  callvalue\n  dup1\n  iszero\n  tag_1\n  jumpi\n  revert(0x00, 0x00)\ntag_1:\n  pop\n  mload(0x40)\n  sub(codesize, bytecodeSize)\n  dup1\n  bytecodeSize\n  dup4\n  codecopy\n  dup2\n  dup2\n  add\n  0x40\n  mstore\n  dup2\n  add\n  swap1\n  tag_2\n  swap2\n  swap1\n  tag_3\n  jump\t// in\ntag_2:\n    /* \"CopyrightAgreementV1.sol\":3399:3414  contractNumber_ */\n  dup5\n    /* \"CopyrightAgreementV1.sol\":3382:3396  contractNumber */\n  0x00\n    /* \"CopyrightAgreementV1.sol\":3382:3414  contractNumber = contractNumber_ */\n  swap1\n  dup2\n  tag_6\n  swap2\n  swap1\n  tag_7\n  jump\t// in\ntag_6:\n  pop\n    /* \"CopyrightAgreementV1.sol\":3435:3447  networkName_ */\n  dup4\n    /* \"CopyrightAgreementV1.sol\":3421:3432  networkName */\n  0x01\n    /* \"CopyrightAgreementV1.sol\":3421:3447  networkName = networkName_ */\n  swap1\n  dup2\n  tag_8\n  swap2\n  swap1\n  tag_7\n  jump\t// in\ntag_8:\n  pop\n    /* \"CopyrightAgreementV1.sol\":3464:3472  chainId_ */\n  dup3\n    /* \"CopyrightAgreementV1.sol\":3454:3472  chainId = chainId_ */\n  0x80\n  dup2\n  dup2\n  mstore\n  pop\n  pop\n    /* \"CopyrightAgreementV1.sol\":3499:3514  block.timestamp */\n  timestamp\n    /* \"CopyrightAgreementV1.sol\":3479:3515  deployedAt = uint64(block.timestamp) */\n  0xffffffffffffffff\n  and\n  0xa0\n  dup2\n  0xffffffffffffffff\n  and\n  dup2\n  mstore\n  pop\n  pop\n    /* \"CopyrightAgreementV1.sol\":3551:3552  0 */\n  0x00\n    /* \"CopyrightAgreementV1.sol\":3530:3553  provider_ != address(0) */\n  0xffffffffffffffffffffffffffffffffffffffff\n  and\n    /* \"CopyrightAgreementV1.sol\":3530:3539  provider_ */\n  dup3\n    /* \"CopyrightAgreementV1.sol\":3530:3553  provider_ != address(0) */\n  0xffffffffffffffffffffffffffffffffffffffff\n  and\n  sub\n    /* \"CopyrightAgreementV1.sol\":3522:3574  require(provider_ != address(0), \"INVALID_PROVIDER\") */\n  tag_9\n  jumpi\n  mload(0x40)\n  0x08c379a000000000000000000000000000000000000000000000000000000000\n  dup2\n  mstore\n  0x04\n  add\n  tag_10\n  swap1\n  tag_11\n  jump\t// in\ntag_10:\n  mload(0x40)\n  dup1\n  swap2\n  sub\n  swap1\n  revert\ntag_9:\n    /* \"CopyrightAgreementV1.sol\":3592:3601  provider_ */\n  dup2\n    /* \"CopyrightAgreementV1.sol\":3581:3601  provider = provider_ */\n  0xffffffffffffffffffffffffffffffffffffffff\n  and\n  0xc0\n  dup2\n  0xffffffffffffffffffffffffffffffffffffffff\n  and\n  dup2\n  mstore\n  pop\n  pop\n    /* \"CopyrightAgreementV1.sol\":3625:3639  authorAccount_ */\n  dup1\n    /* \"CopyrightAgreementV1.sol\":3608:3614  author */\n  0x02\n    /* \"CopyrightAgreementV1.sol\":3608:3622  author.account */\n  0x01\n  add\n  0x00\n    /* \"CopyrightAgreementV1.sol\":3608:3639  author.account = authorAccount_ */\n  0x0100\n  exp\n  dup2\n  sload\n  dup2\n  0xffffffffffffffffffffffffffffffffffffffff\n  mul\n  not\n  and\n  swap1\n  dup4\n  0xffffffffffffffffffffffffffffffffffffffff\n  and\n  mul\n  or\n  swap1\n  sstore\n  pop\n    /* \"CopyrightAgreementV1.sol\":3146:3645  constructor(... */\n  pop\n  pop\n  pop\n  pop\n  pop\n    /* \"CopyrightAgreementV1.sol\":369:6797  contract CopyrightAgreementV1 {... */\n  jump(tag_12)\n    /* \"#utility.yul\":7:82   */\ntag_13:\n    /* \"#utility.yul\":40:46   */\n  0x00\n    /* \"#utility.yul\":73:75   */\n  0x40\n    /* \"#utility.yul\":67:76   */\n  mload\n    /* \"#utility.yul\":57:76   */\n  swap1\n  pop\n    /* \"#utility.yul\":7:82   */\n  swap1\n  jump\t// out\n    /* \"#utility.yul\":88:205   */\ntag_14:\n    /* \"#utility.yul\":197:198   */\n  0x00\n    /* \"#utility.yul\":194:195   */\n  0x00\n    /* \"#utility.yul\":187:199   */\n  revert\n    /* \"#utility.yul\":211:328   */\ntag_15:\n    /* \"#utility.yul\":320:321   */\n  0x00\n    /* \"#utility.yul\":317:318   */\n  0x00\n    /* \"#utility.yul\":310:322   */\n  revert\n    /* \"#utility.yul\":334:451   */\ntag_16:\n    /* \"#utility.yul\":443:444   */\n  0x00\n    /* \"#utility.yul\":440:441   */\n  0x00\n    /* \"#utility.yul\":433:445   */\n  revert\n    /* \"#utility.yul\":457:574   */\ntag_17:\n    /* \"#utility.yul\":566:567   */\n  0x00\n    /* \"#utility.yul\":563:564   */\n  0x00\n    /* \"#utility.yul\":556:568   */\n  revert\n    /* \"#utility.yul\":580:682   */\ntag_18:\n    /* \"#utility.yul\":621:627   */\n  0x00\n    /* \"#utility.yul\":672:674   */\n  0x1f\n    /* \"#utility.yul\":668:675   */\n  not\n    /* \"#utility.yul\":663:665   */\n  0x1f\n    /* \"#utility.yul\":656:661   */\n  dup4\n    /* \"#utility.yul\":652:666   */\n  add\n    /* \"#utility.yul\":648:676   */\n  and\n    /* \"#utility.yul\":638:676   */\n  swap1\n  pop\n    /* \"#utility.yul\":580:682   */\n  swap2\n  swap1\n  pop\n  jump\t// out\n    /* \"#utility.yul\":688:868   */\ntag_19:\n    /* \"#utility.yul\":736:813   */\n  0x4e487b7100000000000000000000000000000000000000000000000000000000\n    /* \"#utility.yul\":733:734   */\n  0x00\n    /* \"#utility.yul\":726:814   */\n  mstore\n    /* \"#utility.yul\":833:837   */\n  0x41\n    /* \"#utility.yul\":830:831   */\n  0x04\n    /* \"#utility.yul\":823:838   */\n  mstore\n    /* \"#utility.yul\":857:861   */\n  0x24\n    /* \"#utility.yul\":854:855   */\n  0x00\n    /* \"#utility.yul\":847:862   */\n  revert\n    /* \"#utility.yul\":874:1155   */\ntag_20:\n    /* \"#utility.yul\":957:984   */\n  tag_63\n    /* \"#utility.yul\":979:983   */\n  dup3\n    /* \"#utility.yul\":957:984   */\n  tag_18\n  jump\t// in\ntag_63:\n    /* \"#utility.yul\":949:955   */\n  dup2\n    /* \"#utility.yul\":945:985   */\n  add\n    /* \"#utility.yul\":1087:1093   */\n  dup2\n    /* \"#utility.yul\":1075:1085   */\n  dup2\n    /* \"#utility.yul\":1072:1094   */\n  lt\n    /* \"#utility.yul\":1051:1069   */\n  0xffffffffffffffff\n    /* \"#utility.yul\":1039:1049   */\n  dup3\n    /* \"#utility.yul\":1036:1070   */\n  gt\n    /* \"#utility.yul\":1033:1095   */\n  or\n    /* \"#utility.yul\":1030:1118   */\n  iszero\n  tag_64\n  jumpi\n    /* \"#utility.yul\":1098:1116   */\n  tag_65\n  tag_19\n  jump\t// in\ntag_65:\n    /* \"#utility.yul\":1030:1118   */\ntag_64:\n    /* \"#utility.yul\":1138:1148   */\n  dup1\n    /* \"#utility.yul\":1134:1136   */\n  0x40\n    /* \"#utility.yul\":1127:1149   */\n  mstore\n    /* \"#utility.yul\":917:1155   */\n  pop\n    /* \"#utility.yul\":874:1155   */\n  pop\n  pop\n  jump\t// out\n    /* \"#utility.yul\":1161:1290   */\ntag_21:\n    /* \"#utility.yul\":1195:1201   */\n  0x00\n    /* \"#utility.yul\":1222:1242   */\n  tag_67\n  tag_13\n  jump\t// in\ntag_67:\n    /* \"#utility.yul\":1212:1242   */\n  swap1\n  pop\n    /* \"#utility.yul\":1251:1284   */\n  tag_68\n    /* \"#utility.yul\":1279:1283   */\n  dup3\n    /* \"#utility.yul\":1271:1277   */\n  dup3\n    /* \"#utility.yul\":1251:1284   */\n  tag_20\n  jump\t// in\ntag_68:\n    /* \"#utility.yul\":1161:1290   */\n  swap2\n  swap1\n  pop\n  jump\t// out\n    /* \"#utility.yul\":1296:1604   */\ntag_22:\n    /* \"#utility.yul\":1358:1362   */\n  0x00\n    /* \"#utility.yul\":1448:1466   */\n  0xffffffffffffffff\n    /* \"#utility.yul\":1440:1446   */\n  dup3\n    /* \"#utility.yul\":1437:1467   */\n  gt\n    /* \"#utility.yul\":1434:1490   */\n  iszero\n  tag_70\n  jumpi\n    /* \"#utility.yul\":1470:1488   */\n  tag_71\n  tag_19\n  jump\t// in\ntag_71:\n    /* \"#utility.yul\":1434:1490   */\ntag_70:\n    /* \"#utility.yul\":1508:1537   */\n  tag_72\n    /* \"#utility.yul\":1530:1536   */\n  dup3\n    /* \"#utility.yul\":1508:1537   */\n  tag_18\n  jump\t// in\ntag_72:\n    /* \"#utility.yul\":1500:1537   */\n  swap1\n  pop\n    /* \"#utility.yul\":1592:1596   */\n  0x20\n    /* \"#utility.yul\":1586:1590   */\n  dup2\n    /* \"#utility.yul\":1582:1597   */\n  add\n    /* \"#utility.yul\":1574:1597   */\n  swap1\n  pop\n    /* \"#utility.yul\":1296:1604   */\n  swap2\n  swap1\n  pop\n  jump\t// out\n    /* \"#utility.yul\":1610:1749   */\ntag_23:\n    /* \"#utility.yul\":1699:1705   */\n  dup3\n    /* \"#utility.yul\":1694:1697   */\n  dup2\n    /* \"#utility.yul\":1689:1692   */\n  dup4\n    /* \"#utility.yul\":1683:1706   */\n  mcopy\n    /* \"#utility.yul\":1740:1741   */\n  0x00\n    /* \"#utility.yul\":1731:1737   */\n  dup4\n    /* \"#utility.yul\":1726:1729   */\n  dup4\n    /* \"#utility.yul\":1722:1738   */\n  add\n    /* \"#utility.yul\":1715:1742   */\n  mstore\n    /* \"#utility.yul\":1610:1749   */\n  pop\n  pop\n  pop\n  jump\t// out\n    /* \"#utility.yul\":1755:2189   */\ntag_24:\n    /* \"#utility.yul\":1844:1849   */\n  0x00\n    /* \"#utility.yul\":1869:1935   */\n  tag_75\n    /* \"#utility.yul\":1885:1934   */\n  tag_76\n    /* \"#utility.yul\":1927:1933   */\n  dup5\n    /* \"#utility.yul\":1885:1934   */\n  tag_22\n  jump\t// in\ntag_76:\n    /* \"#utility.yul\":1869:1935   */\n  tag_21\n  jump\t// in\ntag_75:\n    /* \"#utility.yul\":1860:1935   */\n  swap1\n  pop\n    /* \"#utility.yul\":1958:1964   */\n  dup3\n    /* \"#utility.yul\":1951:1956   */\n  dup2\n    /* \"#utility.yul\":1944:1965   */\n  mstore\n    /* \"#utility.yul\":1996:2000   */\n  0x20\n    /* \"#utility.yul\":1989:1994   */\n  dup2\n    /* \"#utility.yul\":1985:2001   */\n  add\n    /* \"#utility.yul\":2034:2037   */\n  dup5\n    /* \"#utility.yul\":2025:2031   */\n  dup5\n    /* \"#utility.yul\":2020:2023   */\n  dup5\n    /* \"#utility.yul\":2016:2032   */\n  add\n    /* \"#utility.yul\":2013:2038   */\n  gt\n    /* \"#utility.yul\":2010:2122   */\n  iszero\n  tag_77\n  jumpi\n    /* \"#utility.yul\":2041:2120   */\n  tag_78\n  tag_17\n  jump\t// in\ntag_78:\n    /* \"#utility.yul\":2010:2122   */\ntag_77:\n    /* \"#utility.yul\":2131:2183   */\n  tag_79\n    /* \"#utility.yul\":2176:2182   */\n  dup5\n    /* \"#utility.yul\":2171:2174   */\n  dup3\n    /* \"#utility.yul\":2166:2169   */\n  dup6\n    /* \"#utility.yul\":2131:2183   */\n  tag_23\n  jump\t// in\ntag_79:\n    /* \"#utility.yul\":1850:2189   */\n  pop\n    /* \"#utility.yul\":1755:2189   */\n  swap4\n  swap3\n  pop\n  pop\n  pop\n  jump\t// out\n    /* \"#utility.yul\":2209:2564   */\ntag_25:\n    /* \"#utility.yul\":2276:2281   */\n  0x00\n    /* \"#utility.yul\":2325:2328   */\n  dup3\n    /* \"#utility.yul\":2318:2322   */\n  0x1f\n    /* \"#utility.yul\":2310:2316   */\n  dup4\n    /* \"#utility.yul\":2306:2323   */\n  add\n    /* \"#utility.yul\":2302:2329   */\n  slt\n    /* \"#utility.yul\":2292:2414   */\n  tag_81\n  jumpi\n    /* \"#utility.yul\":2333:2412   */\n  tag_82\n  tag_16\n  jump\t// in\ntag_82:\n    /* \"#utility.yul\":2292:2414   */\ntag_81:\n    /* \"#utility.yul\":2443:2449   */\n  dup2\n    /* \"#utility.yul\":2437:2450   */\n  mload\n    /* \"#utility.yul\":2468:2558   */\n  tag_83\n    /* \"#utility.yul\":2554:2557   */\n  dup5\n    /* \"#utility.yul\":2546:2552   */\n  dup3\n    /* \"#utility.yul\":2539:2543   */\n  0x20\n    /* \"#utility.yul\":2531:2537   */\n  dup7\n    /* \"#utility.yul\":2527:2544   */\n  add\n    /* \"#utility.yul\":2468:2558   */\n  tag_24\n  jump\t// in\ntag_83:\n    /* \"#utility.yul\":2459:2558   */\n  swap2\n  pop\n    /* \"#utility.yul\":2282:2564   */\n  pop\n    /* \"#utility.yul\":2209:2564   */\n  swap3\n  swap2\n  pop\n  pop\n  jump\t// out\n    /* \"#utility.yul\":2570:2647   */\ntag_26:\n    /* \"#utility.yul\":2607:2614   */\n  0x00\n    /* \"#utility.yul\":2636:2641   */\n  dup2\n    /* \"#utility.yul\":2625:2641   */\n  swap1\n  pop\n    /* \"#utility.yul\":2570:2647   */\n  swap2\n  swap1\n  pop\n  jump\t// out\n    /* \"#utility.yul\":2653:2775   */\ntag_27:\n    /* \"#utility.yul\":2726:2750   */\n  tag_86\n    /* \"#utility.yul\":2744:2749   */\n  dup2\n    /* \"#utility.yul\":2726:2750   */\n  tag_26\n  jump\t// in\ntag_86:\n    /* \"#utility.yul\":2719:2724   */\n  dup2\n    /* \"#utility.yul\":2716:2751   */\n  eq\n    /* \"#utility.yul\":2706:2769   */\n  tag_87\n  jumpi\n    /* \"#utility.yul\":2765:2766   */\n  0x00\n    /* \"#utility.yul\":2762:2763   */\n  0x00\n    /* \"#utility.yul\":2755:2767   */\n  revert\n    /* \"#utility.yul\":2706:2769   */\ntag_87:\n    /* \"#utility.yul\":2653:2775   */\n  pop\n  jump\t// out\n    /* \"#utility.yul\":2781:2924   */\ntag_28:\n    /* \"#utility.yul\":2838:2843   */\n  0x00\n    /* \"#utility.yul\":2869:2875   */\n  dup2\n    /* \"#utility.yul\":2863:2876   */\n  mload\n    /* \"#utility.yul\":2854:2876   */\n  swap1\n  pop\n    /* \"#utility.yul\":2885:2918   */\n  tag_89\n    /* \"#utility.yul\":2912:2917   */\n  dup2\n    /* \"#utility.yul\":2885:2918   */\n  tag_27\n  jump\t// in\ntag_89:\n    /* \"#utility.yul\":2781:2924   */\n  swap3\n  swap2\n  pop\n  pop\n  jump\t// out\n    /* \"#utility.yul\":2930:3056   */\ntag_29:\n    /* \"#utility.yul\":2967:2974   */\n  0x00\n    /* \"#utility.yul\":3007:3049   */\n  0xffffffffffffffffffffffffffffffffffffffff\n    /* \"#utility.yul\":3000:3005   */\n  dup3\n    /* \"#utility.yul\":2996:3050   */\n  and\n    /* \"#utility.yul\":2985:3050   */\n  swap1\n  pop\n    /* \"#utility.yul\":2930:3056   */\n  swap2\n  swap1\n  pop\n  jump\t// out\n    /* \"#utility.yul\":3062:3158   */\ntag_30:\n    /* \"#utility.yul\":3099:3106   */\n  0x00\n    /* \"#utility.yul\":3128:3152   */\n  tag_92\n    /* \"#utility.yul\":3146:3151   */\n  dup3\n    /* \"#utility.yul\":3128:3152   */\n  tag_29\n  jump\t// in\ntag_92:\n    /* \"#utility.yul\":3117:3152   */\n  swap1\n  pop\n    /* \"#utility.yul\":3062:3158   */\n  swap2\n  swap1\n  pop\n  jump\t// out\n    /* \"#utility.yul\":3164:3286   */\ntag_31:\n    /* \"#utility.yul\":3237:3261   */\n  tag_94\n    /* \"#utility.yul\":3255:3260   */\n  dup2\n    /* \"#utility.yul\":3237:3261   */\n  tag_30\n  jump\t// in\ntag_94:\n    /* \"#utility.yul\":3230:3235   */\n  dup2\n    /* \"#utility.yul\":3227:3262   */\n  eq\n    /* \"#utility.yul\":3217:3280   */\n  tag_95\n  jumpi\n    /* \"#utility.yul\":3276:3277   */\n  0x00\n    /* \"#utility.yul\":3273:3274   */\n  0x00\n    /* \"#utility.yul\":3266:3278   */\n  revert\n    /* \"#utility.yul\":3217:3280   */\ntag_95:\n    /* \"#utility.yul\":3164:3286   */\n  pop\n  jump\t// out\n    /* \"#utility.yul\":3292:3435   */\ntag_32:\n    /* \"#utility.yul\":3349:3354   */\n  0x00\n    /* \"#utility.yul\":3380:3386   */\n  dup2\n    /* \"#utility.yul\":3374:3387   */\n  mload\n    /* \"#utility.yul\":3365:3387   */\n  swap1\n  pop\n    /* \"#utility.yul\":3396:3429   */\n  tag_97\n    /* \"#utility.yul\":3423:3428   */\n  dup2\n    /* \"#utility.yul\":3396:3429   */\n  tag_31\n  jump\t// in\ntag_97:\n    /* \"#utility.yul\":3292:3435   */\n  swap3\n  swap2\n  pop\n  pop\n  jump\t// out\n    /* \"#utility.yul\":3441:4764   */\ntag_3:\n    /* \"#utility.yul\":3567:3573   */\n  0x00\n    /* \"#utility.yul\":3575:3581   */\n  0x00\n    /* \"#utility.yul\":3583:3589   */\n  0x00\n    /* \"#utility.yul\":3591:3597   */\n  0x00\n    /* \"#utility.yul\":3599:3605   */\n  0x00\n    /* \"#utility.yul\":3648:3651   */\n  0xa0\n    /* \"#utility.yul\":3636:3645   */\n  dup7\n    /* \"#utility.yul\":3627:3634   */\n  dup9\n    /* \"#utility.yul\":3623:3646   */\n  sub\n    /* \"#utility.yul\":3619:3652   */\n  slt\n    /* \"#utility.yul\":3616:3736   */\n  iszero\n  tag_99\n  jumpi\n    /* \"#utility.yul\":3655:3734   */\n  tag_100\n  tag_14\n  jump\t// in\ntag_100:\n    /* \"#utility.yul\":3616:3736   */\ntag_99:\n    /* \"#utility.yul\":3796:3797   */\n  0x00\n    /* \"#utility.yul\":3785:3794   */\n  dup7\n    /* \"#utility.yul\":3781:3798   */\n  add\n    /* \"#utility.yul\":3775:3799   */\n  mload\n    /* \"#utility.yul\":3826:3844   */\n  0xffffffffffffffff\n    /* \"#utility.yul\":3818:3824   */\n  dup2\n    /* \"#utility.yul\":3815:3845   */\n  gt\n    /* \"#utility.yul\":3812:3929   */\n  iszero\n  tag_101\n  jumpi\n    /* \"#utility.yul\":3848:3927   */\n  tag_102\n  tag_15\n  jump\t// in\ntag_102:\n    /* \"#utility.yul\":3812:3929   */\ntag_101:\n    /* \"#utility.yul\":3953:4027   */\n  tag_103\n    /* \"#utility.yul\":4019:4026   */\n  dup9\n    /* \"#utility.yul\":4010:4016   */\n  dup3\n    /* \"#utility.yul\":3999:4008   */\n  dup10\n    /* \"#utility.yul\":3995:4017   */\n  add\n    /* \"#utility.yul\":3953:4027   */\n  tag_25\n  jump\t// in\ntag_103:\n    /* \"#utility.yul\":3943:4027   */\n  swap6\n  pop\n    /* \"#utility.yul\":3746:4037   */\n  pop\n    /* \"#utility.yul\":4097:4099   */\n  0x20\n    /* \"#utility.yul\":4086:4095   */\n  dup7\n    /* \"#utility.yul\":4082:4100   */\n  add\n    /* \"#utility.yul\":4076:4101   */\n  mload\n    /* \"#utility.yul\":4128:4146   */\n  0xffffffffffffffff\n    /* \"#utility.yul\":4120:4126   */\n  dup2\n    /* \"#utility.yul\":4117:4147   */\n  gt\n    /* \"#utility.yul\":4114:4231   */\n  iszero\n  tag_104\n  jumpi\n    /* \"#utility.yul\":4150:4229   */\n  tag_105\n  tag_15\n  jump\t// in\ntag_105:\n    /* \"#utility.yul\":4114:4231   */\ntag_104:\n    /* \"#utility.yul\":4255:4329   */\n  tag_106\n    /* \"#utility.yul\":4321:4328   */\n  dup9\n    /* \"#utility.yul\":4312:4318   */\n  dup3\n    /* \"#utility.yul\":4301:4310   */\n  dup10\n    /* \"#utility.yul\":4297:4319   */\n  add\n    /* \"#utility.yul\":4255:4329   */\n  tag_25\n  jump\t// in\ntag_106:\n    /* \"#utility.yul\":4245:4329   */\n  swap5\n  pop\n    /* \"#utility.yul\":4047:4339   */\n  pop\n    /* \"#utility.yul\":4378:4380   */\n  0x40\n    /* \"#utility.yul\":4404:4468   */\n  tag_107\n    /* \"#utility.yul\":4460:4467   */\n  dup9\n    /* \"#utility.yul\":4451:4457   */\n  dup3\n    /* \"#utility.yul\":4440:4449   */\n  dup10\n    /* \"#utility.yul\":4436:4458   */\n  add\n    /* \"#utility.yul\":4404:4468   */\n  tag_28\n  jump\t// in\ntag_107:\n    /* \"#utility.yul\":4394:4468   */\n  swap4\n  pop\n    /* \"#utility.yul\":4349:4478   */\n  pop\n    /* \"#utility.yul\":4517:4519   */\n  0x60\n    /* \"#utility.yul\":4543:4607   */\n  tag_108\n    /* \"#utility.yul\":4599:4606   */\n  dup9\n    /* \"#utility.yul\":4590:4596   */\n  dup3\n    /* \"#utility.yul\":4579:4588   */\n  dup10\n    /* \"#utility.yul\":4575:4597   */\n  add\n    /* \"#utility.yul\":4543:4607   */\n  tag_32\n  jump\t// in\ntag_108:\n    /* \"#utility.yul\":4533:4607   */\n  swap3\n  pop\n    /* \"#utility.yul\":4488:4617   */\n  pop\n    /* \"#utility.yul\":4656:4659   */\n  0x80\n    /* \"#utility.yul\":4683:4747   */\n  tag_109\n    /* \"#utility.yul\":4739:4746   */\n  dup9\n    /* \"#utility.yul\":4730:4736   */\n  dup3\n    /* \"#utility.yul\":4719:4728   */\n  dup10\n    /* \"#utility.yul\":4715:4737   */\n  add\n    /* \"#utility.yul\":4683:4747   */\n  tag_32\n  jump\t// in\ntag_109:\n    /* \"#utility.yul\":4673:4747   */\n  swap2\n  pop\n    /* \"#utility.yul\":4627:4757   */\n  pop\n    /* \"#utility.yul\":3441:4764   */\n  swap3\n  swap6\n  pop\n  swap3\n  swap6\n  swap1\n  swap4\n  pop\n  jump\t// out\n    /* \"#utility.yul\":4770:4869   */\ntag_33:\n    /* \"#utility.yul\":4822:4828   */\n  0x00\n    /* \"#utility.yul\":4856:4861   */\n  dup2\n    /* \"#utility.yul\":4850:4862   */\n  mload\n    /* \"#utility.yul\":4840:4862   */\n  swap1\n  pop\n    /* \"#utility.yul\":4770:4869   */\n  swap2\n  swap1\n  pop\n  jump\t// out\n    /* \"#utility.yul\":4875:5055   */\ntag_34:\n    /* \"#utility.yul\":4923:5000   */\n  0x4e487b7100000000000000000000000000000000000000000000000000000000\n    /* \"#utility.yul\":4920:4921   */\n  0x00\n    /* \"#utility.yul\":4913:5001   */\n  mstore\n    /* \"#utility.yul\":5020:5024   */\n  0x22\n    /* \"#utility.yul\":5017:5018   */\n  0x04\n    /* \"#utility.yul\":5010:5025   */\n  mstore\n    /* \"#utility.yul\":5044:5048   */\n  0x24\n    /* \"#utility.yul\":5041:5042   */\n  0x00\n    /* \"#utility.yul\":5034:5049   */\n  revert\n    /* \"#utility.yul\":5061:5381   */\ntag_35:\n    /* \"#utility.yul\":5105:5111   */\n  0x00\n    /* \"#utility.yul\":5142:5143   */\n  0x02\n    /* \"#utility.yul\":5136:5140   */\n  dup3\n    /* \"#utility.yul\":5132:5144   */\n  div\n    /* \"#utility.yul\":5122:5144   */\n  swap1\n  pop\n    /* \"#utility.yul\":5189:5190   */\n  0x01\n    /* \"#utility.yul\":5183:5187   */\n  dup3\n    /* \"#utility.yul\":5179:5191   */\n  and\n    /* \"#utility.yul\":5210:5228   */\n  dup1\n    /* \"#utility.yul\":5200:5281   */\n  tag_113\n  jumpi\n    /* \"#utility.yul\":5266:5270   */\n  0x7f\n    /* \"#utility.yul\":5258:5264   */\n  dup3\n    /* \"#utility.yul\":5254:5271   */\n  and\n    /* \"#utility.yul\":5244:5271   */\n  swap2\n  pop\n    /* \"#utility.yul\":5200:5281   */\ntag_113:\n    /* \"#utility.yul\":5328:5330   */\n  0x20\n    /* \"#utility.yul\":5320:5326   */\n  dup3\n    /* \"#utility.yul\":5317:5331   */\n  lt\n    /* \"#utility.yul\":5297:5315   */\n  dup2\n    /* \"#utility.yul\":5294:5332   */\n  sub\n    /* \"#utility.yul\":5291:5375   */\n  tag_114\n  jumpi\n    /* \"#utility.yul\":5347:5365   */\n  tag_115\n  tag_34\n  jump\t// in\ntag_115:\n    /* \"#utility.yul\":5291:5375   */\ntag_114:\n    /* \"#utility.yul\":5112:5381   */\n  pop\n    /* \"#utility.yul\":5061:5381   */\n  swap2\n  swap1\n  pop\n  jump\t// out\n    /* \"#utility.yul\":5387:5528   */\ntag_36:\n    /* \"#utility.yul\":5436:5440   */\n  0x00\n    /* \"#utility.yul\":5459:5462   */\n  dup2\n    /* \"#utility.yul\":5451:5462   */\n  swap1\n  pop\n    /* \"#utility.yul\":5482:5485   */\n  dup2\n    /* \"#utility.yul\":5479:5480   */\n  0x00\n    /* \"#utility.yul\":5472:5486   */\n  mstore\n    /* \"#utility.yul\":5516:5520   */\n  0x20\n    /* \"#utility.yul\":5513:5514   */\n  0x00\n    /* \"#utility.yul\":5503:5521   */\n  keccak256\n    /* \"#utility.yul\":5495:5521   */\n  swap1\n  pop\n    /* \"#utility.yul\":5387:5528   */\n  swap2\n  swap1\n  pop\n  jump\t// out\n    /* \"#utility.yul\":5534:5627   */\ntag_37:\n    /* \"#utility.yul\":5571:5577   */\n  0x00\n    /* \"#utility.yul\":5618:5620   */\n  0x20\n    /* \"#utility.yul\":5613:5615   */\n  0x1f\n    /* \"#utility.yul\":5606:5611   */\n  dup4\n    /* \"#utility.yul\":5602:5616   */\n  add\n    /* \"#utility.yul\":5598:5621   */\n  div\n    /* \"#utility.yul\":5588:5621   */\n  swap1\n  pop\n    /* \"#utility.yul\":5534:5627   */\n  swap2\n  swap1\n  pop\n  jump\t// out\n    /* \"#utility.yul\":5633:5740   */\ntag_38:\n    /* \"#utility.yul\":5677:5685   */\n  0x00\n    /* \"#utility.yul\":5727:5732   */\n  dup3\n    /* \"#utility.yul\":5721:5725   */\n  dup3\n    /* \"#utility.yul\":5717:5733   */\n  shl\n    /* \"#utility.yul\":5696:5733   */\n  swap1\n  pop\n    /* \"#utility.yul\":5633:5740   */\n  swap3\n  swap2\n  pop\n  pop\n  jump\t// out\n    /* \"#utility.yul\":5746:6139   */\ntag_39:\n    /* \"#utility.yul\":5815:5821   */\n  0x00\n    /* \"#utility.yul\":5865:5866   */\n  0x08\n    /* \"#utility.yul\":5853:5863   */\n  dup4\n    /* \"#utility.yul\":5849:5867   */\n  mul\n    /* \"#utility.yul\":5888:5985   */\n  tag_120\n    /* \"#utility.yul\":5918:5984   */\n  0xffffffffffffffffffffffffffffffffffffffffffffffffffffffffffffffff\n    /* \"#utility.yul\":5907:5916   */\n  dup3\n    /* \"#utility.yul\":5888:5985   */\n  tag_38\n  jump\t// in\ntag_120:\n    /* \"#utility.yul\":6006:6045   */\n  tag_121\n    /* \"#utility.yul\":6036:6044   */\n  dup7\n    /* \"#utility.yul\":6025:6034   */\n  dup4\n    /* \"#utility.yul\":6006:6045   */\n  tag_38\n  jump\t// in\ntag_121:\n    /* \"#utility.yul\":5994:6045   */\n  swap6\n  pop\n    /* \"#utility.yul\":6078:6082   */\n  dup1\n    /* \"#utility.yul\":6074:6083   */\n  not\n    /* \"#utility.yul\":6067:6072   */\n  dup5\n    /* \"#utility.yul\":6063:6084   */\n  and\n    /* \"#utility.yul\":6054:6084   */\n  swap4\n  pop\n    /* \"#utility.yul\":6127:6131   */\n  dup1\n    /* \"#utility.yul\":6117:6125   */\n  dup7\n    /* \"#utility.yul\":6113:6132   */\n  and\n    /* \"#utility.yul\":6106:6111   */\n  dup5\n    /* \"#utility.yul\":6103:6133   */\n  or\n    /* \"#utility.yul\":6093:6133   */\n  swap3\n  pop\n    /* \"#utility.yul\":5822:6139   */\n  pop\n  pop\n    /* \"#utility.yul\":5746:6139   */\n  swap4\n  swap3\n  pop\n  pop\n  pop\n  jump\t// out\n    /* \"#utility.yul\":6145:6205   */\ntag_40:\n    /* \"#utility.yul\":6173:6176   */\n  0x00\n    /* \"#utility.yul\":6194:6199   */\n  dup2\n    /* \"#utility.yul\":6187:6199   */\n  swap1\n  pop\n    /* \"#utility.yul\":6145:6205   */\n  swap2\n  swap1\n  pop\n  jump\t// out\n    /* \"#utility.yul\":6211:6353   */\ntag_41:\n    /* \"#utility.yul\":6261:6270   */\n  0x00\n    /* \"#utility.yul\":6294:6347   */\n  tag_124\n    /* \"#utility.yul\":6312:6346   */\n  tag_125\n    /* \"#utility.yul\":6321:6345   */\n  tag_126\n    /* \"#utility.yul\":6339:6344   */\n  dup5\n    /* \"#utility.yul\":6321:6345   */\n  tag_26\n  jump\t// in\ntag_126:\n    /* \"#utility.yul\":6312:6346   */\n  tag_40\n  jump\t// in\ntag_125:\n    /* \"#utility.yul\":6294:6347   */\n  tag_26\n  jump\t// in\ntag_124:\n    /* \"#utility.yul\":6281:6347   */\n  swap1\n  pop\n    /* \"#utility.yul\":6211:6353   */\n  swap2\n  swap1\n  pop\n  jump\t// out\n    /* \"#utility.yul\":6359:6434   */\ntag_42:\n    /* \"#utility.yul\":6402:6405   */\n  0x00\n    /* \"#utility.yul\":6423:6428   */\n  dup2\n    /* \"#utility.yul\":6416:6428   */\n  swap1\n  pop\n    /* \"#utility.yul\":6359:6434   */\n  swap2\n  swap1\n  pop\n  jump\t// out\n    /* \"#utility.yul\":6440:6709   */\ntag_43:\n    /* \"#utility.yul\":6550:6589   */\n  tag_129\n    /* \"#utility.yul\":6581:6588   */\n  dup4\n    /* \"#utility.yul\":6550:6589   */\n  tag_41\n  jump\t// in\ntag_129:\n    /* \"#utility.yul\":6611:6702   */\n  tag_130\n    /* \"#utility.yul\":6660:6701   */\n  tag_131\n    /* \"#utility.yul\":6684:6700   */\n  dup3\n    /* \"#utility.yul\":6660:6701   */\n  tag_42\n  jump\t// in\ntag_131:\n    /* \"#utility.yul\":6652:6658   */\n  dup5\n    /* \"#utility.yul\":6645:6649   */\n  dup5\n    /* \"#utility.yul\":6639:6650   */\n  sload\n    /* \"#utility.yul\":6611:6702   */\n  tag_39\n  jump\t// in\ntag_130:\n    /* \"#utility.yul\":6605:6609   */\n  dup3\n    /* \"#utility.yul\":6598:6703   */\n  sstore\n    /* \"#utility.yul\":6516:6709   */\n  pop\n    /* \"#utility.yul\":6440:6709   */\n  pop\n  pop\n  pop\n  jump\t// out\n    /* \"#utility.yul\":6715:6788   */\ntag_44:\n    /* \"#utility.yul\":6760:6763   */\n  0x00\n    /* \"#utility.yul\":6781:6782   */\n  0x00\n    /* \"#utility.yul\":6774:6782   */\n  swap1\n  pop\n    /* \"#utility.yul\":6715:6788   */\n  swap1\n  jump\t// out\n    /* \"#utility.yul\":6794:6983   */\ntag_45:\n    /* \"#utility.yul\":6871:6903   */\n  tag_134\n  tag_44\n  jump\t// in\ntag_134:\n    /* \"#utility.yul\":6912:6977   */\n  tag_135\n    /* \"#utility.yul\":6970:6976   */\n  dup2\n    /* \"#utility.yul\":6962:6968   */\n  dup5\n    /* \"#utility.yul\":6956:6960   */\n  dup5\n    /* \"#utility.yul\":6912:6977   */\n  tag_43\n  jump\t// in\ntag_135:\n    /* \"#utility.yul\":6847:6983   */\n  pop\n    /* \"#utility.yul\":6794:6983   */\n  pop\n  pop\n  jump\t// out\n    /* \"#utility.yul\":6989:7175   */\ntag_46:\n    /* \"#utility.yul\":7049:7169   */\ntag_137:\n    /* \"#utility.yul\":7066:7069   */\n  dup2\n    /* \"#utility.yul\":7059:7064   */\n  dup2\n    /* \"#utility.yul\":7056:7070   */\n  lt\n    /* \"#utility.yul\":7049:7169   */\n  iszero\n  tag_139\n  jumpi\n    /* \"#utility.yul\":7120:7159   */\n  tag_140\n    /* \"#utility.yul\":7157:7158   */\n  0x00\n    /* \"#utility.yul\":7150:7155   */\n  dup3\n    /* \"#utility.yul\":7120:7159   */\n  tag_45\n  jump\t// in\ntag_140:\n    /* \"#utility.yul\":7093:7094   */\n  0x01\n    /* \"#utility.yul\":7086:7091   */\n  dup2\n    /* \"#utility.yul\":7082:7095   */\n  add\n    /* \"#utility.yul\":7073:7095   */\n  swap1\n  pop\n    /* \"#utility.yul\":7049:7169   */\n  jump(tag_137)\ntag_139:\n    /* \"#utility.yul\":6989:7175   */\n  pop\n  pop\n  jump\t// out\n    /* \"#utility.yul\":7181:7724   */\ntag_47:\n    /* \"#utility.yul\":7282:7284   */\n  0x1f\n    /* \"#utility.yul\":7277:7280   */\n  dup3\n    /* \"#utility.yul\":7274:7285   */\n  gt\n    /* \"#utility.yul\":7271:7717   */\n  iszero\n  tag_142\n  jumpi\n    /* \"#utility.yul\":7316:7354   */\n  tag_143\n    /* \"#utility.yul\":7348:7353   */\n  dup2\n    /* \"#utility.yul\":7316:7354   */\n  tag_36\n  jump\t// in\ntag_143:\n    /* \"#utility.yul\":7400:7429   */\n  tag_144\n    /* \"#utility.yul\":7418:7428   */\n  dup5\n    /* \"#utility.yul\":7400:7429   */\n  tag_37\n  jump\t// in\ntag_144:\n    /* \"#utility.yul\":7390:7398   */\n  dup2\n    /* \"#utility.yul\":7386:7430   */\n  add\n    /* \"#utility.yul\":7583:7585   */\n  0x20\n    /* \"#utility.yul\":7571:7581   */\n  dup6\n    /* \"#utility.yul\":7568:7586   */\n  lt\n    /* \"#utility.yul\":7565:7614   */\n  iszero\n  tag_145\n  jumpi\n    /* \"#utility.yul\":7604:7612   */\n  dup2\n    /* \"#utility.yul\":7589:7612   */\n  swap1\n  pop\n    /* \"#utility.yul\":7565:7614   */\ntag_145:\n    /* \"#utility.yul\":7627:7707   */\n  tag_146\n    /* \"#utility.yul\":7683:7705   */\n  tag_147\n    /* \"#utility.yul\":7701:7704   */\n  dup6\n    /* \"#utility.yul\":7683:7705   */\n  tag_37\n  jump\t// in\ntag_147:\n    /* \"#utility.yul\":7673:7681   */\n  dup4\n    /* \"#utility.yul\":7669:7706   */\n  add\n    /* \"#utility.yul\":7656:7667   */\n  dup3\n    /* \"#utility.yul\":7627:7707   */\n  tag_46\n  jump\t// in\ntag_146:\n    /* \"#utility.yul\":7286:7717   */\n  pop\n  pop\n    /* \"#utility.yul\":7271:7717   */\ntag_142:\n    /* \"#utility.yul\":7181:7724   */\n  pop\n  pop\n  pop\n  jump\t// out\n    /* \"#utility.yul\":7730:7847   */\ntag_48:\n    /* \"#utility.yul\":7784:7792   */\n  0x00\n    /* \"#utility.yul\":7834:7839   */\n  dup3\n    /* \"#utility.yul\":7828:7832   */\n  dup3\n    /* \"#utility.yul\":7824:7840   */\n  shr\n    /* \"#utility.yul\":7803:7840   */\n  swap1\n  pop\n    /* \"#utility.yul\":7730:7847   */\n  swap3\n  swap2\n  pop\n  pop\n  jump\t// out\n    /* \"#utility.yul\":7853:8022   */\ntag_49:\n    /* \"#utility.yul\":7897:7903   */\n  0x00\n    /* \"#utility.yul\":7930:7981   */\n  tag_150\n    /* \"#utility.yul\":7978:7979   */\n  0x00\n    /* \"#utility.yul\":7974:7980   */\n  not\n    /* \"#utility.yul\":7966:7971   */\n  dup5\n    /* \"#utility.yul\":7963:7964   */\n  0x08\n    /* \"#utility.yul\":7959:7972   */\n  mul\n    /* \"#utility.yul\":7930:7981   */\n  tag_48\n  jump\t// in\ntag_150:\n    /* \"#utility.yul\":7926:7982   */\n  not\n    /* \"#utility.yul\":8011:8015   */\n  dup1\n    /* \"#utility.yul\":8005:8009   */\n  dup4\n    /* \"#utility.yul\":8001:8016   */\n  and\n    /* \"#utility.yul\":7991:8016   */\n  swap2\n  pop\n    /* \"#utility.yul\":7904:8022   */\n  pop\n    /* \"#utility.yul\":7853:8022   */\n  swap3\n  swap2\n  pop\n  pop\n  jump\t// out\n    /* \"#utility.yul\":8027:8322   */\ntag_50:\n    /* \"#utility.yul\":8103:8107   */\n  0x00\n    /* \"#utility.yul\":8249:8278   */\n  tag_152\n    /* \"#utility.yul\":8274:8277   */\n  dup4\n    /* \"#utility.yul\":8268:8272   */\n  dup4\n    /* \"#utility.yul\":8249:8278   */\n  tag_49\n  jump\t// in\ntag_152:\n    /* \"#utility.yul\":8241:8278   */\n  swap2\n  pop\n    /* \"#utility.yul\":8311:8314   */\n  dup3\n    /* \"#utility.yul\":8308:8309   */\n  0x02\n    /* \"#utility.yul\":8304:8315   */\n  mul\n    /* \"#utility.yul\":8298:8302   */\n  dup3\n    /* \"#utility.yul\":8295:8316   */\n  or\n    /* \"#utility.yul\":8287:8316   */\n  swap1\n  pop\n    /* \"#utility.yul\":8027:8322   */\n  swap3\n  swap2\n  pop\n  pop\n  jump\t// out\n    /* \"#utility.yul\":8327:9722   */\ntag_7:\n    /* \"#utility.yul\":8444:8481   */\n  tag_154\n    /* \"#utility.yul\":8477:8480   */\n  dup3\n    /* \"#utility.yul\":8444:8481   */\n  tag_33\n  jump\t// in\ntag_154:\n    /* \"#utility.yul\":8546:8564   */\n  0xffffffffffffffff\n    /* \"#utility.yul\":8538:8544   */\n  dup2\n    /* \"#utility.yul\":8535:8565   */\n  gt\n    /* \"#utility.yul\":8532:8588   */\n  iszero\n  tag_155\n  jumpi\n    /* \"#utility.yul\":8568:8586   */\n  tag_156\n  tag_19\n  jump\t// in\ntag_156:\n    /* \"#utility.yul\":8532:8588   */\ntag_155:\n    /* \"#utility.yul\":8612:8650   */\n  tag_157\n    /* \"#utility.yul\":8644:8648   */\n  dup3\n    /* \"#utility.yul\":8638:8649   */\n  sload\n    /* \"#utility.yul\":8612:8650   */\n  tag_35\n  jump\t// in\ntag_157:\n    /* \"#utility.yul\":8697:8764   */\n  tag_158\n    /* \"#utility.yul\":8757:8763   */\n  dup3\n    /* \"#utility.yul\":8749:8755   */\n  dup3\n    /* \"#utility.yul\":8743:8747   */\n  dup6\n    /* \"#utility.yul\":8697:8764   */\n  tag_47\n  jump\t// in\ntag_158:\n    /* \"#utility.yul\":8791:8792   */\n  0x00\n    /* \"#utility.yul\":8815:8819   */\n  0x20\n    /* \"#utility.yul\":8802:8819   */\n  swap1\n  pop\n    /* \"#utility.yul\":8847:8849   */\n  0x1f\n    /* \"#utility.yul\":8839:8845   */\n  dup4\n    /* \"#utility.yul\":8836:8850   */\n  gt\n    /* \"#utility.yul\":8864:8865   */\n  0x01\n    /* \"#utility.yul\":8859:9477   */\n  dup2\n  eq\n  tag_160\n  jumpi\n    /* \"#utility.yul\":9521:9522   */\n  0x00\n    /* \"#utility.yul\":9538:9544   */\n  dup5\n    /* \"#utility.yul\":9535:9612   */\n  iszero\n  tag_161\n  jumpi\n    /* \"#utility.yul\":9587:9596   */\n  dup3\n    /* \"#utility.yul\":9582:9585   */\n  dup8\n    /* \"#utility.yul\":9578:9597   */\n  add\n    /* \"#utility.yul\":9572:9598   */\n  mload\n    /* \"#utility.yul\":9563:9598   */\n  swap1\n  pop\n    /* \"#utility.yul\":9535:9612   */\ntag_161:\n    /* \"#utility.yul\":9638:9705   */\n  tag_162\n    /* \"#utility.yul\":9698:9704   */\n  dup6\n    /* \"#utility.yul\":9691:9696   */\n  dup3\n    /* \"#utility.yul\":9638:9705   */\n  tag_50\n  jump\t// in\ntag_162:\n    /* \"#utility.yul\":9632:9636   */\n  dup7\n    /* \"#utility.yul\":9625:9706   */\n  sstore\n    /* \"#utility.yul\":9494:9716   */\n  pop\n    /* \"#utility.yul\":8829:9716   */\n  jump(tag_159)\n    /* \"#utility.yul\":8859:9477   */\ntag_160:\n    /* \"#utility.yul\":8911:8915   */\n  0x1f\n    /* \"#utility.yul\":8907:8916   */\n  not\n    /* \"#utility.yul\":8899:8905   */\n  dup5\n    /* \"#utility.yul\":8895:8917   */\n  and\n    /* \"#utility.yul\":8945:8982   */\n  tag_163\n    /* \"#utility.yul\":8977:8981   */\n  dup7\n    /* \"#utility.yul\":8945:8982   */\n  tag_36\n  jump\t// in\ntag_163:\n    /* \"#utility.yul\":9004:9005   */\n  0x00\n    /* \"#utility.yul\":9018:9226   */\ntag_164:\n    /* \"#utility.yul\":9032:9039   */\n  dup3\n    /* \"#utility.yul\":9029:9030   */\n  dup2\n    /* \"#utility.yul\":9026:9040   */\n  lt\n    /* \"#utility.yul\":9018:9226   */\n  iszero\n  tag_166\n  jumpi\n    /* \"#utility.yul\":9111:9120   */\n  dup5\n    /* \"#utility.yul\":9106:9109   */\n  dup10\n    /* \"#utility.yul\":9102:9121   */\n  add\n    /* \"#utility.yul\":9096:9122   */\n  mload\n    /* \"#utility.yul\":9088:9094   */\n  dup3\n    /* \"#utility.yul\":9081:9123   */\n  sstore\n    /* \"#utility.yul\":9162:9163   */\n  0x01\n    /* \"#utility.yul\":9154:9160   */\n  dup3\n    /* \"#utility.yul\":9150:9164   */\n  add\n    /* \"#utility.yul\":9140:9164   */\n  swap2\n  pop\n    /* \"#utility.yul\":9209:9211   */\n  0x20\n    /* \"#utility.yul\":9198:9207   */\n  dup6\n    /* \"#utility.yul\":9194:9212   */\n  add\n    /* \"#utility.yul\":9181:9212   */\n  swap5\n  pop\n    /* \"#utility.yul\":9055:9059   */\n  0x20\n    /* \"#utility.yul\":9052:9053   */\n  dup2\n    /* \"#utility.yul\":9048:9060   */\n  add\n    /* \"#utility.yul\":9043:9060   */\n  swap1\n  pop\n    /* \"#utility.yul\":9018:9226   */\n  jump(tag_164)\ntag_166:\n    /* \"#utility.yul\":9254:9260   */\n  dup7\n    /* \"#utility.yul\":9245:9252   */\n  dup4\n    /* \"#utility.yul\":9242:9261   */\n  lt\n    /* \"#utility.yul\":9239:9418   */\n  iszero\n  tag_167\n  jumpi\n    /* \"#utility.yul\":9312:9321   */\n  dup5\n    /* \"#utility.yul\":9307:9310   */\n  dup10\n    /* \"#utility.yul\":9303:9322   */\n  add\n    /* \"#utility.yul\":9297:9323   */\n  mload\n    /* \"#utility.yul\":9355:9403   */\n  tag_168\n    /* \"#utility.yul\":9397:9401   */\n  0x1f\n    /* \"#utility.yul\":9389:9395   */\n  dup10\n    /* \"#utility.yul\":9385:9402   */\n  and\n    /* \"#utility.yul\":9374:9383   */\n  dup3\n    /* \"#utility.yul\":9355:9403   */\n  tag_49\n  jump\t// in\ntag_168:\n    /* \"#utility.yul\":9347:9353   */\n  dup4\n    /* \"#utility.yul\":9340:9404   */\n  sstore\n    /* \"#utility.yul\":9262:9418   */\n  pop\n    /* \"#utility.yul\":9239:9418   */\ntag_167:\n    /* \"#utility.yul\":9464:9465   */\n  0x01\n    /* \"#utility.yul\":9460:9461   */\n  0x02\n    /* \"#utility.yul\":9452:9458   */\n  dup9\n    /* \"#utility.yul\":9448:9462   */\n  mul\n    /* \"#utility.yul\":9444:9466   */\n  add\n    /* \"#utility.yul\":9438:9442   */\n  dup9\n    /* \"#utility.yul\":9431:9467   */\n  sstore\n    /* \"#utility.yul\":8866:9477   */\n  pop\n  pop\n  pop\n    /* \"#utility.yul\":8829:9716   */\ntag_159:\n  pop\n    /* \"#utility.yul\":8419:9722   */\n  pop\n  pop\n  pop\n    /* \"#utility.yul\":8327:9722   */\n  pop\n  pop\n  jump\t// out\n    /* \"#utility.yul\":9728:9897   */\ntag_51:\n    /* \"#utility.yul\":9812:9823   */\n  0x00\n    /* \"#utility.yul\":9846:9852   */\n  dup3\n    /* \"#utility.yul\":9841:9844   */\n  dup3\n    /* \"#utility.yul\":9834:9853   */\n  mstore\n    /* \"#utility.yul\":9886:9890   */\n  0x20\n    /* \"#utility.yul\":9881:9884   */\n  dup3\n    /* \"#utility.yul\":9877:9891   */\n  add\n    /* \"#utility.yul\":9862:9891   */\n  swap1\n  pop\n    /* \"#utility.yul\":9728:9897   */\n  swap3\n  swap2\n  pop\n  pop\n  jump\t// out\n    /* \"#utility.yul\":9903:10069   */\ntag_52:\n    /* \"#utility.yul\":10043:10061   */\n  0x494e56414c49445f50524f564944455200000000000000000000000000000000\n    /* \"#utility.yul\":10039:10040   */\n  0x00\n    /* \"#utility.yul\":10031:10037   */\n  dup3\n    /* \"#utility.yul\":10027:10041   */\n  add\n    /* \"#utility.yul\":10020:10062   */\n  mstore\n    /* \"#utility.yul\":9903:10069   */\n  pop\n  jump\t// out\n    /* \"#utility.yul\":10075:10441   */\ntag_53:\n    /* \"#utility.yul\":10217:10220   */\n  0x00\n    /* \"#utility.yul\":10238:10305   */\n  tag_172\n    /* \"#utility.yul\":10302:10304   */\n  0x10\n    /* \"#utility.yul\":10297:10300   */\n  dup4\n    /* \"#utility.yul\":10238:10305   */\n  tag_51\n  jump\t// in\ntag_172:\n    /* \"#utility.yul\":10231:10305   */\n  swap2\n  pop\n    /* \"#utility.yul\":10314:10407   */\n  tag_173\n    /* \"#utility.yul\":10403:10406   */\n  dup3\n    /* \"#utility.yul\":10314:10407   */\n  tag_52\n  jump\t// in\ntag_173:\n    /* \"#utility.yul\":10432:10434   */\n  0x20\n    /* \"#utility.yul\":10427:10430   */\n  dup3\n    /* \"#utility.yul\":10423:10435   */\n  add\n    /* \"#utility.yul\":10416:10435   */\n  swap1\n  pop\n    /* \"#utility.yul\":10075:10441   */\n  swap2\n  swap1\n  pop\n  jump\t// out\n    /* \"#utility.yul\":10447:10866   */\ntag_11:\n    /* \"#utility.yul\":10613:10617   */\n  0x00\n    /* \"#utility.yul\":10651:10653   */\n  0x20\n    /* \"#utility.yul\":10640:10649   */\n  dup3\n    /* \"#utility.yul\":10636:10654   */\n  add\n    /* \"#utility.yul\":10628:10654   */\n  swap1\n  pop\n    /* \"#utility.yul\":10700:10709   */\n  dup2\n    /* \"#utility.yul\":10694:10698   */\n  dup2\n    /* \"#utility.yul\":10690:10710   */\n  sub\n    /* \"#utility.yul\":10686:10687   */\n  0x00\n    /* \"#utility.yul\":10675:10684   */\n  dup4\n    /* \"#utility.yul\":10671:10688   */\n  add\n    /* \"#utility.yul\":10664:10711   */\n  mstore\n    /* \"#utility.yul\":10728:10859   */\n  tag_175\n    /* \"#utility.yul\":10854:10858   */\n  dup2\n    /* \"#utility.yul\":10728:10859   */\n  tag_53\n  jump\t// in\ntag_175:\n    /* \"#utility.yul\":10720:10859   */\n  swap1\n  pop\n    /* \"#utility.yul\":10447:10866   */\n  swap2\n  swap1\n  pop\n  jump\t// out\n    /* \"CopyrightAgreementV1.sol\":369:6797  contract CopyrightAgreementV1 {... */\ntag_12:\n  mload(0x80)\n  mload(0xa0)\n  mload(0xc0)\n  codecopy(0x00, dataOffset(sub_0), dataSize(sub_0))\n  0x00\n  assignImmutable(\"0x1d3be50b2bb17407dd170f1d5da128d1def30c6b1598d6a629e79b4775265526\")\n  0x00\n  assignImmutable(\"0x789bcdf275fa270780a52ae3b79bb1ce0fda7e0aaad87b57b74bb99ac290714a\")\n  0x00\n  assignImmutable(\"0x7880aec93413f117ef14bd4e6d130875ab2c7d7d55a064fac3c2f7bd51516380\")\n  return(0x00, dataSize(sub_0))\nstop\n\nsub_0: assembly {\n        /* \"CopyrightAgreementV1.sol\":369:6797  contract CopyrightAgreementV1 {... */\n      mstore(0x40, 0x80)\n      callvalue\n      dup1\n      iszero\n      tag_1\n      jumpi\n      revert(0x00, 0x00)\n    tag_1:\n      pop\n      jumpi(tag_2, lt(calldatasize, 0x04))\n      shr(0xe0, calldataload(0x00))\n      dup1\n      0xa6c3e6b9\n      gt\n      tag_24\n      jumpi\n      dup1\n      0xcbfbcc17\n      gt\n      tag_25\n      jumpi\n      dup1\n      0xcbfbcc17\n      eq\n      tag_18\n      jumpi\n      dup1\n      0xd159f8c0\n      eq\n      tag_19\n      jumpi\n      dup1\n      0xd30f59d8\n      eq\n      tag_20\n      jumpi\n      dup1\n      0xeae4c19f\n      eq\n      tag_21\n      jumpi\n      dup1\n      0xf9c808b7\n      eq\n      tag_22\n      jumpi\n      dup1\n      0xffa1ad74\n      eq\n      tag_23\n      jumpi\n      jump(tag_2)\n    tag_25:\n      dup1\n      0xa6c3e6b9\n      eq\n      tag_13\n      jumpi\n      dup1\n      0xb017fc9d\n      eq\n      tag_14\n      jumpi\n      dup1\n      0xb2edd796\n      eq\n      tag_15\n      jumpi\n      dup1\n      0xb759f954\n      eq\n      tag_16\n      jumpi\n      dup1\n      0xbba12fb4\n      eq\n      tag_17\n      jumpi\n      jump(tag_2)\n    tag_24:\n      dup1\n      0x4051ddac\n      gt\n      tag_26\n      jumpi\n      dup1\n      0x4051ddac\n      eq\n      tag_8\n      jumpi\n      dup1\n      0x68ed9356\n      eq\n      tag_9\n      jumpi\n      dup1\n      0x71d68a97\n      eq\n      tag_10\n      jumpi\n      dup1\n      0x980e8db6\n      eq\n      tag_11\n      jumpi\n      dup1\n      0x9a8a0592\n      eq\n      tag_12\n      jumpi\n      jump(tag_2)\n    tag_26:\n      dup1\n      0x07637095\n      eq\n      tag_3\n      jumpi\n      dup1\n      0x085d4883\n      eq\n      tag_4\n      jumpi\n      dup1\n      0x107bf28c\n      eq\n      tag_5\n      jumpi\n      dup1\n      0x1cc4a9d8\n      eq\n      tag_6\n      jumpi\n      dup1\n      0x34461067\n      eq\n      tag_7\n      jumpi\n    tag_2:\n      revert(0x00, 0x00)\n        /* \"CopyrightAgreementV1.sol\":2554:2581  uint64 public rightsStartAt */\n    tag_3:\n      tag_27\n      tag_28\n      jump\t// in\n    tag_27:\n      mload(0x40)\n      tag_29\n      swap2\n      swap1\n      tag_30\n      jump\t// in\n    tag_29:\n      mload(0x40)\n      dup1\n      swap2\n      sub\n      swap1\n      return\n        /* \"CopyrightAgreementV1.sol\":792:825  address public immutable provider */\n    tag_4:\n      tag_31\n      tag_32\n      jump\t// in\n    tag_31:\n      mload(0x40)\n      tag_33\n      swap2\n      swap1\n      tag_34\n      jump\t// in\n    tag_33:\n      mload(0x40)\n      dup1\n      swap2\n      sub\n      swap1\n      return\n        /* \"CopyrightAgreementV1.sol\":569:594  string public networkName */\n    tag_5:\n      tag_35\n      tag_36\n      jump\t// in\n    tag_35:\n      mload(0x40)\n      tag_37\n      swap2\n      swap1\n      tag_38\n      jump\t// in\n    tag_37:\n      mload(0x40)\n      dup1\n      swap2\n      sub\n      swap1\n      return\n        /* \"CopyrightAgreementV1.sol\":4772:5367  function registerCopyright(... */\n    tag_6:\n      tag_39\n      0x04\n      dup1\n      calldatasize\n      sub\n      dup2\n      add\n      swap1\n      tag_40\n      swap2\n      swap1\n      tag_41\n      jump\t// in\n    tag_40:\n      tag_42\n      jump\t// in\n    tag_39:\n      mload(0x40)\n      tag_43\n      swap2\n      swap1\n      tag_44\n      jump\t// in\n    tag_43:\n      mload(0x40)\n      dup1\n      swap2\n      sub\n      swap1\n      return\n        /* \"CopyrightAgreementV1.sol\":1977:2018  mapping(uint256 => Record) public records */\n    tag_7:\n      tag_45\n      0x04\n      dup1\n      calldatasize\n      sub\n      dup2\n      add\n      swap1\n      tag_46\n      swap2\n      swap1\n      tag_47\n      jump\t// in\n    tag_46:\n      tag_48\n      jump\t// in\n    tag_45:\n      mload(0x40)\n      tag_49\n      swap8\n      swap7\n      swap6\n      swap5\n      swap4\n      swap3\n      swap2\n      swap1\n      tag_50\n      jump\t// in\n    tag_49:\n      mload(0x40)\n      dup1\n      swap2\n      sub\n      swap1\n      return\n        /* \"CopyrightAgreementV1.sol\":6489:6794  function getSummary() external view returns (... */\n    tag_8:\n      tag_51\n      tag_52\n      jump\t// in\n    tag_51:\n      mload(0x40)\n      tag_53\n      swap7\n      swap6\n      swap5\n      swap4\n      swap3\n      swap2\n      swap1\n      tag_54\n      jump\t// in\n    tag_53:\n      mload(0x40)\n      dup1\n      swap2\n      sub\n      swap1\n      return\n        /* \"CopyrightAgreementV1.sol\":2492:2515  string public territory */\n    tag_9:\n      tag_55\n      tag_56\n      jump\t// in\n    tag_55:\n      mload(0x40)\n      tag_57\n      swap2\n      swap1\n      tag_38\n      jump\t// in\n    tag_57:\n      mload(0x40)\n      dup1\n      swap2\n      sub\n      swap1\n      return\n        /* \"CopyrightAgreementV1.sol\":5675:5966  function reject(uint256 dramaId, string calldata reason) external onlyProvider {... */\n    tag_10:\n      tag_58\n      0x04\n      dup1\n      calldatasize\n      sub\n      dup2\n      add\n      swap1\n      tag_59\n      swap2\n      swap1\n      tag_60\n      jump\t// in\n    tag_59:\n      tag_61\n      jump\t// in\n    tag_58:\n      stop\n        /* \"CopyrightAgreementV1.sol\":2462:2487  RightsScope public rights */\n    tag_11:\n      tag_62\n      tag_63\n      jump\t// in\n    tag_62:\n      mload(0x40)\n      tag_64\n      swap7\n      swap6\n      swap5\n      swap4\n      swap3\n      swap2\n      swap1\n      tag_65\n      jump\t// in\n    tag_64:\n      mload(0x40)\n      dup1\n      swap2\n      sub\n      swap1\n      return\n        /* \"CopyrightAgreementV1.sol\":660:692  uint256 public immutable chainId */\n    tag_12:\n      tag_66\n      tag_67\n      jump\t// in\n    tag_66:\n      mload(0x40)\n      tag_68\n      swap2\n      swap1\n      tag_69\n      jump\t// in\n    tag_68:\n      mload(0x40)\n      dup1\n      swap2\n      sub\n      swap1\n      return\n        /* \"CopyrightAgreementV1.sol\":1132:1151  Party public author */\n    tag_13:\n      tag_70\n      tag_71\n      jump\t// in\n    tag_70:\n      mload(0x40)\n      tag_72\n      swap5\n      swap4\n      swap3\n      swap2\n      swap1\n      tag_73\n      jump\t// in\n    tag_72:\n      mload(0x40)\n      dup1\n      swap2\n      sub\n      swap1\n      return\n        /* \"CopyrightAgreementV1.sol\":4315:4630  function configureRights(... */\n    tag_14:\n      tag_74\n      0x04\n      dup1\n      calldatasize\n      sub\n      dup2\n      add\n      swap1\n      tag_75\n      swap2\n      swap1\n      tag_76\n      jump\t// in\n    tag_75:\n      tag_77\n      jump\t// in\n    tag_74:\n      stop\n        /* \"CopyrightAgreementV1.sol\":6003:6422  function getCopyrightInfo(uint256 dramaId) external view returns (... */\n    tag_15:\n      tag_78\n      0x04\n      dup1\n      calldatasize\n      sub\n      dup2\n      add\n      swap1\n      tag_79\n      swap2\n      swap1\n      tag_47\n      jump\t// in\n    tag_79:\n      tag_80\n      jump\t// in\n    tag_78:\n      mload(0x40)\n      tag_81\n      swap7\n      swap6\n      swap5\n      swap4\n      swap3\n      swap2\n      swap1\n      tag_82\n      jump\t// in\n    tag_81:\n      mload(0x40)\n      dup1\n      swap2\n      sub\n      swap1\n      return\n        /* \"CopyrightAgreementV1.sol\":5373:5669  function approve(uint256 dramaId) external onlyProvider {... */\n    tag_16:\n      tag_83\n      0x04\n      dup1\n      calldatasize\n      sub\n      dup2\n      add\n      swap1\n      tag_84\n      swap2\n      swap1\n      tag_47\n      jump\t// in\n    tag_84:\n      tag_85\n      jump\t// in\n    tag_83:\n      stop\n        /* \"CopyrightAgreementV1.sol\":4167:4309  function setEvidenceAgency(address agency) external onlyProvider {... */\n    tag_17:\n      tag_86\n      0x04\n      dup1\n      calldatasize\n      sub\n      dup2\n      add\n      swap1\n      tag_87\n      swap2\n      swap1\n      tag_88\n      jump\t// in\n    tag_87:\n      tag_89\n      jump\t// in\n    tag_86:\n      stop\n        /* \"CopyrightAgreementV1.sol\":495:523  string public contractNumber */\n    tag_18:\n      tag_90\n      tag_91\n      jump\t// in\n    tag_90:\n      mload(0x40)\n      tag_92\n      swap2\n      swap1\n      tag_38\n      jump\t// in\n    tag_92:\n      mload(0x40)\n      dup1\n      swap2\n      sub\n      swap1\n      return\n        /* \"CopyrightAgreementV1.sol\":1206:1235  address public evidenceAgency */\n    tag_19:\n      tag_93\n      tag_94\n      jump\t// in\n    tag_93:\n      mload(0x40)\n      tag_95\n      swap2\n      swap1\n      tag_34\n      jump\t// in\n    tag_95:\n      mload(0x40)\n      dup1\n      swap2\n      sub\n      swap1\n      return\n        /* \"CopyrightAgreementV1.sol\":2612:2637  uint64 public rightsEndAt */\n    tag_20:\n      tag_96\n      tag_97\n      jump\t// in\n    tag_96:\n      mload(0x40)\n      tag_98\n      swap2\n      swap1\n      tag_30\n      jump\t// in\n    tag_98:\n      mload(0x40)\n      dup1\n      swap2\n      sub\n      swap1\n      return\n        /* \"CopyrightAgreementV1.sol\":708:742  uint64 public immutable deployedAt */\n    tag_21:\n      tag_99\n      tag_100\n      jump\t// in\n    tag_99:\n      mload(0x40)\n      tag_101\n      swap2\n      swap1\n      tag_30\n      jump\t// in\n    tag_101:\n      mload(0x40)\n      dup1\n      swap2\n      sub\n      swap1\n      return\n        /* \"CopyrightAgreementV1.sol\":3707:4161  function setAuthorInfo(... */\n    tag_22:\n      tag_102\n      0x04\n      dup1\n      calldatasize\n      sub\n      dup2\n      add\n      swap1\n      tag_103\n      swap2\n      swap1\n      tag_104\n      jump\t// in\n    tag_103:\n      tag_105\n      jump\t// in\n    tag_102:\n      stop\n        /* \"CopyrightAgreementV1.sol\":451:490  string public constant VERSION = \"V1.0\" */\n    tag_23:\n      tag_106\n      tag_107\n      jump\t// in\n    tag_106:\n      mload(0x40)\n      tag_108\n      swap2\n      swap1\n      tag_38\n      jump\t// in\n    tag_108:\n      mload(0x40)\n      dup1\n      swap2\n      sub\n      swap1\n      return\n        /* \"CopyrightAgreementV1.sol\":2554:2581  uint64 public rightsStartAt */\n    tag_28:\n      0x0b\n      0x00\n      swap1\n      sload\n      swap1\n      0x0100\n      exp\n      swap1\n      div\n      0xffffffffffffffff\n      and\n      dup2\n      jump\t// out\n        /* \"CopyrightAgreementV1.sol\":792:825  address public immutable provider */\n    tag_32:\n      immutable(\"0x1d3be50b2bb17407dd170f1d5da128d1def30c6b1598d6a629e79b4775265526\")\n      dup2\n      jump\t// out\n        /* \"CopyrightAgreementV1.sol\":569:594  string public networkName */\n    tag_36:\n      0x01\n      dup1\n      sload\n      tag_109\n      swap1\n      tag_110\n      jump\t// in\n    tag_109:\n      dup1\n      0x1f\n      add\n      0x20\n      dup1\n      swap2\n      div\n      mul\n      0x20\n      add\n      mload(0x40)\n      swap1\n      dup2\n      add\n      0x40\n      mstore\n      dup1\n      swap3\n      swap2\n      swap1\n      dup2\n      dup2\n      mstore\n      0x20\n      add\n      dup3\n      dup1\n      sload\n      tag_111\n      swap1\n      tag_110\n      jump\t// in\n    tag_111:\n      dup1\n      iszero\n      tag_112\n      jumpi\n      dup1\n      0x1f\n      lt\n      tag_113\n      jumpi\n      0x0100\n      dup1\n      dup4\n      sload\n      div\n      mul\n      dup4\n      mstore\n      swap2\n      0x20\n      add\n      swap2\n      jump(tag_112)\n    tag_113:\n      dup3\n      add\n      swap2\n      swap1\n      0x00\n      mstore\n      keccak256(0x00, 0x20)\n      swap1\n    tag_114:\n      dup2\n      sload\n      dup2\n      mstore\n      swap1\n      0x01\n      add\n      swap1\n      0x20\n      add\n      dup1\n      dup4\n      gt\n      tag_114\n      jumpi\n      dup3\n      swap1\n      sub\n      0x1f\n      and\n      dup3\n      add\n      swap2\n    tag_112:\n      pop\n      pop\n      pop\n      pop\n      pop\n      dup2\n      jump\t// out\n        /* \"CopyrightAgreementV1.sol\":4772:5367  function registerCopyright(... */\n    tag_42:\n        /* \"CopyrightAgreementV1.sol\":4913:4917  bool */\n      0x00\n        /* \"CopyrightAgreementV1.sol\":4960:4961  0 */\n      0x00\n        /* \"CopyrightAgreementV1.sol\":4934:4962  author.account != address(0) */\n      0xffffffffffffffffffffffffffffffffffffffff\n      and\n        /* \"CopyrightAgreementV1.sol\":4934:4940  author */\n      0x02\n        /* \"CopyrightAgreementV1.sol\":4934:4948  author.account */\n      0x01\n      add\n      0x00\n      swap1\n      sload\n      swap1\n      0x0100\n      exp\n      swap1\n      div\n      0xffffffffffffffffffffffffffffffffffffffff\n      and\n        /* \"CopyrightAgreementV1.sol\":4934:4962  author.account != address(0) */\n      0xffffffffffffffffffffffffffffffffffffffff\n      and\n      sub\n        /* \"CopyrightAgreementV1.sol\":4926:4981  require(author.account != address(0), \"AUTHOR_NOT_SET\") */\n      tag_116\n      jumpi\n      mload(0x40)\n      0x08c379a000000000000000000000000000000000000000000000000000000000\n      dup2\n      mstore\n      0x04\n      add\n      tag_117\n      swap1\n      tag_118\n      jump\t// in\n    tag_117:\n      mload(0x40)\n      dup1\n      swap2\n      sub\n      swap1\n      revert\n    tag_116:\n        /* \"CopyrightAgreementV1.sol\":5010:5016  author */\n      0x02\n        /* \"CopyrightAgreementV1.sol\":5010:5024  author.account */\n      0x01\n      add\n      0x00\n      swap1\n      sload\n      swap1\n      0x0100\n      exp\n      swap1\n      div\n      0xffffffffffffffffffffffffffffffffffffffff\n      and\n        /* \"CopyrightAgreementV1.sol\":4996:5024  msg.sender == author.account */\n      0xffffffffffffffffffffffffffffffffffffffff\n      and\n        /* \"CopyrightAgreementV1.sol\":4996:5006  msg.sender */\n      caller\n        /* \"CopyrightAgreementV1.sol\":4996:5024  msg.sender == author.account */\n      0xffffffffffffffffffffffffffffffffffffffff\n      and\n      eq\n        /* \"CopyrightAgreementV1.sol\":4988:5047  require(msg.sender == author.account, \"ONLY_AUTHOR_SUBMIT\") */\n      tag_119\n      jumpi\n      mload(0x40)\n      0x08c379a000000000000000000000000000000000000000000000000000000000\n      dup2\n      mstore\n      0x04\n      add\n      tag_120\n      swap1\n      tag_121\n      jump\t// in\n    tag_120:\n      mload(0x40)\n      dup1\n      swap2\n      sub\n      swap1\n      revert\n    tag_119:\n        /* \"CopyrightAgreementV1.sol\":5054:5070  Record storage r */\n      0x00\n        /* \"CopyrightAgreementV1.sol\":5073:5080  records */\n      0x07\n        /* \"CopyrightAgreementV1.sol\":5073:5089  records[dramaId] */\n      0x00\n        /* \"CopyrightAgreementV1.sol\":5081:5088  dramaId */\n      dup9\n        /* \"CopyrightAgreementV1.sol\":5073:5089  records[dramaId] */\n      dup2\n      mstore\n      0x20\n      add\n      swap1\n      dup2\n      mstore\n      0x20\n      add\n      0x00\n      keccak256\n        /* \"CopyrightAgreementV1.sol\":5054:5089  Record storage r = records[dramaId] */\n      swap1\n      pop\n        /* \"CopyrightAgreementV1.sol\":5105:5106  r */\n      dup1\n        /* \"CopyrightAgreementV1.sol\":5105:5113  r.exists */\n      0x00\n      add\n      0x00\n      swap1\n      sload\n      swap1\n      0x0100\n      exp\n      swap1\n      div\n      0xff\n      and\n        /* \"CopyrightAgreementV1.sol\":5104:5113  !r.exists */\n      iszero\n        /* \"CopyrightAgreementV1.sol\":5096:5132  require(!r.exists, \"ALREADY_EXISTS\") */\n      tag_122\n      jumpi\n      mload(0x40)\n      0x08c379a000000000000000000000000000000000000000000000000000000000\n      dup2\n      mstore\n      0x04\n      add\n      tag_123\n      swap1\n      tag_124\n      jump\t// in\n    tag_123:\n      mload(0x40)\n      dup1\n      swap2\n      sub\n      swap1\n      revert\n    tag_122:\n        /* \"CopyrightAgreementV1.sol\":5150:5154  true */\n      0x01\n        /* \"CopyrightAgreementV1.sol\":5139:5140  r */\n      dup2\n        /* \"CopyrightAgreementV1.sol\":5139:5147  r.exists */\n      0x00\n      add\n      0x00\n        /* \"CopyrightAgreementV1.sol\":5139:5154  r.exists = true */\n      0x0100\n      exp\n      dup2\n      sload\n      dup2\n      0xff\n      mul\n      not\n      and\n      swap1\n      dup4\n      iszero\n      iszero\n      mul\n      or\n      swap1\n      sstore\n      pop\n        /* \"CopyrightAgreementV1.sol\":5175:5185  msg.sender */\n      caller\n        /* \"CopyrightAgreementV1.sol\":5161:5162  r */\n      dup2\n        /* \"CopyrightAgreementV1.sol\":5161:5172  r.submitter */\n      0x00\n      add\n      0x01\n        /* \"CopyrightAgreementV1.sol\":5161:5185  r.submitter = msg.sender */\n      0x0100\n      exp\n      dup2\n      sload\n      dup2\n      0xffffffffffffffffffffffffffffffffffffffff\n      mul\n      not\n      and\n      swap1\n      dup4\n      0xffffffffffffffffffffffffffffffffffffffff\n      and\n      mul\n      or\n      swap1\n      sstore\n      pop\n        /* \"CopyrightAgreementV1.sol\":5208:5219  contentHash */\n      dup6\n      dup6\n        /* \"CopyrightAgreementV1.sol\":5192:5193  r */\n      dup3\n        /* \"CopyrightAgreementV1.sol\":5192:5205  r.contentHash */\n      0x01\n      add\n        /* \"CopyrightAgreementV1.sol\":5192:5219  r.contentHash = contentHash */\n      swap2\n      dup3\n      tag_125\n      swap3\n      swap2\n      swap1\n      tag_126\n      jump\t// in\n    tag_125:\n      pop\n        /* \"CopyrightAgreementV1.sol\":5243:5255  metadataJson */\n      dup4\n      dup4\n        /* \"CopyrightAgreementV1.sol\":5226:5227  r */\n      dup3\n        /* \"CopyrightAgreementV1.sol\":5226:5240  r.metadataJson */\n      0x02\n      add\n        /* \"CopyrightAgreementV1.sol\":5226:5255  r.metadataJson = metadataJson */\n      swap2\n      dup3\n      tag_127\n      swap3\n      swap2\n      swap1\n      tag_126\n      jump\t// in\n    tag_127:\n      pop\n        /* \"CopyrightAgreementV1.sol\":5285:5300  block.timestamp */\n      timestamp\n        /* \"CopyrightAgreementV1.sol\":5262:5263  r */\n      dup2\n        /* \"CopyrightAgreementV1.sol\":5262:5275  r.submittedAt */\n      0x03\n      add\n      0x01\n        /* \"CopyrightAgreementV1.sol\":5262:5301  r.submittedAt = uint64(block.timestamp) */\n      0x0100\n      exp\n      dup2\n      sload\n      dup2\n      0xffffffffffffffff\n      mul\n      not\n      and\n      swap1\n      dup4\n      0xffffffffffffffff\n      and\n      mul\n      or\n      swap1\n      sstore\n      pop\n        /* \"CopyrightAgreementV1.sol\":5332:5342  msg.sender */\n      caller\n        /* \"CopyrightAgreementV1.sol\":5313:5343  Submitted(dramaId, msg.sender) */\n      0xffffffffffffffffffffffffffffffffffffffff\n      and\n        /* \"CopyrightAgreementV1.sol\":5323:5330  dramaId */\n      dup8\n        /* \"CopyrightAgreementV1.sol\":5313:5343  Submitted(dramaId, msg.sender) */\n      0xa1a7fb1df88af97284790f533c84a4284660c23f7631de9a03a258de840e4c15\n      mload(0x40)\n      mload(0x40)\n      dup1\n      swap2\n      sub\n      swap1\n      log3\n        /* \"CopyrightAgreementV1.sol\":5357:5361  true */\n      0x01\n        /* \"CopyrightAgreementV1.sol\":5350:5361  return true */\n      swap2\n      pop\n      pop\n        /* \"CopyrightAgreementV1.sol\":4772:5367  function registerCopyright(... */\n      swap6\n      swap5\n      pop\n      pop\n      pop\n      pop\n      pop\n      jump\t// out\n        /* \"CopyrightAgreementV1.sol\":1977:2018  mapping(uint256 => Record) public records */\n    tag_48:\n      mstore(0x20, 0x07)\n      dup1\n      0x00\n      mstore\n      keccak256(0x00, 0x40)\n      0x00\n      swap2\n      pop\n      swap1\n      pop\n      dup1\n      0x00\n      add\n      0x00\n      swap1\n      sload\n      swap1\n      0x0100\n      exp\n      swap1\n      div\n      0xff\n      and\n      swap1\n      dup1\n      0x00\n      add\n      0x01\n      swap1\n      sload\n      swap1\n      0x0100\n      exp\n      swap1\n      div\n      0xffffffffffffffffffffffffffffffffffffffff\n      and\n      swap1\n      dup1\n      0x01\n      add\n      dup1\n      sload\n      tag_128\n      swap1\n      tag_110\n      jump\t// in\n    tag_128:\n      dup1\n      0x1f\n      add\n      0x20\n      dup1\n      swap2\n      div\n      mul\n      0x20\n      add\n      mload(0x40)\n      swap1\n      dup2\n      add\n      0x40\n      mstore\n      dup1\n      swap3\n      swap2\n      swap1\n      dup2\n      dup2\n      mstore\n      0x20\n      add\n      dup3\n      dup1\n      sload\n      tag_129\n      swap1\n      tag_110\n      jump\t// in\n    tag_129:\n      dup1\n      iszero\n      tag_130\n      jumpi\n      dup1\n      0x1f\n      lt\n      tag_131\n      jumpi\n      0x0100\n      dup1\n      dup4\n      sload\n      div\n      mul\n      dup4\n      mstore\n      swap2\n      0x20\n      add\n      swap2\n      jump(tag_130)\n    tag_131:\n      dup3\n      add\n      swap2\n      swap1\n      0x00\n      mstore\n      keccak256(0x00, 0x20)\n      swap1\n    tag_132:\n      dup2\n      sload\n      dup2\n      mstore\n      swap1\n      0x01\n      add\n      swap1\n      0x20\n      add\n      dup1\n      dup4\n      gt\n      tag_132\n      jumpi\n      dup3\n      swap1\n      sub\n      0x1f\n      and\n      dup3\n      add\n      swap2\n    tag_130:\n      pop\n      pop\n      pop\n      pop\n      pop\n      swap1\n      dup1\n      0x02\n      add\n      dup1\n      sload\n      tag_133\n      swap1\n      tag_110\n      jump\t// in\n    tag_133:\n      dup1\n      0x1f\n      add\n      0x20\n      dup1\n      swap2\n      div\n      mul\n      0x20\n      add\n      mload(0x40)\n      swap1\n      dup2\n      add\n      0x40\n      mstore\n      dup1\n      swap3\n      swap2\n      swap1\n      dup2\n      dup2\n      mstore\n      0x20\n      add\n      dup3\n      dup1\n      sload\n      tag_134\n      swap1\n      tag_110\n      jump\t// in\n    tag_134:\n      dup1\n      iszero\n      tag_135\n      jumpi\n      dup1\n      0x1f\n      lt\n      tag_136\n      jumpi\n      0x0100\n      dup1\n      dup4\n      sload\n      div\n      mul\n      dup4\n      mstore\n      swap2\n      0x20\n      add\n      swap2\n      jump(tag_135)\n    tag_136:\n      dup3\n      add\n      swap2\n      swap1\n      0x00\n      mstore\n      keccak256(0x00, 0x20)\n      swap1\n    tag_137:\n      dup2\n      sload\n      dup2\n      mstore\n      swap1\n      0x01\n      add\n      swap1\n      0x20\n      add\n      dup1\n      dup4\n      gt\n      tag_137\n      jumpi\n      dup3\n      swap1\n      sub\n      0x1f\n      and\n      dup3\n      add\n      swap2\n    tag_135:\n      pop\n      pop\n      pop\n      pop\n      pop\n      swap1\n      dup1\n      0x03\n      add\n      0x00\n      swap1\n      sload\n      swap1\n      0x0100\n      exp\n      swap1\n      div\n      0xff\n      and\n      swap1\n      dup1\n      0x03\n      add\n      0x01\n      swap1\n      sload\n      swap1\n      0x0100\n      exp\n      swap1\n      div\n      0xffffffffffffffff\n      and\n      swap1\n      dup1\n      0x03\n      add\n      0x09\n      swap1\n      sload\n      swap1\n      0x0100\n      exp\n      swap1\n      div\n      0xffffffffffffffff\n      and\n      swap1\n      pop\n      dup8\n      jump\t// out\n        /* \"CopyrightAgreementV1.sol\":6489:6794  function getSummary() external view returns (... */\n    tag_52:\n        /* \"CopyrightAgreementV1.sol\":6540:6561  string memory _number */\n      0x60\n        /* \"CopyrightAgreementV1.sol\":6568:6590  string memory _version */\n      dup1\n        /* \"CopyrightAgreementV1.sol\":6597:6623  string memory _networkName */\n      0x60\n        /* \"CopyrightAgreementV1.sol\":6630:6646  uint256 _chainId */\n      0x00\n        /* \"CopyrightAgreementV1.sol\":6653:6669  address _address */\n      0x00\n        /* \"CopyrightAgreementV1.sol\":6676:6694  uint64 _deployedAt */\n      0x00\n        /* \"CopyrightAgreementV1.sol\":6715:6729  contractNumber */\n      0x00\n        /* \"CopyrightAgreementV1.sol\":6731:6738  VERSION */\n      mload(0x40)\n      dup1\n      0x40\n      add\n      0x40\n      mstore\n      dup1\n      0x04\n      dup2\n      mstore\n      0x20\n      add\n      0x56312e3000000000000000000000000000000000000000000000000000000000\n      dup2\n      mstore\n      pop\n        /* \"CopyrightAgreementV1.sol\":6740:6751  networkName */\n      0x01\n        /* \"CopyrightAgreementV1.sol\":6753:6760  chainId */\n      immutable(\"0x7880aec93413f117ef14bd4e6d130875ab2c7d7d55a064fac3c2f7bd51516380\")\n        /* \"CopyrightAgreementV1.sol\":6770:6774  this */\n      address\n        /* \"CopyrightAgreementV1.sol\":6777:6787  deployedAt */\n      immutable(\"0x789bcdf275fa270780a52ae3b79bb1ce0fda7e0aaad87b57b74bb99ac290714a\")\n        /* \"CopyrightAgreementV1.sol\":6707:6788  return (contractNumber, VERSION, networkName, chainId, address(this), deployedAt) */\n      dup6\n      dup1\n      sload\n      tag_139\n      swap1\n      tag_110\n      jump\t// in\n    tag_139:\n      dup1\n      0x1f\n      add\n      0x20\n      dup1\n      swap2\n      div\n      mul\n      0x20\n      add\n      mload(0x40)\n      swap1\n      dup2\n      add\n      0x40\n      mstore\n      dup1\n      swap3\n      swap2\n      swap1\n      dup2\n      dup2\n      mstore\n      0x20\n      add\n      dup3\n      dup1\n      sload\n      tag_140\n      swap1\n      tag_110\n      jump\t// in\n    tag_140:\n      dup1\n      iszero\n      tag_141\n      jumpi\n      dup1\n      0x1f\n      lt\n      tag_142\n      jumpi\n      0x0100\n      dup1\n      dup4\n      sload\n      div\n      mul\n      dup4\n      mstore\n      swap2\n      0x20\n      add\n      swap2\n      jump(tag_141)\n    tag_142:\n      dup3\n      add\n      swap2\n      swap1\n      0x00\n      mstore\n      keccak256(0x00, 0x20)\n      swap1\n    tag_143:\n      dup2\n      sload\n      dup2\n      mstore\n      swap1\n      0x01\n      add\n      swap1\n      0x20\n      add\n      dup1\n      dup4\n      gt\n      tag_143\n      jumpi\n      dup3\n      swap1\n      sub\n      0x1f\n      and\n      dup3\n      add\n      swap2\n    tag_141:\n      pop\n      pop\n      pop\n      pop\n      pop\n      swap6\n      pop\n      dup4\n      dup1\n      sload\n      tag_144\n      swap1\n      tag_110\n      jump\t// in\n    tag_144:\n      dup1\n      0x1f\n      add\n      0x20\n      dup1\n      swap2\n      div\n      mul\n      0x20\n      add\n      mload(0x40)\n      swap1\n      dup2\n      add\n      0x40\n      mstore\n      dup1\n      swap3\n      swap2\n      swap1\n      dup2\n      dup2\n      mstore\n      0x20\n      add\n      dup3\n      dup1\n      sload\n      tag_145\n      swap1\n      tag_110\n      jump\t// in\n    tag_145:\n      dup1\n      iszero\n      tag_146\n      jumpi\n      dup1\n      0x1f\n      lt\n      tag_147\n      jumpi\n      0x0100\n      dup1\n      dup4\n      sload\n      div\n      mul\n      dup4\n      mstore\n      swap2\n      0x20\n      add\n      swap2\n      jump(tag_146)\n    tag_147:\n      dup3\n      add\n      swap2\n      swap1\n      0x00\n      mstore\n      keccak256(0x00, 0x20)\n      swap1\n    tag_148:\n      dup2\n      sload\n      dup2\n      mstore\n      swap1\n      0x01\n      add\n      swap1\n      0x20\n      add\n      dup1\n      dup4\n      gt\n      tag_148\n      jumpi\n      dup3\n      swap1\n      sub\n      0x1f\n      and\n      dup3\n      add\n      swap2\n    tag_146:\n      pop\n      pop\n      pop\n      pop\n      pop\n      swap4\n      pop\n      swap6\n      pop\n      swap6\n      pop\n      swap6\n      pop\n      swap6\n      pop\n      swap6\n      pop\n      swap6\n      pop\n        /* \"CopyrightAgreementV1.sol\":6489:6794  function getSummary() external view returns (... */\n      swap1\n      swap2\n      swap3\n      swap4\n      swap5\n      swap6\n      jump\t// out\n        /* \"CopyrightAgreementV1.sol\":2492:2515  string public territory */\n    tag_56:\n      0x0a\n      dup1\n      sload\n      tag_149\n      swap1\n      tag_110\n      jump\t// in\n    tag_149:\n      dup1\n      0x1f\n      add\n      0x20\n      dup1\n      swap2\n      div\n      mul\n      0x20\n      add\n      mload(0x40)\n      swap1\n      dup2\n      add\n      0x40\n      mstore\n      dup1\n      swap3\n      swap2\n      swap1\n      dup2\n      dup2\n      mstore\n      0x20\n      add\n      dup3\n      dup1\n      sload\n      tag_150\n      swap1\n      tag_110\n      jump\t// in\n    tag_150:\n      dup1\n      iszero\n      tag_151\n      jumpi\n      dup1\n      0x1f\n      lt\n      tag_152\n      jumpi\n      0x0100\n      dup1\n      dup4\n      sload\n      div\n      mul\n      dup4\n      mstore\n      swap2\n      0x20\n      add\n      swap2\n      jump(tag_151)\n    tag_152:\n      dup3\n      add\n      swap2\n      swap1\n      0x00\n      mstore\n      keccak256(0x00, 0x20)\n      swap1\n    tag_153:\n      dup2\n      sload\n      dup2\n      mstore\n      swap1\n      0x01\n      add\n      swap1\n      0x20\n      add\n      dup1\n      dup4\n      gt\n      tag_153\n      jumpi\n      dup3\n      swap1\n      sub\n      0x1f\n      and\n      dup3\n      add\n      swap2\n    tag_151:\n      pop\n      pop\n      pop\n      pop\n      pop\n      dup2\n      jump\t// out\n        /* \"CopyrightAgreementV1.sol\":5675:5966  function reject(uint256 dramaId, string calldata reason) external onlyProvider {... */\n    tag_61:\n        /* \"CopyrightAgreementV1.sol\":1449:1457  provider */\n      immutable(\"0x1d3be50b2bb17407dd170f1d5da128d1def30c6b1598d6a629e79b4775265526\")\n        /* \"CopyrightAgreementV1.sol\":1435:1457  msg.sender == provider */\n      0xffffffffffffffffffffffffffffffffffffffff\n      and\n        /* \"CopyrightAgreementV1.sol\":1435:1445  msg.sender */\n      caller\n        /* \"CopyrightAgreementV1.sol\":1435:1457  msg.sender == provider */\n      0xffffffffffffffffffffffffffffffffffffffff\n      and\n      eq\n        /* \"CopyrightAgreementV1.sol\":1427:1475  require(msg.sender == provider, \"ONLY_PROVIDER\") */\n      tag_155\n      jumpi\n      mload(0x40)\n      0x08c379a000000000000000000000000000000000000000000000000000000000\n      dup2\n      mstore\n      0x04\n      add\n      tag_156\n      swap1\n      tag_157\n      jump\t// in\n    tag_156:\n      mload(0x40)\n      dup1\n      swap2\n      sub\n      swap1\n      revert\n    tag_155:\n        /* \"CopyrightAgreementV1.sol\":5761:5777  Record storage r */\n      0x00\n        /* \"CopyrightAgreementV1.sol\":5780:5787  records */\n      0x07\n        /* \"CopyrightAgreementV1.sol\":5780:5796  records[dramaId] */\n      0x00\n        /* \"CopyrightAgreementV1.sol\":5788:5795  dramaId */\n      dup6\n        /* \"CopyrightAgreementV1.sol\":5780:5796  records[dramaId] */\n      dup2\n      mstore\n      0x20\n      add\n      swap1\n      dup2\n      mstore\n      0x20\n      add\n      0x00\n      keccak256\n        /* \"CopyrightAgreementV1.sol\":5761:5796  Record storage r = records[dramaId] */\n      swap1\n      pop\n        /* \"CopyrightAgreementV1.sol\":5811:5812  r */\n      dup1\n        /* \"CopyrightAgreementV1.sol\":5811:5819  r.exists */\n      0x00\n      add\n      0x00\n      swap1\n      sload\n      swap1\n      0x0100\n      exp\n      swap1\n      div\n      0xff\n      and\n        /* \"CopyrightAgreementV1.sol\":5803:5833  require(r.exists, \"NOT_FOUND\") */\n      tag_159\n      jumpi\n      mload(0x40)\n      0x08c379a000000000000000000000000000000000000000000000000000000000\n      dup2\n      mstore\n      0x04\n      add\n      tag_160\n      swap1\n      tag_161\n      jump\t// in\n    tag_160:\n      mload(0x40)\n      dup1\n      swap2\n      sub\n      swap1\n      revert\n    tag_159:\n        /* \"CopyrightAgreementV1.sol\":5849:5850  r */\n      dup1\n        /* \"CopyrightAgreementV1.sol\":5849:5859  r.isActive */\n      0x03\n      add\n      0x00\n      swap1\n      sload\n      swap1\n      0x0100\n      exp\n      swap1\n      div\n      0xff\n      and\n        /* \"CopyrightAgreementV1.sol\":5848:5859  !r.isActive */\n      iszero\n        /* \"CopyrightAgreementV1.sol\":5840:5878  require(!r.isActive, \"ALREADY_ACTIVE\") */\n      tag_162\n      jumpi\n      mload(0x40)\n      0x08c379a000000000000000000000000000000000000000000000000000000000\n      dup2\n      mstore\n      0x04\n      add\n      tag_163\n      swap1\n      tag_164\n      jump\t// in\n    tag_163:\n      mload(0x40)\n      dup1\n      swap2\n      sub\n      swap1\n      revert\n    tag_162:\n        /* \"CopyrightAgreementV1.sol\":5941:5951  msg.sender */\n      caller\n        /* \"CopyrightAgreementV1.sol\":5923:5960  Rejected(dramaId, msg.sender, reason) */\n      0xffffffffffffffffffffffffffffffffffffffff\n      and\n        /* \"CopyrightAgreementV1.sol\":5932:5939  dramaId */\n      dup5\n        /* \"CopyrightAgreementV1.sol\":5923:5960  Rejected(dramaId, msg.sender, reason) */\n      0x57bef5442a9200b3dece1864ca545774940fc88e515bd251ddab26f14567c828\n        /* \"CopyrightAgreementV1.sol\":5953:5959  reason */\n      dup6\n      dup6\n        /* \"CopyrightAgreementV1.sol\":5923:5960  Rejected(dramaId, msg.sender, reason) */\n      mload(0x40)\n      tag_165\n      swap3\n      swap2\n      swap1\n      tag_166\n      jump\t// in\n    tag_165:\n      mload(0x40)\n      dup1\n      swap2\n      sub\n      swap1\n      log3\n        /* \"CopyrightAgreementV1.sol\":5754:5966  {... */\n      pop\n        /* \"CopyrightAgreementV1.sol\":5675:5966  function reject(uint256 dramaId, string calldata reason) external onlyProvider {... */\n      pop\n      pop\n      pop\n      jump\t// out\n        /* \"CopyrightAgreementV1.sol\":2462:2487  RightsScope public rights */\n    tag_63:\n      0x08\n      dup1\n      0x00\n      add\n      0x00\n      swap1\n      sload\n      swap1\n      0x0100\n      exp\n      swap1\n      div\n      0xff\n      and\n      swap1\n      dup1\n      0x00\n      add\n      0x01\n      swap1\n      sload\n      swap1\n      0x0100\n      exp\n      swap1\n      div\n      0xff\n      and\n      swap1\n      dup1\n      0x00\n      add\n      0x02\n      swap1\n      sload\n      swap1\n      0x0100\n      exp\n      swap1\n      div\n      0xff\n      and\n      swap1\n      dup1\n      0x00\n      add\n      0x03\n      swap1\n      sload\n      swap1\n      0x0100\n      exp\n      swap1\n      div\n      0xff\n      and\n      swap1\n      dup1\n      0x00\n      add\n      0x04\n      swap1\n      sload\n      swap1\n      0x0100\n      exp\n      swap1\n      div\n      0xff\n      and\n      swap1\n      dup1\n      0x01\n      add\n      dup1\n      sload\n      tag_167\n      swap1\n      tag_110\n      jump\t// in\n    tag_167:\n      dup1\n      0x1f\n      add\n      0x20\n      dup1\n      swap2\n      div\n      mul\n      0x20\n      add\n      mload(0x40)\n      swap1\n      dup2\n      add\n      0x40\n      mstore\n      dup1\n      swap3\n      swap2\n      swap1\n      dup2\n      dup2\n      mstore\n      0x20\n      add\n      dup3\n      dup1\n      sload\n      tag_168\n      swap1\n      tag_110\n      jump\t// in\n    tag_168:\n      dup1\n      iszero\n      tag_169\n      jumpi\n      dup1\n      0x1f\n      lt\n      tag_170\n      jumpi\n      0x0100\n      dup1\n      dup4\n      sload\n      div\n      mul\n      dup4\n      mstore\n      swap2\n      0x20\n      add\n      swap2\n      jump(tag_169)\n    tag_170:\n      dup3\n      add\n      swap2\n      swap1\n      0x00\n      mstore\n      keccak256(0x00, 0x20)\n      swap1\n    tag_171:\n      dup2\n      sload\n      dup2\n      mstore\n      swap1\n      0x01\n      add\n      swap1\n      0x20\n      add\n      dup1\n      dup4\n      gt\n      tag_171\n      jumpi\n      dup3\n      swap1\n      sub\n      0x1f\n      and\n      dup3\n      add\n      swap2\n    tag_169:\n      pop\n      pop\n      pop\n      pop\n      pop\n      swap1\n      pop\n      dup7\n      jump\t// out\n        /* \"CopyrightAgreementV1.sol\":660:692  uint256 public immutable chainId */\n    tag_67:\n      immutable(\"0x7880aec93413f117ef14bd4e6d130875ab2c7d7d55a064fac3c2f7bd51516380\")\n      dup2\n      jump\t// out\n        /* \"CopyrightAgreementV1.sol\":1132:1151  Party public author */\n    tag_71:\n      0x02\n      dup1\n      0x00\n      add\n      dup1\n      sload\n      tag_172\n      swap1\n      tag_110\n      jump\t// in\n    tag_172:\n      dup1\n      0x1f\n      add\n      0x20\n      dup1\n      swap2\n      div\n      mul\n      0x20\n      add\n      mload(0x40)\n      swap1\n      dup2\n      add\n      0x40\n      mstore\n      dup1\n      swap3\n      swap2\n      swap1\n      dup2\n      dup2\n      mstore\n      0x20\n      add\n      dup3\n      dup1\n      sload\n      tag_173\n      swap1\n      tag_110\n      jump\t// in\n    tag_173:\n      dup1\n      iszero\n      tag_174\n      jumpi\n      dup1\n      0x1f\n      lt\n      tag_175\n      jumpi\n      0x0100\n      dup1\n      dup4\n      sload\n      div\n      mul\n      dup4\n      mstore\n      swap2\n      0x20\n      add\n      swap2\n      jump(tag_174)\n    tag_175:\n      dup3\n      add\n      swap2\n      swap1\n      0x00\n      mstore\n      keccak256(0x00, 0x20)\n      swap1\n    tag_176:\n      dup2\n      sload\n      dup2\n      mstore\n      swap1\n      0x01\n      add\n      swap1\n      0x20\n      add\n      dup1\n      dup4\n      gt\n      tag_176\n      jumpi\n      dup3\n      swap1\n      sub\n      0x1f\n      and\n      dup3\n      add\n      swap2\n    tag_174:\n      pop\n      pop\n      pop\n      pop\n      pop\n      swap1\n      dup1\n      0x01\n      add\n      0x00\n      swap1\n      sload\n      swap1\n      0x0100\n      exp\n      swap1\n      div\n      0xffffffffffffffffffffffffffffffffffffffff\n      and\n      swap1\n      dup1\n      0x02\n      add\n      sload\n      swap1\n      dup1\n      0x03\n      add\n      dup1\n      sload\n      tag_177\n      swap1\n      tag_110\n      jump\t// in\n    tag_177:\n      dup1\n      0x1f\n      add\n      0x20\n      dup1\n      swap2\n      div\n      mul\n      0x20\n      add\n      mload(0x40)\n      swap1\n      dup2\n      add\n      0x40\n      mstore\n      dup1\n      swap3\n      swap2\n      swap1\n      dup2\n      dup2\n      mstore\n      0x20\n      add\n      dup3\n      dup1\n      sload\n      tag_178\n      swap1\n      tag_110\n      jump\t// in\n    tag_178:\n      dup1\n      iszero\n      tag_179\n      jumpi\n      dup1\n      0x1f\n      lt\n      tag_180\n      jumpi\n      0x0100\n      dup1\n      dup4\n      sload\n      div\n      mul\n      dup4\n      mstore\n      swap2\n      0x20\n      add\n      swap2\n      jump(tag_179)\n    tag_180:\n      dup3\n      add\n      swap2\n      swap1\n      0x00\n      mstore\n      keccak256(0x00, 0x20)\n      swap1\n    tag_181:\n      dup2\n      sload\n      dup2\n      mstore\n      swap1\n      0x01\n      add\n      swap1\n      0x20\n      add\n      dup1\n      dup4\n      gt\n      tag_181\n      jumpi\n      dup3\n      swap1\n      sub\n      0x1f\n      and\n      dup3\n      add\n      swap2\n    tag_179:\n      pop\n      pop\n      pop\n      pop\n      pop\n      swap1\n      pop\n      dup5\n      jump\t// out\n        /* \"CopyrightAgreementV1.sol\":4315:4630  function configureRights(... */\n    tag_77:\n        /* \"CopyrightAgreementV1.sol\":1346:1352  author */\n      0x02\n        /* \"CopyrightAgreementV1.sol\":1346:1360  author.account */\n      0x01\n      add\n      0x00\n      swap1\n      sload\n      swap1\n      0x0100\n      exp\n      swap1\n      div\n      0xffffffffffffffffffffffffffffffffffffffff\n      and\n        /* \"CopyrightAgreementV1.sol\":1332:1360  msg.sender == author.account */\n      0xffffffffffffffffffffffffffffffffffffffff\n      and\n        /* \"CopyrightAgreementV1.sol\":1332:1342  msg.sender */\n      caller\n        /* \"CopyrightAgreementV1.sol\":1332:1360  msg.sender == author.account */\n      0xffffffffffffffffffffffffffffffffffffffff\n      and\n      eq\n        /* \"CopyrightAgreementV1.sol\":1324:1376  require(msg.sender == author.account, \"ONLY_AUTHOR\") */\n      tag_183\n      jumpi\n      mload(0x40)\n      0x08c379a000000000000000000000000000000000000000000000000000000000\n      dup2\n      mstore\n      0x04\n      add\n      tag_184\n      swap1\n      tag_185\n      jump\t// in\n    tag_184:\n      mload(0x40)\n      dup1\n      swap2\n      sub\n      swap1\n      revert\n    tag_183:\n        /* \"CopyrightAgreementV1.sol\":4496:4501  endAt */\n      dup1\n        /* \"CopyrightAgreementV1.sol\":4486:4501  startAt < endAt */\n      0xffffffffffffffff\n      and\n        /* \"CopyrightAgreementV1.sol\":4486:4493  startAt */\n      dup3\n        /* \"CopyrightAgreementV1.sol\":4486:4501  startAt < endAt */\n      0xffffffffffffffff\n      and\n      lt\n        /* \"CopyrightAgreementV1.sol\":4478:4518  require(startAt < endAt, \"INVALID_TERM\") */\n      tag_187\n      jumpi\n      mload(0x40)\n      0x08c379a000000000000000000000000000000000000000000000000000000000\n      dup2\n      mstore\n      0x04\n      add\n      tag_188\n      swap1\n      tag_189\n      jump\t// in\n    tag_188:\n      mload(0x40)\n      dup1\n      swap2\n      sub\n      swap1\n      revert\n    tag_187:\n        /* \"CopyrightAgreementV1.sol\":4534:4539  scope */\n      dup5\n        /* \"CopyrightAgreementV1.sol\":4525:4531  rights */\n      0x08\n        /* \"CopyrightAgreementV1.sol\":4525:4539  rights = scope */\n      dup2\n      dup2\n      tag_190\n      swap2\n      swap1\n      tag_191\n      jump\t// in\n    tag_190:\n      swap1\n      pop\n      pop\n        /* \"CopyrightAgreementV1.sol\":4558:4568  territory_ */\n      dup4\n      dup4\n        /* \"CopyrightAgreementV1.sol\":4546:4555  territory */\n      0x0a\n        /* \"CopyrightAgreementV1.sol\":4546:4568  territory = territory_ */\n      swap2\n      dup3\n      tag_192\n      swap3\n      swap2\n      swap1\n      tag_126\n      jump\t// in\n    tag_192:\n      pop\n        /* \"CopyrightAgreementV1.sol\":4591:4598  startAt */\n      dup2\n        /* \"CopyrightAgreementV1.sol\":4575:4588  rightsStartAt */\n      0x0b\n      0x00\n        /* \"CopyrightAgreementV1.sol\":4575:4598  rightsStartAt = startAt */\n      0x0100\n      exp\n      dup2\n      sload\n      dup2\n      0xffffffffffffffff\n      mul\n      not\n      and\n      swap1\n      dup4\n      0xffffffffffffffff\n      and\n      mul\n      or\n      swap1\n      sstore\n      pop\n        /* \"CopyrightAgreementV1.sol\":4619:4624  endAt */\n      dup1\n        /* \"CopyrightAgreementV1.sol\":4605:4616  rightsEndAt */\n      0x0b\n      0x08\n        /* \"CopyrightAgreementV1.sol\":4605:4624  rightsEndAt = endAt */\n      0x0100\n      exp\n      dup2\n      sload\n      dup2\n      0xffffffffffffffff\n      mul\n      not\n      and\n      swap1\n      dup4\n      0xffffffffffffffff\n      and\n      mul\n      or\n      swap1\n      sstore\n      pop\n        /* \"CopyrightAgreementV1.sol\":4315:4630  function configureRights(... */\n      pop\n      pop\n      pop\n      pop\n      pop\n      jump\t// out\n        /* \"CopyrightAgreementV1.sol\":6003:6422  function getCopyrightInfo(uint256 dramaId) external view returns (... */\n    tag_80:\n        /* \"CopyrightAgreementV1.sol\":6075:6090  address _author */\n      0x00\n        /* \"CopyrightAgreementV1.sol\":6097:6123  string memory _contentHash */\n      0x60\n        /* \"CopyrightAgreementV1.sol\":6130:6157  string memory _metadataJson */\n      dup1\n        /* \"CopyrightAgreementV1.sol\":6164:6178  bool _isActive */\n      0x00\n        /* \"CopyrightAgreementV1.sol\":6185:6204  uint64 _submittedAt */\n      0x00\n        /* \"CopyrightAgreementV1.sol\":6211:6229  uint64 _approvedAt */\n      0x00\n        /* \"CopyrightAgreementV1.sol\":6242:6258  Record storage r */\n      0x00\n        /* \"CopyrightAgreementV1.sol\":6261:6268  records */\n      0x07\n        /* \"CopyrightAgreementV1.sol\":6261:6277  records[dramaId] */\n      0x00\n        /* \"CopyrightAgreementV1.sol\":6269:6276  dramaId */\n      dup10\n        /* \"CopyrightAgreementV1.sol\":6261:6277  records[dramaId] */\n      dup2\n      mstore\n      0x20\n      add\n      swap1\n      dup2\n      mstore\n      0x20\n      add\n      0x00\n      keccak256\n        /* \"CopyrightAgreementV1.sol\":6242:6277  Record storage r = records[dramaId] */\n      swap1\n      pop\n        /* \"CopyrightAgreementV1.sol\":6292:6293  r */\n      dup1\n        /* \"CopyrightAgreementV1.sol\":6292:6300  r.exists */\n      0x00\n      add\n      0x00\n      swap1\n      sload\n      swap1\n      0x0100\n      exp\n      swap1\n      div\n      0xff\n      and\n        /* \"CopyrightAgreementV1.sol\":6284:6314  require(r.exists, \"NOT_FOUND\") */\n      tag_194\n      jumpi\n      mload(0x40)\n      0x08c379a000000000000000000000000000000000000000000000000000000000\n      dup2\n      mstore\n      0x04\n      add\n      tag_195\n      swap1\n      tag_161\n      jump\t// in\n    tag_195:\n      mload(0x40)\n      dup1\n      swap2\n      sub\n      swap1\n      revert\n    tag_194:\n        /* \"CopyrightAgreementV1.sol\":6329:6335  author */\n      0x02\n        /* \"CopyrightAgreementV1.sol\":6329:6343  author.account */\n      0x01\n      add\n      0x00\n      swap1\n      sload\n      swap1\n      0x0100\n      exp\n      swap1\n      div\n      0xffffffffffffffffffffffffffffffffffffffff\n      and\n        /* \"CopyrightAgreementV1.sol\":6345:6346  r */\n      dup2\n        /* \"CopyrightAgreementV1.sol\":6345:6358  r.contentHash */\n      0x01\n      add\n        /* \"CopyrightAgreementV1.sol\":6360:6361  r */\n      dup3\n        /* \"CopyrightAgreementV1.sol\":6360:6374  r.metadataJson */\n      0x02\n      add\n        /* \"CopyrightAgreementV1.sol\":6376:6377  r */\n      dup4\n        /* \"CopyrightAgreementV1.sol\":6376:6386  r.isActive */\n      0x03\n      add\n      0x00\n      swap1\n      sload\n      swap1\n      0x0100\n      exp\n      swap1\n      div\n      0xff\n      and\n        /* \"CopyrightAgreementV1.sol\":6388:6389  r */\n      dup5\n        /* \"CopyrightAgreementV1.sol\":6388:6401  r.submittedAt */\n      0x03\n      add\n      0x01\n      swap1\n      sload\n      swap1\n      0x0100\n      exp\n      swap1\n      div\n      0xffffffffffffffff\n      and\n        /* \"CopyrightAgreementV1.sol\":6403:6404  r */\n      dup6\n        /* \"CopyrightAgreementV1.sol\":6403:6415  r.approvedAt */\n      0x03\n      add\n      0x09\n      swap1\n      sload\n      swap1\n      0x0100\n      exp\n      swap1\n      div\n      0xffffffffffffffff\n      and\n        /* \"CopyrightAgreementV1.sol\":6321:6416  return (author.account, r.contentHash, r.metadataJson, r.isActive, r.submittedAt, r.approvedAt) */\n      dup5\n      dup1\n      sload\n      tag_196\n      swap1\n      tag_110\n      jump\t// in\n    tag_196:\n      dup1\n      0x1f\n      add\n      0x20\n      dup1\n      swap2\n      div\n      mul\n      0x20\n      add\n      mload(0x40)\n      swap1\n      dup2\n      add\n      0x40\n      mstore\n      dup1\n      swap3\n      swap2\n      swap1\n      dup2\n      dup2\n      mstore\n      0x20\n      add\n      dup3\n      dup1\n      sload\n      tag_197\n      swap1\n      tag_110\n      jump\t// in\n    tag_197:\n      dup1\n      iszero\n      tag_198\n      jumpi\n      dup1\n      0x1f\n      lt\n      tag_199\n      jumpi\n      0x0100\n      dup1\n      dup4\n      sload\n      div\n      mul\n      dup4\n      mstore\n      swap2\n      0x20\n      add\n      swap2\n      jump(tag_198)\n    tag_199:\n      dup3\n      add\n      swap2\n      swap1\n      0x00\n      mstore\n      keccak256(0x00, 0x20)\n      swap1\n    tag_200:\n      dup2\n      sload\n      dup2\n      mstore\n      swap1\n      0x01\n      add\n      swap1\n      0x20\n      add\n      dup1\n      dup4\n      gt\n      tag_200\n      jumpi\n      dup3\n      swap1\n      sub\n      0x1f\n      and\n      dup3\n      add\n      swap2\n    tag_198:\n      pop\n      pop\n      pop\n      pop\n      pop\n      swap5\n      pop\n      dup4\n      dup1\n      sload\n      tag_201\n      swap1\n      tag_110\n      jump\t// in\n    tag_201:\n      dup1\n      0x1f\n      add\n      0x20\n      dup1\n      swap2\n      div\n      mul\n      0x20\n      add\n      mload(0x40)\n      swap1\n      dup2\n      add\n      0x40\n      mstore\n      dup1\n      swap3\n      swap2\n      swap1\n      dup2\n      dup2\n      mstore\n      0x20\n      add\n      dup3\n      dup1\n      sload\n      tag_202\n      swap1\n      tag_110\n      jump\t// in\n    tag_202:\n      dup1\n      iszero\n      tag_203\n      jumpi\n      dup1\n      0x1f\n      lt\n      tag_204\n      jumpi\n      0x0100\n      dup1\n      dup4\n      sload\n      div\n      mul\n      dup4\n      mstore\n      swap2\n      0x20\n      add\n      swap2\n      jump(tag_203)\n    tag_204:\n      dup3\n      add\n      swap2\n      swap1\n      0x00\n      mstore\n      keccak256(0x00, 0x20)\n      swap1\n    tag_205:\n      dup2\n      sload\n      dup2\n      mstore\n      swap1\n      0x01\n      add\n      swap1\n      0x20\n      add\n      dup1\n      dup4\n      gt\n      tag_205\n      jumpi\n      dup3\n      swap1\n      sub\n      0x1f\n      and\n      dup3\n      add\n      swap2\n    tag_203:\n      pop\n      pop\n      pop\n      pop\n      pop\n      swap4\n      pop\n      swap7\n      pop\n      swap7\n      pop\n      swap7\n      pop\n      swap7\n      pop\n      swap7\n      pop\n      swap7\n      pop\n      pop\n        /* \"CopyrightAgreementV1.sol\":6003:6422  function getCopyrightInfo(uint256 dramaId) external view returns (... */\n      swap2\n      swap4\n      swap6\n      pop\n      swap2\n      swap4\n      swap6\n      jump\t// out\n        /* \"CopyrightAgreementV1.sol\":5373:5669  function approve(uint256 dramaId) external onlyProvider {... */\n    tag_85:\n        /* \"CopyrightAgreementV1.sol\":1449:1457  provider */\n      immutable(\"0x1d3be50b2bb17407dd170f1d5da128d1def30c6b1598d6a629e79b4775265526\")\n        /* \"CopyrightAgreementV1.sol\":1435:1457  msg.sender == provider */\n      0xffffffffffffffffffffffffffffffffffffffff\n      and\n        /* \"CopyrightAgreementV1.sol\":1435:1445  msg.sender */\n      caller\n        /* \"CopyrightAgreementV1.sol\":1435:1457  msg.sender == provider */\n      0xffffffffffffffffffffffffffffffffffffffff\n      and\n      eq\n        /* \"CopyrightAgreementV1.sol\":1427:1475  require(msg.sender == provider, \"ONLY_PROVIDER\") */\n      tag_207\n      jumpi\n      mload(0x40)\n      0x08c379a000000000000000000000000000000000000000000000000000000000\n      dup2\n      mstore\n      0x04\n      add\n      tag_208\n      swap1\n      tag_157\n      jump\t// in\n    tag_208:\n      mload(0x40)\n      dup1\n      swap2\n      sub\n      swap1\n      revert\n    tag_207:\n        /* \"CopyrightAgreementV1.sol\":5436:5452  Record storage r */\n      0x00\n        /* \"CopyrightAgreementV1.sol\":5455:5462  records */\n      0x07\n        /* \"CopyrightAgreementV1.sol\":5455:5471  records[dramaId] */\n      0x00\n        /* \"CopyrightAgreementV1.sol\":5463:5470  dramaId */\n      dup4\n        /* \"CopyrightAgreementV1.sol\":5455:5471  records[dramaId] */\n      dup2\n      mstore\n      0x20\n      add\n      swap1\n      dup2\n      mstore\n      0x20\n      add\n      0x00\n      keccak256\n        /* \"CopyrightAgreementV1.sol\":5436:5471  Record storage r = records[dramaId] */\n      swap1\n      pop\n        /* \"CopyrightAgreementV1.sol\":5486:5487  r */\n      dup1\n        /* \"CopyrightAgreementV1.sol\":5486:5494  r.exists */\n      0x00\n      add\n      0x00\n      swap1\n      sload\n      swap1\n      0x0100\n      exp\n      swap1\n      div\n      0xff\n      and\n        /* \"CopyrightAgreementV1.sol\":5478:5508  require(r.exists, \"NOT_FOUND\") */\n      tag_210\n      jumpi\n      mload(0x40)\n      0x08c379a000000000000000000000000000000000000000000000000000000000\n      dup2\n      mstore\n      0x04\n      add\n      tag_211\n      swap1\n      tag_161\n      jump\t// in\n    tag_211:\n      mload(0x40)\n      dup1\n      swap2\n      sub\n      swap1\n      revert\n    tag_210:\n        /* \"CopyrightAgreementV1.sol\":5524:5525  r */\n      dup1\n        /* \"CopyrightAgreementV1.sol\":5524:5534  r.isActive */\n      0x03\n      add\n      0x00\n      swap1\n      sload\n      swap1\n      0x0100\n      exp\n      swap1\n      div\n      0xff\n      and\n        /* \"CopyrightAgreementV1.sol\":5523:5534  !r.isActive */\n      iszero\n        /* \"CopyrightAgreementV1.sol\":5515:5553  require(!r.isActive, \"ALREADY_ACTIVE\") */\n      tag_212\n      jumpi\n      mload(0x40)\n      0x08c379a000000000000000000000000000000000000000000000000000000000\n      dup2\n      mstore\n      0x04\n      add\n      tag_213\n      swap1\n      tag_164\n      jump\t// in\n    tag_213:\n      mload(0x40)\n      dup1\n      swap2\n      sub\n      swap1\n      revert\n    tag_212:\n        /* \"CopyrightAgreementV1.sol\":5573:5577  true */\n      0x01\n        /* \"CopyrightAgreementV1.sol\":5560:5561  r */\n      dup2\n        /* \"CopyrightAgreementV1.sol\":5560:5570  r.isActive */\n      0x03\n      add\n      0x00\n        /* \"CopyrightAgreementV1.sol\":5560:5577  r.isActive = true */\n      0x0100\n      exp\n      dup2\n      sload\n      dup2\n      0xff\n      mul\n      not\n      and\n      swap1\n      dup4\n      iszero\n      iszero\n      mul\n      or\n      swap1\n      sstore\n      pop\n        /* \"CopyrightAgreementV1.sol\":5606:5621  block.timestamp */\n      timestamp\n        /* \"CopyrightAgreementV1.sol\":5584:5585  r */\n      dup2\n        /* \"CopyrightAgreementV1.sol\":5584:5596  r.approvedAt */\n      0x03\n      add\n      0x09\n        /* \"CopyrightAgreementV1.sol\":5584:5622  r.approvedAt = uint64(block.timestamp) */\n      0x0100\n      exp\n      dup2\n      sload\n      dup2\n      0xffffffffffffffff\n      mul\n      not\n      and\n      swap1\n      dup4\n      0xffffffffffffffff\n      and\n      mul\n      or\n      swap1\n      sstore\n      pop\n        /* \"CopyrightAgreementV1.sol\":5652:5662  msg.sender */\n      caller\n        /* \"CopyrightAgreementV1.sol\":5634:5663  Approved(dramaId, msg.sender) */\n      0xffffffffffffffffffffffffffffffffffffffff\n      and\n        /* \"CopyrightAgreementV1.sol\":5643:5650  dramaId */\n      dup3\n        /* \"CopyrightAgreementV1.sol\":5634:5663  Approved(dramaId, msg.sender) */\n      0x7b39c92a7e1a86e846edaeff6eba715a046352c596794c2a374269c126a99768\n      mload(0x40)\n      mload(0x40)\n      dup1\n      swap2\n      sub\n      swap1\n      log3\n        /* \"CopyrightAgreementV1.sol\":5429:5669  {... */\n      pop\n        /* \"CopyrightAgreementV1.sol\":5373:5669  function approve(uint256 dramaId) external onlyProvider {... */\n      pop\n      jump\t// out\n        /* \"CopyrightAgreementV1.sol\":4167:4309  function setEvidenceAgency(address agency) external onlyProvider {... */\n    tag_89:\n        /* \"CopyrightAgreementV1.sol\":1449:1457  provider */\n      immutable(\"0x1d3be50b2bb17407dd170f1d5da128d1def30c6b1598d6a629e79b4775265526\")\n        /* \"CopyrightAgreementV1.sol\":1435:1457  msg.sender == provider */\n      0xffffffffffffffffffffffffffffffffffffffff\n      and\n        /* \"CopyrightAgreementV1.sol\":1435:1445  msg.sender */\n      caller\n        /* \"CopyrightAgreementV1.sol\":1435:1457  msg.sender == provider */\n      0xffffffffffffffffffffffffffffffffffffffff\n      and\n      eq\n        /* \"CopyrightAgreementV1.sol\":1427:1475  require(msg.sender == provider, \"ONLY_PROVIDER\") */\n      tag_215\n      jumpi\n      mload(0x40)\n      0x08c379a000000000000000000000000000000000000000000000000000000000\n      dup2\n      mstore\n      0x04\n      add\n      tag_216\n      swap1\n      tag_157\n      jump\t// in\n    tag_216:\n      mload(0x40)\n      dup1\n      swap2\n      sub\n      swap1\n      revert\n    tag_215:\n        /* \"CopyrightAgreementV1.sol\":4256:4262  agency */\n      dup1\n        /* \"CopyrightAgreementV1.sol\":4239:4253  evidenceAgency */\n      0x06\n      0x00\n        /* \"CopyrightAgreementV1.sol\":4239:4262  evidenceAgency = agency */\n      0x0100\n      exp\n      dup2\n      sload\n      dup2\n      0xffffffffffffffffffffffffffffffffffffffff\n      mul\n      not\n      and\n      swap1\n      dup4\n      0xffffffffffffffffffffffffffffffffffffffff\n      and\n      mul\n      or\n      swap1\n      sstore\n      pop\n        /* \"CopyrightAgreementV1.sol\":4274:4303  EvidenceAgencyUpdated(agency) */\n      0xbce2d31c3e166333de6f7791ca106f1d1d9b1bee2f24a42e07f7d0c7a2c437c5\n        /* \"CopyrightAgreementV1.sol\":4296:4302  agency */\n      dup2\n        /* \"CopyrightAgreementV1.sol\":4274:4303  EvidenceAgencyUpdated(agency) */\n      mload(0x40)\n      tag_218\n      swap2\n      swap1\n      tag_34\n      jump\t// in\n    tag_218:\n      mload(0x40)\n      dup1\n      swap2\n      sub\n      swap1\n      log1\n        /* \"CopyrightAgreementV1.sol\":4167:4309  function setEvidenceAgency(address agency) external onlyProvider {... */\n      pop\n      jump\t// out\n        /* \"CopyrightAgreementV1.sol\":495:523  string public contractNumber */\n    tag_91:\n      0x00\n      dup1\n      sload\n      tag_219\n      swap1\n      tag_110\n      jump\t// in\n    tag_219:\n      dup1\n      0x1f\n      add\n      0x20\n      dup1\n      swap2\n      div\n      mul\n      0x20\n      add\n      mload(0x40)\n      swap1\n      dup2\n      add\n      0x40\n      mstore\n      dup1\n      swap3\n      swap2\n      swap1\n      dup2\n      dup2\n      mstore\n      0x20\n      add\n      dup3\n      dup1\n      sload\n      tag_220\n      swap1\n      tag_110\n      jump\t// in\n    tag_220:\n      dup1\n      iszero\n      tag_221\n      jumpi\n      dup1\n      0x1f\n      lt\n      tag_222\n      jumpi\n      0x0100\n      dup1\n      dup4\n      sload\n      div\n      mul\n      dup4\n      mstore\n      swap2\n      0x20\n      add\n      swap2\n      jump(tag_221)\n    tag_222:\n      dup3\n      add\n      swap2\n      swap1\n      0x00\n      mstore\n      keccak256(0x00, 0x20)\n      swap1\n    tag_223:\n      dup2\n      sload\n      dup2\n      mstore\n      swap1\n      0x01\n      add\n      swap1\n      0x20\n      add\n      dup1\n      dup4\n      gt\n      tag_223\n      jumpi\n      dup3\n      swap1\n      sub\n      0x1f\n      and\n      dup3\n      add\n      swap2\n    tag_221:\n      pop\n      pop\n      pop\n      pop\n      pop\n      dup2\n      jump\t// out\n        /* \"CopyrightAgreementV1.sol\":1206:1235  address public evidenceAgency */\n    tag_94:\n      0x06\n      0x00\n      swap1\n      sload\n      swap1\n      0x0100\n      exp\n      swap1\n      div\n      0xffffffffffffffffffffffffffffffffffffffff\n      and\n      dup2\n      jump\t// out\n        /* \"CopyrightAgreementV1.sol\":2612:2637  uint64 public rightsEndAt */\n    tag_97:\n      0x0b\n      0x08\n      swap1\n      sload\n      swap1\n      0x0100\n      exp\n      swap1\n      div\n      0xffffffffffffffff\n      and\n      dup2\n      jump\t// out\n        /* \"CopyrightAgreementV1.sol\":708:742  uint64 public immutable deployedAt */\n    tag_100:\n      immutable(\"0x789bcdf275fa270780a52ae3b79bb1ce0fda7e0aaad87b57b74bb99ac290714a\")\n      dup2\n      jump\t// out\n        /* \"CopyrightAgreementV1.sol\":3707:4161  function setAuthorInfo(... */\n    tag_105:\n        /* \"CopyrightAgreementV1.sol\":3936:3944  provider */\n      immutable(\"0x1d3be50b2bb17407dd170f1d5da128d1def30c6b1598d6a629e79b4775265526\")\n        /* \"CopyrightAgreementV1.sol\":3922:3944  msg.sender == provider */\n      0xffffffffffffffffffffffffffffffffffffffff\n      and\n        /* \"CopyrightAgreementV1.sol\":3922:3932  msg.sender */\n      caller\n        /* \"CopyrightAgreementV1.sol\":3922:3944  msg.sender == provider */\n      0xffffffffffffffffffffffffffffffffffffffff\n      and\n      eq\n        /* \"CopyrightAgreementV1.sol\":3922:3976  msg.sender == provider || msg.sender == author.account */\n      dup1\n      tag_225\n      jumpi\n      pop\n        /* \"CopyrightAgreementV1.sol\":3962:3968  author */\n      0x02\n        /* \"CopyrightAgreementV1.sol\":3962:3976  author.account */\n      0x01\n      add\n      0x00\n      swap1\n      sload\n      swap1\n      0x0100\n      exp\n      swap1\n      div\n      0xffffffffffffffffffffffffffffffffffffffff\n      and\n        /* \"CopyrightAgreementV1.sol\":3948:3976  msg.sender == author.account */\n      0xffffffffffffffffffffffffffffffffffffffff\n      and\n        /* \"CopyrightAgreementV1.sol\":3948:3958  msg.sender */\n      caller\n        /* \"CopyrightAgreementV1.sol\":3948:3976  msg.sender == author.account */\n      0xffffffffffffffffffffffffffffffffffffffff\n      and\n      eq\n        /* \"CopyrightAgreementV1.sol\":3922:3976  msg.sender == provider || msg.sender == author.account */\n    tag_225:\n        /* \"CopyrightAgreementV1.sol\":3922:4008  msg.sender == provider || msg.sender == author.account || author.account == address(0) */\n      dup1\n      tag_226\n      jumpi\n      pop\n        /* \"CopyrightAgreementV1.sol\":4006:4007  0 */\n      0x00\n        /* \"CopyrightAgreementV1.sol\":3980:4008  author.account == address(0) */\n      0xffffffffffffffffffffffffffffffffffffffff\n      and\n        /* \"CopyrightAgreementV1.sol\":3980:3986  author */\n      0x02\n        /* \"CopyrightAgreementV1.sol\":3980:3994  author.account */\n      0x01\n      add\n      0x00\n      swap1\n      sload\n      swap1\n      0x0100\n      exp\n      swap1\n      div\n      0xffffffffffffffffffffffffffffffffffffffff\n      and\n        /* \"CopyrightAgreementV1.sol\":3980:4008  author.account == address(0) */\n      0xffffffffffffffffffffffffffffffffffffffff\n      and\n      eq\n        /* \"CopyrightAgreementV1.sol\":3922:4008  msg.sender == provider || msg.sender == author.account || author.account == address(0) */\n    tag_226:\n        /* \"CopyrightAgreementV1.sol\":3914:4026  require(msg.sender == provider || msg.sender == author.account || author.account == address(0), \"NO_PERMISSION\") */\n      tag_227\n      jumpi\n      mload(0x40)\n      0x08c379a000000000000000000000000000000000000000000000000000000000\n      dup2\n      mstore\n      0x04\n      add\n      tag_228\n      swap1\n      tag_229\n      jump\t// in\n    tag_228:\n      mload(0x40)\n      dup1\n      swap2\n      sub\n      swap1\n      revert\n    tag_227:\n        /* \"CopyrightAgreementV1.sol\":4042:4115  Party({ name: name, account: account, idHash: idHash, contact: contact }) */\n      mload(0x40)\n      dup1\n      0x80\n      add\n      0x40\n      mstore\n      dup1\n        /* \"CopyrightAgreementV1.sol\":4056:4060  name */\n      dup8\n      dup8\n        /* \"CopyrightAgreementV1.sol\":4042:4115  Party({ name: name, account: account, idHash: idHash, contact: contact }) */\n      dup1\n      dup1\n      0x1f\n      add\n      0x20\n      dup1\n      swap2\n      div\n      mul\n      0x20\n      add\n      mload(0x40)\n      swap1\n      dup2\n      add\n      0x40\n      mstore\n      dup1\n      swap4\n      swap3\n      swap2\n      swap1\n      dup2\n      dup2\n      mstore\n      0x20\n      add\n      dup4\n      dup4\n      dup1\n      dup3\n      dup5\n      calldatacopy\n      0x00\n      dup2\n      dup5\n      add\n      mstore\n      not(0x1f)\n      0x1f\n      dup3\n      add\n      and\n      swap1\n      pop\n      dup1\n      dup4\n      add\n      swap3\n      pop\n      pop\n      pop\n      pop\n      pop\n      pop\n      pop\n      dup2\n      mstore\n      0x20\n      add\n        /* \"CopyrightAgreementV1.sol\":4071:4078  account */\n      dup6\n        /* \"CopyrightAgreementV1.sol\":4042:4115  Party({ name: name, account: account, idHash: idHash, contact: contact }) */\n      0xffffffffffffffffffffffffffffffffffffffff\n      and\n      dup2\n      mstore\n      0x20\n      add\n        /* \"CopyrightAgreementV1.sol\":4088:4094  idHash */\n      dup5\n        /* \"CopyrightAgreementV1.sol\":4042:4115  Party({ name: name, account: account, idHash: idHash, contact: contact }) */\n      dup2\n      mstore\n      0x20\n      add\n        /* \"CopyrightAgreementV1.sol\":4105:4112  contact */\n      dup4\n      dup4\n        /* \"CopyrightAgreementV1.sol\":4042:4115  Party({ name: name, account: account, idHash: idHash, contact: contact }) */\n      dup1\n      dup1\n      0x1f\n      add\n      0x20\n      dup1\n      swap2\n      div\n      mul\n      0x20\n      add\n      mload(0x40)\n      swap1\n      dup2\n      add\n      0x40\n      mstore\n      dup1\n      swap4\n      swap3\n      swap2\n      swap1\n      dup2\n      dup2\n      mstore\n      0x20\n      add\n      dup4\n      dup4\n      dup1\n      dup3\n      dup5\n      calldatacopy\n      0x00\n      dup2\n      dup5\n      add\n      mstore\n      not(0x1f)\n      0x1f\n      dup3\n      add\n      and\n      swap1\n      pop\n      dup1\n      dup4\n      add\n      swap3\n      pop\n      pop\n      pop\n      pop\n      pop\n      pop\n      pop\n      dup2\n      mstore\n      pop\n        /* \"CopyrightAgreementV1.sol\":4033:4039  author */\n      0x02\n        /* \"CopyrightAgreementV1.sol\":4033:4115  author = Party({ name: name, account: account, idHash: idHash, contact: contact }) */\n      0x00\n      dup3\n      add\n      mload\n      dup2\n      0x00\n      add\n      swap1\n      dup2\n      tag_230\n      swap2\n      swap1\n      tag_231\n      jump\t// in\n    tag_230:\n      pop\n      0x20\n      dup3\n      add\n      mload\n      dup2\n      0x01\n      add\n      exp(0x0100, 0x00)\n      dup2\n      sload\n      dup2\n      0xffffffffffffffffffffffffffffffffffffffff\n      mul\n      not\n      and\n      swap1\n      dup4\n      0xffffffffffffffffffffffffffffffffffffffff\n      and\n      mul\n      or\n      swap1\n      sstore\n      pop\n      0x40\n      dup3\n      add\n      mload\n      dup2\n      0x02\n      add\n      sstore\n      0x60\n      dup3\n      add\n      mload\n      dup2\n      0x03\n      add\n      swap1\n      dup2\n      tag_232\n      swap2\n      swap1\n      tag_231\n      jump\t// in\n    tag_232:\n      pop\n      swap1\n      pop\n      pop\n        /* \"CopyrightAgreementV1.sol\":4127:4155  AuthorUpdated(name, account) */\n      0x732966c78028f36977a02708ac5f1ad1b8495e3ae6ec7d56e586c0923641c6b4\n        /* \"CopyrightAgreementV1.sol\":4141:4145  name */\n      dup7\n      dup7\n        /* \"CopyrightAgreementV1.sol\":4147:4154  account */\n      dup7\n        /* \"CopyrightAgreementV1.sol\":4127:4155  AuthorUpdated(name, account) */\n      mload(0x40)\n      tag_233\n      swap4\n      swap3\n      swap2\n      swap1\n      tag_234\n      jump\t// in\n    tag_233:\n      mload(0x40)\n      dup1\n      swap2\n      sub\n      swap1\n      log1\n        /* \"CopyrightAgreementV1.sol\":3707:4161  function setAuthorInfo(... */\n      pop\n      pop\n      pop\n      pop\n      pop\n      pop\n      jump\t// out\n        /* \"CopyrightAgreementV1.sol\":451:490  string public constant VERSION = \"V1.0\" */\n    tag_107:\n      mload(0x40)\n      dup1\n      0x40\n      add\n      0x40\n      mstore\n      dup1\n      0x04\n      dup2\n      mstore\n      0x20\n      add\n      0x56312e3000000000000000000000000000000000000000000000000000000000\n      dup2\n      mstore\n      pop\n      dup2\n      jump\t// out\n        /* \"#utility.yul\":7:108   */\n    tag_235:\n        /* \"#utility.yul\":43:50   */\n      0x00\n        /* \"#utility.yul\":83:101   */\n      0xffffffffffffffff\n        /* \"#utility.yul\":76:81   */\n      dup3\n        /* \"#utility.yul\":72:102   */\n      and\n        /* \"#utility.yul\":61:102   */\n      swap1\n      pop\n        /* \"#utility.yul\":7:108   */\n      swap2\n      swap1\n      pop\n      jump\t// out\n        /* \"#utility.yul\":114:229   */\n    tag_236:\n        /* \"#utility.yul\":199:222   */\n      tag_335\n        /* \"#utility.yul\":216:221   */\n      dup2\n        /* \"#utility.yul\":199:222   */\n      tag_235\n      jump\t// in\n    tag_335:\n        /* \"#utility.yul\":194:197   */\n      dup3\n        /* \"#utility.yul\":187:223   */\n      mstore\n        /* \"#utility.yul\":114:229   */\n      pop\n      pop\n      jump\t// out\n        /* \"#utility.yul\":235:453   */\n    tag_30:\n        /* \"#utility.yul\":326:330   */\n      0x00\n        /* \"#utility.yul\":364:366   */\n      0x20\n        /* \"#utility.yul\":353:362   */\n      dup3\n        /* \"#utility.yul\":349:367   */\n      add\n        /* \"#utility.yul\":341:367   */\n      swap1\n      pop\n        /* \"#utility.yul\":377:446   */\n      tag_337\n        /* \"#utility.yul\":443:444   */\n      0x00\n        /* \"#utility.yul\":432:441   */\n      dup4\n        /* \"#utility.yul\":428:445   */\n      add\n        /* \"#utility.yul\":419:425   */\n      dup5\n        /* \"#utility.yul\":377:446   */\n      tag_236\n      jump\t// in\n    tag_337:\n        /* \"#utility.yul\":235:453   */\n      swap3\n      swap2\n      pop\n      pop\n      jump\t// out\n        /* \"#utility.yul\":459:585   */\n    tag_237:\n        /* \"#utility.yul\":496:503   */\n      0x00\n        /* \"#utility.yul\":536:578   */\n      0xffffffffffffffffffffffffffffffffffffffff\n        /* \"#utility.yul\":529:534   */\n      dup3\n        /* \"#utility.yul\":525:579   */\n      and\n        /* \"#utility.yul\":514:579   */\n      swap1\n      pop\n        /* \"#utility.yul\":459:585   */\n      swap2\n      swap1\n      pop\n      jump\t// out\n        /* \"#utility.yul\":591:687   */\n    tag_238:\n        /* \"#utility.yul\":628:635   */\n      0x00\n        /* \"#utility.yul\":657:681   */\n      tag_340\n        /* \"#utility.yul\":675:680   */\n      dup3\n        /* \"#utility.yul\":657:681   */\n      tag_237\n      jump\t// in\n    tag_340:\n        /* \"#utility.yul\":646:681   */\n      swap1\n      pop\n        /* \"#utility.yul\":591:687   */\n      swap2\n      swap1\n      pop\n      jump\t// out\n        /* \"#utility.yul\":693:811   */\n    tag_239:\n        /* \"#utility.yul\":780:804   */\n      tag_342\n        /* \"#utility.yul\":798:803   */\n      dup2\n        /* \"#utility.yul\":780:804   */\n      tag_238\n      jump\t// in\n    tag_342:\n        /* \"#utility.yul\":775:778   */\n      dup3\n        /* \"#utility.yul\":768:805   */\n      mstore\n        /* \"#utility.yul\":693:811   */\n      pop\n      pop\n      jump\t// out\n        /* \"#utility.yul\":817:1039   */\n    tag_34:\n        /* \"#utility.yul\":910:914   */\n      0x00\n        /* \"#utility.yul\":948:950   */\n      0x20\n        /* \"#utility.yul\":937:946   */\n      dup3\n        /* \"#utility.yul\":933:951   */\n      add\n        /* \"#utility.yul\":925:951   */\n      swap1\n      pop\n        /* \"#utility.yul\":961:1032   */\n      tag_344\n        /* \"#utility.yul\":1029:1030   */\n      0x00\n        /* \"#utility.yul\":1018:1027   */\n      dup4\n        /* \"#utility.yul\":1014:1031   */\n      add\n        /* \"#utility.yul\":1005:1011   */\n      dup5\n        /* \"#utility.yul\":961:1032   */\n      tag_239\n      jump\t// in\n    tag_344:\n        /* \"#utility.yul\":817:1039   */\n      swap3\n      swap2\n      pop\n      pop\n      jump\t// out\n        /* \"#utility.yul\":1045:1144   */\n    tag_240:\n        /* \"#utility.yul\":1097:1103   */\n      0x00\n        /* \"#utility.yul\":1131:1136   */\n      dup2\n        /* \"#utility.yul\":1125:1137   */\n      mload\n        /* \"#utility.yul\":1115:1137   */\n      swap1\n      pop\n        /* \"#utility.yul\":1045:1144   */\n      swap2\n      swap1\n      pop\n      jump\t// out\n        /* \"#utility.yul\":1150:1319   */\n    tag_241:\n        /* \"#utility.yul\":1234:1245   */\n      0x00\n        /* \"#utility.yul\":1268:1274   */\n      dup3\n        /* \"#utility.yul\":1263:1266   */\n      dup3\n        /* \"#utility.yul\":1256:1275   */\n      mstore\n        /* \"#utility.yul\":1308:1312   */\n      0x20\n        /* \"#utility.yul\":1303:1306   */\n      dup3\n        /* \"#utility.yul\":1299:1313   */\n      add\n        /* \"#utility.yul\":1284:1313   */\n      swap1\n      pop\n        /* \"#utility.yul\":1150:1319   */\n      swap3\n      swap2\n      pop\n      pop\n      jump\t// out\n        /* \"#utility.yul\":1325:1464   */\n    tag_242:\n        /* \"#utility.yul\":1414:1420   */\n      dup3\n        /* \"#utility.yul\":1409:1412   */\n      dup2\n        /* \"#utility.yul\":1404:1407   */\n      dup4\n        /* \"#utility.yul\":1398:1421   */\n      mcopy\n        /* \"#utility.yul\":1455:1456   */\n      0x00\n        /* \"#utility.yul\":1446:1452   */\n      dup4\n        /* \"#utility.yul\":1441:1444   */\n      dup4\n        /* \"#utility.yul\":1437:1453   */\n      add\n        /* \"#utility.yul\":1430:1457   */\n      mstore\n        /* \"#utility.yul\":1325:1464   */\n      pop\n      pop\n      pop\n      jump\t// out\n        /* \"#utility.yul\":1470:1572   */\n    tag_243:\n        /* \"#utility.yul\":1511:1517   */\n      0x00\n        /* \"#utility.yul\":1562:1564   */\n      0x1f\n        /* \"#utility.yul\":1558:1565   */\n      not\n        /* \"#utility.yul\":1553:1555   */\n      0x1f\n        /* \"#utility.yul\":1546:1551   */\n      dup4\n        /* \"#utility.yul\":1542:1556   */\n      add\n        /* \"#utility.yul\":1538:1566   */\n      and\n        /* \"#utility.yul\":1528:1566   */\n      swap1\n      pop\n        /* \"#utility.yul\":1470:1572   */\n      swap2\n      swap1\n      pop\n      jump\t// out\n        /* \"#utility.yul\":1578:1955   */\n    tag_244:\n        /* \"#utility.yul\":1666:1669   */\n      0x00\n        /* \"#utility.yul\":1694:1733   */\n      tag_350\n        /* \"#utility.yul\":1727:1732   */\n      dup3\n        /* \"#utility.yul\":1694:1733   */\n      tag_240\n      jump\t// in\n    tag_350:\n        /* \"#utility.yul\":1749:1820   */\n      tag_351\n        /* \"#utility.yul\":1813:1819   */\n      dup2\n        /* \"#utility.yul\":1808:1811   */\n      dup6\n        /* \"#utility.yul\":1749:1820   */\n      tag_241\n      jump\t// in\n    tag_351:\n        /* \"#utility.yul\":1742:1820   */\n      swap4\n      pop\n        /* \"#utility.yul\":1829:1894   */\n      tag_352\n        /* \"#utility.yul\":1887:1893   */\n      dup2\n        /* \"#utility.yul\":1882:1885   */\n      dup6\n        /* \"#utility.yul\":1875:1879   */\n      0x20\n        /* \"#utility.yul\":1868:1873   */\n      dup7\n        /* \"#utility.yul\":1864:1880   */\n      add\n        /* \"#utility.yul\":1829:1894   */\n      tag_242\n      jump\t// in\n    tag_352:\n        /* \"#utility.yul\":1919:1948   */\n      tag_353\n        /* \"#utility.yul\":1941:1947   */\n      dup2\n        /* \"#utility.yul\":1919:1948   */\n      tag_243\n      jump\t// in\n    tag_353:\n        /* \"#utility.yul\":1914:1917   */\n      dup5\n        /* \"#utility.yul\":1910:1949   */\n      add\n        /* \"#utility.yul\":1903:1949   */\n      swap2\n      pop\n        /* \"#utility.yul\":1670:1955   */\n      pop\n        /* \"#utility.yul\":1578:1955   */\n      swap3\n      swap2\n      pop\n      pop\n      jump\t// out\n        /* \"#utility.yul\":1961:2274   */\n    tag_38:\n        /* \"#utility.yul\":2074:2078   */\n      0x00\n        /* \"#utility.yul\":2112:2114   */\n      0x20\n        /* \"#utility.yul\":2101:2110   */\n      dup3\n        /* \"#utility.yul\":2097:2115   */\n      add\n        /* \"#utility.yul\":2089:2115   */\n      swap1\n      pop\n        /* \"#utility.yul\":2161:2170   */\n      dup2\n        /* \"#utility.yul\":2155:2159   */\n      dup2\n        /* \"#utility.yul\":2151:2171   */\n      sub\n        /* \"#utility.yul\":2147:2148   */\n      0x00\n        /* \"#utility.yul\":2136:2145   */\n      dup4\n        /* \"#utility.yul\":2132:2149   */\n      add\n        /* \"#utility.yul\":2125:2172   */\n      mstore\n        /* \"#utility.yul\":2189:2267   */\n      tag_355\n        /* \"#utility.yul\":2262:2266   */\n      dup2\n        /* \"#utility.yul\":2253:2259   */\n      dup5\n        /* \"#utility.yul\":2189:2267   */\n      tag_244\n      jump\t// in\n    tag_355:\n        /* \"#utility.yul\":2181:2267   */\n      swap1\n      pop\n        /* \"#utility.yul\":1961:2274   */\n      swap3\n      swap2\n      pop\n      pop\n      jump\t// out\n        /* \"#utility.yul\":2361:2478   */\n    tag_246:\n        /* \"#utility.yul\":2470:2471   */\n      0x00\n        /* \"#utility.yul\":2467:2468   */\n      0x00\n        /* \"#utility.yul\":2460:2472   */\n      revert\n        /* \"#utility.yul\":2484:2601   */\n    tag_247:\n        /* \"#utility.yul\":2593:2594   */\n      0x00\n        /* \"#utility.yul\":2590:2591   */\n      0x00\n        /* \"#utility.yul\":2583:2595   */\n      revert\n        /* \"#utility.yul\":2607:2684   */\n    tag_248:\n        /* \"#utility.yul\":2644:2651   */\n      0x00\n        /* \"#utility.yul\":2673:2678   */\n      dup2\n        /* \"#utility.yul\":2662:2678   */\n      swap1\n      pop\n        /* \"#utility.yul\":2607:2684   */\n      swap2\n      swap1\n      pop\n      jump\t// out\n        /* \"#utility.yul\":2690:2812   */\n    tag_249:\n        /* \"#utility.yul\":2763:2787   */\n      tag_361\n        /* \"#utility.yul\":2781:2786   */\n      dup2\n        /* \"#utility.yul\":2763:2787   */\n      tag_248\n      jump\t// in\n    tag_361:\n        /* \"#utility.yul\":2756:2761   */\n      dup2\n        /* \"#utility.yul\":2753:2788   */\n      eq\n        /* \"#utility.yul\":2743:2806   */\n      tag_362\n      jumpi\n        /* \"#utility.yul\":2802:2803   */\n      0x00\n        /* \"#utility.yul\":2799:2800   */\n      0x00\n        /* \"#utility.yul\":2792:2804   */\n      revert\n        /* \"#utility.yul\":2743:2806   */\n    tag_362:\n        /* \"#utility.yul\":2690:2812   */\n      pop\n      jump\t// out\n        /* \"#utility.yul\":2818:2957   */\n    tag_250:\n        /* \"#utility.yul\":2864:2869   */\n      0x00\n        /* \"#utility.yul\":2902:2908   */\n      dup2\n        /* \"#utility.yul\":2889:2909   */\n      calldataload\n        /* \"#utility.yul\":2880:2909   */\n      swap1\n      pop\n        /* \"#utility.yul\":2918:2951   */\n      tag_364\n        /* \"#utility.yul\":2945:2950   */\n      dup2\n        /* \"#utility.yul\":2918:2951   */\n      tag_249\n      jump\t// in\n    tag_364:\n        /* \"#utility.yul\":2818:2957   */\n      swap3\n      swap2\n      pop\n      pop\n      jump\t// out\n        /* \"#utility.yul\":2963:3080   */\n    tag_251:\n        /* \"#utility.yul\":3072:3073   */\n      0x00\n        /* \"#utility.yul\":3069:3070   */\n      0x00\n        /* \"#utility.yul\":3062:3074   */\n      revert\n        /* \"#utility.yul\":3086:3203   */\n    tag_252:\n        /* \"#utility.yul\":3195:3196   */\n      0x00\n        /* \"#utility.yul\":3192:3193   */\n      0x00\n        /* \"#utility.yul\":3185:3197   */\n      revert\n        /* \"#utility.yul\":3209:3326   */\n    tag_253:\n        /* \"#utility.yul\":3318:3319   */\n      0x00\n        /* \"#utility.yul\":3315:3316   */\n      0x00\n        /* \"#utility.yul\":3308:3320   */\n      revert\n        /* \"#utility.yul\":3346:3899   */\n    tag_254:\n        /* \"#utility.yul\":3404:3412   */\n      0x00\n        /* \"#utility.yul\":3414:3420   */\n      0x00\n        /* \"#utility.yul\":3464:3467   */\n      dup4\n        /* \"#utility.yul\":3457:3461   */\n      0x1f\n        /* \"#utility.yul\":3449:3455   */\n      dup5\n        /* \"#utility.yul\":3445:3462   */\n      add\n        /* \"#utility.yul\":3441:3468   */\n      slt\n        /* \"#utility.yul\":3431:3553   */\n      tag_369\n      jumpi\n        /* \"#utility.yul\":3472:3551   */\n      tag_370\n      tag_251\n      jump\t// in\n    tag_370:\n        /* \"#utility.yul\":3431:3553   */\n    tag_369:\n        /* \"#utility.yul\":3585:3591   */\n      dup3\n        /* \"#utility.yul\":3572:3592   */\n      calldataload\n        /* \"#utility.yul\":3562:3592   */\n      swap1\n      pop\n        /* \"#utility.yul\":3615:3633   */\n      0xffffffffffffffff\n        /* \"#utility.yul\":3607:3613   */\n      dup2\n        /* \"#utility.yul\":3604:3634   */\n      gt\n        /* \"#utility.yul\":3601:3718   */\n      iszero\n      tag_371\n      jumpi\n        /* \"#utility.yul\":3637:3716   */\n      tag_372\n      tag_252\n      jump\t// in\n    tag_372:\n        /* \"#utility.yul\":3601:3718   */\n    tag_371:\n        /* \"#utility.yul\":3751:3755   */\n      0x20\n        /* \"#utility.yul\":3743:3749   */\n      dup4\n        /* \"#utility.yul\":3739:3756   */\n      add\n        /* \"#utility.yul\":3727:3756   */\n      swap2\n      pop\n        /* \"#utility.yul\":3805:3808   */\n      dup4\n        /* \"#utility.yul\":3797:3801   */\n      0x01\n        /* \"#utility.yul\":3789:3795   */\n      dup3\n        /* \"#utility.yul\":3785:3802   */\n      mul\n        /* \"#utility.yul\":3775:3783   */\n      dup4\n        /* \"#utility.yul\":3771:3803   */\n      add\n        /* \"#utility.yul\":3768:3809   */\n      gt\n        /* \"#utility.yul\":3765:3893   */\n      iszero\n      tag_373\n      jumpi\n        /* \"#utility.yul\":3812:3891   */\n      tag_374\n      tag_253\n      jump\t// in\n    tag_374:\n        /* \"#utility.yul\":3765:3893   */\n    tag_373:\n        /* \"#utility.yul\":3346:3899   */\n      swap3\n      pop\n      swap3\n      swap1\n      pop\n      jump\t// out\n        /* \"#utility.yul\":3905:4924   */\n    tag_41:\n        /* \"#utility.yul\":4006:4012   */\n      0x00\n        /* \"#utility.yul\":4014:4020   */\n      0x00\n        /* \"#utility.yul\":4022:4028   */\n      0x00\n        /* \"#utility.yul\":4030:4036   */\n      0x00\n        /* \"#utility.yul\":4038:4044   */\n      0x00\n        /* \"#utility.yul\":4087:4089   */\n      0x60\n        /* \"#utility.yul\":4075:4084   */\n      dup7\n        /* \"#utility.yul\":4066:4073   */\n      dup9\n        /* \"#utility.yul\":4062:4085   */\n      sub\n        /* \"#utility.yul\":4058:4090   */\n      slt\n        /* \"#utility.yul\":4055:4174   */\n      iszero\n      tag_376\n      jumpi\n        /* \"#utility.yul\":4093:4172   */\n      tag_377\n      tag_246\n      jump\t// in\n    tag_377:\n        /* \"#utility.yul\":4055:4174   */\n    tag_376:\n        /* \"#utility.yul\":4213:4214   */\n      0x00\n        /* \"#utility.yul\":4238:4291   */\n      tag_378\n        /* \"#utility.yul\":4283:4290   */\n      dup9\n        /* \"#utility.yul\":4274:4280   */\n      dup3\n        /* \"#utility.yul\":4263:4272   */\n      dup10\n        /* \"#utility.yul\":4259:4281   */\n      add\n        /* \"#utility.yul\":4238:4291   */\n      tag_250\n      jump\t// in\n    tag_378:\n        /* \"#utility.yul\":4228:4291   */\n      swap6\n      pop\n        /* \"#utility.yul\":4184:4301   */\n      pop\n        /* \"#utility.yul\":4368:4370   */\n      0x20\n        /* \"#utility.yul\":4357:4366   */\n      dup7\n        /* \"#utility.yul\":4353:4371   */\n      add\n        /* \"#utility.yul\":4340:4372   */\n      calldataload\n        /* \"#utility.yul\":4399:4417   */\n      0xffffffffffffffff\n        /* \"#utility.yul\":4391:4397   */\n      dup2\n        /* \"#utility.yul\":4388:4418   */\n      gt\n        /* \"#utility.yul\":4385:4502   */\n      iszero\n      tag_379\n      jumpi\n        /* \"#utility.yul\":4421:4500   */\n      tag_380\n      tag_247\n      jump\t// in\n    tag_380:\n        /* \"#utility.yul\":4385:4502   */\n    tag_379:\n        /* \"#utility.yul\":4534:4599   */\n      tag_381\n        /* \"#utility.yul\":4591:4598   */\n      dup9\n        /* \"#utility.yul\":4582:4588   */\n      dup3\n        /* \"#utility.yul\":4571:4580   */\n      dup10\n        /* \"#utility.yul\":4567:4589   */\n      add\n        /* \"#utility.yul\":4534:4599   */\n      tag_254\n      jump\t// in\n    tag_381:\n        /* \"#utility.yul\":4516:4599   */\n      swap5\n      pop\n      swap5\n      pop\n        /* \"#utility.yul\":4311:4609   */\n      pop\n        /* \"#utility.yul\":4676:4678   */\n      0x40\n        /* \"#utility.yul\":4665:4674   */\n      dup7\n        /* \"#utility.yul\":4661:4679   */\n      add\n        /* \"#utility.yul\":4648:4680   */\n      calldataload\n        /* \"#utility.yul\":4707:4725   */\n      0xffffffffffffffff\n        /* \"#utility.yul\":4699:4705   */\n      dup2\n        /* \"#utility.yul\":4696:4726   */\n      gt\n        /* \"#utility.yul\":4693:4810   */\n      iszero\n      tag_382\n      jumpi\n        /* \"#utility.yul\":4729:4808   */\n      tag_383\n      tag_247\n      jump\t// in\n    tag_383:\n        /* \"#utility.yul\":4693:4810   */\n    tag_382:\n        /* \"#utility.yul\":4842:4907   */\n      tag_384\n        /* \"#utility.yul\":4899:4906   */\n      dup9\n        /* \"#utility.yul\":4890:4896   */\n      dup3\n        /* \"#utility.yul\":4879:4888   */\n      dup10\n        /* \"#utility.yul\":4875:4897   */\n      add\n        /* \"#utility.yul\":4842:4907   */\n      tag_254\n      jump\t// in\n    tag_384:\n        /* \"#utility.yul\":4824:4907   */\n      swap3\n      pop\n      swap3\n      pop\n        /* \"#utility.yul\":4619:4917   */\n      pop\n        /* \"#utility.yul\":3905:4924   */\n      swap3\n      swap6\n      pop\n      swap3\n      swap6\n      swap1\n      swap4\n      pop\n      jump\t// out\n        /* \"#utility.yul\":4930:5020   */\n    tag_255:\n        /* \"#utility.yul\":4964:4971   */\n      0x00\n        /* \"#utility.yul\":5007:5012   */\n      dup2\n        /* \"#utility.yul\":5000:5013   */\n      iszero\n        /* \"#utility.yul\":4993:5014   */\n      iszero\n        /* \"#utility.yul\":4982:5014   */\n      swap1\n      pop\n        /* \"#utility.yul\":4930:5020   */\n      swap2\n      swap1\n      pop\n      jump\t// out\n        /* \"#utility.yul\":5026:5135   */\n    tag_256:\n        /* \"#utility.yul\":5107:5128   */\n      tag_387\n        /* \"#utility.yul\":5122:5127   */\n      dup2\n        /* \"#utility.yul\":5107:5128   */\n      tag_255\n      jump\t// in\n    tag_387:\n        /* \"#utility.yul\":5102:5105   */\n      dup3\n        /* \"#utility.yul\":5095:5129   */\n      mstore\n        /* \"#utility.yul\":5026:5135   */\n      pop\n      pop\n      jump\t// out\n        /* \"#utility.yul\":5141:5351   */\n    tag_44:\n        /* \"#utility.yul\":5228:5232   */\n      0x00\n        /* \"#utility.yul\":5266:5268   */\n      0x20\n        /* \"#utility.yul\":5255:5264   */\n      dup3\n        /* \"#utility.yul\":5251:5269   */\n      add\n        /* \"#utility.yul\":5243:5269   */\n      swap1\n      pop\n        /* \"#utility.yul\":5279:5344   */\n      tag_389\n        /* \"#utility.yul\":5341:5342   */\n      0x00\n        /* \"#utility.yul\":5330:5339   */\n      dup4\n        /* \"#utility.yul\":5326:5343   */\n      add\n        /* \"#utility.yul\":5317:5323   */\n      dup5\n        /* \"#utility.yul\":5279:5344   */\n      tag_256\n      jump\t// in\n    tag_389:\n        /* \"#utility.yul\":5141:5351   */\n      swap3\n      swap2\n      pop\n      pop\n      jump\t// out\n        /* \"#utility.yul\":5357:5686   */\n    tag_47:\n        /* \"#utility.yul\":5416:5422   */\n      0x00\n        /* \"#utility.yul\":5465:5467   */\n      0x20\n        /* \"#utility.yul\":5453:5462   */\n      dup3\n        /* \"#utility.yul\":5444:5451   */\n      dup5\n        /* \"#utility.yul\":5440:5463   */\n      sub\n        /* \"#utility.yul\":5436:5468   */\n      slt\n        /* \"#utility.yul\":5433:5552   */\n      iszero\n      tag_391\n      jumpi\n        /* \"#utility.yul\":5471:5550   */\n      tag_392\n      tag_246\n      jump\t// in\n    tag_392:\n        /* \"#utility.yul\":5433:5552   */\n    tag_391:\n        /* \"#utility.yul\":5591:5592   */\n      0x00\n        /* \"#utility.yul\":5616:5669   */\n      tag_393\n        /* \"#utility.yul\":5661:5668   */\n      dup5\n        /* \"#utility.yul\":5652:5658   */\n      dup3\n        /* \"#utility.yul\":5641:5650   */\n      dup6\n        /* \"#utility.yul\":5637:5659   */\n      add\n        /* \"#utility.yul\":5616:5669   */\n      tag_250\n      jump\t// in\n    tag_393:\n        /* \"#utility.yul\":5606:5669   */\n      swap2\n      pop\n        /* \"#utility.yul\":5562:5679   */\n      pop\n        /* \"#utility.yul\":5357:5686   */\n      swap3\n      swap2\n      pop\n      pop\n      jump\t// out\n        /* \"#utility.yul\":5692:6728   */\n    tag_50:\n        /* \"#utility.yul\":5977:5981   */\n      0x00\n        /* \"#utility.yul\":6015:6018   */\n      0xe0\n        /* \"#utility.yul\":6004:6013   */\n      dup3\n        /* \"#utility.yul\":6000:6019   */\n      add\n        /* \"#utility.yul\":5992:6019   */\n      swap1\n      pop\n        /* \"#utility.yul\":6029:6094   */\n      tag_395\n        /* \"#utility.yul\":6091:6092   */\n      0x00\n        /* \"#utility.yul\":6080:6089   */\n      dup4\n        /* \"#utility.yul\":6076:6093   */\n      add\n        /* \"#utility.yul\":6067:6073   */\n      dup11\n        /* \"#utility.yul\":6029:6094   */\n      tag_256\n      jump\t// in\n    tag_395:\n        /* \"#utility.yul\":6104:6176   */\n      tag_396\n        /* \"#utility.yul\":6172:6174   */\n      0x20\n        /* \"#utility.yul\":6161:6170   */\n      dup4\n        /* \"#utility.yul\":6157:6175   */\n      add\n        /* \"#utility.yul\":6148:6154   */\n      dup10\n        /* \"#utility.yul\":6104:6176   */\n      tag_239\n      jump\t// in\n    tag_396:\n        /* \"#utility.yul\":6223:6232   */\n      dup2\n        /* \"#utility.yul\":6217:6221   */\n      dup2\n        /* \"#utility.yul\":6213:6233   */\n      sub\n        /* \"#utility.yul\":6208:6210   */\n      0x40\n        /* \"#utility.yul\":6197:6206   */\n      dup4\n        /* \"#utility.yul\":6193:6211   */\n      add\n        /* \"#utility.yul\":6186:6234   */\n      mstore\n        /* \"#utility.yul\":6251:6329   */\n      tag_397\n        /* \"#utility.yul\":6324:6328   */\n      dup2\n        /* \"#utility.yul\":6315:6321   */\n      dup9\n        /* \"#utility.yul\":6251:6329   */\n      tag_244\n      jump\t// in\n    tag_397:\n        /* \"#utility.yul\":6243:6329   */\n      swap1\n      pop\n        /* \"#utility.yul\":6376:6385   */\n      dup2\n        /* \"#utility.yul\":6370:6374   */\n      dup2\n        /* \"#utility.yul\":6366:6386   */\n      sub\n        /* \"#utility.yul\":6361:6363   */\n      0x60\n        /* \"#utility.yul\":6350:6359   */\n      dup4\n        /* \"#utility.yul\":6346:6364   */\n      add\n        /* \"#utility.yul\":6339:6387   */\n      mstore\n        /* \"#utility.yul\":6404:6482   */\n      tag_398\n        /* \"#utility.yul\":6477:6481   */\n      dup2\n        /* \"#utility.yul\":6468:6474   */\n      dup8\n        /* \"#utility.yul\":6404:6482   */\n      tag_244\n      jump\t// in\n    tag_398:\n        /* \"#utility.yul\":6396:6482   */\n      swap1\n      pop\n        /* \"#utility.yul\":6492:6559   */\n      tag_399\n        /* \"#utility.yul\":6554:6557   */\n      0x80\n        /* \"#utility.yul\":6543:6552   */\n      dup4\n        /* \"#utility.yul\":6539:6558   */\n      add\n        /* \"#utility.yul\":6530:6536   */\n      dup7\n        /* \"#utility.yul\":6492:6559   */\n      tag_256\n      jump\t// in\n    tag_399:\n        /* \"#utility.yul\":6569:6640   */\n      tag_400\n        /* \"#utility.yul\":6635:6638   */\n      0xa0\n        /* \"#utility.yul\":6624:6633   */\n      dup4\n        /* \"#utility.yul\":6620:6639   */\n      add\n        /* \"#utility.yul\":6611:6617   */\n      dup6\n        /* \"#utility.yul\":6569:6640   */\n      tag_236\n      jump\t// in\n    tag_400:\n        /* \"#utility.yul\":6650:6721   */\n      tag_401\n        /* \"#utility.yul\":6716:6719   */\n      0xc0\n        /* \"#utility.yul\":6705:6714   */\n      dup4\n        /* \"#utility.yul\":6701:6720   */\n      add\n        /* \"#utility.yul\":6692:6698   */\n      dup5\n        /* \"#utility.yul\":6650:6721   */\n      tag_236\n      jump\t// in\n    tag_401:\n        /* \"#utility.yul\":5692:6728   */\n      swap9\n      swap8\n      pop\n      pop\n      pop\n      pop\n      pop\n      pop\n      pop\n      pop\n      jump\t// out\n        /* \"#utility.yul\":6734:6852   */\n    tag_257:\n        /* \"#utility.yul\":6821:6845   */\n      tag_403\n        /* \"#utility.yul\":6839:6844   */\n      dup2\n        /* \"#utility.yul\":6821:6845   */\n      tag_248\n      jump\t// in\n    tag_403:\n        /* \"#utility.yul\":6816:6819   */\n      dup3\n        /* \"#utility.yul\":6809:6846   */\n      mstore\n        /* \"#utility.yul\":6734:6852   */\n      pop\n      pop\n      jump\t// out\n        /* \"#utility.yul\":6858:7902   */\n    tag_54:\n        /* \"#utility.yul\":7149:7153   */\n      0x00\n        /* \"#utility.yul\":7187:7190   */\n      0xc0\n        /* \"#utility.yul\":7176:7185   */\n      dup3\n        /* \"#utility.yul\":7172:7191   */\n      add\n        /* \"#utility.yul\":7164:7191   */\n      swap1\n      pop\n        /* \"#utility.yul\":7237:7246   */\n      dup2\n        /* \"#utility.yul\":7231:7235   */\n      dup2\n        /* \"#utility.yul\":7227:7247   */\n      sub\n        /* \"#utility.yul\":7223:7224   */\n      0x00\n        /* \"#utility.yul\":7212:7221   */\n      dup4\n        /* \"#utility.yul\":7208:7225   */\n      add\n        /* \"#utility.yul\":7201:7248   */\n      mstore\n        /* \"#utility.yul\":7265:7343   */\n      tag_405\n        /* \"#utility.yul\":7338:7342   */\n      dup2\n        /* \"#utility.yul\":7329:7335   */\n      dup10\n        /* \"#utility.yul\":7265:7343   */\n      tag_244\n      jump\t// in\n    tag_405:\n        /* \"#utility.yul\":7257:7343   */\n      swap1\n      pop\n        /* \"#utility.yul\":7390:7399   */\n      dup2\n        /* \"#utility.yul\":7384:7388   */\n      dup2\n        /* \"#utility.yul\":7380:7400   */\n      sub\n        /* \"#utility.yul\":7375:7377   */\n      0x20\n        /* \"#utility.yul\":7364:7373   */\n      dup4\n        /* \"#utility.yul\":7360:7378   */\n      add\n        /* \"#utility.yul\":7353:7401   */\n      mstore\n        /* \"#utility.yul\":7418:7496   */\n      tag_406\n        /* \"#utility.yul\":7491:7495   */\n      dup2\n        /* \"#utility.yul\":7482:7488   */\n      dup9\n        /* \"#utility.yul\":7418:7496   */\n      tag_244\n      jump\t// in\n    tag_406:\n        /* \"#utility.yul\":7410:7496   */\n      swap1\n      pop\n        /* \"#utility.yul\":7543:7552   */\n      dup2\n        /* \"#utility.yul\":7537:7541   */\n      dup2\n        /* \"#utility.yul\":7533:7553   */\n      sub\n        /* \"#utility.yul\":7528:7530   */\n      0x40\n        /* \"#utility.yul\":7517:7526   */\n      dup4\n        /* \"#utility.yul\":7513:7531   */\n      add\n        /* \"#utility.yul\":7506:7554   */\n      mstore\n        /* \"#utility.yul\":7571:7649   */\n      tag_407\n        /* \"#utility.yul\":7644:7648   */\n      dup2\n        /* \"#utility.yul\":7635:7641   */\n      dup8\n        /* \"#utility.yul\":7571:7649   */\n      tag_244\n      jump\t// in\n    tag_407:\n        /* \"#utility.yul\":7563:7649   */\n      swap1\n      pop\n        /* \"#utility.yul\":7659:7731   */\n      tag_408\n        /* \"#utility.yul\":7727:7729   */\n      0x60\n        /* \"#utility.yul\":7716:7725   */\n      dup4\n        /* \"#utility.yul\":7712:7730   */\n      add\n        /* \"#utility.yul\":7703:7709   */\n      dup7\n        /* \"#utility.yul\":7659:7731   */\n      tag_257\n      jump\t// in\n    tag_408:\n        /* \"#utility.yul\":7741:7814   */\n      tag_409\n        /* \"#utility.yul\":7809:7812   */\n      0x80\n        /* \"#utility.yul\":7798:7807   */\n      dup4\n        /* \"#utility.yul\":7794:7813   */\n      add\n        /* \"#utility.yul\":7785:7791   */\n      dup6\n        /* \"#utility.yul\":7741:7814   */\n      tag_239\n      jump\t// in\n    tag_409:\n        /* \"#utility.yul\":7824:7895   */\n      tag_410\n        /* \"#utility.yul\":7890:7893   */\n      0xa0\n        /* \"#utility.yul\":7879:7888   */\n      dup4\n        /* \"#utility.yul\":7875:7894   */\n      add\n        /* \"#utility.yul\":7866:7872   */\n      dup5\n        /* \"#utility.yul\":7824:7895   */\n      tag_236\n      jump\t// in\n    tag_410:\n        /* \"#utility.yul\":6858:7902   */\n      swap8\n      swap7\n      pop\n      pop\n      pop\n      pop\n      pop\n      pop\n      pop\n      jump\t// out\n        /* \"#utility.yul\":7908:8582   */\n    tag_60:\n        /* \"#utility.yul\":7988:7994   */\n      0x00\n        /* \"#utility.yul\":7996:8002   */\n      0x00\n        /* \"#utility.yul\":8004:8010   */\n      0x00\n        /* \"#utility.yul\":8053:8055   */\n      0x40\n        /* \"#utility.yul\":8041:8050   */\n      dup5\n        /* \"#utility.yul\":8032:8039   */\n      dup7\n        /* \"#utility.yul\":8028:8051   */\n      sub\n        /* \"#utility.yul\":8024:8056   */\n      slt\n        /* \"#utility.yul\":8021:8140   */\n      iszero\n      tag_412\n      jumpi\n        /* \"#utility.yul\":8059:8138   */\n      tag_413\n      tag_246\n      jump\t// in\n    tag_413:\n        /* \"#utility.yul\":8021:8140   */\n    tag_412:\n        /* \"#utility.yul\":8179:8180   */\n      0x00\n        /* \"#utility.yul\":8204:8257   */\n      tag_414\n        /* \"#utility.yul\":8249:8256   */\n      dup7\n        /* \"#utility.yul\":8240:8246   */\n      dup3\n        /* \"#utility.yul\":8229:8238   */\n      dup8\n        /* \"#utility.yul\":8225:8247   */\n      add\n        /* \"#utility.yul\":8204:8257   */\n      tag_250\n      jump\t// in\n    tag_414:\n        /* \"#utility.yul\":8194:8257   */\n      swap4\n      pop\n        /* \"#utility.yul\":8150:8267   */\n      pop\n        /* \"#utility.yul\":8334:8336   */\n      0x20\n        /* \"#utility.yul\":8323:8332   */\n      dup5\n        /* \"#utility.yul\":8319:8337   */\n      add\n        /* \"#utility.yul\":8306:8338   */\n      calldataload\n        /* \"#utility.yul\":8365:8383   */\n      0xffffffffffffffff\n        /* \"#utility.yul\":8357:8363   */\n      dup2\n        /* \"#utility.yul\":8354:8384   */\n      gt\n        /* \"#utility.yul\":8351:8468   */\n      iszero\n      tag_415\n      jumpi\n        /* \"#utility.yul\":8387:8466   */\n      tag_416\n      tag_247\n      jump\t// in\n    tag_416:\n        /* \"#utility.yul\":8351:8468   */\n    tag_415:\n        /* \"#utility.yul\":8500:8565   */\n      tag_417\n        /* \"#utility.yul\":8557:8564   */\n      dup7\n        /* \"#utility.yul\":8548:8554   */\n      dup3\n        /* \"#utility.yul\":8537:8546   */\n      dup8\n        /* \"#utility.yul\":8533:8555   */\n      add\n        /* \"#utility.yul\":8500:8565   */\n      tag_254\n      jump\t// in\n    tag_417:\n        /* \"#utility.yul\":8482:8565   */\n      swap3\n      pop\n      swap3\n      pop\n        /* \"#utility.yul\":8277:8575   */\n      pop\n        /* \"#utility.yul\":7908:8582   */\n      swap3\n      pop\n      swap3\n      pop\n      swap3\n      jump\t// out\n        /* \"#utility.yul\":8588:9394   */\n    tag_65:\n        /* \"#utility.yul\":8811:8815   */\n      0x00\n        /* \"#utility.yul\":8849:8852   */\n      0xc0\n        /* \"#utility.yul\":8838:8847   */\n      dup3\n        /* \"#utility.yul\":8834:8853   */\n      add\n        /* \"#utility.yul\":8826:8853   */\n      swap1\n      pop\n        /* \"#utility.yul\":8863:8928   */\n      tag_419\n        /* \"#utility.yul\":8925:8926   */\n      0x00\n        /* \"#utility.yul\":8914:8923   */\n      dup4\n        /* \"#utility.yul\":8910:8927   */\n      add\n        /* \"#utility.yul\":8901:8907   */\n      dup10\n        /* \"#utility.yul\":8863:8928   */\n      tag_256\n      jump\t// in\n    tag_419:\n        /* \"#utility.yul\":8938:9004   */\n      tag_420\n        /* \"#utility.yul\":9000:9002   */\n      0x20\n        /* \"#utility.yul\":8989:8998   */\n      dup4\n        /* \"#utility.yul\":8985:9003   */\n      add\n        /* \"#utility.yul\":8976:8982   */\n      dup9\n        /* \"#utility.yul\":8938:9004   */\n      tag_256\n      jump\t// in\n    tag_420:\n        /* \"#utility.yul\":9014:9080   */\n      tag_421\n        /* \"#utility.yul\":9076:9078   */\n      0x40\n        /* \"#utility.yul\":9065:9074   */\n      dup4\n        /* \"#utility.yul\":9061:9079   */\n      add\n        /* \"#utility.yul\":9052:9058   */\n      dup8\n        /* \"#utility.yul\":9014:9080   */\n      tag_256\n      jump\t// in\n    tag_421:\n        /* \"#utility.yul\":9090:9156   */\n      tag_422\n        /* \"#utility.yul\":9152:9154   */\n      0x60\n        /* \"#utility.yul\":9141:9150   */\n      dup4\n        /* \"#utility.yul\":9137:9155   */\n      add\n        /* \"#utility.yul\":9128:9134   */\n      dup7\n        /* \"#utility.yul\":9090:9156   */\n      tag_256\n      jump\t// in\n    tag_422:\n        /* \"#utility.yul\":9166:9233   */\n      tag_423\n        /* \"#utility.yul\":9228:9231   */\n      0x80\n        /* \"#utility.yul\":9217:9226   */\n      dup4\n        /* \"#utility.yul\":9213:9232   */\n      add\n        /* \"#utility.yul\":9204:9210   */\n      dup6\n        /* \"#utility.yul\":9166:9233   */\n      tag_256\n      jump\t// in\n    tag_423:\n        /* \"#utility.yul\":9281:9290   */\n      dup2\n        /* \"#utility.yul\":9275:9279   */\n      dup2\n        /* \"#utility.yul\":9271:9291   */\n      sub\n        /* \"#utility.yul\":9265:9268   */\n      0xa0\n        /* \"#utility.yul\":9254:9263   */\n      dup4\n        /* \"#utility.yul\":9250:9269   */\n      add\n        /* \"#utility.yul\":9243:9292   */\n      mstore\n        /* \"#utility.yul\":9309:9387   */\n      tag_424\n        /* \"#utility.yul\":9382:9386   */\n      dup2\n        /* \"#utility.yul\":9373:9379   */\n      dup5\n        /* \"#utility.yul\":9309:9387   */\n      tag_244\n      jump\t// in\n    tag_424:\n        /* \"#utility.yul\":9301:9387   */\n      swap1\n      pop\n        /* \"#utility.yul\":8588:9394   */\n      swap8\n      swap7\n      pop\n      pop\n      pop\n      pop\n      pop\n      pop\n      pop\n      jump\t// out\n        /* \"#utility.yul\":9400:9622   */\n    tag_69:\n        /* \"#utility.yul\":9493:9497   */\n      0x00\n        /* \"#utility.yul\":9531:9533   */\n      0x20\n        /* \"#utility.yul\":9520:9529   */\n      dup3\n        /* \"#utility.yul\":9516:9534   */\n      add\n        /* \"#utility.yul\":9508:9534   */\n      swap1\n      pop\n        /* \"#utility.yul\":9544:9615   */\n      tag_426\n        /* \"#utility.yul\":9612:9613   */\n      0x00\n        /* \"#utility.yul\":9601:9610   */\n      dup4\n        /* \"#utility.yul\":9597:9614   */\n      add\n        /* \"#utility.yul\":9588:9594   */\n      dup5\n        /* \"#utility.yul\":9544:9615   */\n      tag_257\n      jump\t// in\n    tag_426:\n        /* \"#utility.yul\":9400:9622   */\n      swap3\n      swap2\n      pop\n      pop\n      jump\t// out\n        /* \"#utility.yul\":9628:9705   */\n    tag_258:\n        /* \"#utility.yul\":9665:9672   */\n      0x00\n        /* \"#utility.yul\":9694:9699   */\n      dup2\n        /* \"#utility.yul\":9683:9699   */\n      swap1\n      pop\n        /* \"#utility.yul\":9628:9705   */\n      swap2\n      swap1\n      pop\n      jump\t// out\n        /* \"#utility.yul\":9711:9829   */\n    tag_259:\n        /* \"#utility.yul\":9798:9822   */\n      tag_429\n        /* \"#utility.yul\":9816:9821   */\n      dup2\n        /* \"#utility.yul\":9798:9822   */\n      tag_258\n      jump\t// in\n    tag_429:\n        /* \"#utility.yul\":9793:9796   */\n      dup3\n        /* \"#utility.yul\":9786:9823   */\n      mstore\n        /* \"#utility.yul\":9711:9829   */\n      pop\n      pop\n      jump\t// out\n        /* \"#utility.yul\":9835:10570   */\n    tag_73:\n        /* \"#utility.yul\":10052:10056   */\n      0x00\n        /* \"#utility.yul\":10090:10093   */\n      0x80\n        /* \"#utility.yul\":10079:10088   */\n      dup3\n        /* \"#utility.yul\":10075:10094   */\n      add\n        /* \"#utility.yul\":10067:10094   */\n      swap1\n      pop\n        /* \"#utility.yul\":10140:10149   */\n      dup2\n        /* \"#utility.yul\":10134:10138   */\n      dup2\n        /* \"#utility.yul\":10130:10150   */\n      sub\n        /* \"#utility.yul\":10126:10127   */\n      0x00\n        /* \"#utility.yul\":10115:10124   */\n      dup4\n        /* \"#utility.yul\":10111:10128   */\n      add\n        /* \"#utility.yul\":10104:10151   */\n      mstore\n        /* \"#utility.yul\":10168:10246   */\n      tag_431\n        /* \"#utility.yul\":10241:10245   */\n      dup2\n        /* \"#utility.yul\":10232:10238   */\n      dup8\n        /* \"#utility.yul\":10168:10246   */\n      tag_244\n      jump\t// in\n    tag_431:\n        /* \"#utility.yul\":10160:10246   */\n      swap1\n      pop\n        /* \"#utility.yul\":10256:10328   */\n      tag_432\n        /* \"#utility.yul\":10324:10326   */\n      0x20\n        /* \"#utility.yul\":10313:10322   */\n      dup4\n        /* \"#utility.yul\":10309:10327   */\n      add\n        /* \"#utility.yul\":10300:10306   */\n      dup7\n        /* \"#utility.yul\":10256:10328   */\n      tag_239\n      jump\t// in\n    tag_432:\n        /* \"#utility.yul\":10338:10410   */\n      tag_433\n        /* \"#utility.yul\":10406:10408   */\n      0x40\n        /* \"#utility.yul\":10395:10404   */\n      dup4\n        /* \"#utility.yul\":10391:10409   */\n      add\n        /* \"#utility.yul\":10382:10388   */\n      dup6\n        /* \"#utility.yul\":10338:10410   */\n      tag_259\n      jump\t// in\n    tag_433:\n        /* \"#utility.yul\":10457:10466   */\n      dup2\n        /* \"#utility.yul\":10451:10455   */\n      dup2\n        /* \"#utility.yul\":10447:10467   */\n      sub\n        /* \"#utility.yul\":10442:10444   */\n      0x60\n        /* \"#utility.yul\":10431:10440   */\n      dup4\n        /* \"#utility.yul\":10427:10445   */\n      add\n        /* \"#utility.yul\":10420:10468   */\n      mstore\n        /* \"#utility.yul\":10485:10563   */\n      tag_434\n        /* \"#utility.yul\":10558:10562   */\n      dup2\n        /* \"#utility.yul\":10549:10555   */\n      dup5\n        /* \"#utility.yul\":10485:10563   */\n      tag_244\n      jump\t// in\n    tag_434:\n        /* \"#utility.yul\":10477:10563   */\n      swap1\n      pop\n        /* \"#utility.yul\":9835:10570   */\n      swap6\n      swap5\n      pop\n      pop\n      pop\n      pop\n      pop\n      jump\t// out\n        /* \"#utility.yul\":10576:10693   */\n    tag_260:\n        /* \"#utility.yul\":10685:10686   */\n      0x00\n        /* \"#utility.yul\":10682:10683   */\n      0x00\n        /* \"#utility.yul\":10675:10687   */\n      revert\n        /* \"#utility.yul\":10746:10980   */\n    tag_261:\n        /* \"#utility.yul\":10821:10826   */\n      0x00\n        /* \"#utility.yul\":10862:10865   */\n      0xc0\n        /* \"#utility.yul\":10853:10859   */\n      dup3\n        /* \"#utility.yul\":10848:10851   */\n      dup5\n        /* \"#utility.yul\":10844:10860   */\n      sub\n        /* \"#utility.yul\":10840:10866   */\n      slt\n        /* \"#utility.yul\":10837:10950   */\n      iszero\n      tag_437\n      jumpi\n        /* \"#utility.yul\":10869:10948   */\n      tag_438\n      tag_260\n      jump\t// in\n    tag_438:\n        /* \"#utility.yul\":10837:10950   */\n    tag_437:\n        /* \"#utility.yul\":10968:10974   */\n      dup2\n        /* \"#utility.yul\":10959:10974   */\n      swap1\n      pop\n        /* \"#utility.yul\":10746:10980   */\n      swap3\n      swap2\n      pop\n      pop\n      jump\t// out\n        /* \"#utility.yul\":10986:11106   */\n    tag_262:\n        /* \"#utility.yul\":11058:11081   */\n      tag_440\n        /* \"#utility.yul\":11075:11080   */\n      dup2\n        /* \"#utility.yul\":11058:11081   */\n      tag_235\n      jump\t// in\n    tag_440:\n        /* \"#utility.yul\":11051:11056   */\n      dup2\n        /* \"#utility.yul\":11048:11082   */\n      eq\n        /* \"#utility.yul\":11038:11100   */\n      tag_441\n      jumpi\n        /* \"#utility.yul\":11096:11097   */\n      0x00\n        /* \"#utility.yul\":11093:11094   */\n      0x00\n        /* \"#utility.yul\":11086:11098   */\n      revert\n        /* \"#utility.yul\":11038:11100   */\n    tag_441:\n        /* \"#utility.yul\":10986:11106   */\n      pop\n      jump\t// out\n        /* \"#utility.yul\":11112:11249   */\n    tag_263:\n        /* \"#utility.yul\":11157:11162   */\n      0x00\n        /* \"#utility.yul\":11195:11201   */\n      dup2\n        /* \"#utility.yul\":11182:11202   */\n      calldataload\n        /* \"#utility.yul\":11173:11202   */\n      swap1\n      pop\n        /* \"#utility.yul\":11211:11243   */\n      tag_443\n        /* \"#utility.yul\":11237:11242   */\n      dup2\n        /* \"#utility.yul\":11211:11243   */\n      tag_262\n      jump\t// in\n    tag_443:\n        /* \"#utility.yul\":11112:11249   */\n      swap3\n      swap2\n      pop\n      pop\n      jump\t// out\n        /* \"#utility.yul\":11255:12434   */\n    tag_76:\n        /* \"#utility.yul\":11380:11386   */\n      0x00\n        /* \"#utility.yul\":11388:11394   */\n      0x00\n        /* \"#utility.yul\":11396:11402   */\n      0x00\n        /* \"#utility.yul\":11404:11410   */\n      0x00\n        /* \"#utility.yul\":11412:11418   */\n      0x00\n        /* \"#utility.yul\":11461:11464   */\n      0x80\n        /* \"#utility.yul\":11449:11458   */\n      dup7\n        /* \"#utility.yul\":11440:11447   */\n      dup9\n        /* \"#utility.yul\":11436:11459   */\n      sub\n        /* \"#utility.yul\":11432:11465   */\n      slt\n        /* \"#utility.yul\":11429:11549   */\n      iszero\n      tag_445\n      jumpi\n        /* \"#utility.yul\":11468:11547   */\n      tag_446\n      tag_246\n      jump\t// in\n    tag_446:\n        /* \"#utility.yul\":11429:11549   */\n    tag_445:\n        /* \"#utility.yul\":11616:11617   */\n      0x00\n        /* \"#utility.yul\":11605:11614   */\n      dup7\n        /* \"#utility.yul\":11601:11618   */\n      add\n        /* \"#utility.yul\":11588:11619   */\n      calldataload\n        /* \"#utility.yul\":11646:11664   */\n      0xffffffffffffffff\n        /* \"#utility.yul\":11638:11644   */\n      dup2\n        /* \"#utility.yul\":11635:11665   */\n      gt\n        /* \"#utility.yul\":11632:11749   */\n      iszero\n      tag_447\n      jumpi\n        /* \"#utility.yul\":11668:11747   */\n      tag_448\n      tag_247\n      jump\t// in\n    tag_448:\n        /* \"#utility.yul\":11632:11749   */\n    tag_447:\n        /* \"#utility.yul\":11773:11855   */\n      tag_449\n        /* \"#utility.yul\":11847:11854   */\n      dup9\n        /* \"#utility.yul\":11838:11844   */\n      dup3\n        /* \"#utility.yul\":11827:11836   */\n      dup10\n        /* \"#utility.yul\":11823:11845   */\n      add\n        /* \"#utility.yul\":11773:11855   */\n      tag_261\n      jump\t// in\n    tag_449:\n        /* \"#utility.yul\":11763:11855   */\n      swap6\n      pop\n        /* \"#utility.yul\":11559:11865   */\n      pop\n        /* \"#utility.yul\":11932:11934   */\n      0x20\n        /* \"#utility.yul\":11921:11930   */\n      dup7\n        /* \"#utility.yul\":11917:11935   */\n      add\n        /* \"#utility.yul\":11904:11936   */\n      calldataload\n        /* \"#utility.yul\":11963:11981   */\n      0xffffffffffffffff\n        /* \"#utility.yul\":11955:11961   */\n      dup2\n        /* \"#utility.yul\":11952:11982   */\n      gt\n        /* \"#utility.yul\":11949:12066   */\n      iszero\n      tag_450\n      jumpi\n        /* \"#utility.yul\":11985:12064   */\n      tag_451\n      tag_247\n      jump\t// in\n    tag_451:\n        /* \"#utility.yul\":11949:12066   */\n    tag_450:\n        /* \"#utility.yul\":12098:12163   */\n      tag_452\n        /* \"#utility.yul\":12155:12162   */\n      dup9\n        /* \"#utility.yul\":12146:12152   */\n      dup3\n        /* \"#utility.yul\":12135:12144   */\n      dup10\n        /* \"#utility.yul\":12131:12153   */\n      add\n        /* \"#utility.yul\":12098:12163   */\n      tag_254\n      jump\t// in\n    tag_452:\n        /* \"#utility.yul\":12080:12163   */\n      swap5\n      pop\n      swap5\n      pop\n        /* \"#utility.yul\":11875:12173   */\n      pop\n        /* \"#utility.yul\":12212:12214   */\n      0x40\n        /* \"#utility.yul\":12238:12290   */\n      tag_453\n        /* \"#utility.yul\":12282:12289   */\n      dup9\n        /* \"#utility.yul\":12273:12279   */\n      dup3\n        /* \"#utility.yul\":12262:12271   */\n      dup10\n        /* \"#utility.yul\":12258:12280   */\n      add\n        /* \"#utility.yul\":12238:12290   */\n      tag_263\n      jump\t// in\n    tag_453:\n        /* \"#utility.yul\":12228:12290   */\n      swap3\n      pop\n        /* \"#utility.yul\":12183:12300   */\n      pop\n        /* \"#utility.yul\":12339:12341   */\n      0x60\n        /* \"#utility.yul\":12365:12417   */\n      tag_454\n        /* \"#utility.yul\":12409:12416   */\n      dup9\n        /* \"#utility.yul\":12400:12406   */\n      dup3\n        /* \"#utility.yul\":12389:12398   */\n      dup10\n        /* \"#utility.yul\":12385:12407   */\n      add\n        /* \"#utility.yul\":12365:12417   */\n      tag_263\n      jump\t// in\n    tag_454:\n        /* \"#utility.yul\":12355:12417   */\n      swap2\n      pop\n        /* \"#utility.yul\":12310:12427   */\n      pop\n        /* \"#utility.yul\":11255:12434   */\n      swap3\n      swap6\n      pop\n      swap3\n      swap6\n      swap1\n      swap4\n      pop\n      jump\t// out\n        /* \"#utility.yul\":12440:13377   */\n    tag_82:\n        /* \"#utility.yul\":12703:12707   */\n      0x00\n        /* \"#utility.yul\":12741:12744   */\n      0xc0\n        /* \"#utility.yul\":12730:12739   */\n      dup3\n        /* \"#utility.yul\":12726:12745   */\n      add\n        /* \"#utility.yul\":12718:12745   */\n      swap1\n      pop\n        /* \"#utility.yul\":12755:12826   */\n      tag_456\n        /* \"#utility.yul\":12823:12824   */\n      0x00\n        /* \"#utility.yul\":12812:12821   */\n      dup4\n        /* \"#utility.yul\":12808:12825   */\n      add\n        /* \"#utility.yul\":12799:12805   */\n      dup10\n        /* \"#utility.yul\":12755:12826   */\n      tag_239\n      jump\t// in\n    tag_456:\n        /* \"#utility.yul\":12873:12882   */\n      dup2\n        /* \"#utility.yul\":12867:12871   */\n      dup2\n        /* \"#utility.yul\":12863:12883   */\n      sub\n        /* \"#utility.yul\":12858:12860   */\n      0x20\n        /* \"#utility.yul\":12847:12856   */\n      dup4\n        /* \"#utility.yul\":12843:12861   */\n      add\n        /* \"#utility.yul\":12836:12884   */\n      mstore\n        /* \"#utility.yul\":12901:12979   */\n      tag_457\n        /* \"#utility.yul\":12974:12978   */\n      dup2\n        /* \"#utility.yul\":12965:12971   */\n      dup9\n        /* \"#utility.yul\":12901:12979   */\n      tag_244\n      jump\t// in\n    tag_457:\n        /* \"#utility.yul\":12893:12979   */\n      swap1\n      pop\n        /* \"#utility.yul\":13026:13035   */\n      dup2\n        /* \"#utility.yul\":13020:13024   */\n      dup2\n        /* \"#utility.yul\":13016:13036   */\n      sub\n        /* \"#utility.yul\":13011:13013   */\n      0x40\n        /* \"#utility.yul\":13000:13009   */\n      dup4\n        /* \"#utility.yul\":12996:13014   */\n      add\n        /* \"#utility.yul\":12989:13037   */\n      mstore\n        /* \"#utility.yul\":13054:13132   */\n      tag_458\n        /* \"#utility.yul\":13127:13131   */\n      dup2\n        /* \"#utility.yul\":13118:13124   */\n      dup8\n        /* \"#utility.yul\":13054:13132   */\n      tag_244\n      jump\t// in\n    tag_458:\n        /* \"#utility.yul\":13046:13132   */\n      swap1\n      pop\n        /* \"#utility.yul\":13142:13208   */\n      tag_459\n        /* \"#utility.yul\":13204:13206   */\n      0x60\n        /* \"#utility.yul\":13193:13202   */\n      dup4\n        /* \"#utility.yul\":13189:13207   */\n      add\n        /* \"#utility.yul\":13180:13186   */\n      dup7\n        /* \"#utility.yul\":13142:13208   */\n      tag_256\n      jump\t// in\n    tag_459:\n        /* \"#utility.yul\":13218:13289   */\n      tag_460\n        /* \"#utility.yul\":13284:13287   */\n      0x80\n        /* \"#utility.yul\":13273:13282   */\n      dup4\n        /* \"#utility.yul\":13269:13288   */\n      add\n        /* \"#utility.yul\":13260:13266   */\n      dup6\n        /* \"#utility.yul\":13218:13289   */\n      tag_236\n      jump\t// in\n    tag_460:\n        /* \"#utility.yul\":13299:13370   */\n      tag_461\n        /* \"#utility.yul\":13365:13368   */\n      0xa0\n        /* \"#utility.yul\":13354:13363   */\n      dup4\n        /* \"#utility.yul\":13350:13369   */\n      add\n        /* \"#utility.yul\":13341:13347   */\n      dup5\n        /* \"#utility.yul\":13299:13370   */\n      tag_236\n      jump\t// in\n    tag_461:\n        /* \"#utility.yul\":12440:13377   */\n      swap8\n      swap7\n      pop\n      pop\n      pop\n      pop\n      pop\n      pop\n      pop\n      jump\t// out\n        /* \"#utility.yul\":13383:13505   */\n    tag_264:\n        /* \"#utility.yul\":13456:13480   */\n      tag_463\n        /* \"#utility.yul\":13474:13479   */\n      dup2\n        /* \"#utility.yul\":13456:13480   */\n      tag_238\n      jump\t// in\n    tag_463:\n        /* \"#utility.yul\":13449:13454   */\n      dup2\n        /* \"#utility.yul\":13446:13481   */\n      eq\n        /* \"#utility.yul\":13436:13499   */\n      tag_464\n      jumpi\n        /* \"#utility.yul\":13495:13496   */\n      0x00\n        /* \"#utility.yul\":13492:13493   */\n      0x00\n        /* \"#utility.yul\":13485:13497   */\n      revert\n        /* \"#utility.yul\":13436:13499   */\n    tag_464:\n        /* \"#utility.yul\":13383:13505   */\n      pop\n      jump\t// out\n        /* \"#utility.yul\":13511:13650   */\n    tag_265:\n        /* \"#utility.yul\":13557:13562   */\n      0x00\n        /* \"#utility.yul\":13595:13601   */\n      dup2\n        /* \"#utility.yul\":13582:13602   */\n      calldataload\n        /* \"#utility.yul\":13573:13602   */\n      swap1\n      pop\n        /* \"#utility.yul\":13611:13644   */\n      tag_466\n        /* \"#utility.yul\":13638:13643   */\n      dup2\n        /* \"#utility.yul\":13611:13644   */\n      tag_264\n      jump\t// in\n    tag_466:\n        /* \"#utility.yul\":13511:13650   */\n      swap3\n      swap2\n      pop\n      pop\n      jump\t// out\n        /* \"#utility.yul\":13656:13985   */\n    tag_88:\n        /* \"#utility.yul\":13715:13721   */\n      0x00\n        /* \"#utility.yul\":13764:13766   */\n      0x20\n        /* \"#utility.yul\":13752:13761   */\n      dup3\n        /* \"#utility.yul\":13743:13750   */\n      dup5\n        /* \"#utility.yul\":13739:13762   */\n      sub\n        /* \"#utility.yul\":13735:13767   */\n      slt\n        /* \"#utility.yul\":13732:13851   */\n      iszero\n      tag_468\n      jumpi\n        /* \"#utility.yul\":13770:13849   */\n      tag_469\n      tag_246\n      jump\t// in\n    tag_469:\n        /* \"#utility.yul\":13732:13851   */\n    tag_468:\n        /* \"#utility.yul\":13890:13891   */\n      0x00\n        /* \"#utility.yul\":13915:13968   */\n      tag_470\n        /* \"#utility.yul\":13960:13967   */\n      dup5\n        /* \"#utility.yul\":13951:13957   */\n      dup3\n        /* \"#utility.yul\":13940:13949   */\n      dup6\n        /* \"#utility.yul\":13936:13958   */\n      add\n        /* \"#utility.yul\":13915:13968   */\n      tag_265\n      jump\t// in\n    tag_470:\n        /* \"#utility.yul\":13905:13968   */\n      swap2\n      pop\n        /* \"#utility.yul\":13861:13978   */\n      pop\n        /* \"#utility.yul\":13656:13985   */\n      swap3\n      swap2\n      pop\n      pop\n      jump\t// out\n        /* \"#utility.yul\":13991:14113   */\n    tag_266:\n        /* \"#utility.yul\":14064:14088   */\n      tag_472\n        /* \"#utility.yul\":14082:14087   */\n      dup2\n        /* \"#utility.yul\":14064:14088   */\n      tag_258\n      jump\t// in\n    tag_472:\n        /* \"#utility.yul\":14057:14062   */\n      dup2\n        /* \"#utility.yul\":14054:14089   */\n      eq\n        /* \"#utility.yul\":14044:14107   */\n      tag_473\n      jumpi\n        /* \"#utility.yul\":14103:14104   */\n      0x00\n        /* \"#utility.yul\":14100:14101   */\n      0x00\n        /* \"#utility.yul\":14093:14105   */\n      revert\n        /* \"#utility.yul\":14044:14107   */\n    tag_473:\n        /* \"#utility.yul\":13991:14113   */\n      pop\n      jump\t// out\n        /* \"#utility.yul\":14119:14258   */\n    tag_267:\n        /* \"#utility.yul\":14165:14170   */\n      0x00\n        /* \"#utility.yul\":14203:14209   */\n      dup2\n        /* \"#utility.yul\":14190:14210   */\n      calldataload\n        /* \"#utility.yul\":14181:14210   */\n      swap1\n      pop\n        /* \"#utility.yul\":14219:14252   */\n      tag_475\n        /* \"#utility.yul\":14246:14251   */\n      dup2\n        /* \"#utility.yul\":14219:14252   */\n      tag_266\n      jump\t// in\n    tag_475:\n        /* \"#utility.yul\":14119:14258   */\n      swap3\n      swap2\n      pop\n      pop\n      jump\t// out\n        /* \"#utility.yul\":14264:15429   */\n    tag_104:\n        /* \"#utility.yul\":14374:14380   */\n      0x00\n        /* \"#utility.yul\":14382:14388   */\n      0x00\n        /* \"#utility.yul\":14390:14396   */\n      0x00\n        /* \"#utility.yul\":14398:14404   */\n      0x00\n        /* \"#utility.yul\":14406:14412   */\n      0x00\n        /* \"#utility.yul\":14414:14420   */\n      0x00\n        /* \"#utility.yul\":14463:14466   */\n      0x80\n        /* \"#utility.yul\":14451:14460   */\n      dup8\n        /* \"#utility.yul\":14442:14449   */\n      dup10\n        /* \"#utility.yul\":14438:14461   */\n      sub\n        /* \"#utility.yul\":14434:14467   */\n      slt\n        /* \"#utility.yul\":14431:14551   */\n      iszero\n      tag_477\n      jumpi\n        /* \"#utility.yul\":14470:14549   */\n      tag_478\n      tag_246\n      jump\t// in\n    tag_478:\n        /* \"#utility.yul\":14431:14551   */\n    tag_477:\n        /* \"#utility.yul\":14618:14619   */\n      0x00\n        /* \"#utility.yul\":14607:14616   */\n      dup8\n        /* \"#utility.yul\":14603:14620   */\n      add\n        /* \"#utility.yul\":14590:14621   */\n      calldataload\n        /* \"#utility.yul\":14648:14666   */\n      0xffffffffffffffff\n        /* \"#utility.yul\":14640:14646   */\n      dup2\n        /* \"#utility.yul\":14637:14667   */\n      gt\n        /* \"#utility.yul\":14634:14751   */\n      iszero\n      tag_479\n      jumpi\n        /* \"#utility.yul\":14670:14749   */\n      tag_480\n      tag_247\n      jump\t// in\n    tag_480:\n        /* \"#utility.yul\":14634:14751   */\n    tag_479:\n        /* \"#utility.yul\":14783:14848   */\n      tag_481\n        /* \"#utility.yul\":14840:14847   */\n      dup10\n        /* \"#utility.yul\":14831:14837   */\n      dup3\n        /* \"#utility.yul\":14820:14829   */\n      dup11\n        /* \"#utility.yul\":14816:14838   */\n      add\n        /* \"#utility.yul\":14783:14848   */\n      tag_254\n      jump\t// in\n    tag_481:\n        /* \"#utility.yul\":14765:14848   */\n      swap7\n      pop\n      swap7\n      pop\n        /* \"#utility.yul\":14561:14858   */\n      pop\n        /* \"#utility.yul\":14897:14899   */\n      0x20\n        /* \"#utility.yul\":14923:14976   */\n      tag_482\n        /* \"#utility.yul\":14968:14975   */\n      dup10\n        /* \"#utility.yul\":14959:14965   */\n      dup3\n        /* \"#utility.yul\":14948:14957   */\n      dup11\n        /* \"#utility.yul\":14944:14966   */\n      add\n        /* \"#utility.yul\":14923:14976   */\n      tag_265\n      jump\t// in\n    tag_482:\n        /* \"#utility.yul\":14913:14976   */\n      swap5\n      pop\n        /* \"#utility.yul\":14868:14986   */\n      pop\n        /* \"#utility.yul\":15025:15027   */\n      0x40\n        /* \"#utility.yul\":15051:15104   */\n      tag_483\n        /* \"#utility.yul\":15096:15103   */\n      dup10\n        /* \"#utility.yul\":15087:15093   */\n      dup3\n        /* \"#utility.yul\":15076:15085   */\n      dup11\n        /* \"#utility.yul\":15072:15094   */\n      add\n        /* \"#utility.yul\":15051:15104   */\n      tag_267\n      jump\t// in\n    tag_483:\n        /* \"#utility.yul\":15041:15104   */\n      swap4\n      pop\n        /* \"#utility.yul\":14996:15114   */\n      pop\n        /* \"#utility.yul\":15181:15183   */\n      0x60\n        /* \"#utility.yul\":15170:15179   */\n      dup8\n        /* \"#utility.yul\":15166:15184   */\n      add\n        /* \"#utility.yul\":15153:15185   */\n      calldataload\n        /* \"#utility.yul\":15212:15230   */\n      0xffffffffffffffff\n        /* \"#utility.yul\":15204:15210   */\n      dup2\n        /* \"#utility.yul\":15201:15231   */\n      gt\n        /* \"#utility.yul\":15198:15315   */\n      iszero\n      tag_484\n      jumpi\n        /* \"#utility.yul\":15234:15313   */\n      tag_485\n      tag_247\n      jump\t// in\n    tag_485:\n        /* \"#utility.yul\":15198:15315   */\n    tag_484:\n        /* \"#utility.yul\":15347:15412   */\n      tag_486\n        /* \"#utility.yul\":15404:15411   */\n      dup10\n        /* \"#utility.yul\":15395:15401   */\n      dup3\n        /* \"#utility.yul\":15384:15393   */\n      dup11\n        /* \"#utility.yul\":15380:15402   */\n      add\n        /* \"#utility.yul\":15347:15412   */\n      tag_254\n      jump\t// in\n    tag_486:\n        /* \"#utility.yul\":15329:15412   */\n      swap3\n      pop\n      swap3\n      pop\n        /* \"#utility.yul\":15124:15422   */\n      pop\n        /* \"#utility.yul\":14264:15429   */\n      swap3\n      swap6\n      pop\n      swap3\n      swap6\n      pop\n      swap3\n      swap6\n      jump\t// out\n        /* \"#utility.yul\":15435:15615   */\n    tag_268:\n        /* \"#utility.yul\":15483:15560   */\n      0x4e487b7100000000000000000000000000000000000000000000000000000000\n        /* \"#utility.yul\":15480:15481   */\n      0x00\n        /* \"#utility.yul\":15473:15561   */\n      mstore\n        /* \"#utility.yul\":15580:15584   */\n      0x22\n        /* \"#utility.yul\":15577:15578   */\n      0x04\n        /* \"#utility.yul\":15570:15585   */\n      mstore\n        /* \"#utility.yul\":15604:15608   */\n      0x24\n        /* \"#utility.yul\":15601:15602   */\n      0x00\n        /* \"#utility.yul\":15594:15609   */\n      revert\n        /* \"#utility.yul\":15621:15941   */\n    tag_110:\n        /* \"#utility.yul\":15665:15671   */\n      0x00\n        /* \"#utility.yul\":15702:15703   */\n      0x02\n        /* \"#utility.yul\":15696:15700   */\n      dup3\n        /* \"#utility.yul\":15692:15704   */\n      div\n        /* \"#utility.yul\":15682:15704   */\n      swap1\n      pop\n        /* \"#utility.yul\":15749:15750   */\n      0x01\n        /* \"#utility.yul\":15743:15747   */\n      dup3\n        /* \"#utility.yul\":15739:15751   */\n      and\n        /* \"#utility.yul\":15770:15788   */\n      dup1\n        /* \"#utility.yul\":15760:15841   */\n      tag_489\n      jumpi\n        /* \"#utility.yul\":15826:15830   */\n      0x7f\n        /* \"#utility.yul\":15818:15824   */\n      dup3\n        /* \"#utility.yul\":15814:15831   */\n      and\n        /* \"#utility.yul\":15804:15831   */\n      swap2\n      pop\n        /* \"#utility.yul\":15760:15841   */\n    tag_489:\n        /* \"#utility.yul\":15888:15890   */\n      0x20\n        /* \"#utility.yul\":15880:15886   */\n      dup3\n        /* \"#utility.yul\":15877:15891   */\n      lt\n        /* \"#utility.yul\":15857:15875   */\n      dup2\n        /* \"#utility.yul\":15854:15892   */\n      sub\n        /* \"#utility.yul\":15851:15935   */\n      tag_490\n      jumpi\n        /* \"#utility.yul\":15907:15925   */\n      tag_491\n      tag_268\n      jump\t// in\n    tag_491:\n        /* \"#utility.yul\":15851:15935   */\n    tag_490:\n        /* \"#utility.yul\":15672:15941   */\n      pop\n        /* \"#utility.yul\":15621:15941   */\n      swap2\n      swap1\n      pop\n      jump\t// out\n        /* \"#utility.yul\":15947:16111   */\n    tag_269:\n        /* \"#utility.yul\":16087:16103   */\n      0x415554484f525f4e4f545f534554000000000000000000000000000000000000\n        /* \"#utility.yul\":16083:16084   */\n      0x00\n        /* \"#utility.yul\":16075:16081   */\n      dup3\n        /* \"#utility.yul\":16071:16085   */\n      add\n        /* \"#utility.yul\":16064:16104   */\n      mstore\n        /* \"#utility.yul\":15947:16111   */\n      pop\n      jump\t// out\n        /* \"#utility.yul\":16117:16483   */\n    tag_270:\n        /* \"#utility.yul\":16259:16262   */\n      0x00\n        /* \"#utility.yul\":16280:16347   */\n      tag_494\n        /* \"#utility.yul\":16344:16346   */\n      0x0e\n        /* \"#utility.yul\":16339:16342   */\n      dup4\n        /* \"#utility.yul\":16280:16347   */\n      tag_241\n      jump\t// in\n    tag_494:\n        /* \"#utility.yul\":16273:16347   */\n      swap2\n      pop\n        /* \"#utility.yul\":16356:16449   */\n      tag_495\n        /* \"#utility.yul\":16445:16448   */\n      dup3\n        /* \"#utility.yul\":16356:16449   */\n      tag_269\n      jump\t// in\n    tag_495:\n        /* \"#utility.yul\":16474:16476   */\n      0x20\n        /* \"#utility.yul\":16469:16472   */\n      dup3\n        /* \"#utility.yul\":16465:16477   */\n      add\n        /* \"#utility.yul\":16458:16477   */\n      swap1\n      pop\n        /* \"#utility.yul\":16117:16483   */\n      swap2\n      swap1\n      pop\n      jump\t// out\n        /* \"#utility.yul\":16489:16908   */\n    tag_118:\n        /* \"#utility.yul\":16655:16659   */\n      0x00\n        /* \"#utility.yul\":16693:16695   */\n      0x20\n        /* \"#utility.yul\":16682:16691   */\n      dup3\n        /* \"#utility.yul\":16678:16696   */\n      add\n        /* \"#utility.yul\":16670:16696   */\n      swap1\n      pop\n        /* \"#utility.yul\":16742:16751   */\n      dup2\n        /* \"#utility.yul\":16736:16740   */\n      dup2\n        /* \"#utility.yul\":16732:16752   */\n      sub\n        /* \"#utility.yul\":16728:16729   */\n      0x00\n        /* \"#utility.yul\":16717:16726   */\n      dup4\n        /* \"#utility.yul\":16713:16730   */\n      add\n        /* \"#utility.yul\":16706:16753   */\n      mstore\n        /* \"#utility.yul\":16770:16901   */\n      tag_497\n        /* \"#utility.yul\":16896:16900   */\n      dup2\n        /* \"#utility.yul\":16770:16901   */\n      tag_270\n      jump\t// in\n    tag_497:\n        /* \"#utility.yul\":16762:16901   */\n      swap1\n      pop\n        /* \"#utility.yul\":16489:16908   */\n      swap2\n      swap1\n      pop\n      jump\t// out\n        /* \"#utility.yul\":16914:17082   */\n    tag_271:\n        /* \"#utility.yul\":17054:17074   */\n      0x4f4e4c595f415554484f525f5355424d49540000000000000000000000000000\n        /* \"#utility.yul\":17050:17051   */\n      0x00\n        /* \"#utility.yul\":17042:17048   */\n      dup3\n        /* \"#utility.yul\":17038:17052   */\n      add\n        /* \"#utility.yul\":17031:17075   */\n      mstore\n        /* \"#utility.yul\":16914:17082   */\n      pop\n      jump\t// out\n        /* \"#utility.yul\":17088:17454   */\n    tag_272:\n        /* \"#utility.yul\":17230:17233   */\n      0x00\n        /* \"#utility.yul\":17251:17318   */\n      tag_500\n        /* \"#utility.yul\":17315:17317   */\n      0x12\n        /* \"#utility.yul\":17310:17313   */\n      dup4\n        /* \"#utility.yul\":17251:17318   */\n      tag_241\n      jump\t// in\n    tag_500:\n        /* \"#utility.yul\":17244:17318   */\n      swap2\n      pop\n        /* \"#utility.yul\":17327:17420   */\n      tag_501\n        /* \"#utility.yul\":17416:17419   */\n      dup3\n        /* \"#utility.yul\":17327:17420   */\n      tag_271\n      jump\t// in\n    tag_501:\n        /* \"#utility.yul\":17445:17447   */\n      0x20\n        /* \"#utility.yul\":17440:17443   */\n      dup3\n        /* \"#utility.yul\":17436:17448   */\n      add\n        /* \"#utility.yul\":17429:17448   */\n      swap1\n      pop\n        /* \"#utility.yul\":17088:17454   */\n      swap2\n      swap1\n      pop\n      jump\t// out\n        /* \"#utility.yul\":17460:17879   */\n    tag_121:\n        /* \"#utility.yul\":17626:17630   */\n      0x00\n        /* \"#utility.yul\":17664:17666   */\n      0x20\n        /* \"#utility.yul\":17653:17662   */\n      dup3\n        /* \"#utility.yul\":17649:17667   */\n      add\n        /* \"#utility.yul\":17641:17667   */\n      swap1\n      pop\n        /* \"#utility.yul\":17713:17722   */\n      dup2\n        /* \"#utility.yul\":17707:17711   */\n      dup2\n        /* \"#utility.yul\":17703:17723   */\n      sub\n        /* \"#utility.yul\":17699:17700   */\n      0x00\n        /* \"#utility.yul\":17688:17697   */\n      dup4\n        /* \"#utility.yul\":17684:17701   */\n      add\n        /* \"#utility.yul\":17677:17724   */\n      mstore\n        /* \"#utility.yul\":17741:17872   */\n      tag_503\n        /* \"#utility.yul\":17867:17871   */\n      dup2\n        /* \"#utility.yul\":17741:17872   */\n      tag_272\n      jump\t// in\n    tag_503:\n        /* \"#utility.yul\":17733:17872   */\n      swap1\n      pop\n        /* \"#utility.yul\":17460:17879   */\n      swap2\n      swap1\n      pop\n      jump\t// out\n        /* \"#utility.yul\":17885:18049   */\n    tag_273:\n        /* \"#utility.yul\":18025:18041   */\n      0x414c52454144595f455849535453000000000000000000000000000000000000\n        /* \"#utility.yul\":18021:18022   */\n      0x00\n        /* \"#utility.yul\":18013:18019   */\n      dup3\n        /* \"#utility.yul\":18009:18023   */\n      add\n        /* \"#utility.yul\":18002:18042   */\n      mstore\n        /* \"#utility.yul\":17885:18049   */\n      pop\n      jump\t// out\n        /* \"#utility.yul\":18055:18421   */\n    tag_274:\n        /* \"#utility.yul\":18197:18200   */\n      0x00\n        /* \"#utility.yul\":18218:18285   */\n      tag_506\n        /* \"#utility.yul\":18282:18284   */\n      0x0e\n        /* \"#utility.yul\":18277:18280   */\n      dup4\n        /* \"#utility.yul\":18218:18285   */\n      tag_241\n      jump\t// in\n    tag_506:\n        /* \"#utility.yul\":18211:18285   */\n      swap2\n      pop\n        /* \"#utility.yul\":18294:18387   */\n      tag_507\n        /* \"#utility.yul\":18383:18386   */\n      dup3\n        /* \"#utility.yul\":18294:18387   */\n      tag_273\n      jump\t// in\n    tag_507:\n        /* \"#utility.yul\":18412:18414   */\n      0x20\n        /* \"#utility.yul\":18407:18410   */\n      dup3\n        /* \"#utility.yul\":18403:18415   */\n      add\n        /* \"#utility.yul\":18396:18415   */\n      swap1\n      pop\n        /* \"#utility.yul\":18055:18421   */\n      swap2\n      swap1\n      pop\n      jump\t// out\n        /* \"#utility.yul\":18427:18846   */\n    tag_124:\n        /* \"#utility.yul\":18593:18597   */\n      0x00\n        /* \"#utility.yul\":18631:18633   */\n      0x20\n        /* \"#utility.yul\":18620:18629   */\n      dup3\n        /* \"#utility.yul\":18616:18634   */\n      add\n        /* \"#utility.yul\":18608:18634   */\n      swap1\n      pop\n        /* \"#utility.yul\":18680:18689   */\n      dup2\n        /* \"#utility.yul\":18674:18678   */\n      dup2\n        /* \"#utility.yul\":18670:18690   */\n      sub\n        /* \"#utility.yul\":18666:18667   */\n      0x00\n        /* \"#utility.yul\":18655:18664   */\n      dup4\n        /* \"#utility.yul\":18651:18668   */\n      add\n        /* \"#utility.yul\":18644:18691   */\n      mstore\n        /* \"#utility.yul\":18708:18839   */\n      tag_509\n        /* \"#utility.yul\":18834:18838   */\n      dup2\n        /* \"#utility.yul\":18708:18839   */\n      tag_274\n      jump\t// in\n    tag_509:\n        /* \"#utility.yul\":18700:18839   */\n      swap1\n      pop\n        /* \"#utility.yul\":18427:18846   */\n      swap2\n      swap1\n      pop\n      jump\t// out\n        /* \"#utility.yul\":18852:18949   */\n    tag_275:\n        /* \"#utility.yul\":18911:18917   */\n      0x00\n        /* \"#utility.yul\":18939:18942   */\n      dup3\n        /* \"#utility.yul\":18929:18942   */\n      swap1\n      pop\n        /* \"#utility.yul\":18852:18949   */\n      swap3\n      swap2\n      pop\n      pop\n      jump\t// out\n        /* \"#utility.yul\":18955:19135   */\n    tag_276:\n        /* \"#utility.yul\":19003:19080   */\n      0x4e487b7100000000000000000000000000000000000000000000000000000000\n        /* \"#utility.yul\":19000:19001   */\n      0x00\n        /* \"#utility.yul\":18993:19081   */\n      mstore\n        /* \"#utility.yul\":19100:19104   */\n      0x41\n        /* \"#utility.yul\":19097:19098   */\n      0x04\n        /* \"#utility.yul\":19090:19105   */\n      mstore\n        /* \"#utility.yul\":19124:19128   */\n      0x24\n        /* \"#utility.yul\":19121:19122   */\n      0x00\n        /* \"#utility.yul\":19114:19129   */\n      revert\n        /* \"#utility.yul\":19141:19282   */\n    tag_277:\n        /* \"#utility.yul\":19190:19194   */\n      0x00\n        /* \"#utility.yul\":19213:19216   */\n      dup2\n        /* \"#utility.yul\":19205:19216   */\n      swap1\n      pop\n        /* \"#utility.yul\":19236:19239   */\n      dup2\n        /* \"#utility.yul\":19233:19234   */\n      0x00\n        /* \"#utility.yul\":19226:19240   */\n      mstore\n        /* \"#utility.yul\":19270:19274   */\n      0x20\n        /* \"#utility.yul\":19267:19268   */\n      0x00\n        /* \"#utility.yul\":19257:19275   */\n      keccak256\n        /* \"#utility.yul\":19249:19275   */\n      swap1\n      pop\n        /* \"#utility.yul\":19141:19282   */\n      swap2\n      swap1\n      pop\n      jump\t// out\n        /* \"#utility.yul\":19288:19381   */\n    tag_278:\n        /* \"#utility.yul\":19325:19331   */\n      0x00\n        /* \"#utility.yul\":19372:19374   */\n      0x20\n        /* \"#utility.yul\":19367:19369   */\n      0x1f\n        /* \"#utility.yul\":19360:19365   */\n      dup4\n        /* \"#utility.yul\":19356:19370   */\n      add\n        /* \"#utility.yul\":19352:19375   */\n      div\n        /* \"#utility.yul\":19342:19375   */\n      swap1\n      pop\n        /* \"#utility.yul\":19288:19381   */\n      swap2\n      swap1\n      pop\n      jump\t// out\n        /* \"#utility.yul\":19387:19494   */\n    tag_279:\n        /* \"#utility.yul\":19431:19439   */\n      0x00\n        /* \"#utility.yul\":19481:19486   */\n      dup3\n        /* \"#utility.yul\":19475:19479   */\n      dup3\n        /* \"#utility.yul\":19471:19487   */\n      shl\n        /* \"#utility.yul\":19450:19487   */\n      swap1\n      pop\n        /* \"#utility.yul\":19387:19494   */\n      swap3\n      swap2\n      pop\n      pop\n      jump\t// out\n        /* \"#utility.yul\":19500:19893   */\n    tag_280:\n        /* \"#utility.yul\":19569:19575   */\n      0x00\n        /* \"#utility.yul\":19619:19620   */\n      0x08\n        /* \"#utility.yul\":19607:19617   */\n      dup4\n        /* \"#utility.yul\":19603:19621   */\n      mul\n        /* \"#utility.yul\":19642:19739   */\n      tag_516\n        /* \"#utility.yul\":19672:19738   */\n      0xffffffffffffffffffffffffffffffffffffffffffffffffffffffffffffffff\n        /* \"#utility.yul\":19661:19670   */\n      dup3\n        /* \"#utility.yul\":19642:19739   */\n      tag_279\n      jump\t// in\n    tag_516:\n        /* \"#utility.yul\":19760:19799   */\n      tag_517\n        /* \"#utility.yul\":19790:19798   */\n      dup7\n        /* \"#utility.yul\":19779:19788   */\n      dup4\n        /* \"#utility.yul\":19760:19799   */\n      tag_279\n      jump\t// in\n    tag_517:\n        /* \"#utility.yul\":19748:19799   */\n      swap6\n      pop\n        /* \"#utility.yul\":19832:19836   */\n      dup1\n        /* \"#utility.yul\":19828:19837   */\n      not\n        /* \"#utility.yul\":19821:19826   */\n      dup5\n        /* \"#utility.yul\":19817:19838   */\n      and\n        /* \"#utility.yul\":19808:19838   */\n      swap4\n      pop\n        /* \"#utility.yul\":19881:19885   */\n      dup1\n        /* \"#utility.yul\":19871:19879   */\n      dup7\n        /* \"#utility.yul\":19867:19886   */\n      and\n        /* \"#utility.yul\":19860:19865   */\n      dup5\n        /* \"#utility.yul\":19857:19887   */\n      or\n        /* \"#utility.yul\":19847:19887   */\n      swap3\n      pop\n        /* \"#utility.yul\":19576:19893   */\n      pop\n      pop\n        /* \"#utility.yul\":19500:19893   */\n      swap4\n      swap3\n      pop\n      pop\n      pop\n      jump\t// out\n        /* \"#utility.yul\":19899:19959   */\n    tag_281:\n        /* \"#utility.yul\":19927:19930   */\n      0x00\n        /* \"#utility.yul\":19948:19953   */\n      dup2\n        /* \"#utility.yul\":19941:19953   */\n      swap1\n      pop\n        /* \"#utility.yul\":19899:19959   */\n      swap2\n      swap1\n      pop\n      jump\t// out\n        /* \"#utility.yul\":19965:20107   */\n    tag_282:\n        /* \"#utility.yul\":20015:20024   */\n      0x00\n        /* \"#utility.yul\":20048:20101   */\n      tag_520\n        /* \"#utility.yul\":20066:20100   */\n      tag_521\n        /* \"#utility.yul\":20075:20099   */\n      tag_522\n        /* \"#utility.yul\":20093:20098   */\n      dup5\n        /* \"#utility.yul\":20075:20099   */\n      tag_248\n      jump\t// in\n    tag_522:\n        /* \"#utility.yul\":20066:20100   */\n      tag_281\n      jump\t// in\n    tag_521:\n        /* \"#utility.yul\":20048:20101   */\n      tag_248\n      jump\t// in\n    tag_520:\n        /* \"#utility.yul\":20035:20101   */\n      swap1\n      pop\n        /* \"#utility.yul\":19965:20107   */\n      swap2\n      swap1\n      pop\n      jump\t// out\n        /* \"#utility.yul\":20113:20188   */\n    tag_283:\n        /* \"#utility.yul\":20156:20159   */\n      0x00\n        /* \"#utility.yul\":20177:20182   */\n      dup2\n        /* \"#utility.yul\":20170:20182   */\n      swap1\n      pop\n        /* \"#utility.yul\":20113:20188   */\n      swap2\n      swap1\n      pop\n      jump\t// out\n        /* \"#utility.yul\":20194:20463   */\n    tag_284:\n        /* \"#utility.yul\":20304:20343   */\n      tag_525\n        /* \"#utility.yul\":20335:20342   */\n      dup4\n        /* \"#utility.yul\":20304:20343   */\n      tag_282\n      jump\t// in\n    tag_525:\n        /* \"#utility.yul\":20365:20456   */\n      tag_526\n        /* \"#utility.yul\":20414:20455   */\n      tag_527\n        /* \"#utility.yul\":20438:20454   */\n      dup3\n        /* \"#utility.yul\":20414:20455   */\n      tag_283\n      jump\t// in\n    tag_527:\n        /* \"#utility.yul\":20406:20412   */\n      dup5\n        /* \"#utility.yul\":20399:20403   */\n      dup5\n        /* \"#utility.yul\":20393:20404   */\n      sload\n        /* \"#utility.yul\":20365:20456   */\n      tag_280\n      jump\t// in\n    tag_526:\n        /* \"#utility.yul\":20359:20363   */\n      dup3\n        /* \"#utility.yul\":20352:20457   */\n      sstore\n        /* \"#utility.yul\":20270:20463   */\n      pop\n        /* \"#utility.yul\":20194:20463   */\n      pop\n      pop\n      pop\n      jump\t// out\n        /* \"#utility.yul\":20469:20542   */\n    tag_285:\n        /* \"#utility.yul\":20514:20517   */\n      0x00\n        /* \"#utility.yul\":20535:20536   */\n      0x00\n        /* \"#utility.yul\":20528:20536   */\n      swap1\n      pop\n        /* \"#utility.yul\":20469:20542   */\n      swap1\n      jump\t// out\n        /* \"#utility.yul\":20548:20737   */\n    tag_286:\n        /* \"#utility.yul\":20625:20657   */\n      tag_530\n      tag_285\n      jump\t// in\n    tag_530:\n        /* \"#utility.yul\":20666:20731   */\n      tag_531\n        /* \"#utility.yul\":20724:20730   */\n      dup2\n        /* \"#utility.yul\":20716:20722   */\n      dup5\n        /* \"#utility.yul\":20710:20714   */\n      dup5\n        /* \"#utility.yul\":20666:20731   */\n      tag_284\n      jump\t// in\n    tag_531:\n        /* \"#utility.yul\":20601:20737   */\n      pop\n        /* \"#utility.yul\":20548:20737   */\n      pop\n      pop\n      jump\t// out\n        /* \"#utility.yul\":20743:20929   */\n    tag_287:\n        /* \"#utility.yul\":20803:20923   */\n    tag_533:\n        /* \"#utility.yul\":20820:20823   */\n      dup2\n        /* \"#utility.yul\":20813:20818   */\n      dup2\n        /* \"#utility.yul\":20810:20824   */\n      lt\n        /* \"#utility.yul\":20803:20923   */\n      iszero\n      tag_535\n      jumpi\n        /* \"#utility.yul\":20874:20913   */\n      tag_536\n        /* \"#utility.yul\":20911:20912   */\n      0x00\n        /* \"#utility.yul\":20904:20909   */\n      dup3\n        /* \"#utility.yul\":20874:20913   */\n      tag_286\n      jump\t// in\n    tag_536:\n        /* \"#utility.yul\":20847:20848   */\n      0x01\n        /* \"#utility.yul\":20840:20845   */\n      dup2\n        /* \"#utility.yul\":20836:20849   */\n      add\n        /* \"#utility.yul\":20827:20849   */\n      swap1\n      pop\n        /* \"#utility.yul\":20803:20923   */\n      jump(tag_533)\n    tag_535:\n        /* \"#utility.yul\":20743:20929   */\n      pop\n      pop\n      jump\t// out\n        /* \"#utility.yul\":20935:21478   */\n    tag_288:\n        /* \"#utility.yul\":21036:21038   */\n      0x1f\n        /* \"#utility.yul\":21031:21034   */\n      dup3\n        /* \"#utility.yul\":21028:21039   */\n      gt\n        /* \"#utility.yul\":21025:21471   */\n      iszero\n      tag_538\n      jumpi\n        /* \"#utility.yul\":21070:21108   */\n      tag_539\n        /* \"#utility.yul\":21102:21107   */\n      dup2\n        /* \"#utility.yul\":21070:21108   */\n      tag_277\n      jump\t// in\n    tag_539:\n        /* \"#utility.yul\":21154:21183   */\n      tag_540\n        /* \"#utility.yul\":21172:21182   */\n      dup5\n        /* \"#utility.yul\":21154:21183   */\n      tag_278\n      jump\t// in\n    tag_540:\n        /* \"#utility.yul\":21144:21152   */\n      dup2\n        /* \"#utility.yul\":21140:21184   */\n      add\n        /* \"#utility.yul\":21337:21339   */\n      0x20\n        /* \"#utility.yul\":21325:21335   */\n      dup6\n        /* \"#utility.yul\":21322:21340   */\n      lt\n        /* \"#utility.yul\":21319:21368   */\n      iszero\n      tag_541\n      jumpi\n        /* \"#utility.yul\":21358:21366   */\n      dup2\n        /* \"#utility.yul\":21343:21366   */\n      swap1\n      pop\n        /* \"#utility.yul\":21319:21368   */\n    tag_541:\n        /* \"#utility.yul\":21381:21461   */\n      tag_542\n        /* \"#utility.yul\":21437:21459   */\n      tag_543\n        /* \"#utility.yul\":21455:21458   */\n      dup6\n        /* \"#utility.yul\":21437:21459   */\n      tag_278\n      jump\t// in\n    tag_543:\n        /* \"#utility.yul\":21427:21435   */\n      dup4\n        /* \"#utility.yul\":21423:21460   */\n      add\n        /* \"#utility.yul\":21410:21421   */\n      dup3\n        /* \"#utility.yul\":21381:21461   */\n      tag_287\n      jump\t// in\n    tag_542:\n        /* \"#utility.yul\":21040:21471   */\n      pop\n      pop\n        /* \"#utility.yul\":21025:21471   */\n    tag_538:\n        /* \"#utility.yul\":20935:21478   */\n      pop\n      pop\n      pop\n      jump\t// out\n        /* \"#utility.yul\":21484:21601   */\n    tag_289:\n        /* \"#utility.yul\":21538:21546   */\n      0x00\n        /* \"#utility.yul\":21588:21593   */\n      dup3\n        /* \"#utility.yul\":21582:21586   */\n      dup3\n        /* \"#utility.yul\":21578:21594   */\n      shr\n        /* \"#utility.yul\":21557:21594   */\n      swap1\n      pop\n        /* \"#utility.yul\":21484:21601   */\n      swap3\n      swap2\n      pop\n      pop\n      jump\t// out\n        /* \"#utility.yul\":21607:21776   */\n    tag_290:\n        /* \"#utility.yul\":21651:21657   */\n      0x00\n        /* \"#utility.yul\":21684:21735   */\n      tag_546\n        /* \"#utility.yul\":21732:21733   */\n      0x00\n        /* \"#utility.yul\":21728:21734   */\n      not\n        /* \"#utility.yul\":21720:21725   */\n      dup5\n        /* \"#utility.yul\":21717:21718   */\n      0x08\n        /* \"#utility.yul\":21713:21726   */\n      mul\n        /* \"#utility.yul\":21684:21735   */\n      tag_289\n      jump\t// in\n    tag_546:\n        /* \"#utility.yul\":21680:21736   */\n      not\n        /* \"#utility.yul\":21765:21769   */\n      dup1\n        /* \"#utility.yul\":21759:21763   */\n      dup4\n        /* \"#utility.yul\":21755:21770   */\n      and\n        /* \"#utility.yul\":21745:21770   */\n      swap2\n      pop\n        /* \"#utility.yul\":21658:21776   */\n      pop\n        /* \"#utility.yul\":21607:21776   */\n      swap3\n      swap2\n      pop\n      pop\n      jump\t// out\n        /* \"#utility.yul\":21781:22076   */\n    tag_291:\n        /* \"#utility.yul\":21857:21861   */\n      0x00\n        /* \"#utility.yul\":22003:22032   */\n      tag_548\n        /* \"#utility.yul\":22028:22031   */\n      dup4\n        /* \"#utility.yul\":22022:22026   */\n      dup4\n        /* \"#utility.yul\":22003:22032   */\n      tag_290\n      jump\t// in\n    tag_548:\n        /* \"#utility.yul\":21995:22032   */\n      swap2\n      pop\n        /* \"#utility.yul\":22065:22068   */\n      dup3\n        /* \"#utility.yul\":22062:22063   */\n      0x02\n        /* \"#utility.yul\":22058:22069   */\n      mul\n        /* \"#utility.yul\":22052:22056   */\n      dup3\n        /* \"#utility.yul\":22049:22070   */\n      or\n        /* \"#utility.yul\":22041:22070   */\n      swap1\n      pop\n        /* \"#utility.yul\":21781:22076   */\n      swap3\n      swap2\n      pop\n      pop\n      jump\t// out\n        /* \"#utility.yul\":22081:23484   */\n    tag_126:\n        /* \"#utility.yul\":22205:22249   */\n      tag_550\n        /* \"#utility.yul\":22245:22248   */\n      dup4\n        /* \"#utility.yul\":22240:22243   */\n      dup4\n        /* \"#utility.yul\":22205:22249   */\n      tag_275\n      jump\t// in\n    tag_550:\n        /* \"#utility.yul\":22314:22332   */\n      0xffffffffffffffff\n        /* \"#utility.yul\":22306:22312   */\n      dup2\n        /* \"#utility.yul\":22303:22333   */\n      gt\n        /* \"#utility.yul\":22300:22356   */\n      iszero\n      tag_551\n      jumpi\n        /* \"#utility.yul\":22336:22354   */\n      tag_552\n      tag_276\n      jump\t// in\n    tag_552:\n        /* \"#utility.yul\":22300:22356   */\n    tag_551:\n        /* \"#utility.yul\":22380:22418   */\n      tag_553\n        /* \"#utility.yul\":22412:22416   */\n      dup3\n        /* \"#utility.yul\":22406:22417   */\n      sload\n        /* \"#utility.yul\":22380:22418   */\n      tag_110\n      jump\t// in\n    tag_553:\n        /* \"#utility.yul\":22465:22532   */\n      tag_554\n        /* \"#utility.yul\":22525:22531   */\n      dup3\n        /* \"#utility.yul\":22517:22523   */\n      dup3\n        /* \"#utility.yul\":22511:22515   */\n      dup6\n        /* \"#utility.yul\":22465:22532   */\n      tag_288\n      jump\t// in\n    tag_554:\n        /* \"#utility.yul\":22559:22560   */\n      0x00\n        /* \"#utility.yul\":22588:22590   */\n      0x1f\n        /* \"#utility.yul\":22580:22586   */\n      dup4\n        /* \"#utility.yul\":22577:22591   */\n      gt\n        /* \"#utility.yul\":22605:22606   */\n      0x01\n        /* \"#utility.yul\":22600:23232   */\n      dup2\n      eq\n      tag_556\n      jumpi\n        /* \"#utility.yul\":23276:23277   */\n      0x00\n        /* \"#utility.yul\":23293:23299   */\n      dup5\n        /* \"#utility.yul\":23290:23374   */\n      iszero\n      tag_557\n      jumpi\n        /* \"#utility.yul\":23349:23358   */\n      dup3\n        /* \"#utility.yul\":23344:23347   */\n      dup8\n        /* \"#utility.yul\":23340:23359   */\n      add\n        /* \"#utility.yul\":23327:23360   */\n      calldataload\n        /* \"#utility.yul\":23318:23360   */\n      swap1\n      pop\n        /* \"#utility.yul\":23290:23374   */\n    tag_557:\n        /* \"#utility.yul\":23400:23467   */\n      tag_558\n        /* \"#utility.yul\":23460:23466   */\n      dup6\n        /* \"#utility.yul\":23453:23458   */\n      dup3\n        /* \"#utility.yul\":23400:23467   */\n      tag_291\n      jump\t// in\n    tag_558:\n        /* \"#utility.yul\":23394:23398   */\n      dup7\n        /* \"#utility.yul\":23387:23468   */\n      sstore\n        /* \"#utility.yul\":23249:23478   */\n      pop\n        /* \"#utility.yul\":22570:23478   */\n      jump(tag_555)\n        /* \"#utility.yul\":22600:23232   */\n    tag_556:\n        /* \"#utility.yul\":22652:22656   */\n      0x1f\n        /* \"#utility.yul\":22648:22657   */\n      not\n        /* \"#utility.yul\":22640:22646   */\n      dup5\n        /* \"#utility.yul\":22636:22658   */\n      and\n        /* \"#utility.yul\":22686:22723   */\n      tag_559\n        /* \"#utility.yul\":22718:22722   */\n      dup7\n        /* \"#utility.yul\":22686:22723   */\n      tag_277\n      jump\t// in\n    tag_559:\n        /* \"#utility.yul\":22745:22746   */\n      0x00\n        /* \"#utility.yul\":22759:22974   */\n    tag_560:\n        /* \"#utility.yul\":22773:22780   */\n      dup3\n        /* \"#utility.yul\":22770:22771   */\n      dup2\n        /* \"#utility.yul\":22767:22781   */\n      lt\n        /* \"#utility.yul\":22759:22974   */\n      iszero\n      tag_562\n      jumpi\n        /* \"#utility.yul\":22859:22868   */\n      dup5\n        /* \"#utility.yul\":22854:22857   */\n      dup10\n        /* \"#utility.yul\":22850:22869   */\n      add\n        /* \"#utility.yul\":22837:22870   */\n      calldataload\n        /* \"#utility.yul\":22829:22835   */\n      dup3\n        /* \"#utility.yul\":22822:22871   */\n      sstore\n        /* \"#utility.yul\":22910:22911   */\n      0x01\n        /* \"#utility.yul\":22902:22908   */\n      dup3\n        /* \"#utility.yul\":22898:22912   */\n      add\n        /* \"#utility.yul\":22888:22912   */\n      swap2\n      pop\n        /* \"#utility.yul\":22957:22959   */\n      0x20\n        /* \"#utility.yul\":22946:22955   */\n      dup6\n        /* \"#utility.yul\":22942:22960   */\n      add\n        /* \"#utility.yul\":22929:22960   */\n      swap5\n      pop\n        /* \"#utility.yul\":22796:22800   */\n      0x20\n        /* \"#utility.yul\":22793:22794   */\n      dup2\n        /* \"#utility.yul\":22789:22801   */\n      add\n        /* \"#utility.yul\":22784:22801   */\n      swap1\n      pop\n        /* \"#utility.yul\":22759:22974   */\n      jump(tag_560)\n    tag_562:\n        /* \"#utility.yul\":23002:23008   */\n      dup7\n        /* \"#utility.yul\":22993:23000   */\n      dup4\n        /* \"#utility.yul\":22990:23009   */\n      lt\n        /* \"#utility.yul\":22987:23173   */\n      iszero\n      tag_563\n      jumpi\n        /* \"#utility.yul\":23067:23076   */\n      dup5\n        /* \"#utility.yul\":23062:23065   */\n      dup10\n        /* \"#utility.yul\":23058:23077   */\n      add\n        /* \"#utility.yul\":23045:23078   */\n      calldataload\n        /* \"#utility.yul\":23110:23158   */\n      tag_564\n        /* \"#utility.yul\":23152:23156   */\n      0x1f\n        /* \"#utility.yul\":23144:23150   */\n      dup10\n        /* \"#utility.yul\":23140:23157   */\n      and\n        /* \"#utility.yul\":23129:23138   */\n      dup3\n        /* \"#utility.yul\":23110:23158   */\n      tag_290\n      jump\t// in\n    tag_564:\n        /* \"#utility.yul\":23102:23108   */\n      dup4\n        /* \"#utility.yul\":23095:23159   */\n      sstore\n        /* \"#utility.yul\":23010:23173   */\n      pop\n        /* \"#utility.yul\":22987:23173   */\n    tag_563:\n        /* \"#utility.yul\":23219:23220   */\n      0x01\n        /* \"#utility.yul\":23215:23216   */\n      0x02\n        /* \"#utility.yul\":23207:23213   */\n      dup9\n        /* \"#utility.yul\":23203:23217   */\n      mul\n        /* \"#utility.yul\":23199:23221   */\n      add\n        /* \"#utility.yul\":23193:23197   */\n      dup9\n        /* \"#utility.yul\":23186:23222   */\n      sstore\n        /* \"#utility.yul\":22607:23232   */\n      pop\n      pop\n      pop\n        /* \"#utility.yul\":22570:23478   */\n    tag_555:\n      pop\n        /* \"#utility.yul\":22180:23484   */\n      pop\n      pop\n      pop\n        /* \"#utility.yul\":22081:23484   */\n      pop\n      pop\n      pop\n      jump\t// out\n        /* \"#utility.yul\":23490:23653   */\n    tag_292:\n        /* \"#utility.yul\":23630:23645   */\n      0x4f4e4c595f50524f564944455200000000000000000000000000000000000000\n        /* \"#utility.yul\":23626:23627   */\n      0x00\n        /* \"#utility.yul\":23618:23624   */\n      dup3\n        /* \"#utility.yul\":23614:23628   */\n      add\n        /* \"#utility.yul\":23607:23646   */\n      mstore\n        /* \"#utility.yul\":23490:23653   */\n      pop\n      jump\t// out\n        /* \"#utility.yul\":23659:24025   */\n    tag_293:\n        /* \"#utility.yul\":23801:23804   */\n      0x00\n        /* \"#utility.yul\":23822:23889   */\n      tag_567\n        /* \"#utility.yul\":23886:23888   */\n      0x0d\n        /* \"#utility.yul\":23881:23884   */\n      dup4\n        /* \"#utility.yul\":23822:23889   */\n      tag_241\n      jump\t// in\n    tag_567:\n        /* \"#utility.yul\":23815:23889   */\n      swap2\n      pop\n        /* \"#utility.yul\":23898:23991   */\n      tag_568\n        /* \"#utility.yul\":23987:23990   */\n      dup3\n        /* \"#utility.yul\":23898:23991   */\n      tag_292\n      jump\t// in\n    tag_568:\n        /* \"#utility.yul\":24016:24018   */\n      0x20\n        /* \"#utility.yul\":24011:24014   */\n      dup3\n        /* \"#utility.yul\":24007:24019   */\n      add\n        /* \"#utility.yul\":24000:24019   */\n      swap1\n      pop\n        /* \"#utility.yul\":23659:24025   */\n      swap2\n      swap1\n      pop\n      jump\t// out\n        /* \"#utility.yul\":24031:24450   */\n    tag_157:\n        /* \"#utility.yul\":24197:24201   */\n      0x00\n        /* \"#utility.yul\":24235:24237   */\n      0x20\n        /* \"#utility.yul\":24224:24233   */\n      dup3\n        /* \"#utility.yul\":24220:24238   */\n      add\n        /* \"#utility.yul\":24212:24238   */\n      swap1\n      pop\n        /* \"#utility.yul\":24284:24293   */\n      dup2\n        /* \"#utility.yul\":24278:24282   */\n      dup2\n        /* \"#utility.yul\":24274:24294   */\n      sub\n        /* \"#utility.yul\":24270:24271   */\n      0x00\n        /* \"#utility.yul\":24259:24268   */\n      dup4\n        /* \"#utility.yul\":24255:24272   */\n      add\n        /* \"#utility.yul\":24248:24295   */\n      mstore\n        /* \"#utility.yul\":24312:24443   */\n      tag_570\n        /* \"#utility.yul\":24438:24442   */\n      dup2\n        /* \"#utility.yul\":24312:24443   */\n      tag_293\n      jump\t// in\n    tag_570:\n        /* \"#utility.yul\":24304:24443   */\n      swap1\n      pop\n        /* \"#utility.yul\":24031:24450   */\n      swap2\n      swap1\n      pop\n      jump\t// out\n        /* \"#utility.yul\":24456:24615   */\n    tag_294:\n        /* \"#utility.yul\":24596:24607   */\n      0x4e4f545f464f554e440000000000000000000000000000000000000000000000\n        /* \"#utility.yul\":24592:24593   */\n      0x00\n        /* \"#utility.yul\":24584:24590   */\n      dup3\n        /* \"#utility.yul\":24580:24594   */\n      add\n        /* \"#utility.yul\":24573:24608   */\n      mstore\n        /* \"#utility.yul\":24456:24615   */\n      pop\n      jump\t// out\n        /* \"#utility.yul\":24621:24986   */\n    tag_295:\n        /* \"#utility.yul\":24763:24766   */\n      0x00\n        /* \"#utility.yul\":24784:24850   */\n      tag_573\n        /* \"#utility.yul\":24848:24849   */\n      0x09\n        /* \"#utility.yul\":24843:24846   */\n      dup4\n        /* \"#utility.yul\":24784:24850   */\n      tag_241\n      jump\t// in\n    tag_573:\n        /* \"#utility.yul\":24777:24850   */\n      swap2\n      pop\n        /* \"#utility.yul\":24859:24952   */\n      tag_574\n        /* \"#utility.yul\":24948:24951   */\n      dup3\n        /* \"#utility.yul\":24859:24952   */\n      tag_294\n      jump\t// in\n    tag_574:\n        /* \"#utility.yul\":24977:24979   */\n      0x20\n        /* \"#utility.yul\":24972:24975   */\n      dup3\n        /* \"#utility.yul\":24968:24980   */\n      add\n        /* \"#utility.yul\":24961:24980   */\n      swap1\n      pop\n        /* \"#utility.yul\":24621:24986   */\n      swap2\n      swap1\n      pop\n      jump\t// out\n        /* \"#utility.yul\":24992:25411   */\n    tag_161:\n        /* \"#utility.yul\":25158:25162   */\n      0x00\n        /* \"#utility.yul\":25196:25198   */\n      0x20\n        /* \"#utility.yul\":25185:25194   */\n      dup3\n        /* \"#utility.yul\":25181:25199   */\n      add\n        /* \"#utility.yul\":25173:25199   */\n      swap1\n      pop\n        /* \"#utility.yul\":25245:25254   */\n      dup2\n        /* \"#utility.yul\":25239:25243   */\n      dup2\n        /* \"#utility.yul\":25235:25255   */\n      sub\n        /* \"#utility.yul\":25231:25232   */\n      0x00\n        /* \"#utility.yul\":25220:25229   */\n      dup4\n        /* \"#utility.yul\":25216:25233   */\n      add\n        /* \"#utility.yul\":25209:25256   */\n      mstore\n        /* \"#utility.yul\":25273:25404   */\n      tag_576\n        /* \"#utility.yul\":25399:25403   */\n      dup2\n        /* \"#utility.yul\":25273:25404   */\n      tag_295\n      jump\t// in\n    tag_576:\n        /* \"#utility.yul\":25265:25404   */\n      swap1\n      pop\n        /* \"#utility.yul\":24992:25411   */\n      swap2\n      swap1\n      pop\n      jump\t// out\n        /* \"#utility.yul\":25417:25581   */\n    tag_296:\n        /* \"#utility.yul\":25557:25573   */\n      0x414c52454144595f414354495645000000000000000000000000000000000000\n        /* \"#utility.yul\":25553:25554   */\n      0x00\n        /* \"#utility.yul\":25545:25551   */\n      dup3\n        /* \"#utility.yul\":25541:25555   */\n      add\n        /* \"#utility.yul\":25534:25574   */\n      mstore\n        /* \"#utility.yul\":25417:25581   */\n      pop\n      jump\t// out\n        /* \"#utility.yul\":25587:25953   */\n    tag_297:\n        /* \"#utility.yul\":25729:25732   */\n      0x00\n        /* \"#utility.yul\":25750:25817   */\n      tag_579\n        /* \"#utility.yul\":25814:25816   */\n      0x0e\n        /* \"#utility.yul\":25809:25812   */\n      dup4\n        /* \"#utility.yul\":25750:25817   */\n      tag_241\n      jump\t// in\n    tag_579:\n        /* \"#utility.yul\":25743:25817   */\n      swap2\n      pop\n        /* \"#utility.yul\":25826:25919   */\n      tag_580\n        /* \"#utility.yul\":25915:25918   */\n      dup3\n        /* \"#utility.yul\":25826:25919   */\n      tag_296\n      jump\t// in\n    tag_580:\n        /* \"#utility.yul\":25944:25946   */\n      0x20\n        /* \"#utility.yul\":25939:25942   */\n      dup3\n        /* \"#utility.yul\":25935:25947   */\n      add\n        /* \"#utility.yul\":25928:25947   */\n      swap1\n      pop\n        /* \"#utility.yul\":25587:25953   */\n      swap2\n      swap1\n      pop\n      jump\t// out\n        /* \"#utility.yul\":25959:26378   */\n    tag_164:\n        /* \"#utility.yul\":26125:26129   */\n      0x00\n        /* \"#utility.yul\":26163:26165   */\n      0x20\n        /* \"#utility.yul\":26152:26161   */\n      dup3\n        /* \"#utility.yul\":26148:26166   */\n      add\n        /* \"#utility.yul\":26140:26166   */\n      swap1\n      pop\n        /* \"#utility.yul\":26212:26221   */\n      dup2\n        /* \"#utility.yul\":26206:26210   */\n      dup2\n        /* \"#utility.yul\":26202:26222   */\n      sub\n        /* \"#utility.yul\":26198:26199   */\n      0x00\n        /* \"#utility.yul\":26187:26196   */\n      dup4\n        /* \"#utility.yul\":26183:26200   */\n      add\n        /* \"#utility.yul\":26176:26223   */\n      mstore\n        /* \"#utility.yul\":26240:26371   */\n      tag_582\n        /* \"#utility.yul\":26366:26370   */\n      dup2\n        /* \"#utility.yul\":26240:26371   */\n      tag_297\n      jump\t// in\n    tag_582:\n        /* \"#utility.yul\":26232:26371   */\n      swap1\n      pop\n        /* \"#utility.yul\":25959:26378   */\n      swap2\n      swap1\n      pop\n      jump\t// out\n        /* \"#utility.yul\":26384:26532   */\n    tag_298:\n        /* \"#utility.yul\":26482:26488   */\n      dup3\n        /* \"#utility.yul\":26477:26480   */\n      dup2\n        /* \"#utility.yul\":26472:26475   */\n      dup4\n        /* \"#utility.yul\":26459:26489   */\n      calldatacopy\n        /* \"#utility.yul\":26523:26524   */\n      0x00\n        /* \"#utility.yul\":26514:26520   */\n      dup4\n        /* \"#utility.yul\":26509:26512   */\n      dup4\n        /* \"#utility.yul\":26505:26521   */\n      add\n        /* \"#utility.yul\":26498:26525   */\n      mstore\n        /* \"#utility.yul\":26384:26532   */\n      pop\n      pop\n      pop\n      jump\t// out\n        /* \"#utility.yul\":26562:26879   */\n    tag_299:\n        /* \"#utility.yul\":26660:26663   */\n      0x00\n        /* \"#utility.yul\":26681:26752   */\n      tag_585\n        /* \"#utility.yul\":26745:26751   */\n      dup4\n        /* \"#utility.yul\":26740:26743   */\n      dup6\n        /* \"#utility.yul\":26681:26752   */\n      tag_241\n      jump\t// in\n    tag_585:\n        /* \"#utility.yul\":26674:26752   */\n      swap4\n      pop\n        /* \"#utility.yul\":26762:26818   */\n      tag_586\n        /* \"#utility.yul\":26811:26817   */\n      dup4\n        /* \"#utility.yul\":26806:26809   */\n      dup6\n        /* \"#utility.yul\":26799:26804   */\n      dup5\n        /* \"#utility.yul\":26762:26818   */\n      tag_298\n      jump\t// in\n    tag_586:\n        /* \"#utility.yul\":26843:26872   */\n      tag_587\n        /* \"#utility.yul\":26865:26871   */\n      dup4\n        /* \"#utility.yul\":26843:26872   */\n      tag_243\n      jump\t// in\n    tag_587:\n        /* \"#utility.yul\":26838:26841   */\n      dup5\n        /* \"#utility.yul\":26834:26873   */\n      add\n        /* \"#utility.yul\":26827:26873   */\n      swap1\n      pop\n        /* \"#utility.yul\":26562:26879   */\n      swap4\n      swap3\n      pop\n      pop\n      pop\n      jump\t// out\n        /* \"#utility.yul\":26885:27218   */\n    tag_166:\n        /* \"#utility.yul\":27008:27012   */\n      0x00\n        /* \"#utility.yul\":27046:27048   */\n      0x20\n        /* \"#utility.yul\":27035:27044   */\n      dup3\n        /* \"#utility.yul\":27031:27049   */\n      add\n        /* \"#utility.yul\":27023:27049   */\n      swap1\n      pop\n        /* \"#utility.yul\":27095:27104   */\n      dup2\n        /* \"#utility.yul\":27089:27093   */\n      dup2\n        /* \"#utility.yul\":27085:27105   */\n      sub\n        /* \"#utility.yul\":27081:27082   */\n      0x00\n        /* \"#utility.yul\":27070:27079   */\n      dup4\n        /* \"#utility.yul\":27066:27083   */\n      add\n        /* \"#utility.yul\":27059:27106   */\n      mstore\n        /* \"#utility.yul\":27123:27211   */\n      tag_589\n        /* \"#utility.yul\":27206:27210   */\n      dup2\n        /* \"#utility.yul\":27197:27203   */\n      dup5\n        /* \"#utility.yul\":27189:27195   */\n      dup7\n        /* \"#utility.yul\":27123:27211   */\n      tag_299\n      jump\t// in\n    tag_589:\n        /* \"#utility.yul\":27115:27211   */\n      swap1\n      pop\n        /* \"#utility.yul\":26885:27218   */\n      swap4\n      swap3\n      pop\n      pop\n      pop\n      jump\t// out\n        /* \"#utility.yul\":27224:27385   */\n    tag_300:\n        /* \"#utility.yul\":27364:27377   */\n      0x4f4e4c595f415554484f52000000000000000000000000000000000000000000\n        /* \"#utility.yul\":27360:27361   */\n      0x00\n        /* \"#utility.yul\":27352:27358   */\n      dup3\n        /* \"#utility.yul\":27348:27362   */\n      add\n        /* \"#utility.yul\":27341:27378   */\n      mstore\n        /* \"#utility.yul\":27224:27385   */\n      pop\n      jump\t// out\n        /* \"#utility.yul\":27391:27757   */\n    tag_301:\n        /* \"#utility.yul\":27533:27536   */\n      0x00\n        /* \"#utility.yul\":27554:27621   */\n      tag_592\n        /* \"#utility.yul\":27618:27620   */\n      0x0b\n        /* \"#utility.yul\":27613:27616   */\n      dup4\n        /* \"#utility.yul\":27554:27621   */\n      tag_241\n      jump\t// in\n    tag_592:\n        /* \"#utility.yul\":27547:27621   */\n      swap2\n      pop\n        /* \"#utility.yul\":27630:27723   */\n      tag_593\n        /* \"#utility.yul\":27719:27722   */\n      dup3\n        /* \"#utility.yul\":27630:27723   */\n      tag_300\n      jump\t// in\n    tag_593:\n        /* \"#utility.yul\":27748:27750   */\n      0x20\n        /* \"#utility.yul\":27743:27746   */\n      dup3\n        /* \"#utility.yul\":27739:27751   */\n      add\n        /* \"#utility.yul\":27732:27751   */\n      swap1\n      pop\n        /* \"#utility.yul\":27391:27757   */\n      swap2\n      swap1\n      pop\n      jump\t// out\n        /* \"#utility.yul\":27763:28182   */\n    tag_185:\n        /* \"#utility.yul\":27929:27933   */\n      0x00\n        /* \"#utility.yul\":27967:27969   */\n      0x20\n        /* \"#utility.yul\":27956:27965   */\n      dup3\n        /* \"#utility.yul\":27952:27970   */\n      add\n        /* \"#utility.yul\":27944:27970   */\n      swap1\n      pop\n        /* \"#utility.yul\":28016:28025   */\n      dup2\n        /* \"#utility.yul\":28010:28014   */\n      dup2\n        /* \"#utility.yul\":28006:28026   */\n      sub\n        /* \"#utility.yul\":28002:28003   */\n      0x00\n        /* \"#utility.yul\":27991:28000   */\n      dup4\n        /* \"#utility.yul\":27987:28004   */\n      add\n        /* \"#utility.yul\":27980:28027   */\n      mstore\n        /* \"#utility.yul\":28044:28175   */\n      tag_595\n        /* \"#utility.yul\":28170:28174   */\n      dup2\n        /* \"#utility.yul\":28044:28175   */\n      tag_301\n      jump\t// in\n    tag_595:\n        /* \"#utility.yul\":28036:28175   */\n      swap1\n      pop\n        /* \"#utility.yul\":27763:28182   */\n      swap2\n      swap1\n      pop\n      jump\t// out\n        /* \"#utility.yul\":28188:28350   */\n    tag_302:\n        /* \"#utility.yul\":28328:28342   */\n      0x494e56414c49445f5445524d0000000000000000000000000000000000000000\n        /* \"#utility.yul\":28324:28325   */\n      0x00\n        /* \"#utility.yul\":28316:28322   */\n      dup3\n        /* \"#utility.yul\":28312:28326   */\n      add\n        /* \"#utility.yul\":28305:28343   */\n      mstore\n        /* \"#utility.yul\":28188:28350   */\n      pop\n      jump\t// out\n        /* \"#utility.yul\":28356:28722   */\n    tag_303:\n        /* \"#utility.yul\":28498:28501   */\n      0x00\n        /* \"#utility.yul\":28519:28586   */\n      tag_598\n        /* \"#utility.yul\":28583:28585   */\n      0x0c\n        /* \"#utility.yul\":28578:28581   */\n      dup4\n        /* \"#utility.yul\":28519:28586   */\n      tag_241\n      jump\t// in\n    tag_598:\n        /* \"#utility.yul\":28512:28586   */\n      swap2\n      pop\n        /* \"#utility.yul\":28595:28688   */\n      tag_599\n        /* \"#utility.yul\":28684:28687   */\n      dup3\n        /* \"#utility.yul\":28595:28688   */\n      tag_302\n      jump\t// in\n    tag_599:\n        /* \"#utility.yul\":28713:28715   */\n      0x20\n        /* \"#utility.yul\":28708:28711   */\n      dup3\n        /* \"#utility.yul\":28704:28716   */\n      add\n        /* \"#utility.yul\":28697:28716   */\n      swap1\n      pop\n        /* \"#utility.yul\":28356:28722   */\n      swap2\n      swap1\n      pop\n      jump\t// out\n        /* \"#utility.yul\":28728:29147   */\n    tag_189:\n        /* \"#utility.yul\":28894:28898   */\n      0x00\n        /* \"#utility.yul\":28932:28934   */\n      0x20\n        /* \"#utility.yul\":28921:28930   */\n      dup3\n        /* \"#utility.yul\":28917:28935   */\n      add\n        /* \"#utility.yul\":28909:28935   */\n      swap1\n      pop\n        /* \"#utility.yul\":28981:28990   */\n      dup2\n        /* \"#utility.yul\":28975:28979   */\n      dup2\n        /* \"#utility.yul\":28971:28991   */\n      sub\n        /* \"#utility.yul\":28967:28968   */\n      0x00\n        /* \"#utility.yul\":28956:28965   */\n      dup4\n        /* \"#utility.yul\":28952:28969   */\n      add\n        /* \"#utility.yul\":28945:28992   */\n      mstore\n        /* \"#utility.yul\":29009:29140   */\n      tag_601\n        /* \"#utility.yul\":29135:29139   */\n      dup2\n        /* \"#utility.yul\":29009:29140   */\n      tag_303\n      jump\t// in\n    tag_601:\n        /* \"#utility.yul\":29001:29140   */\n      swap1\n      pop\n        /* \"#utility.yul\":28728:29147   */\n      swap2\n      swap1\n      pop\n      jump\t// out\n        /* \"#utility.yul\":29339:29455   */\n    tag_305:\n        /* \"#utility.yul\":29409:29430   */\n      tag_604\n        /* \"#utility.yul\":29424:29429   */\n      dup2\n        /* \"#utility.yul\":29409:29430   */\n      tag_255\n      jump\t// in\n    tag_604:\n        /* \"#utility.yul\":29402:29407   */\n      dup2\n        /* \"#utility.yul\":29399:29431   */\n      eq\n        /* \"#utility.yul\":29389:29449   */\n      tag_605\n      jumpi\n        /* \"#utility.yul\":29445:29446   */\n      0x00\n        /* \"#utility.yul\":29442:29443   */\n      0x00\n        /* \"#utility.yul\":29435:29447   */\n      revert\n        /* \"#utility.yul\":29389:29449   */\n    tag_605:\n        /* \"#utility.yul\":29339:29455   */\n      pop\n      jump\t// out\n        /* \"#utility.yul\":29461:29641   */\n    tag_306:\n        /* \"#utility.yul\":29503:29514   */\n      0x00\n        /* \"#utility.yul\":29552:29555   */\n      dup2\n        /* \"#utility.yul\":29539:29556   */\n      calldataload\n        /* \"#utility.yul\":29565:29595   */\n      tag_607\n        /* \"#utility.yul\":29589:29594   */\n      dup2\n        /* \"#utility.yul\":29565:29595   */\n      tag_305\n      jump\t// in\n    tag_607:\n        /* \"#utility.yul\":29629:29634   */\n      dup1\n        /* \"#utility.yul\":29605:29634   */\n      swap2\n      pop\n        /* \"#utility.yul\":29515:29641   */\n      pop\n        /* \"#utility.yul\":29461:29641   */\n      swap2\n      swap1\n      pop\n      jump\t// out\n        /* \"#utility.yul\":29647:29739   */\n    tag_307:\n        /* \"#utility.yul\":29679:29687   */\n      0x00\n        /* \"#utility.yul\":29726:29731   */\n      dup2\n        /* \"#utility.yul\":29723:29724   */\n      0x00\n        /* \"#utility.yul\":29719:29732   */\n      shl\n        /* \"#utility.yul\":29698:29732   */\n      swap1\n      pop\n        /* \"#utility.yul\":29647:29739   */\n      swap2\n      swap1\n      pop\n      jump\t// out\n        /* \"#utility.yul\":29745:29971   */\n    tag_308:\n        /* \"#utility.yul\":29802:29808   */\n      0x00\n        /* \"#utility.yul\":29831:29834   */\n      0xff\n        /* \"#utility.yul\":29855:29877   */\n      tag_610\n        /* \"#utility.yul\":29868:29876   */\n      dup5\n        /* \"#utility.yul\":29855:29877   */\n      tag_307\n      jump\t// in\n    tag_610:\n        /* \"#utility.yul\":29843:29877   */\n      swap4\n      pop\n        /* \"#utility.yul\":29910:29914   */\n      dup1\n        /* \"#utility.yul\":29906:29915   */\n      not\n        /* \"#utility.yul\":29899:29904   */\n      dup4\n        /* \"#utility.yul\":29895:29916   */\n      and\n        /* \"#utility.yul\":29886:29916   */\n      swap3\n      pop\n        /* \"#utility.yul\":29959:29963   */\n      dup1\n        /* \"#utility.yul\":29949:29957   */\n      dup5\n        /* \"#utility.yul\":29945:29964   */\n      and\n        /* \"#utility.yul\":29938:29943   */\n      dup4\n        /* \"#utility.yul\":29935:29965   */\n      or\n        /* \"#utility.yul\":29925:29965   */\n      swap2\n      pop\n        /* \"#utility.yul\":29809:29971   */\n      pop\n        /* \"#utility.yul\":29745:29971   */\n      swap3\n      swap2\n      pop\n      pop\n      jump\t// out\n        /* \"#utility.yul\":29977:30081   */\n    tag_309:\n        /* \"#utility.yul\":30021:30030   */\n      0x00\n        /* \"#utility.yul\":30054:30075   */\n      tag_612\n        /* \"#utility.yul\":30069:30074   */\n      dup3\n        /* \"#utility.yul\":30054:30075   */\n      tag_255\n      jump\t// in\n    tag_612:\n        /* \"#utility.yul\":30041:30075   */\n      swap1\n      pop\n        /* \"#utility.yul\":29977:30081   */\n      swap2\n      swap1\n      pop\n      jump\t// out\n        /* \"#utility.yul\":30087:30159   */\n    tag_310:\n        /* \"#utility.yul\":30127:30130   */\n      0x00\n        /* \"#utility.yul\":30148:30153   */\n      dup2\n        /* \"#utility.yul\":30141:30153   */\n      swap1\n      pop\n        /* \"#utility.yul\":30087:30159   */\n      swap2\n      swap1\n      pop\n      jump\t// out\n        /* \"#utility.yul\":30165:30412   */\n    tag_311:\n        /* \"#utility.yul\":30270:30303   */\n      tag_615\n        /* \"#utility.yul\":30295:30302   */\n      dup3\n        /* \"#utility.yul\":30270:30303   */\n      tag_309\n      jump\t// in\n    tag_615:\n        /* \"#utility.yul\":30325:30405   */\n      tag_616\n        /* \"#utility.yul\":30366:30404   */\n      tag_617\n        /* \"#utility.yul\":30387:30403   */\n      dup3\n        /* \"#utility.yul\":30366:30404   */\n      tag_310\n      jump\t// in\n    tag_617:\n        /* \"#utility.yul\":30359:30363   */\n      dup4\n        /* \"#utility.yul\":30353:30364   */\n      sload\n        /* \"#utility.yul\":30325:30405   */\n      tag_308\n      jump\t// in\n    tag_616:\n        /* \"#utility.yul\":30319:30323   */\n      dup3\n        /* \"#utility.yul\":30312:30406   */\n      sstore\n        /* \"#utility.yul\":30236:30412   */\n      pop\n        /* \"#utility.yul\":30165:30412   */\n      pop\n      pop\n      jump\t// out\n        /* \"#utility.yul\":30418:30510   */\n    tag_312:\n        /* \"#utility.yul\":30450:30458   */\n      0x00\n        /* \"#utility.yul\":30497:30502   */\n      dup2\n        /* \"#utility.yul\":30494:30495   */\n      0x08\n        /* \"#utility.yul\":30490:30503   */\n      shl\n        /* \"#utility.yul\":30469:30503   */\n      swap1\n      pop\n        /* \"#utility.yul\":30418:30510   */\n      swap2\n      swap1\n      pop\n      jump\t// out\n        /* \"#utility.yul\":30516:30744   */\n    tag_313:\n        /* \"#utility.yul\":30573:30579   */\n      0x00\n        /* \"#utility.yul\":30602:30607   */\n      0xff00\n        /* \"#utility.yul\":30628:30650   */\n      tag_620\n        /* \"#utility.yul\":30641:30649   */\n      dup5\n        /* \"#utility.yul\":30628:30650   */\n      tag_312\n      jump\t// in\n    tag_620:\n        /* \"#utility.yul\":30616:30650   */\n      swap4\n      pop\n        /* \"#utility.yul\":30683:30687   */\n      dup1\n        /* \"#utility.yul\":30679:30688   */\n      not\n        /* \"#utility.yul\":30672:30677   */\n      dup4\n        /* \"#utility.yul\":30668:30689   */\n      and\n        /* \"#utility.yul\":30659:30689   */\n      swap3\n      pop\n        /* \"#utility.yul\":30732:30736   */\n      dup1\n        /* \"#utility.yul\":30722:30730   */\n      dup5\n        /* \"#utility.yul\":30718:30737   */\n      and\n        /* \"#utility.yul\":30711:30716   */\n      dup4\n        /* \"#utility.yul\":30708:30738   */\n      or\n        /* \"#utility.yul\":30698:30738   */\n      swap2\n      pop\n        /* \"#utility.yul\":30580:30744   */\n      pop\n        /* \"#utility.yul\":30516:30744   */\n      swap3\n      swap2\n      pop\n      pop\n      jump\t// out\n        /* \"#utility.yul\":30750:30997   */\n    tag_314:\n        /* \"#utility.yul\":30855:30888   */\n      tag_622\n        /* \"#utility.yul\":30880:30887   */\n      dup3\n        /* \"#utility.yul\":30855:30888   */\n      tag_309\n      jump\t// in\n    tag_622:\n        /* \"#utility.yul\":30910:30990   */\n      tag_623\n        /* \"#utility.yul\":30951:30989   */\n      tag_624\n        /* \"#utility.yul\":30972:30988   */\n      dup3\n        /* \"#utility.yul\":30951:30989   */\n      tag_310\n      jump\t// in\n    tag_624:\n        /* \"#utility.yul\":30944:30948   */\n      dup4\n        /* \"#utility.yul\":30938:30949   */\n      sload\n        /* \"#utility.yul\":30910:30990   */\n      tag_313\n      jump\t// in\n    tag_623:\n        /* \"#utility.yul\":30904:30908   */\n      dup3\n        /* \"#utility.yul\":30897:30991   */\n      sstore\n        /* \"#utility.yul\":30821:30997   */\n      pop\n        /* \"#utility.yul\":30750:30997   */\n      pop\n      pop\n      jump\t// out\n        /* \"#utility.yul\":31003:31097   */\n    tag_315:\n        /* \"#utility.yul\":31036:31044   */\n      0x00\n        /* \"#utility.yul\":31084:31089   */\n      dup2\n        /* \"#utility.yul\":31080:31082   */\n      0x10\n        /* \"#utility.yul\":31076:31090   */\n      shl\n        /* \"#utility.yul\":31055:31090   */\n      swap1\n      pop\n        /* \"#utility.yul\":31003:31097   */\n      swap2\n      swap1\n      pop\n      jump\t// out\n        /* \"#utility.yul\":31103:31335   */\n    tag_316:\n        /* \"#utility.yul\":31160:31166   */\n      0x00\n        /* \"#utility.yul\":31189:31197   */\n      0xff0000\n        /* \"#utility.yul\":31218:31241   */\n      tag_627\n        /* \"#utility.yul\":31232:31240   */\n      dup5\n        /* \"#utility.yul\":31218:31241   */\n      tag_315\n      jump\t// in\n    tag_627:\n        /* \"#utility.yul\":31206:31241   */\n      swap4\n      pop\n        /* \"#utility.yul\":31274:31278   */\n      dup1\n        /* \"#utility.yul\":31270:31279   */\n      not\n        /* \"#utility.yul\":31263:31268   */\n      dup4\n        /* \"#utility.yul\":31259:31280   */\n      and\n        /* \"#utility.yul\":31250:31280   */\n      swap3\n      pop\n        /* \"#utility.yul\":31323:31327   */\n      dup1\n        /* \"#utility.yul\":31313:31321   */\n      dup5\n        /* \"#utility.yul\":31309:31328   */\n      and\n        /* \"#utility.yul\":31302:31307   */\n      dup4\n        /* \"#utility.yul\":31299:31329   */\n      or\n        /* \"#utility.yul\":31289:31329   */\n      swap2\n      pop\n        /* \"#utility.yul\":31167:31335   */\n      pop\n        /* \"#utility.yul\":31103:31335   */\n      swap3\n      swap2\n      pop\n      pop\n      jump\t// out\n        /* \"#utility.yul\":31341:31588   */\n    tag_317:\n        /* \"#utility.yul\":31446:31479   */\n      tag_629\n        /* \"#utility.yul\":31471:31478   */\n      dup3\n        /* \"#utility.yul\":31446:31479   */\n      tag_309\n      jump\t// in\n    tag_629:\n        /* \"#utility.yul\":31501:31581   */\n      tag_630\n        /* \"#utility.yul\":31542:31580   */\n      tag_631\n        /* \"#utility.yul\":31563:31579   */\n      dup3\n        /* \"#utility.yul\":31542:31580   */\n      tag_310\n      jump\t// in\n    tag_631:\n        /* \"#utility.yul\":31535:31539   */\n      dup4\n        /* \"#utility.yul\":31529:31540   */\n      sload\n        /* \"#utility.yul\":31501:31581   */\n      tag_316\n      jump\t// in\n    tag_630:\n        /* \"#utility.yul\":31495:31499   */\n      dup3\n        /* \"#utility.yul\":31488:31582   */\n      sstore\n        /* \"#utility.yul\":31412:31588   */\n      pop\n        /* \"#utility.yul\":31341:31588   */\n      pop\n      pop\n      jump\t// out\n        /* \"#utility.yul\":31594:31688   */\n    tag_318:\n        /* \"#utility.yul\":31627:31635   */\n      0x00\n        /* \"#utility.yul\":31675:31680   */\n      dup2\n        /* \"#utility.yul\":31671:31673   */\n      0x18\n        /* \"#utility.yul\":31667:31681   */\n      shl\n        /* \"#utility.yul\":31646:31681   */\n      swap1\n      pop\n        /* \"#utility.yul\":31594:31688   */\n      swap2\n      swap1\n      pop\n      jump\t// out\n        /* \"#utility.yul\":31694:31928   */\n    tag_319:\n        /* \"#utility.yul\":31751:31757   */\n      0x00\n        /* \"#utility.yul\":31780:31790   */\n      0xff000000\n        /* \"#utility.yul\":31811:31834   */\n      tag_634\n        /* \"#utility.yul\":31825:31833   */\n      dup5\n        /* \"#utility.yul\":31811:31834   */\n      tag_318\n      jump\t// in\n    tag_634:\n        /* \"#utility.yul\":31799:31834   */\n      swap4\n      pop\n        /* \"#utility.yul\":31867:31871   */\n      dup1\n        /* \"#utility.yul\":31863:31872   */\n      not\n        /* \"#utility.yul\":31856:31861   */\n      dup4\n        /* \"#utility.yul\":31852:31873   */\n      and\n        /* \"#utility.yul\":31843:31873   */\n      swap3\n      pop\n        /* \"#utility.yul\":31916:31920   */\n      dup1\n        /* \"#utility.yul\":31906:31914   */\n      dup5\n        /* \"#utility.yul\":31902:31921   */\n      and\n        /* \"#utility.yul\":31895:31900   */\n      dup4\n        /* \"#utility.yul\":31892:31922   */\n      or\n        /* \"#utility.yul\":31882:31922   */\n      swap2\n      pop\n        /* \"#utility.yul\":31758:31928   */\n      pop\n        /* \"#utility.yul\":31694:31928   */\n      swap3\n      swap2\n      pop\n      pop\n      jump\t// out\n        /* \"#utility.yul\":31934:32181   */\n    tag_320:\n        /* \"#utility.yul\":32039:32072   */\n      tag_636\n        /* \"#utility.yul\":32064:32071   */\n      dup3\n        /* \"#utility.yul\":32039:32072   */\n      tag_309\n      jump\t// in\n    tag_636:\n        /* \"#utility.yul\":32094:32174   */\n      tag_637\n        /* \"#utility.yul\":32135:32173   */\n      tag_638\n        /* \"#utility.yul\":32156:32172   */\n      dup3\n        /* \"#utility.yul\":32135:32173   */\n      tag_310\n      jump\t// in\n    tag_638:\n        /* \"#utility.yul\":32128:32132   */\n      dup4\n        /* \"#utility.yul\":32122:32133   */\n      sload\n        /* \"#utility.yul\":32094:32174   */\n      tag_319\n      jump\t// in\n    tag_637:\n        /* \"#utility.yul\":32088:32092   */\n      dup3\n        /* \"#utility.yul\":32081:32175   */\n      sstore\n        /* \"#utility.yul\":32005:32181   */\n      pop\n        /* \"#utility.yul\":31934:32181   */\n      pop\n      pop\n      jump\t// out\n        /* \"#utility.yul\":32187:32281   */\n    tag_321:\n        /* \"#utility.yul\":32220:32228   */\n      0x00\n        /* \"#utility.yul\":32268:32273   */\n      dup2\n        /* \"#utility.yul\":32264:32266   */\n      0x20\n        /* \"#utility.yul\":32260:32274   */\n      shl\n        /* \"#utility.yul\":32239:32274   */\n      swap1\n      pop\n        /* \"#utility.yul\":32187:32281   */\n      swap2\n      swap1\n      pop\n      jump\t// out\n        /* \"#utility.yul\":32287:32523   */\n    tag_322:\n        /* \"#utility.yul\":32344:32350   */\n      0x00\n        /* \"#utility.yul\":32373:32385   */\n      0xff00000000\n        /* \"#utility.yul\":32406:32429   */\n      tag_641\n        /* \"#utility.yul\":32420:32428   */\n      dup5\n        /* \"#utility.yul\":32406:32429   */\n      tag_321\n      jump\t// in\n    tag_641:\n        /* \"#utility.yul\":32394:32429   */\n      swap4\n      pop\n        /* \"#utility.yul\":32462:32466   */\n      dup1\n        /* \"#utility.yul\":32458:32467   */\n      not\n        /* \"#utility.yul\":32451:32456   */\n      dup4\n        /* \"#utility.yul\":32447:32468   */\n      and\n        /* \"#utility.yul\":32438:32468   */\n      swap3\n      pop\n        /* \"#utility.yul\":32511:32515   */\n      dup1\n        /* \"#utility.yul\":32501:32509   */\n      dup5\n        /* \"#utility.yul\":32497:32516   */\n      and\n        /* \"#utility.yul\":32490:32495   */\n      dup4\n        /* \"#utility.yul\":32487:32517   */\n      or\n        /* \"#utility.yul\":32477:32517   */\n      swap2\n      pop\n        /* \"#utility.yul\":32351:32523   */\n      pop\n        /* \"#utility.yul\":32287:32523   */\n      swap3\n      swap2\n      pop\n      pop\n      jump\t// out\n        /* \"#utility.yul\":32529:32776   */\n    tag_323:\n        /* \"#utility.yul\":32634:32667   */\n      tag_643\n        /* \"#utility.yul\":32659:32666   */\n      dup3\n        /* \"#utility.yul\":32634:32667   */\n      tag_309\n      jump\t// in\n    tag_643:\n        /* \"#utility.yul\":32689:32769   */\n      tag_644\n        /* \"#utility.yul\":32730:32768   */\n      tag_645\n        /* \"#utility.yul\":32751:32767   */\n      dup3\n        /* \"#utility.yul\":32730:32768   */\n      tag_310\n      jump\t// in\n    tag_645:\n        /* \"#utility.yul\":32723:32727   */\n      dup4\n        /* \"#utility.yul\":32717:32728   */\n      sload\n        /* \"#utility.yul\":32689:32769   */\n      tag_322\n      jump\t// in\n    tag_644:\n        /* \"#utility.yul\":32683:32687   */\n      dup3\n        /* \"#utility.yul\":32676:32770   */\n      sstore\n        /* \"#utility.yul\":32600:32776   */\n      pop\n        /* \"#utility.yul\":32529:32776   */\n      pop\n      pop\n      jump\t// out\n        /* \"#utility.yul\":32782:32899   */\n    tag_324:\n        /* \"#utility.yul\":32891:32892   */\n      0x00\n        /* \"#utility.yul\":32888:32889   */\n      0x00\n        /* \"#utility.yul\":32881:32893   */\n      revert\n        /* \"#utility.yul\":32905:33022   */\n    tag_325:\n        /* \"#utility.yul\":33014:33015   */\n      0x00\n        /* \"#utility.yul\":33011:33012   */\n      0x00\n        /* \"#utility.yul\":33004:33016   */\n      revert\n        /* \"#utility.yul\":33028:33145   */\n    tag_326:\n        /* \"#utility.yul\":33137:33138   */\n      0x00\n        /* \"#utility.yul\":33134:33135   */\n      0x00\n        /* \"#utility.yul\":33127:33139   */\n      revert\n        /* \"#utility.yul\":33151:33876   */\n    tag_327:\n        /* \"#utility.yul\":33229:33233   */\n      0x00\n        /* \"#utility.yul\":33235:33241   */\n      0x00\n        /* \"#utility.yul\":33291:33302   */\n      dup4\n        /* \"#utility.yul\":33278:33303   */\n      calldataload\n        /* \"#utility.yul\":33391:33392   */\n      0x01\n        /* \"#utility.yul\":33385:33389   */\n      0x20\n        /* \"#utility.yul\":33381:33393   */\n      sub\n        /* \"#utility.yul\":33370:33378   */\n      dup5\n        /* \"#utility.yul\":33354:33368   */\n      calldatasize\n        /* \"#utility.yul\":33350:33379   */\n      sub\n        /* \"#utility.yul\":33346:33394   */\n      sub\n        /* \"#utility.yul\":33326:33344   */\n      dup2\n        /* \"#utility.yul\":33322:33395   */\n      slt\n        /* \"#utility.yul\":33312:33480   */\n      tag_650\n      jumpi\n        /* \"#utility.yul\":33399:33478   */\n      tag_651\n      tag_324\n      jump\t// in\n    tag_651:\n        /* \"#utility.yul\":33312:33480   */\n    tag_650:\n        /* \"#utility.yul\":33511:33529   */\n      dup1\n        /* \"#utility.yul\":33501:33509   */\n      dup5\n        /* \"#utility.yul\":33497:33530   */\n      add\n        /* \"#utility.yul\":33489:33530   */\n      swap3\n      pop\n        /* \"#utility.yul\":33563:33567   */\n      dup3\n        /* \"#utility.yul\":33550:33568   */\n      calldataload\n        /* \"#utility.yul\":33540:33568   */\n      swap2\n      pop\n        /* \"#utility.yul\":33591:33609   */\n      0xffffffffffffffff\n        /* \"#utility.yul\":33583:33589   */\n      dup3\n        /* \"#utility.yul\":33580:33610   */\n      gt\n        /* \"#utility.yul\":33577:33694   */\n      iszero\n      tag_652\n      jumpi\n        /* \"#utility.yul\":33613:33692   */\n      tag_653\n      tag_325\n      jump\t// in\n    tag_653:\n        /* \"#utility.yul\":33577:33694   */\n    tag_652:\n        /* \"#utility.yul\":33721:33723   */\n      0x20\n        /* \"#utility.yul\":33715:33719   */\n      dup4\n        /* \"#utility.yul\":33711:33724   */\n      add\n        /* \"#utility.yul\":33703:33724   */\n      swap3\n      pop\n        /* \"#utility.yul\":33778:33782   */\n      0x01\n        /* \"#utility.yul\":33770:33776   */\n      dup3\n        /* \"#utility.yul\":33766:33783   */\n      mul\n        /* \"#utility.yul\":33750:33764   */\n      calldatasize\n        /* \"#utility.yul\":33746:33784   */\n      sub\n        /* \"#utility.yul\":33740:33744   */\n      dup4\n        /* \"#utility.yul\":33736:33785   */\n      sgt\n        /* \"#utility.yul\":33733:33869   */\n      iszero\n      tag_654\n      jumpi\n        /* \"#utility.yul\":33788:33867   */\n      tag_655\n      tag_326\n      jump\t// in\n    tag_655:\n        /* \"#utility.yul\":33733:33869   */\n    tag_654:\n        /* \"#utility.yul\":33242:33876   */\n      pop\n        /* \"#utility.yul\":33151:33876   */\n      swap3\n      pop\n      swap3\n      swap1\n      pop\n      jump\t// out\n        /* \"#utility.yul\":33882:34101   */\n    tag_328:\n        /* \"#utility.yul\":33998:34095   */\n      tag_657\n        /* \"#utility.yul\":34087:34094   */\n      dup4\n        /* \"#utility.yul\":34078:34085   */\n      dup4\n        /* \"#utility.yul\":34072:34076   */\n      dup4\n        /* \"#utility.yul\":33998:34095   */\n      tag_126\n      jump\t// in\n    tag_657:\n        /* \"#utility.yul\":33882:34101   */\n      pop\n      pop\n      pop\n      jump\t// out\n        /* \"#utility.yul\":34107:36258   */\n    tag_329:\n        /* \"#utility.yul\":34287:34288   */\n      0x00\n        /* \"#utility.yul\":34281:34285   */\n      dup2\n        /* \"#utility.yul\":34277:34289   */\n      add\n        /* \"#utility.yul\":34333:34334   */\n      0x00\n        /* \"#utility.yul\":34326:34331   */\n      dup4\n        /* \"#utility.yul\":34322:34335   */\n      add\n        /* \"#utility.yul\":34383:34395   */\n      dup1\n        /* \"#utility.yul\":34426:34465   */\n      tag_659\n        /* \"#utility.yul\":34451:34464   */\n      dup2\n        /* \"#utility.yul\":34426:34465   */\n      tag_306\n      jump\t// in\n    tag_659:\n        /* \"#utility.yul\":34409:34465   */\n      swap1\n      pop\n        /* \"#utility.yul\":34479:34552   */\n      tag_660\n        /* \"#utility.yul\":34538:34551   */\n      dup2\n        /* \"#utility.yul\":34526:34536   */\n      dup5\n        /* \"#utility.yul\":34479:34552   */\n      tag_311\n      jump\t// in\n    tag_660:\n        /* \"#utility.yul\":34244:34563   */\n      pop\n      pop\n      pop\n        /* \"#utility.yul\":34616:34617   */\n      0x00\n        /* \"#utility.yul\":34610:34614   */\n      dup2\n        /* \"#utility.yul\":34606:34618   */\n      add\n        /* \"#utility.yul\":34662:34664   */\n      0x20\n        /* \"#utility.yul\":34655:34660   */\n      dup4\n        /* \"#utility.yul\":34651:34665   */\n      add\n        /* \"#utility.yul\":34713:34725   */\n      dup1\n        /* \"#utility.yul\":34756:34795   */\n      tag_661\n        /* \"#utility.yul\":34781:34794   */\n      dup2\n        /* \"#utility.yul\":34756:34795   */\n      tag_306\n      jump\t// in\n    tag_661:\n        /* \"#utility.yul\":34739:34795   */\n      swap1\n      pop\n        /* \"#utility.yul\":34809:34882   */\n      tag_662\n        /* \"#utility.yul\":34868:34881   */\n      dup2\n        /* \"#utility.yul\":34856:34866   */\n      dup5\n        /* \"#utility.yul\":34809:34882   */\n      tag_314\n      jump\t// in\n    tag_662:\n        /* \"#utility.yul\":34573:34893   */\n      pop\n      pop\n      pop\n        /* \"#utility.yul\":34946:34947   */\n      0x00\n        /* \"#utility.yul\":34940:34944   */\n      dup2\n        /* \"#utility.yul\":34936:34948   */\n      add\n        /* \"#utility.yul\":34992:34994   */\n      0x40\n        /* \"#utility.yul\":34985:34990   */\n      dup4\n        /* \"#utility.yul\":34981:34995   */\n      add\n        /* \"#utility.yul\":35043:35055   */\n      dup1\n        /* \"#utility.yul\":35086:35125   */\n      tag_663\n        /* \"#utility.yul\":35111:35124   */\n      dup2\n        /* \"#utility.yul\":35086:35125   */\n      tag_306\n      jump\t// in\n    tag_663:\n        /* \"#utility.yul\":35069:35125   */\n      swap1\n      pop\n        /* \"#utility.yul\":35139:35212   */\n      tag_664\n        /* \"#utility.yul\":35198:35211   */\n      dup2\n        /* \"#utility.yul\":35186:35196   */\n      dup5\n        /* \"#utility.yul\":35139:35212   */\n      tag_317\n      jump\t// in\n    tag_664:\n        /* \"#utility.yul\":34903:35223   */\n      pop\n      pop\n      pop\n        /* \"#utility.yul\":35276:35277   */\n      0x00\n        /* \"#utility.yul\":35270:35274   */\n      dup2\n        /* \"#utility.yul\":35266:35278   */\n      add\n        /* \"#utility.yul\":35322:35324   */\n      0x60\n        /* \"#utility.yul\":35315:35320   */\n      dup4\n        /* \"#utility.yul\":35311:35325   */\n      add\n        /* \"#utility.yul\":35373:35385   */\n      dup1\n        /* \"#utility.yul\":35416:35455   */\n      tag_665\n        /* \"#utility.yul\":35441:35454   */\n      dup2\n        /* \"#utility.yul\":35416:35455   */\n      tag_306\n      jump\t// in\n    tag_665:\n        /* \"#utility.yul\":35399:35455   */\n      swap1\n      pop\n        /* \"#utility.yul\":35469:35542   */\n      tag_666\n        /* \"#utility.yul\":35528:35541   */\n      dup2\n        /* \"#utility.yul\":35516:35526   */\n      dup5\n        /* \"#utility.yul\":35469:35542   */\n      tag_320\n      jump\t// in\n    tag_666:\n        /* \"#utility.yul\":35233:35553   */\n      pop\n      pop\n      pop\n        /* \"#utility.yul\":35606:35607   */\n      0x00\n        /* \"#utility.yul\":35600:35604   */\n      dup2\n        /* \"#utility.yul\":35596:35608   */\n      add\n        /* \"#utility.yul\":35652:35655   */\n      0x80\n        /* \"#utility.yul\":35645:35650   */\n      dup4\n        /* \"#utility.yul\":35641:35656   */\n      add\n        /* \"#utility.yul\":35704:35716   */\n      dup1\n        /* \"#utility.yul\":35747:35786   */\n      tag_667\n        /* \"#utility.yul\":35772:35785   */\n      dup2\n        /* \"#utility.yul\":35747:35786   */\n      tag_306\n      jump\t// in\n    tag_667:\n        /* \"#utility.yul\":35730:35786   */\n      swap1\n      pop\n        /* \"#utility.yul\":35800:35873   */\n      tag_668\n        /* \"#utility.yul\":35859:35872   */\n      dup2\n        /* \"#utility.yul\":35847:35857   */\n      dup5\n        /* \"#utility.yul\":35800:35873   */\n      tag_323\n      jump\t// in\n    tag_668:\n        /* \"#utility.yul\":35563:35884   */\n      pop\n      pop\n      pop\n        /* \"#utility.yul\":35937:35938   */\n      0x01\n        /* \"#utility.yul\":35931:35935   */\n      dup2\n        /* \"#utility.yul\":35927:35939   */\n      add\n        /* \"#utility.yul\":35983:35986   */\n      0xa0\n        /* \"#utility.yul\":35976:35981   */\n      dup4\n        /* \"#utility.yul\":35972:35987   */\n      add\n        /* \"#utility.yul\":36050:36113   */\n      tag_669\n        /* \"#utility.yul\":36100:36112   */\n      dup2\n        /* \"#utility.yul\":36093:36098   */\n      dup6\n        /* \"#utility.yul\":36050:36113   */\n      tag_327\n      jump\t// in\n    tag_669:\n        /* \"#utility.yul\":36127:36240   */\n      tag_670\n        /* \"#utility.yul\":36226:36239   */\n      dup2\n        /* \"#utility.yul\":36211:36224   */\n      dup4\n        /* \"#utility.yul\":36199:36209   */\n      dup7\n        /* \"#utility.yul\":36127:36240   */\n      tag_328\n      jump\t// in\n    tag_670:\n        /* \"#utility.yul\":35894:36251   */\n      pop\n      pop\n      pop\n      pop\n        /* \"#utility.yul\":34107:36258   */\n      pop\n      pop\n      jump\t// out\n        /* \"#utility.yul\":36264:36529   */\n    tag_191:\n        /* \"#utility.yul\":36405:36523   */\n      tag_672\n        /* \"#utility.yul\":36515:36522   */\n      dup3\n        /* \"#utility.yul\":36509:36513   */\n      dup3\n        /* \"#utility.yul\":36405:36523   */\n      tag_329\n      jump\t// in\n    tag_672:\n        /* \"#utility.yul\":36264:36529   */\n      pop\n      pop\n      jump\t// out\n        /* \"#utility.yul\":36535:36698   */\n    tag_330:\n        /* \"#utility.yul\":36675:36690   */\n      0x4e4f5f5045524d495353494f4e00000000000000000000000000000000000000\n        /* \"#utility.yul\":36671:36672   */\n      0x00\n        /* \"#utility.yul\":36663:36669   */\n      dup3\n        /* \"#utility.yul\":36659:36673   */\n      add\n        /* \"#utility.yul\":36652:36691   */\n      mstore\n        /* \"#utility.yul\":36535:36698   */\n      pop\n      jump\t// out\n        /* \"#utility.yul\":36704:37070   */\n    tag_331:\n        /* \"#utility.yul\":36846:36849   */\n      0x00\n        /* \"#utility.yul\":36867:36934   */\n      tag_675\n        /* \"#utility.yul\":36931:36933   */\n      0x0d\n        /* \"#utility.yul\":36926:36929   */\n      dup4\n        /* \"#utility.yul\":36867:36934   */\n      tag_241\n      jump\t// in\n    tag_675:\n        /* \"#utility.yul\":36860:36934   */\n      swap2\n      pop\n        /* \"#utility.yul\":36943:37036   */\n      tag_676\n        /* \"#utility.yul\":37032:37035   */\n      dup3\n        /* \"#utility.yul\":36943:37036   */\n      tag_330\n      jump\t// in\n    tag_676:\n        /* \"#utility.yul\":37061:37063   */\n      0x20\n        /* \"#utility.yul\":37056:37059   */\n      dup3\n        /* \"#utility.yul\":37052:37064   */\n      add\n        /* \"#utility.yul\":37045:37064   */\n      swap1\n      pop\n        /* \"#utility.yul\":36704:37070   */\n      swap2\n      swap1\n      pop\n      jump\t// out\n        /* \"#utility.yul\":37076:37495   */\n    tag_229:\n        /* \"#utility.yul\":37242:37246   */\n      0x00\n        /* \"#utility.yul\":37280:37282   */\n      0x20\n        /* \"#utility.yul\":37269:37278   */\n      dup3\n        /* \"#utility.yul\":37265:37283   */\n      add\n        /* \"#utility.yul\":37257:37283   */\n      swap1\n      pop\n        /* \"#utility.yul\":37329:37338   */\n      dup2\n        /* \"#utility.yul\":37323:37327   */\n      dup2\n        /* \"#utility.yul\":37319:37339   */\n      sub\n        /* \"#utility.yul\":37315:37316   */\n      0x00\n        /* \"#utility.yul\":37304:37313   */\n      dup4\n        /* \"#utility.yul\":37300:37317   */\n      add\n        /* \"#utility.yul\":37293:37340   */\n      mstore\n        /* \"#utility.yul\":37357:37488   */\n      tag_678\n        /* \"#utility.yul\":37483:37487   */\n      dup2\n        /* \"#utility.yul\":37357:37488   */\n      tag_331\n      jump\t// in\n    tag_678:\n        /* \"#utility.yul\":37349:37488   */\n      swap1\n      pop\n        /* \"#utility.yul\":37076:37495   */\n      swap2\n      swap1\n      pop\n      jump\t// out\n        /* \"#utility.yul\":37501:38896   */\n    tag_231:\n        /* \"#utility.yul\":37618:37655   */\n      tag_680\n        /* \"#utility.yul\":37651:37654   */\n      dup3\n        /* \"#utility.yul\":37618:37655   */\n      tag_240\n      jump\t// in\n    tag_680:\n        /* \"#utility.yul\":37720:37738   */\n      0xffffffffffffffff\n        /* \"#utility.yul\":37712:37718   */\n      dup2\n        /* \"#utility.yul\":37709:37739   */\n      gt\n        /* \"#utility.yul\":37706:37762   */\n      iszero\n      tag_681\n      jumpi\n        /* \"#utility.yul\":37742:37760   */\n      tag_682\n      tag_276\n      jump\t// in\n    tag_682:\n        /* \"#utility.yul\":37706:37762   */\n    tag_681:\n        /* \"#utility.yul\":37786:37824   */\n      tag_683\n        /* \"#utility.yul\":37818:37822   */\n      dup3\n        /* \"#utility.yul\":37812:37823   */\n      sload\n        /* \"#utility.yul\":37786:37824   */\n      tag_110\n      jump\t// in\n    tag_683:\n        /* \"#utility.yul\":37871:37938   */\n      tag_684\n        /* \"#utility.yul\":37931:37937   */\n      dup3\n        /* \"#utility.yul\":37923:37929   */\n      dup3\n        /* \"#utility.yul\":37917:37921   */\n      dup6\n        /* \"#utility.yul\":37871:37938   */\n      tag_288\n      jump\t// in\n    tag_684:\n        /* \"#utility.yul\":37965:37966   */\n      0x00\n        /* \"#utility.yul\":37989:37993   */\n      0x20\n        /* \"#utility.yul\":37976:37993   */\n      swap1\n      pop\n        /* \"#utility.yul\":38021:38023   */\n      0x1f\n        /* \"#utility.yul\":38013:38019   */\n      dup4\n        /* \"#utility.yul\":38010:38024   */\n      gt\n        /* \"#utility.yul\":38038:38039   */\n      0x01\n        /* \"#utility.yul\":38033:38651   */\n      dup2\n      eq\n      tag_686\n      jumpi\n        /* \"#utility.yul\":38695:38696   */\n      0x00\n        /* \"#utility.yul\":38712:38718   */\n      dup5\n        /* \"#utility.yul\":38709:38786   */\n      iszero\n      tag_687\n      jumpi\n        /* \"#utility.yul\":38761:38770   */\n      dup3\n        /* \"#utility.yul\":38756:38759   */\n      dup8\n        /* \"#utility.yul\":38752:38771   */\n      add\n        /* \"#utility.yul\":38746:38772   */\n      mload\n        /* \"#utility.yul\":38737:38772   */\n      swap1\n      pop\n        /* \"#utility.yul\":38709:38786   */\n    tag_687:\n        /* \"#utility.yul\":38812:38879   */\n      tag_688\n        /* \"#utility.yul\":38872:38878   */\n      dup6\n        /* \"#utility.yul\":38865:38870   */\n      dup3\n        /* \"#utility.yul\":38812:38879   */\n      tag_291\n      jump\t// in\n    tag_688:\n        /* \"#utility.yul\":38806:38810   */\n      dup7\n        /* \"#utility.yul\":38799:38880   */\n      sstore\n        /* \"#utility.yul\":38668:38890   */\n      pop\n        /* \"#utility.yul\":38003:38890   */\n      jump(tag_685)\n        /* \"#utility.yul\":38033:38651   */\n    tag_686:\n        /* \"#utility.yul\":38085:38089   */\n      0x1f\n        /* \"#utility.yul\":38081:38090   */\n      not\n        /* \"#utility.yul\":38073:38079   */\n      dup5\n        /* \"#utility.yul\":38069:38091   */\n      and\n        /* \"#utility.yul\":38119:38156   */\n      tag_689\n        /* \"#utility.yul\":38151:38155   */\n      dup7\n        /* \"#utility.yul\":38119:38156   */\n      tag_277\n      jump\t// in\n    tag_689:\n        /* \"#utility.yul\":38178:38179   */\n      0x00\n        /* \"#utility.yul\":38192:38400   */\n    tag_690:\n        /* \"#utility.yul\":38206:38213   */\n      dup3\n        /* \"#utility.yul\":38203:38204   */\n      dup2\n        /* \"#utility.yul\":38200:38214   */\n      lt\n        /* \"#utility.yul\":38192:38400   */\n      iszero\n      tag_692\n      jumpi\n        /* \"#utility.yul\":38285:38294   */\n      dup5\n        /* \"#utility.yul\":38280:38283   */\n      dup10\n        /* \"#utility.yul\":38276:38295   */\n      add\n        /* \"#utility.yul\":38270:38296   */\n      mload\n        /* \"#utility.yul\":38262:38268   */\n      dup3\n        /* \"#utility.yul\":38255:38297   */\n      sstore\n        /* \"#utility.yul\":38336:38337   */\n      0x01\n        /* \"#utility.yul\":38328:38334   */\n      dup3\n        /* \"#utility.yul\":38324:38338   */\n      add\n        /* \"#utility.yul\":38314:38338   */\n      swap2\n      pop\n        /* \"#utility.yul\":38383:38385   */\n      0x20\n        /* \"#utility.yul\":38372:38381   */\n      dup6\n        /* \"#utility.yul\":38368:38386   */\n      add\n        /* \"#utility.yul\":38355:38386   */\n      swap5\n      pop\n        /* \"#utility.yul\":38229:38233   */\n      0x20\n        /* \"#utility.yul\":38226:38227   */\n      dup2\n        /* \"#utility.yul\":38222:38234   */\n      add\n        /* \"#utility.yul\":38217:38234   */\n      swap1\n      pop\n        /* \"#utility.yul\":38192:38400   */\n      jump(tag_690)\n    tag_692:\n        /* \"#utility.yul\":38428:38434   */\n      dup7\n        /* \"#utility.yul\":38419:38426   */\n      dup4\n        /* \"#utility.yul\":38416:38435   */\n      lt\n        /* \"#utility.yul\":38413:38592   */\n      iszero\n      tag_693\n      jumpi\n        /* \"#utility.yul\":38486:38495   */\n      dup5\n        /* \"#utility.yul\":38481:38484   */\n      dup10\n        /* \"#utility.yul\":38477:38496   */\n      add\n        /* \"#utility.yul\":38471:38497   */\n      mload\n        /* \"#utility.yul\":38529:38577   */\n      tag_694\n        /* \"#utility.yul\":38571:38575   */\n      0x1f\n        /* \"#utility.yul\":38563:38569   */\n      dup10\n        /* \"#utility.yul\":38559:38576   */\n      and\n        /* \"#utility.yul\":38548:38557   */\n      dup3\n        /* \"#utility.yul\":38529:38577   */\n      tag_290\n      jump\t// in\n    tag_694:\n        /* \"#utility.yul\":38521:38527   */\n      dup4\n        /* \"#utility.yul\":38514:38578   */\n      sstore\n        /* \"#utility.yul\":38436:38592   */\n      pop\n        /* \"#utility.yul\":38413:38592   */\n    tag_693:\n        /* \"#utility.yul\":38638:38639   */\n      0x01\n        /* \"#utility.yul\":38634:38635   */\n      0x02\n        /* \"#utility.yul\":38626:38632   */\n      dup9\n        /* \"#utility.yul\":38622:38636   */\n      mul\n        /* \"#utility.yul\":38618:38640   */\n      add\n        /* \"#utility.yul\":38612:38616   */\n      dup9\n        /* \"#utility.yul\":38605:38641   */\n      sstore\n        /* \"#utility.yul\":38040:38651   */\n      pop\n      pop\n      pop\n        /* \"#utility.yul\":38003:38890   */\n    tag_685:\n      pop\n        /* \"#utility.yul\":37593:38896   */\n      pop\n      pop\n      pop\n        /* \"#utility.yul\":37501:38896   */\n      pop\n      pop\n      jump\t// out\n        /* \"#utility.yul\":38902:39345   */\n    tag_234:\n        /* \"#utility.yul\":39053:39057   */\n      0x00\n        /* \"#utility.yul\":39091:39093   */\n      0x40\n        /* \"#utility.yul\":39080:39089   */\n      dup3\n        /* \"#utility.yul\":39076:39094   */\n      add\n        /* \"#utility.yul\":39068:39094   */\n      swap1\n      pop\n        /* \"#utility.yul\":39140:39149   */\n      dup2\n        /* \"#utility.yul\":39134:39138   */\n      dup2\n        /* \"#utility.yul\":39130:39150   */\n      sub\n        /* \"#utility.yul\":39126:39127   */\n      0x00\n        /* \"#utility.yul\":39115:39124   */\n      dup4\n        /* \"#utility.yul\":39111:39128   */\n      add\n        /* \"#utility.yul\":39104:39151   */\n      mstore\n        /* \"#utility.yul\":39168:39256   */\n      tag_696\n        /* \"#utility.yul\":39251:39255   */\n      dup2\n        /* \"#utility.yul\":39242:39248   */\n      dup6\n        /* \"#utility.yul\":39234:39240   */\n      dup8\n        /* \"#utility.yul\":39168:39256   */\n      tag_299\n      jump\t// in\n    tag_696:\n        /* \"#utility.yul\":39160:39256   */\n      swap1\n      pop\n        /* \"#utility.yul\":39266:39338   */\n      tag_697\n        /* \"#utility.yul\":39334:39336   */\n      0x20\n        /* \"#utility.yul\":39323:39332   */\n      dup4\n        /* \"#utility.yul\":39319:39337   */\n      add\n        /* \"#utility.yul\":39310:39316   */\n      dup5\n        /* \"#utility.yul\":39266:39338   */\n      tag_239\n      jump\t// in\n    tag_697:\n        /* \"#utility.yul\":38902:39345   */\n      swap5\n      swap4\n      pop\n      pop\n      pop\n      pop\n      jump\t// out\n\n    auxdata: 0xa264697066735822122009adb74a8183967cd633a1d0f9814c1eec362ca263cc0deb6bbe81e94568b2cb64736f6c634300081e0033\n}\n",
				"bytecode": {
					"linkReferences": {},
					"object": "60e060405234801561000f575f5ffd5b506040516133a83803806133a88339818101604052810190610031919061033d565b845f908161003f91906105f3565b50836001908161004f91906105f3565b5082608081815250504267ffffffffffffffff1660a08167ffffffffffffffff16815250505f73ffffffffffffffffffffffffffffffffffffffff168273ffffffffffffffffffffffffffffffffffffffff16036100e2576040517f08c379a00000000000000000000000000000000000000000000000000000000081526004016100d99061071c565b60405180910390fd5b8173ffffffffffffffffffffffffffffffffffffffff1660c08173ffffffffffffffffffffffffffffffffffffffff16815250508060026001015f6101000a81548173ffffffffffffffffffffffffffffffffffffffff021916908373ffffffffffffffffffffffffffffffffffffffff160217905550505050505061073a565b5f604051905090565b5f5ffd5b5f5ffd5b5f5ffd5b5f5ffd5b5f601f19601f8301169050919050565b7f4e487b71000000000000000000000000000000000000000000000000000000005f52604160045260245ffd5b6101c28261017c565b810181811067ffffffffffffffff821117156101e1576101e061018c565b5b80604052505050565b5f6101f3610163565b90506101ff82826101b9565b919050565b5f67ffffffffffffffff82111561021e5761021d61018c565b5b6102278261017c565b9050602081019050919050565b8281835e5f83830152505050565b5f61025461024f84610204565b6101ea565b9050828152602081018484840111156102705761026f610178565b5b61027b848285610234565b509392505050565b5f82601f83011261029757610296610174565b5b81516102a7848260208601610242565b91505092915050565b5f819050919050565b6102c2816102b0565b81146102cc575f5ffd5b50565b5f815190506102dd816102b9565b92915050565b5f73ffffffffffffffffffffffffffffffffffffffff82169050919050565b5f61030c826102e3565b9050919050565b61031c81610302565b8114610326575f5ffd5b50565b5f8151905061033781610313565b92915050565b5f5f5f5f5f60a086880312156103565761035561016c565b5b5f86015167ffffffffffffffff81111561037357610372610170565b5b61037f88828901610283565b955050602086015167ffffffffffffffff8111156103a05761039f610170565b5b6103ac88828901610283565b94505060406103bd888289016102cf565b93505060606103ce88828901610329565b92505060806103df88828901610329565b9150509295509295909350565b5f81519050919050565b7f4e487b71000000000000000000000000000000000000000000000000000000005f52602260045260245ffd5b5f600282049050600182168061043a57607f821691505b60208210810361044d5761044c6103f6565b5b50919050565b5f819050815f5260205f209050919050565b5f6020601f8301049050919050565b5f82821b905092915050565b5f600883026104af7fffffffffffffffffffffffffffffffffffffffffffffffffffffffffffffffff82610474565b6104b98683610474565b95508019841693508086168417925050509392505050565b5f819050919050565b5f6104f46104ef6104ea846102b0565b6104d1565b6102b0565b9050919050565b5f819050919050565b61050d836104da565b610521610519826104fb565b848454610480565b825550505050565b5f5f905090565b610538610529565b610543818484610504565b505050565b5b818110156105665761055b5f82610530565b600181019050610549565b5050565b601f8211156105ab5761057c81610453565b61058584610465565b81016020851015610594578190505b6105a86105a085610465565b830182610548565b50505b505050565b5f82821c905092915050565b5f6105cb5f19846008026105b0565b1980831691505092915050565b5f6105e383836105bc565b9150826002028217905092915050565b6105fc826103ec565b67ffffffffffffffff8111156106155761061461018c565b5b61061f8254610423565b61062a82828561056a565b5f60209050601f83116001811461065b575f8415610649578287015190505b61065385826105d8565b8655506106ba565b601f19841661066986610453565b5f5b828110156106905784890151825560018201915060208501945060208101905061066b565b868310156106ad57848901516106a9601f8916826105bc565b8355505b6001600288020188555050505b505050505050565b5f82825260208201905092915050565b7f494e56414c49445f50524f5649444552000000000000000000000000000000005f82015250565b5f6107066010836106c2565b9150610711826106d2565b602082019050919050565b5f6020820190508181035f830152610733816106fa565b9050919050565b60805160a05160c051612c1a61078e5f395f818161040e01528181610b2a0152818161128201528181611453015261164901525f8181610955015261162501525f81816109330152610dae0152612c1a5ff3fe608060405234801561000f575f5ffd5b5060043610610135575f3560e01c8063a6c3e6b9116100b6578063cbfbcc171161007a578063cbfbcc1714610341578063d159f8c01461035f578063d30f59d81461037d578063eae4c19f1461039b578063f9c808b7146103b9578063ffa1ad74146103d557610135565b8063a6c3e6b914610297578063b017fc9d146102b8578063b2edd796146102d4578063b759f95414610309578063bba12fb41461032557610135565b80634051ddac116100fd5780634051ddac146101f957806368ed93561461021c57806371d68a971461023a578063980e8db6146102565780639a8a05921461027957610135565b80630763709514610139578063085d488314610157578063107bf28c146101755780631cc4a9d81461019357806334461067146101c3575b5f5ffd5b6101416103f3565b60405161014e9190611963565b60405180910390f35b61015f61040c565b60405161016c91906119bb565b60405180910390f35b61017d610430565b60405161018a9190611a44565b60405180910390f35b6101ad60048036038101906101a89190611b00565b6104bc565b6040516101ba9190611bab565b60405180910390f35b6101dd60048036038101906101d89190611bc4565b610747565b6040516101f09796959493929190611bef565b60405180910390f35b6102016108f0565b60405161021396959493929190611c79565b60405180910390f35b610224610a9c565b6040516102319190611a44565b60405180910390f35b610254600480360381019061024f9190611ced565b610b28565b005b61025e610cc1565b60405161027096959493929190611d4a565b60405180910390f35b610281610dac565b60405161028e9190611db0565b60405180910390f35b61029f610dd0565b6040516102af9493929190611de1565b60405180910390f35b6102d260048036038101906102cd9190611e7e565b610f18565b005b6102ee60048036038101906102e99190611bc4565b61107c565b60405161030096959493929190611f1e565b60405180910390f35b610323600480360381019061031e9190611bc4565b611280565b005b61033f600480360381019061033a9190611fb5565b611451565b005b610349611559565b6040516103569190611a44565b60405180910390f35b6103676115e4565b60405161037491906119bb565b60405180910390f35b610385611609565b6040516103929190611963565b60405180910390f35b6103a3611623565b6040516103b09190611963565b60405180910390f35b6103d360048036038101906103ce919061200a565b611647565b005b6103dd611908565b6040516103ea9190611a44565b60405180910390f35b600b5f9054906101000a900467ffffffffffffffff1681565b7f000000000000000000000000000000000000000000000000000000000000000081565b6001805461043d906120da565b80601f0160208091040260200160405190810160405280929190818152602001828054610469906120da565b80156104b45780601f1061048b576101008083540402835291602001916104b4565b820191905f5260205f20905b81548152906001019060200180831161049757829003601f168201915b505050505081565b5f5f73ffffffffffffffffffffffffffffffffffffffff1660026001015f9054906101000a900473ffffffffffffffffffffffffffffffffffffffff1673ffffffffffffffffffffffffffffffffffffffff160361054f576040517f08c379a000000000000000000000000000000000000000000000000000000000815260040161054690612154565b60405180910390fd5b60026001015f9054906101000a900473ffffffffffffffffffffffffffffffffffffffff1673ffffffffffffffffffffffffffffffffffffffff163373ffffffffffffffffffffffffffffffffffffffff16146105e1576040517f08c379a00000000000000000000000000000000000000000000000000000000081526004016105d8906121bc565b60405180910390fd5b5f60075f8881526020019081526020015f209050805f015f9054906101000a900460ff1615610645576040517f08c379a000000000000000000000000000000000000000000000000000000000815260040161063c90612224565b60405180910390fd5b6001815f015f6101000a81548160ff02191690831515021790555033815f0160016101000a81548173ffffffffffffffffffffffffffffffffffffffff021916908373ffffffffffffffffffffffffffffffffffffffff16021790555085858260010191826106b5929190612419565b5083838260020191826106c9929190612419565b50428160030160016101000a81548167ffffffffffffffff021916908367ffffffffffffffff1602179055503373ffffffffffffffffffffffffffffffffffffffff16877fa1a7fb1df88af97284790f533c84a4284660c23f7631de9a03a258de840e4c1560405160405180910390a3600191505095945050505050565b6007602052805f5260405f205f91509050805f015f9054906101000a900460ff1690805f0160019054906101000a900473ffffffffffffffffffffffffffffffffffffffff169080600101805461079d906120da565b80601f01602080910402602001604051908101604052809291908181526020018280546107c9906120da565b80156108145780601f106107eb57610100808354040283529160200191610814565b820191905f5260205f20905b8154815290600101906020018083116107f757829003601f168201915b505050505090806002018054610829906120da565b80601f0160208091040260200160405190810160405280929190818152602001828054610855906120da565b80156108a05780601f10610877576101008083540402835291602001916108a0565b820191905f5260205f20905b81548152906001019060200180831161088357829003601f168201915b505050505090806003015f9054906101000a900460ff16908060030160019054906101000a900467ffffffffffffffff16908060030160099054906101000a900467ffffffffffffffff16905087565b60608060605f5f5f5f6040518060400160405280600481526020017f56312e300000000000000000000000000000000000000000000000000000000081525060017f0000000000000000000000000000000000000000000000000000000000000000307f0000000000000000000000000000000000000000000000000000000000000000858054610980906120da565b80601f01602080910402602001604051908101604052809291908181526020018280546109ac906120da565b80156109f75780601f106109ce576101008083540402835291602001916109f7565b820191905f5260205f20905b8154815290600101906020018083116109da57829003601f168201915b50505050509550838054610a0a906120da565b80601f0160208091040260200160405190810160405280929190818152602001828054610a36906120da565b8015610a815780601f10610a5857610100808354040283529160200191610a81565b820191905f5260205f20905b815481529060010190602001808311610a6457829003601f168201915b50505050509350955095509550955095509550909192939495565b600a8054610aa9906120da565b80601f0160208091040260200160405190810160405280929190818152602001828054610ad5906120da565b8015610b205780601f10610af757610100808354040283529160200191610b20565b820191905f5260205f20905b815481529060010190602001808311610b0357829003601f168201915b505050505081565b7f000000000000000000000000000000000000000000000000000000000000000073ffffffffffffffffffffffffffffffffffffffff163373ffffffffffffffffffffffffffffffffffffffff1614610bb6576040517f08c379a0000000000000000000000000000000000000000000000000000000008152600401610bad90612530565b60405180910390fd5b5f60075f8581526020019081526020015f209050805f015f9054906101000a900460ff16610c19576040517f08c379a0000000000000000000000000000000000000000000000000000000008152600401610c1090612598565b60405180910390fd5b806003015f9054906101000a900460ff1615610c6a576040517f08c379a0000000000000000000000000000000000000000000000000000000008152600401610c6190612600565b60405180910390fd5b3373ffffffffffffffffffffffffffffffffffffffff16847f57bef5442a9200b3dece1864ca545774940fc88e515bd251ddab26f14567c8288585604051610cb3929190612658565b60405180910390a350505050565b6008805f015f9054906101000a900460ff1690805f0160019054906101000a900460ff1690805f0160029054906101000a900460ff1690805f0160039054906101000a900460ff1690805f0160049054906101000a900460ff1690806001018054610d2b906120da565b80601f0160208091040260200160405190810160405280929190818152602001828054610d57906120da565b8015610da25780601f10610d7957610100808354040283529160200191610da2565b820191905f5260205f20905b815481529060010190602001808311610d8557829003601f168201915b5050505050905086565b7f000000000000000000000000000000000000000000000000000000000000000081565b6002805f018054610de0906120da565b80601f0160208091040260200160405190810160405280929190818152602001828054610e0c906120da565b8015610e575780601f10610e2e57610100808354040283529160200191610e57565b820191905f5260205f20905b815481529060010190602001808311610e3a57829003601f168201915b505050505090806001015f9054906101000a900473ffffffffffffffffffffffffffffffffffffffff1690806002015490806003018054610e97906120da565b80601f0160208091040260200160405190810160405280929190818152602001828054610ec3906120da565b8015610f0e5780601f10610ee557610100808354040283529160200191610f0e565b820191905f5260205f20905b815481529060010190602001808311610ef157829003601f168201915b5050505050905084565b60026001015f9054906101000a900473ffffffffffffffffffffffffffffffffffffffff1673ffffffffffffffffffffffffffffffffffffffff163373ffffffffffffffffffffffffffffffffffffffff1614610faa576040517f08c379a0000000000000000000000000000000000000000000000000000000008152600401610fa1906126c4565b60405180910390fd5b8067ffffffffffffffff168267ffffffffffffffff1610611000576040517f08c379a0000000000000000000000000000000000000000000000000000000008152600401610ff79061272c565b60405180910390fd5b846008818161100f9190612a6f565b9050508383600a9182611023929190612419565b5081600b5f6101000a81548167ffffffffffffffff021916908367ffffffffffffffff16021790555080600b60086101000a81548167ffffffffffffffff021916908367ffffffffffffffff1602179055505050505050565b5f6060805f5f5f5f60075f8981526020019081526020015f209050805f015f9054906101000a900460ff166110e6576040517f08c379a00000000000000000000000000000000000000000000000000000000081526004016110dd90612598565b60405180910390fd5b60026001015f9054906101000a900473ffffffffffffffffffffffffffffffffffffffff168160010182600201836003015f9054906101000a900460ff168460030160019054906101000a900467ffffffffffffffff168560030160099054906101000a900467ffffffffffffffff16848054611162906120da565b80601f016020809104026020016040519081016040528092919081815260200182805461118e906120da565b80156111d95780601f106111b0576101008083540402835291602001916111d9565b820191905f5260205f20905b8154815290600101906020018083116111bc57829003601f168201915b505050505094508380546111ec906120da565b80601f0160208091040260200160405190810160405280929190818152602001828054611218906120da565b80156112635780601f1061123a57610100808354040283529160200191611263565b820191905f5260205f20905b81548152906001019060200180831161124657829003601f168201915b505050505093509650965096509650965096505091939550919395565b7f000000000000000000000000000000000000000000000000000000000000000073ffffffffffffffffffffffffffffffffffffffff163373ffffffffffffffffffffffffffffffffffffffff161461130e576040517f08c379a000000000000000000000000000000000000000000000000000000000815260040161130590612530565b60405180910390fd5b5f60075f8381526020019081526020015f209050805f015f9054906101000a900460ff16611371576040517f08c379a000000000000000000000000000000000000000000000000000000000815260040161136890612598565b60405180910390fd5b806003015f9054906101000a900460ff16156113c2576040517f08c379a00000000000000000000000000000000000000000000000000000000081526004016113b990612600565b60405180910390fd5b6001816003015f6101000a81548160ff021916908315150217905550428160030160096101000a81548167ffffffffffffffff021916908367ffffffffffffffff1602179055503373ffffffffffffffffffffffffffffffffffffffff16827f7b39c92a7e1a86e846edaeff6eba715a046352c596794c2a374269c126a9976860405160405180910390a35050565b7f000000000000000000000000000000000000000000000000000000000000000073ffffffffffffffffffffffffffffffffffffffff163373ffffffffffffffffffffffffffffffffffffffff16146114df576040517f08c379a00000000000000000000000000000000000000000000000000000000081526004016114d690612530565b60405180910390fd5b8060065f6101000a81548173ffffffffffffffffffffffffffffffffffffffff021916908373ffffffffffffffffffffffffffffffffffffffff1602179055507fbce2d31c3e166333de6f7791ca106f1d1d9b1bee2f24a42e07f7d0c7a2c437c58160405161154e91906119bb565b60405180910390a150565b5f8054611565906120da565b80601f0160208091040260200160405190810160405280929190818152602001828054611591906120da565b80156115dc5780601f106115b3576101008083540402835291602001916115dc565b820191905f5260205f20905b8154815290600101906020018083116115bf57829003601f168201915b505050505081565b60065f9054906101000a900473ffffffffffffffffffffffffffffffffffffffff1681565b600b60089054906101000a900467ffffffffffffffff1681565b7f000000000000000000000000000000000000000000000000000000000000000081565b7f000000000000000000000000000000000000000000000000000000000000000073ffffffffffffffffffffffffffffffffffffffff163373ffffffffffffffffffffffffffffffffffffffff1614806116f0575060026001015f9054906101000a900473ffffffffffffffffffffffffffffffffffffffff1673ffffffffffffffffffffffffffffffffffffffff163373ffffffffffffffffffffffffffffffffffffffff16145b8061174a57505f73ffffffffffffffffffffffffffffffffffffffff1660026001015f9054906101000a900473ffffffffffffffffffffffffffffffffffffffff1673ffffffffffffffffffffffffffffffffffffffff16145b611789576040517f08c379a000000000000000000000000000000000000000000000000000000000815260040161178090612ac7565b60405180910390fd5b604051806080016040528087878080601f0160208091040260200160405190810160405280939291908181526020018383808284375f81840152601f19601f8201169050808301925050505050505081526020018573ffffffffffffffffffffffffffffffffffffffff16815260200184815260200183838080601f0160208091040260200160405190810160405280939291908181526020018383808284375f81840152601f19601f8201169050808301925050505050505081525060025f820151815f01908161185b9190612ae5565b506020820151816001015f6101000a81548173ffffffffffffffffffffffffffffffffffffffff021916908373ffffffffffffffffffffffffffffffffffffffff1602179055506040820151816002015560608201518160030190816118c19190612ae5565b509050507f732966c78028f36977a02708ac5f1ad1b8495e3ae6ec7d56e586c0923641c6b48686866040516118f893929190612bb4565b60405180910390a1505050505050565b6040518060400160405280600481526020017f56312e300000000000000000000000000000000000000000000000000000000081525081565b5f67ffffffffffffffff82169050919050565b61195d81611941565b82525050565b5f6020820190506119765f830184611954565b92915050565b5f73ffffffffffffffffffffffffffffffffffffffff82169050919050565b5f6119a58261197c565b9050919050565b6119b58161199b565b82525050565b5f6020820190506119ce5f8301846119ac565b92915050565b5f81519050919050565b5f82825260208201905092915050565b8281835e5f83830152505050565b5f601f19601f8301169050919050565b5f611a16826119d4565b611a2081856119de565b9350611a308185602086016119ee565b611a39816119fc565b840191505092915050565b5f6020820190508181035f830152611a5c8184611a0c565b905092915050565b5f5ffd5b5f5ffd5b5f819050919050565b611a7e81611a6c565b8114611a88575f5ffd5b50565b5f81359050611a9981611a75565b92915050565b5f5ffd5b5f5ffd5b5f5ffd5b5f5f83601f840112611ac057611abf611a9f565b5b8235905067ffffffffffffffff811115611add57611adc611aa3565b5b602083019150836001820283011115611af957611af8611aa7565b5b9250929050565b5f5f5f5f5f60608688031215611b1957611b18611a64565b5b5f611b2688828901611a8b565b955050602086013567ffffffffffffffff811115611b4757611b46611a68565b5b611b5388828901611aab565b9450945050604086013567ffffffffffffffff811115611b7657611b75611a68565b5b611b8288828901611aab565b92509250509295509295909350565b5f8115159050919050565b611ba581611b91565b82525050565b5f602082019050611bbe5f830184611b9c565b92915050565b5f60208284031215611bd957611bd8611a64565b5b5f611be684828501611a8b565b91505092915050565b5f60e082019050611c025f83018a611b9c565b611c0f60208301896119ac565b8181036040830152611c218188611a0c565b90508181036060830152611c358187611a0c565b9050611c446080830186611b9c565b611c5160a0830185611954565b611c5e60c0830184611954565b98975050505050505050565b611c7381611a6c565b82525050565b5f60c0820190508181035f830152611c918189611a0c565b90508181036020830152611ca58188611a0c565b90508181036040830152611cb98187611a0c565b9050611cc86060830186611c6a565b611cd560808301856119ac565b611ce260a0830184611954565b979650505050505050565b5f5f5f60408486031215611d0457611d03611a64565b5b5f611d1186828701611a8b565b935050602084013567ffffffffffffffff811115611d3257611d31611a68565b5b611d3e86828701611aab565b92509250509250925092565b5f60c082019050611d5d5f830189611b9c565b611d6a6020830188611b9c565b611d776040830187611b9c565b611d846060830186611b9c565b611d916080830185611b9c565b81810360a0830152611da38184611a0c565b9050979650505050505050565b5f602082019050611dc35f830184611c6a565b92915050565b5f819050919050565b611ddb81611dc9565b82525050565b5f6080820190508181035f830152611df98187611a0c565b9050611e0860208301866119ac565b611e156040830185611dd2565b8181036060830152611e278184611a0c565b905095945050505050565b5f5ffd5b5f60c08284031215611e4b57611e4a611e32565b5b81905092915050565b611e5d81611941565b8114611e67575f5ffd5b50565b5f81359050611e7881611e54565b92915050565b5f5f5f5f5f60808688031215611e9757611e96611a64565b5b5f86013567ffffffffffffffff811115611eb457611eb3611a68565b5b611ec088828901611e36565b955050602086013567ffffffffffffffff811115611ee157611ee0611a68565b5b611eed88828901611aab565b94509450506040611f0088828901611e6a565b9250506060611f1188828901611e6a565b9150509295509295909350565b5f60c082019050611f315f8301896119ac565b8181036020830152611f438188611a0c565b90508181036040830152611f578187611a0c565b9050611f666060830186611b9c565b611f736080830185611954565b611f8060a0830184611954565b979650505050505050565b611f948161199b565b8114611f9e575f5ffd5b50565b5f81359050611faf81611f8b565b92915050565b5f60208284031215611fca57611fc9611a64565b5b5f611fd784828501611fa1565b91505092915050565b611fe981611dc9565b8114611ff3575f5ffd5b50565b5f8135905061200481611fe0565b92915050565b5f5f5f5f5f5f6080878903121561202457612023611a64565b5b5f87013567ffffffffffffffff81111561204157612040611a68565b5b61204d89828a01611aab565b9650965050602061206089828a01611fa1565b945050604061207189828a01611ff6565b935050606087013567ffffffffffffffff81111561209257612091611a68565b5b61209e89828a01611aab565b92509250509295509295509295565b7f4e487b71000000000000000000000000000000000000000000000000000000005f52602260045260245ffd5b5f60028204905060018216806120f157607f821691505b602082108103612104576121036120ad565b5b50919050565b7f415554484f525f4e4f545f5345540000000000000000000000000000000000005f82015250565b5f61213e600e836119de565b91506121498261210a565b602082019050919050565b5f6020820190508181035f83015261216b81612132565b9050919050565b7f4f4e4c595f415554484f525f5355424d495400000000000000000000000000005f82015250565b5f6121a66012836119de565b91506121b182612172565b602082019050919050565b5f6020820190508181035f8301526121d38161219a565b9050919050565b7f414c52454144595f4558495354530000000000000000000000000000000000005f82015250565b5f61220e600e836119de565b9150612219826121da565b602082019050919050565b5f6020820190508181035f83015261223b81612202565b9050919050565b5f82905092915050565b7f4e487b71000000000000000000000000000000000000000000000000000000005f52604160045260245ffd5b5f819050815f5260205f209050919050565b5f6020601f8301049050919050565b5f82821b905092915050565b5f600883026122d57fffffffffffffffffffffffffffffffffffffffffffffffffffffffffffffffff8261229a565b6122df868361229a565b95508019841693508086168417925050509392505050565b5f819050919050565b5f61231a61231561231084611a6c565b6122f7565b611a6c565b9050919050565b5f819050919050565b61233383612300565b61234761233f82612321565b8484546122a6565b825550505050565b5f5f905090565b61235e61234f565b61236981848461232a565b505050565b5b8181101561238c576123815f82612356565b60018101905061236f565b5050565b601f8211156123d1576123a281612279565b6123ab8461228b565b810160208510156123ba578190505b6123ce6123c68561228b565b83018261236e565b50505b505050565b5f82821c905092915050565b5f6123f15f19846008026123d6565b1980831691505092915050565b5f61240983836123e2565b9150826002028217905092915050565b6124238383612242565b67ffffffffffffffff81111561243c5761243b61224c565b5b61244682546120da565b612451828285612390565b5f601f83116001811461247e575f841561246c578287013590505b61247685826123fe565b8655506124dd565b601f19841661248c86612279565b5f5b828110156124b35784890135825560018201915060208501945060208101905061248e565b868310156124d057848901356124cc601f8916826123e2565b8355505b6001600288020188555050505b50505050505050565b7f4f4e4c595f50524f5649444552000000000000000000000000000000000000005f82015250565b5f61251a600d836119de565b9150612525826124e6565b602082019050919050565b5f6020820190508181035f8301526125478161250e565b9050919050565b7f4e4f545f464f554e4400000000000000000000000000000000000000000000005f82015250565b5f6125826009836119de565b915061258d8261254e565b602082019050919050565b5f6020820190508181035f8301526125af81612576565b9050919050565b7f414c52454144595f4143544956450000000000000000000000000000000000005f82015250565b5f6125ea600e836119de565b91506125f5826125b6565b602082019050919050565b5f6020820190508181035f830152612617816125de565b9050919050565b828183375f83830152505050565b5f61263783856119de565b935061264483858461261e565b61264d836119fc565b840190509392505050565b5f6020820190508181035f83015261267181848661262c565b90509392505050565b7f4f4e4c595f415554484f520000000000000000000000000000000000000000005f82015250565b5f6126ae600b836119de565b91506126b98261267a565b602082019050919050565b5f6020820190508181035f8301526126db816126a2565b9050919050565b7f494e56414c49445f5445524d00000000000000000000000000000000000000005f82015250565b5f612716600c836119de565b9150612721826126e2565b602082019050919050565b5f6020820190508181035f8301526127438161270a565b9050919050565b61275381611b91565b811461275d575f5ffd5b50565b5f813561276c8161274a565b80915050919050565b5f815f1b9050919050565b5f60ff61278c84612775565b9350801983169250808416831791505092915050565b5f6127ac82611b91565b9050919050565b5f819050919050565b6127c5826127a2565b6127d86127d1826127b3565b8354612780565b8255505050565b5f8160081b9050919050565b5f61ff006127f8846127df565b9350801983169250808416831791505092915050565b612817826127a2565b61282a612823826127b3565b83546127eb565b8255505050565b5f8160101b9050919050565b5f62ff000061284b84612831565b9350801983169250808416831791505092915050565b61286a826127a2565b61287d612876826127b3565b835461283d565b8255505050565b5f8160181b9050919050565b5f63ff00000061289f84612884565b9350801983169250808416831791505092915050565b6128be826127a2565b6128d16128ca826127b3565b8354612890565b8255505050565b5f8160201b9050919050565b5f64ff000000006128f4846128d8565b9350801983169250808416831791505092915050565b612913826127a2565b61292661291f826127b3565b83546128e4565b8255505050565b5f5ffd5b5f5ffd5b5f5ffd5b5f5f833560016020038436030381126129555761295461292d565b5b80840192508235915067ffffffffffffffff82111561297757612976612931565b5b60208301925060018202360383131561299357612992612935565b5b509250929050565b6129a6838383612419565b505050565b5f81015f8301806129bb81612760565b90506129c781846127bc565b5050505f810160208301806129db81612760565b90506129e7818461280e565b5050505f810160408301806129fb81612760565b9050612a078184612861565b5050505f81016060830180612a1b81612760565b9050612a2781846128b5565b5050505f81016080830180612a3b81612760565b9050612a47818461290a565b5050506001810160a08301612a5c8185612939565b612a6781838661299b565b505050505050565b612a7982826129ab565b5050565b7f4e4f5f5045524d495353494f4e000000000000000000000000000000000000005f82015250565b5f612ab1600d836119de565b9150612abc82612a7d565b602082019050919050565b5f6020820190508181035f830152612ade81612aa5565b9050919050565b612aee826119d4565b67ffffffffffffffff811115612b0757612b0661224c565b5b612b1182546120da565b612b1c828285612390565b5f60209050601f831160018114612b4d575f8415612b3b578287015190505b612b4585826123fe565b865550612bac565b601f198416612b5b86612279565b5f5b82811015612b8257848901518255600182019150602085019450602081019050612b5d565b86831015612b9f5784890151612b9b601f8916826123e2565b8355505b6001600288020188555050505b505050505050565b5f6040820190508181035f830152612bcd81858761262c565b9050612bdc60208301846119ac565b94935050505056fea264697066735822122009adb74a8183967cd633a1d0f9814c1eec362ca263cc0deb6bbe81e94568b2cb64736f6c634300081e0033",
					"opcodes": "PUSH1 0xE0 PUSH1 0x40 MSTORE CALLVALUE DUP1 ISZERO PUSH2 0xF JUMPI PUSH0 PUSH0 REVERT JUMPDEST POP PUSH1 0x40 MLOAD PUSH2 0x33A8 CODESIZE SUB DUP1 PUSH2 0x33A8 DUP4 CODECOPY DUP2 DUP2 ADD PUSH1 0x40 MSTORE DUP2 ADD SWAP1 PUSH2 0x31 SWAP2 SWAP1 PUSH2 0x33D JUMP JUMPDEST DUP5 PUSH0 SWAP1 DUP2 PUSH2 0x3F SWAP2 SWAP1 PUSH2 0x5F3 JUMP JUMPDEST POP DUP4 PUSH1 0x1 SWAP1 DUP2 PUSH2 0x4F SWAP2 SWAP1 PUSH2 0x5F3 JUMP JUMPDEST POP DUP3 PUSH1 0x80 DUP2 DUP2 MSTORE POP POP TIMESTAMP PUSH8 0xFFFFFFFFFFFFFFFF AND PUSH1 0xA0 DUP2 PUSH8 0xFFFFFFFFFFFFFFFF AND DUP2 MSTORE POP POP PUSH0 PUSH20 0xFFFFFFFFFFFFFFFFFFFFFFFFFFFFFFFFFFFFFFFF AND DUP3 PUSH20 0xFFFFFFFFFFFFFFFFFFFFFFFFFFFFFFFFFFFFFFFF AND SUB PUSH2 0xE2 JUMPI PUSH1 0x40 MLOAD PUSH32 0x8C379A000000000000000000000000000000000000000000000000000000000 DUP2 MSTORE PUSH1 0x4 ADD PUSH2 0xD9 SWAP1 PUSH2 0x71C JUMP JUMPDEST PUSH1 0x40 MLOAD DUP1 SWAP2 SUB SWAP1 REVERT JUMPDEST DUP2 PUSH20 0xFFFFFFFFFFFFFFFFFFFFFFFFFFFFFFFFFFFFFFFF AND PUSH1 0xC0 DUP2 PUSH20 0xFFFFFFFFFFFFFFFFFFFFFFFFFFFFFFFFFFFFFFFF AND DUP2 MSTORE POP POP DUP1 PUSH1 0x2 PUSH1 0x1 ADD PUSH0 PUSH2 0x100 EXP DUP2 SLOAD DUP2 PUSH20 0xFFFFFFFFFFFFFFFFFFFFFFFFFFFFFFFFFFFFFFFF MUL NOT AND SWAP1 DUP4 PUSH20 0xFFFFFFFFFFFFFFFFFFFFFFFFFFFFFFFFFFFFFFFF AND MUL OR SWAP1 SSTORE POP POP POP POP POP POP PUSH2 0x73A JUMP JUMPDEST PUSH0 PUSH1 0x40 MLOAD SWAP1 POP SWAP1 JUMP JUMPDEST PUSH0 PUSH0 REVERT JUMPDEST PUSH0 PUSH0 REVERT JUMPDEST PUSH0 PUSH0 REVERT JUMPDEST PUSH0 PUSH0 REVERT JUMPDEST PUSH0 PUSH1 0x1F NOT PUSH1 0x1F DUP4 ADD AND SWAP1 POP SWAP2 SWAP1 POP JUMP JUMPDEST PUSH32 0x4E487B7100000000000000000000000000000000000000000000000000000000 PUSH0 MSTORE PUSH1 0x41 PUSH1 0x4 MSTORE PUSH1 0x24 PUSH0 REVERT JUMPDEST PUSH2 0x1C2 DUP3 PUSH2 0x17C JUMP JUMPDEST DUP2 ADD DUP2 DUP2 LT PUSH8 0xFFFFFFFFFFFFFFFF DUP3 GT OR ISZERO PUSH2 0x1E1 JUMPI PUSH2 0x1E0 PUSH2 0x18C JUMP JUMPDEST JUMPDEST DUP1 PUSH1 0x40 MSTORE POP POP POP JUMP JUMPDEST PUSH0 PUSH2 0x1F3 PUSH2 0x163 JUMP JUMPDEST SWAP1 POP PUSH2 0x1FF DUP3 DUP3 PUSH2 0x1B9 JUMP JUMPDEST SWAP2 SWAP1 POP JUMP JUMPDEST PUSH0 PUSH8 0xFFFFFFFFFFFFFFFF DUP3 GT ISZERO PUSH2 0x21E JUMPI PUSH2 0x21D PUSH2 0x18C JUMP JUMPDEST JUMPDEST PUSH2 0x227 DUP3 PUSH2 0x17C JUMP JUMPDEST SWAP1 POP PUSH1 0x20 DUP2 ADD SWAP1 POP SWAP2 SWAP1 POP JUMP JUMPDEST DUP3 DUP2 DUP4 MCOPY PUSH0 DUP4 DUP4 ADD MSTORE POP POP POP JUMP JUMPDEST PUSH0 PUSH2 0x254 PUSH2 0x24F DUP5 PUSH2 0x204 JUMP JUMPDEST PUSH2 0x1EA JUMP JUMPDEST SWAP1 POP DUP3 DUP2 MSTORE PUSH1 0x20 DUP2 ADD DUP5 DUP5 DUP5 ADD GT ISZERO PUSH2 0x270 JUMPI PUSH2 0x26F PUSH2 0x178 JUMP JUMPDEST JUMPDEST PUSH2 0x27B DUP5 DUP3 DUP6 PUSH2 0x234 JUMP JUMPDEST POP SWAP4 SWAP3 POP POP POP JUMP JUMPDEST PUSH0 DUP3 PUSH1 0x1F DUP4 ADD SLT PUSH2 0x297 JUMPI PUSH2 0x296 PUSH2 0x174 JUMP JUMPDEST JUMPDEST DUP2 MLOAD PUSH2 0x2A7 DUP5 DUP3 PUSH1 0x20 DUP7 ADD PUSH2 0x242 JUMP JUMPDEST SWAP2 POP POP SWAP3 SWAP2 POP POP JUMP JUMPDEST PUSH0 DUP2 SWAP1 POP SWAP2 SWAP1 POP JUMP JUMPDEST PUSH2 0x2C2 DUP2 PUSH2 0x2B0 JUMP JUMPDEST DUP2 EQ PUSH2 0x2CC JUMPI PUSH0 PUSH0 REVERT JUMPDEST POP JUMP JUMPDEST PUSH0 DUP2 MLOAD SWAP1 POP PUSH2 0x2DD DUP2 PUSH2 0x2B9 JUMP JUMPDEST SWAP3 SWAP2 POP POP JUMP JUMPDEST PUSH0 PUSH20 0xFFFFFFFFFFFFFFFFFFFFFFFFFFFFFFFFFFFFFFFF DUP3 AND SWAP1 POP SWAP2 SWAP1 POP JUMP JUMPDEST PUSH0 PUSH2 0x30C DUP3 PUSH2 0x2E3 JUMP JUMPDEST SWAP1 POP SWAP2 SWAP1 POP JUMP JUMPDEST PUSH2 0x31C DUP2 PUSH2 0x302 JUMP JUMPDEST DUP2 EQ PUSH2 0x326 JUMPI PUSH0 PUSH0 REVERT JUMPDEST POP JUMP JUMPDEST PUSH0 DUP2 MLOAD SWAP1 POP PUSH2 0x337 DUP2 PUSH2 0x313 JUMP JUMPDEST SWAP3 SWAP2 POP POP JUMP JUMPDEST PUSH0 PUSH0 PUSH0 PUSH0 PUSH0 PUSH1 0xA0 DUP7 DUP9 SUB SLT ISZERO PUSH2 0x356 JUMPI PUSH2 0x355 PUSH2 0x16C JUMP JUMPDEST JUMPDEST PUSH0 DUP7 ADD MLOAD PUSH8 0xFFFFFFFFFFFFFFFF DUP2 GT ISZERO PUSH2 0x373 JUMPI PUSH2 0x372 PUSH2 0x170 JUMP JUMPDEST JUMPDEST PUSH2 0x37F DUP9 DUP3 DUP10 ADD PUSH2 0x283 JUMP JUMPDEST SWAP6 POP POP PUSH1 0x20 DUP7 ADD MLOAD PUSH8 0xFFFFFFFFFFFFFFFF DUP2 GT ISZERO PUSH2 0x3A0 JUMPI PUSH2 0x39F PUSH2 0x170 JUMP JUMPDEST JUMPDEST PUSH2 0x3AC DUP9 DUP3 DUP10 ADD PUSH2 0x283 JUMP JUMPDEST SWAP5 POP POP PUSH1 0x40 PUSH2 0x3BD DUP9 DUP3 DUP10 ADD PUSH2 0x2CF JUMP JUMPDEST SWAP4 POP POP PUSH1 0x60 PUSH2 0x3CE DUP9 DUP3 DUP10 ADD PUSH2 0x329 JUMP JUMPDEST SWAP3 POP POP PUSH1 0x80 PUSH2 0x3DF DUP9 DUP3 DUP10 ADD PUSH2 0x329 JUMP JUMPDEST SWAP2 POP POP SWAP3 SWAP6 POP SWAP3 SWAP6 SWAP1 SWAP4 POP JUMP JUMPDEST PUSH0 DUP2 MLOAD SWAP1 POP SWAP2 SWAP1 POP JUMP JUMPDEST PUSH32 0x4E487B7100000000000000000000000000000000000000000000000000000000 PUSH0 MSTORE PUSH1 0x22 PUSH1 0x4 MSTORE PUSH1 0x24 PUSH0 REVERT JUMPDEST PUSH0 PUSH1 0x2 DUP3 DIV SWAP1 POP PUSH1 0x1 DUP3 AND DUP1 PUSH2 0x43A JUMPI PUSH1 0x7F DUP3 AND SWAP2 POP JUMPDEST PUSH1 0x20 DUP3 LT DUP2 SUB PUSH2 0x44D JUMPI PUSH2 0x44C PUSH2 0x3F6 JUMP JUMPDEST JUMPDEST POP SWAP2 SWAP1 POP JUMP JUMPDEST PUSH0 DUP2 SWAP1 POP DUP2 PUSH0 MSTORE PUSH1 0x20 PUSH0 KECCAK256 SWAP1 POP SWAP2 SWAP1 POP JUMP JUMPDEST PUSH0 PUSH1 0x20 PUSH1 0x1F DUP4 ADD DIV SWAP1 POP SWAP2 SWAP1 POP JUMP JUMPDEST PUSH0 DUP3 DUP3 SHL SWAP1 POP SWAP3 SWAP2 POP POP JUMP JUMPDEST PUSH0 PUSH1 0x8 DUP4 MUL PUSH2 0x4AF PUSH32 0xFFFFFFFFFFFFFFFFFFFFFFFFFFFFFFFFFFFFFFFFFFFFFFFFFFFFFFFFFFFFFFFF DUP3 PUSH2 0x474 JUMP JUMPDEST PUSH2 0x4B9 DUP7 DUP4 PUSH2 0x474 JUMP JUMPDEST SWAP6 POP DUP1 NOT DUP5 AND SWAP4 POP DUP1 DUP7 AND DUP5 OR SWAP3 POP POP POP SWAP4 SWAP3 POP POP POP JUMP JUMPDEST PUSH0 DUP2 SWAP1 POP SWAP2 SWAP1 POP JUMP JUMPDEST PUSH0 PUSH2 0x4F4 PUSH2 0x4EF PUSH2 0x4EA DUP5 PUSH2 0x2B0 JUMP JUMPDEST PUSH2 0x4D1 JUMP JUMPDEST PUSH2 0x2B0 JUMP JUMPDEST SWAP1 POP SWAP2 SWAP1 POP JUMP JUMPDEST PUSH0 DUP2 SWAP1 POP SWAP2 SWAP1 POP JUMP JUMPDEST PUSH2 0x50D DUP4 PUSH2 0x4DA JUMP JUMPDEST PUSH2 0x521 PUSH2 0x519 DUP3 PUSH2 0x4FB JUMP JUMPDEST DUP5 DUP5 SLOAD PUSH2 0x480 JUMP JUMPDEST DUP3 SSTORE POP POP POP POP JUMP JUMPDEST PUSH0 PUSH0 SWAP1 POP SWAP1 JUMP JUMPDEST PUSH2 0x538 PUSH2 0x529 JUMP JUMPDEST PUSH2 0x543 DUP2 DUP5 DUP5 PUSH2 0x504 JUMP JUMPDEST POP POP POP JUMP JUMPDEST JUMPDEST DUP2 DUP2 LT ISZERO PUSH2 0x566 JUMPI PUSH2 0x55B PUSH0 DUP3 PUSH2 0x530 JUMP JUMPDEST PUSH1 0x1 DUP2 ADD SWAP1 POP PUSH2 0x549 JUMP JUMPDEST POP POP JUMP JUMPDEST PUSH1 0x1F DUP3 GT ISZERO PUSH2 0x5AB JUMPI PUSH2 0x57C DUP2 PUSH2 0x453 JUMP JUMPDEST PUSH2 0x585 DUP5 PUSH2 0x465 JUMP JUMPDEST DUP2 ADD PUSH1 0x20 DUP6 LT ISZERO PUSH2 0x594 JUMPI DUP2 SWAP1 POP JUMPDEST PUSH2 0x5A8 PUSH2 0x5A0 DUP6 PUSH2 0x465 JUMP JUMPDEST DUP4 ADD DUP3 PUSH2 0x548 JUMP JUMPDEST POP POP JUMPDEST POP POP POP JUMP JUMPDEST PUSH0 DUP3 DUP3 SHR SWAP1 POP SWAP3 SWAP2 POP POP JUMP JUMPDEST PUSH0 PUSH2 0x5CB PUSH0 NOT DUP5 PUSH1 0x8 MUL PUSH2 0x5B0 JUMP JUMPDEST NOT DUP1 DUP4 AND SWAP2 POP POP SWAP3 SWAP2 POP POP JUMP JUMPDEST PUSH0 PUSH2 0x5E3 DUP4 DUP4 PUSH2 0x5BC JUMP JUMPDEST SWAP2 POP DUP3 PUSH1 0x2 MUL DUP3 OR SWAP1 POP SWAP3 SWAP2 POP POP JUMP JUMPDEST PUSH2 0x5FC DUP3 PUSH2 0x3EC JUMP JUMPDEST PUSH8 0xFFFFFFFFFFFFFFFF DUP2 GT ISZERO PUSH2 0x615 JUMPI PUSH2 0x614 PUSH2 0x18C JUMP JUMPDEST JUMPDEST PUSH2 0x61F DUP3 SLOAD PUSH2 0x423 JUMP JUMPDEST PUSH2 0x62A DUP3 DUP3 DUP6 PUSH2 0x56A JUMP JUMPDEST PUSH0 PUSH1 0x20 SWAP1 POP PUSH1 0x1F DUP4 GT PUSH1 0x1 DUP2 EQ PUSH2 0x65B JUMPI PUSH0 DUP5 ISZERO PUSH2 0x649 JUMPI DUP3 DUP8 ADD MLOAD SWAP1 POP JUMPDEST PUSH2 0x653 DUP6 DUP3 PUSH2 0x5D8 JUMP JUMPDEST DUP7 SSTORE POP PUSH2 0x6BA JUMP JUMPDEST PUSH1 0x1F NOT DUP5 AND PUSH2 0x669 DUP7 PUSH2 0x453 JUMP JUMPDEST PUSH0 JUMPDEST DUP3 DUP2 LT ISZERO PUSH2 0x690 JUMPI DUP5 DUP10 ADD MLOAD DUP3 SSTORE PUSH1 0x1 DUP3 ADD SWAP2 POP PUSH1 0x20 DUP6 ADD SWAP5 POP PUSH1 0x20 DUP2 ADD SWAP1 POP PUSH2 0x66B JUMP JUMPDEST DUP7 DUP4 LT ISZERO PUSH2 0x6AD JUMPI DUP5 DUP10 ADD MLOAD PUSH2 0x6A9 PUSH1 0x1F DUP10 AND DUP3 PUSH2 0x5BC JUMP JUMPDEST DUP4 SSTORE POP JUMPDEST PUSH1 0x1 PUSH1 0x2 DUP9 MUL ADD DUP9 SSTORE POP POP POP JUMPDEST POP POP POP POP POP POP JUMP JUMPDEST PUSH0 DUP3 DUP3 MSTORE PUSH1 0x20 DUP3 ADD SWAP1 POP SWAP3 SWAP2 POP POP JUMP JUMPDEST PUSH32 0x494E56414C49445F50524F564944455200000000000000000000000000000000 PUSH0 DUP3 ADD MSTORE POP JUMP JUMPDEST PUSH0 PUSH2 0x706 PUSH1 0x10 DUP4 PUSH2 0x6C2 JUMP JUMPDEST SWAP2 POP PUSH2 0x711 DUP3 PUSH2 0x6D2 JUMP JUMPDEST PUSH1 0x20 DUP3 ADD SWAP1 POP SWAP2 SWAP1 POP JUMP JUMPDEST PUSH0 PUSH1 0x20 DUP3 ADD SWAP1 POP DUP2 DUP2 SUB PUSH0 DUP4 ADD MSTORE PUSH2 0x733 DUP2 PUSH2 0x6FA JUMP JUMPDEST SWAP1 POP SWAP2 SWAP1 POP JUMP JUMPDEST PUSH1 0x80 MLOAD PUSH1 0xA0 MLOAD PUSH1 0xC0 MLOAD PUSH2 0x2C1A PUSH2 0x78E PUSH0 CODECOPY PUSH0 DUP2 DUP2 PUSH2 0x40E ADD MSTORE DUP2 DUP2 PUSH2 0xB2A ADD MSTORE DUP2 DUP2 PUSH2 0x1282 ADD MSTORE DUP2 DUP2 PUSH2 0x1453 ADD MSTORE PUSH2 0x1649 ADD MSTORE PUSH0 DUP2 DUP2 PUSH2 0x955 ADD MSTORE PUSH2 0x1625 ADD MSTORE PUSH0 DUP2 DUP2 PUSH2 0x933 ADD MSTORE PUSH2 0xDAE ADD MSTORE PUSH2 0x2C1A PUSH0 RETURN INVALID PUSH1 0x80 PUSH1 0x40 MSTORE CALLVALUE DUP1 ISZERO PUSH2 0xF JUMPI PUSH0 PUSH0 REVERT JUMPDEST POP PUSH1 0x4 CALLDATASIZE LT PUSH2 0x135 JUMPI PUSH0 CALLDATALOAD PUSH1 0xE0 SHR DUP1 PUSH4 0xA6C3E6B9 GT PUSH2 0xB6 JUMPI DUP1 PUSH4 0xCBFBCC17 GT PUSH2 0x7A JUMPI DUP1 PUSH4 0xCBFBCC17 EQ PUSH2 0x341 JUMPI DUP1 PUSH4 0xD159F8C0 EQ PUSH2 0x35F JUMPI DUP1 PUSH4 0xD30F59D8 EQ PUSH2 0x37D JUMPI DUP1 PUSH4 0xEAE4C19F EQ PUSH2 0x39B JUMPI DUP1 PUSH4 0xF9C808B7 EQ PUSH2 0x3B9 JUMPI DUP1 PUSH4 0xFFA1AD74 EQ PUSH2 0x3D5 JUMPI PUSH2 0x135 JUMP JUMPDEST DUP1 PUSH4 0xA6C3E6B9 EQ PUSH2 0x297 JUMPI DUP1 PUSH4 0xB017FC9D EQ PUSH2 0x2B8 JUMPI DUP1 PUSH4 0xB2EDD796 EQ PUSH2 0x2D4 JUMPI DUP1 PUSH4 0xB759F954 EQ PUSH2 0x309 JUMPI DUP1 PUSH4 0xBBA12FB4 EQ PUSH2 0x325 JUMPI PUSH2 0x135 JUMP JUMPDEST DUP1 PUSH4 0x4051DDAC GT PUSH2 0xFD JUMPI DUP1 PUSH4 0x4051DDAC EQ PUSH2 0x1F9 JUMPI DUP1 PUSH4 0x68ED9356 EQ PUSH2 0x21C JUMPI DUP1 PUSH4 0x71D68A97 EQ PUSH2 0x23A JUMPI DUP1 PUSH4 0x980E8DB6 EQ PUSH2 0x256 JUMPI DUP1 PUSH4 0x9A8A0592 EQ PUSH2 0x279 JUMPI PUSH2 0x135 JUMP JUMPDEST DUP1 PUSH4 0x7637095 EQ PUSH2 0x139 JUMPI DUP1 PUSH4 0x85D4883 EQ PUSH2 0x157 JUMPI DUP1 PUSH4 0x107BF28C EQ PUSH2 0x175 JUMPI DUP1 PUSH4 0x1CC4A9D8 EQ PUSH2 0x193 JUMPI DUP1 PUSH4 0x34461067 EQ PUSH2 0x1C3 JUMPI JUMPDEST PUSH0 PUSH0 REVERT JUMPDEST PUSH2 0x141 PUSH2 0x3F3 JUMP JUMPDEST PUSH1 0x40 MLOAD PUSH2 0x14E SWAP2 SWAP1 PUSH2 0x1963 JUMP JUMPDEST PUSH1 0x40 MLOAD DUP1 SWAP2 SUB SWAP1 RETURN JUMPDEST PUSH2 0x15F PUSH2 0x40C JUMP JUMPDEST PUSH1 0x40 MLOAD PUSH2 0x16C SWAP2 SWAP1 PUSH2 0x19BB JUMP JUMPDEST PUSH1 0x40 MLOAD DUP1 SWAP2 SUB SWAP1 RETURN JUMPDEST PUSH2 0x17D PUSH2 0x430 JUMP JUMPDEST PUSH1 0x40 MLOAD PUSH2 0x18A SWAP2 SWAP1 PUSH2 0x1A44 JUMP JUMPDEST PUSH1 0x40 MLOAD DUP1 SWAP2 SUB SWAP1 RETURN JUMPDEST PUSH2 0x1AD PUSH1 0x4 DUP1 CALLDATASIZE SUB DUP2 ADD SWAP1 PUSH2 0x1A8 SWAP2 SWAP1 PUSH2 0x1B00 JUMP JUMPDEST PUSH2 0x4BC JUMP JUMPDEST PUSH1 0x40 MLOAD PUSH2 0x1BA SWAP2 SWAP1 PUSH2 0x1BAB JUMP JUMPDEST PUSH1 0x40 MLOAD DUP1 SWAP2 SUB SWAP1 RETURN JUMPDEST PUSH2 0x1DD PUSH1 0x4 DUP1 CALLDATASIZE SUB DUP2 ADD SWAP1 PUSH2 0x1D8 SWAP2 SWAP1 PUSH2 0x1BC4 JUMP JUMPDEST PUSH2 0x747 JUMP JUMPDEST PUSH1 0x40 MLOAD PUSH2 0x1F0 SWAP8 SWAP7 SWAP6 SWAP5 SWAP4 SWAP3 SWAP2 SWAP1 PUSH2 0x1BEF JUMP JUMPDEST PUSH1 0x40 MLOAD DUP1 SWAP2 SUB SWAP1 RETURN JUMPDEST PUSH2 0x201 PUSH2 0x8F0 JUMP JUMPDEST PUSH1 0x40 MLOAD PUSH2 0x213 SWAP7 SWAP6 SWAP5 SWAP4 SWAP3 SWAP2 SWAP1 PUSH2 0x1C79 JUMP JUMPDEST PUSH1 0x40 MLOAD DUP1 SWAP2 SUB SWAP1 RETURN JUMPDEST PUSH2 0x224 PUSH2 0xA9C JUMP JUMPDEST PUSH1 0x40 MLOAD PUSH2 0x231 SWAP2 SWAP1 PUSH2 0x1A44 JUMP JUMPDEST PUSH1 0x40 MLOAD DUP1 SWAP2 SUB SWAP1 RETURN JUMPDEST PUSH2 0x254 PUSH1 0x4 DUP1 CALLDATASIZE SUB DUP2 ADD SWAP1 PUSH2 0x24F SWAP2 SWAP1 PUSH2 0x1CED JUMP JUMPDEST PUSH2 0xB28 JUMP JUMPDEST STOP JUMPDEST PUSH2 0x25E PUSH2 0xCC1 JUMP JUMPDEST PUSH1 0x40 MLOAD PUSH2 0x270 SWAP7 SWAP6 SWAP5 SWAP4 SWAP3 SWAP2 SWAP1 PUSH2 0x1D4A JUMP JUMPDEST PUSH1 0x40 MLOAD DUP1 SWAP2 SUB SWAP1 RETURN JUMPDEST PUSH2 0x281 PUSH2 0xDAC JUMP JUMPDEST PUSH1 0x40 MLOAD PUSH2 0x28E SWAP2 SWAP1 PUSH2 0x1DB0 JUMP JUMPDEST PUSH1 0x40 MLOAD DUP1 SWAP2 SUB SWAP1 RETURN JUMPDEST PUSH2 0x29F PUSH2 0xDD0 JUMP JUMPDEST PUSH1 0x40 MLOAD PUSH2 0x2AF SWAP5 SWAP4 SWAP3 SWAP2 SWAP1 PUSH2 0x1DE1 JUMP JUMPDEST PUSH1 0x40 MLOAD DUP1 SWAP2 SUB SWAP1 RETURN JUMPDEST PUSH2 0x2D2 PUSH1 0x4 DUP1 CALLDATASIZE SUB DUP2 ADD SWAP1 PUSH2 0x2CD SWAP2 SWAP1 PUSH2 0x1E7E JUMP JUMPDEST PUSH2 0xF18 JUMP JUMPDEST STOP JUMPDEST PUSH2 0x2EE PUSH1 0x4 DUP1 CALLDATASIZE SUB DUP2 ADD SWAP1 PUSH2 0x2E9 SWAP2 SWAP1 PUSH2 0x1BC4 JUMP JUMPDEST PUSH2 0x107C JUMP JUMPDEST PUSH1 0x40 MLOAD PUSH2 0x300 SWAP7 SWAP6 SWAP5 SWAP4 SWAP3 SWAP2 SWAP1 PUSH2 0x1F1E JUMP JUMPDEST PUSH1 0x40 MLOAD DUP1 SWAP2 SUB SWAP1 RETURN JUMPDEST PUSH2 0x323 PUSH1 0x4 DUP1 CALLDATASIZE SUB DUP2 ADD SWAP1 PUSH2 0x31E SWAP2 SWAP1 PUSH2 0x1BC4 JUMP JUMPDEST PUSH2 0x1280 JUMP JUMPDEST STOP JUMPDEST PUSH2 0x33F PUSH1 0x4 DUP1 CALLDATASIZE SUB DUP2 ADD SWAP1 PUSH2 0x33A SWAP2 SWAP1 PUSH2 0x1FB5 JUMP JUMPDEST PUSH2 0x1451 JUMP JUMPDEST STOP JUMPDEST PUSH2 0x349 PUSH2 0x1559 JUMP JUMPDEST PUSH1 0x40 MLOAD PUSH2 0x356 SWAP2 SWAP1 PUSH2 0x1A44 JUMP JUMPDEST PUSH1 0x40 MLOAD DUP1 SWAP2 SUB SWAP1 RETURN JUMPDEST PUSH2 0x367 PUSH2 0x15E4 JUMP JUMPDEST PUSH1 0x40 MLOAD PUSH2 0x374 SWAP2 SWAP1 PUSH2 0x19BB JUMP JUMPDEST PUSH1 0x40 MLOAD DUP1 SWAP2 SUB SWAP1 RETURN JUMPDEST PUSH2 0x385 PUSH2 0x1609 JUMP JUMPDEST PUSH1 0x40 MLOAD PUSH2 0x392 SWAP2 SWAP1 PUSH2 0x1963 JUMP JUMPDEST PUSH1 0x40 MLOAD DUP1 SWAP2 SUB SWAP1 RETURN JUMPDEST PUSH2 0x3A3 PUSH2 0x1623 JUMP JUMPDEST PUSH1 0x40 MLOAD PUSH2 0x3B0 SWAP2 SWAP1 PUSH2 0x1963 JUMP JUMPDEST PUSH1 0x40 MLOAD DUP1 SWAP2 SUB SWAP1 RETURN JUMPDEST PUSH2 0x3D3 PUSH1 0x4 DUP1 CALLDATASIZE SUB DUP2 ADD SWAP1 PUSH2 0x3CE SWAP2 SWAP1 PUSH2 0x200A JUMP JUMPDEST PUSH2 0x1647 JUMP JUMPDEST STOP JUMPDEST PUSH2 0x3DD PUSH2 0x1908 JUMP JUMPDEST PUSH1 0x40 MLOAD PUSH2 0x3EA SWAP2 SWAP1 PUSH2 0x1A44 JUMP JUMPDEST PUSH1 0x40 MLOAD DUP1 SWAP2 SUB SWAP1 RETURN JUMPDEST PUSH1 0xB PUSH0 SWAP1 SLOAD SWAP1 PUSH2 0x100 EXP SWAP1 DIV PUSH8 0xFFFFFFFFFFFFFFFF AND DUP2 JUMP JUMPDEST PUSH32 0x0 DUP2 JUMP JUMPDEST PUSH1 0x1 DUP1 SLOAD PUSH2 0x43D SWAP1 PUSH2 0x20DA JUMP JUMPDEST DUP1 PUSH1 0x1F ADD PUSH1 0x20 DUP1 SWAP2 DIV MUL PUSH1 0x20 ADD PUSH1 0x40 MLOAD SWAP1 DUP2 ADD PUSH1 0x40 MSTORE DUP1 SWAP3 SWAP2 SWAP1 DUP2 DUP2 MSTORE PUSH1 0x20 ADD DUP3 DUP1 SLOAD PUSH2 0x469 SWAP1 PUSH2 0x20DA JUMP JUMPDEST DUP1 ISZERO PUSH2 0x4B4 JUMPI DUP1 PUSH1 0x1F LT PUSH2 0x48B JUMPI PUSH2 0x100 DUP1 DUP4 SLOAD DIV MUL DUP4 MSTORE SWAP2 PUSH1 0x20 ADD SWAP2 PUSH2 0x4B4 JUMP JUMPDEST DUP3 ADD SWAP2 SWAP1 PUSH0 MSTORE PUSH1 0x20 PUSH0 KECCAK256 SWAP1 JUMPDEST DUP2 SLOAD DUP2 MSTORE SWAP1 PUSH1 0x1 ADD SWAP1 PUSH1 0x20 ADD DUP1 DUP4 GT PUSH2 0x497 JUMPI DUP3 SWAP1 SUB PUSH1 0x1F AND DUP3 ADD SWAP2 JUMPDEST POP POP POP POP POP DUP2 JUMP JUMPDEST PUSH0 PUSH0 PUSH20 0xFFFFFFFFFFFFFFFFFFFFFFFFFFFFFFFFFFFFFFFF AND PUSH1 0x2 PUSH1 0x1 ADD PUSH0 SWAP1 SLOAD SWAP1 PUSH2 0x100 EXP SWAP1 DIV PUSH20 0xFFFFFFFFFFFFFFFFFFFFFFFFFFFFFFFFFFFFFFFF AND PUSH20 0xFFFFFFFFFFFFFFFFFFFFFFFFFFFFFFFFFFFFFFFF AND SUB PUSH2 0x54F JUMPI PUSH1 0x40 MLOAD PUSH32 0x8C379A000000000000000000000000000000000000000000000000000000000 DUP2 MSTORE PUSH1 0x4 ADD PUSH2 0x546 SWAP1 PUSH2 0x2154 JUMP JUMPDEST PUSH1 0x40 MLOAD DUP1 SWAP2 SUB SWAP1 REVERT JUMPDEST PUSH1 0x2 PUSH1 0x1 ADD PUSH0 SWAP1 SLOAD SWAP1 PUSH2 0x100 EXP SWAP1 DIV PUSH20 0xFFFFFFFFFFFFFFFFFFFFFFFFFFFFFFFFFFFFFFFF AND PUSH20 0xFFFFFFFFFFFFFFFFFFFFFFFFFFFFFFFFFFFFFFFF AND CALLER PUSH20 0xFFFFFFFFFFFFFFFFFFFFFFFFFFFFFFFFFFFFFFFF AND EQ PUSH2 0x5E1 JUMPI PUSH1 0x40 MLOAD PUSH32 0x8C379A000000000000000000000000000000000000000000000000000000000 DUP2 MSTORE PUSH1 0x4 ADD PUSH2 0x5D8 SWAP1 PUSH2 0x21BC JUMP JUMPDEST PUSH1 0x40 MLOAD DUP1 SWAP2 SUB SWAP1 REVERT JUMPDEST PUSH0 PUSH1 0x7 PUSH0 DUP9 DUP2 MSTORE PUSH1 0x20 ADD SWAP1 DUP2 MSTORE PUSH1 0x20 ADD PUSH0 KECCAK256 SWAP1 POP DUP1 PUSH0 ADD PUSH0 SWAP1 SLOAD SWAP1 PUSH2 0x100 EXP SWAP1 DIV PUSH1 0xFF AND ISZERO PUSH2 0x645 JUMPI PUSH1 0x40 MLOAD PUSH32 0x8C379A000000000000000000000000000000000000000000000000000000000 DUP2 MSTORE PUSH1 0x4 ADD PUSH2 0x63C SWAP1 PUSH2 0x2224 JUMP JUMPDEST PUSH1 0x40 MLOAD DUP1 SWAP2 SUB SWAP1 REVERT JUMPDEST PUSH1 0x1 DUP2 PUSH0 ADD PUSH0 PUSH2 0x100 EXP DUP2 SLOAD DUP2 PUSH1 0xFF MUL NOT AND SWAP1 DUP4 ISZERO ISZERO MUL OR SWAP1 SSTORE POP CALLER DUP2 PUSH0 ADD PUSH1 0x1 PUSH2 0x100 EXP DUP2 SLOAD DUP2 PUSH20 0xFFFFFFFFFFFFFFFFFFFFFFFFFFFFFFFFFFFFFFFF MUL NOT AND SWAP1 DUP4 PUSH20 0xFFFFFFFFFFFFFFFFFFFFFFFFFFFFFFFFFFFFFFFF AND MUL OR SWAP1 SSTORE POP DUP6 DUP6 DUP3 PUSH1 0x1 ADD SWAP2 DUP3 PUSH2 0x6B5 SWAP3 SWAP2 SWAP1 PUSH2 0x2419 JUMP JUMPDEST POP DUP4 DUP4 DUP3 PUSH1 0x2 ADD SWAP2 DUP3 PUSH2 0x6C9 SWAP3 SWAP2 SWAP1 PUSH2 0x2419 JUMP JUMPDEST POP TIMESTAMP DUP2 PUSH1 0x3 ADD PUSH1 0x1 PUSH2 0x100 EXP DUP2 SLOAD DUP2 PUSH8 0xFFFFFFFFFFFFFFFF MUL NOT AND SWAP1 DUP4 PUSH8 0xFFFFFFFFFFFFFFFF AND MUL OR SWAP1 SSTORE POP CALLER PUSH20 0xFFFFFFFFFFFFFFFFFFFFFFFFFFFFFFFFFFFFFFFF AND DUP8 PUSH32 0xA1A7FB1DF88AF97284790F533C84A4284660C23F7631DE9A03A258DE840E4C15 PUSH1 0x40 MLOAD PUSH1 0x40 MLOAD DUP1 SWAP2 SUB SWAP1 LOG3 PUSH1 0x1 SWAP2 POP POP SWAP6 SWAP5 POP POP POP POP POP JUMP JUMPDEST PUSH1 0x7 PUSH1 0x20 MSTORE DUP1 PUSH0 MSTORE PUSH1 0x40 PUSH0 KECCAK256 PUSH0 SWAP2 POP SWAP1 POP DUP1 PUSH0 ADD PUSH0 SWAP1 SLOAD SWAP1 PUSH2 0x100 EXP SWAP1 DIV PUSH1 0xFF AND SWAP1 DUP1 PUSH0 ADD PUSH1 0x1 SWAP1 SLOAD SWAP1 PUSH2 0x100 EXP SWAP1 DIV PUSH20 0xFFFFFFFFFFFFFFFFFFFFFFFFFFFFFFFFFFFFFFFF AND SWAP1 DUP1 PUSH1 0x1 ADD DUP1 SLOAD PUSH2 0x79D SWAP1 PUSH2 0x20DA JUMP JUMPDEST DUP1 PUSH1 0x1F ADD PUSH1 0x20 DUP1 SWAP2 DIV MUL PUSH1 0x20 ADD PUSH1 0x40 MLOAD SWAP1 DUP2 ADD PUSH1 0x40 MSTORE DUP1 SWAP3 SWAP2 SWAP1 DUP2 DUP2 MSTORE PUSH1 0x20 ADD DUP3 DUP1 SLOAD PUSH2 0x7C9 SWAP1 PUSH2 0x20DA JUMP JUMPDEST DUP1 ISZERO PUSH2 0x814 JUMPI DUP1 PUSH1 0x1F LT PUSH2 0x7EB JUMPI PUSH2 0x100 DUP1 DUP4 SLOAD DIV MUL DUP4 MSTORE SWAP2 PUSH1 0x20 ADD SWAP2 PUSH2 0x814 JUMP JUMPDEST DUP3 ADD SWAP2 SWAP1 PUSH0 MSTORE PUSH1 0x20 PUSH0 KECCAK256 SWAP1 JUMPDEST DUP2 SLOAD DUP2 MSTORE SWAP1 PUSH1 0x1 ADD SWAP1 PUSH1 0x20 ADD DUP1 DUP4 GT PUSH2 0x7F7 JUMPI DUP3 SWAP1 SUB PUSH1 0x1F AND DUP3 ADD SWAP2 JUMPDEST POP POP POP POP POP SWAP1 DUP1 PUSH1 0x2 ADD DUP1 SLOAD PUSH2 0x829 SWAP1 PUSH2 0x20DA JUMP JUMPDEST DUP1 PUSH1 0x1F ADD PUSH1 0x20 DUP1 SWAP2 DIV MUL PUSH1 0x20 ADD PUSH1 0x40 MLOAD SWAP1 DUP2 ADD PUSH1 0x40 MSTORE DUP1 SWAP3 SWAP2 SWAP1 DUP2 DUP2 MSTORE PUSH1 0x20 ADD DUP3 DUP1 SLOAD PUSH2 0x855 SWAP1 PUSH2 0x20DA JUMP JUMPDEST DUP1 ISZERO PUSH2 0x8A0 JUMPI DUP1 PUSH1 0x1F LT PUSH2 0x877 JUMPI PUSH2 0x100 DUP1 DUP4 SLOAD DIV MUL DUP4 MSTORE SWAP2 PUSH1 0x20 ADD SWAP2 PUSH2 0x8A0 JUMP JUMPDEST DUP3 ADD SWAP2 SWAP1 PUSH0 MSTORE PUSH1 0x20 PUSH0 KECCAK256 SWAP1 JUMPDEST DUP2 SLOAD DUP2 MSTORE SWAP1 PUSH1 0x1 ADD SWAP1 PUSH1 0x20 ADD DUP1 DUP4 GT PUSH2 0x883 JUMPI DUP3 SWAP1 SUB PUSH1 0x1F AND DUP3 ADD SWAP2 JUMPDEST POP POP POP POP POP SWAP1 DUP1 PUSH1 0x3 ADD PUSH0 SWAP1 SLOAD SWAP1 PUSH2 0x100 EXP SWAP1 DIV PUSH1 0xFF AND SWAP1 DUP1 PUSH1 0x3 ADD PUSH1 0x1 SWAP1 SLOAD SWAP1 PUSH2 0x100 EXP SWAP1 DIV PUSH8 0xFFFFFFFFFFFFFFFF AND SWAP1 DUP1 PUSH1 0x3 ADD PUSH1 0x9 SWAP1 SLOAD SWAP1 PUSH2 0x100 EXP SWAP1 DIV PUSH8 0xFFFFFFFFFFFFFFFF AND SWAP1 POP DUP8 JUMP JUMPDEST PUSH1 0x60 DUP1 PUSH1 0x60 PUSH0 PUSH0 PUSH0 PUSH0 PUSH1 0x40 MLOAD DUP1 PUSH1 0x40 ADD PUSH1 0x40 MSTORE DUP1 PUSH1 0x4 DUP2 MSTORE PUSH1 0x20 ADD PUSH32 0x56312E3000000000000000000000000000000000000000000000000000000000 DUP2 MSTORE POP PUSH1 0x1 PUSH32 0x0 ADDRESS PUSH32 0x0 DUP6 DUP1 SLOAD PUSH2 0x980 SWAP1 PUSH2 0x20DA JUMP JUMPDEST DUP1 PUSH1 0x1F ADD PUSH1 0x20 DUP1 SWAP2 DIV MUL PUSH1 0x20 ADD PUSH1 0x40 MLOAD SWAP1 DUP2 ADD PUSH1 0x40 MSTORE DUP1 SWAP3 SWAP2 SWAP1 DUP2 DUP2 MSTORE PUSH1 0x20 ADD DUP3 DUP1 SLOAD PUSH2 0x9AC SWAP1 PUSH2 0x20DA JUMP JUMPDEST DUP1 ISZERO PUSH2 0x9F7 JUMPI DUP1 PUSH1 0x1F LT PUSH2 0x9CE JUMPI PUSH2 0x100 DUP1 DUP4 SLOAD DIV MUL DUP4 MSTORE SWAP2 PUSH1 0x20 ADD SWAP2 PUSH2 0x9F7 JUMP JUMPDEST DUP3 ADD SWAP2 SWAP1 PUSH0 MSTORE PUSH1 0x20 PUSH0 KECCAK256 SWAP1 JUMPDEST DUP2 SLOAD DUP2 MSTORE SWAP1 PUSH1 0x1 ADD SWAP1 PUSH1 0x20 ADD DUP1 DUP4 GT PUSH2 0x9DA JUMPI DUP3 SWAP1 SUB PUSH1 0x1F AND DUP3 ADD SWAP2 JUMPDEST POP POP POP POP POP SWAP6 POP DUP4 DUP1 SLOAD PUSH2 0xA0A SWAP1 PUSH2 0x20DA JUMP JUMPDEST DUP1 PUSH1 0x1F ADD PUSH1 0x20 DUP1 SWAP2 DIV MUL PUSH1 0x20 ADD PUSH1 0x40 MLOAD SWAP1 DUP2 ADD PUSH1 0x40 MSTORE DUP1 SWAP3 SWAP2 SWAP1 DUP2 DUP2 MSTORE PUSH1 0x20 ADD DUP3 DUP1 SLOAD PUSH2 0xA36 SWAP1 PUSH2 0x20DA JUMP JUMPDEST DUP1 ISZERO PUSH2 0xA81 JUMPI DUP1 PUSH1 0x1F LT PUSH2 0xA58 JUMPI PUSH2 0x100 DUP1 DUP4 SLOAD DIV MUL DUP4 MSTORE SWAP2 PUSH1 0x20 ADD SWAP2 PUSH2 0xA81 JUMP JUMPDEST DUP3 ADD SWAP2 SWAP1 PUSH0 MSTORE PUSH1 0x20 PUSH0 KECCAK256 SWAP1 JUMPDEST DUP2 SLOAD DUP2 MSTORE SWAP1 PUSH1 0x1 ADD SWAP1 PUSH1 0x20 ADD DUP1 DUP4 GT PUSH2 0xA64 JUMPI DUP3 SWAP1 SUB PUSH1 0x1F AND DUP3 ADD SWAP2 JUMPDEST POP POP POP POP POP SWAP4 POP SWAP6 POP SWAP6 POP SWAP6 POP SWAP6 POP SWAP6 POP SWAP6 POP SWAP1 SWAP2 SWAP3 SWAP4 SWAP5 SWAP6 JUMP JUMPDEST PUSH1 0xA DUP1 SLOAD PUSH2 0xAA9 SWAP1 PUSH2 0x20DA JUMP JUMPDEST DUP1 PUSH1 0x1F ADD PUSH1 0x20 DUP1 SWAP2 DIV MUL PUSH1 0x20 ADD PUSH1 0x40 MLOAD SWAP1 DUP2 ADD PUSH1 0x40 MSTORE DUP1 SWAP3 SWAP2 SWAP1 DUP2 DUP2 MSTORE PUSH1 0x20 ADD DUP3 DUP1 SLOAD PUSH2 0xAD5 SWAP1 PUSH2 0x20DA JUMP JUMPDEST DUP1 ISZERO PUSH2 0xB20 JUMPI DUP1 PUSH1 0x1F LT PUSH2 0xAF7 JUMPI PUSH2 0x100 DUP1 DUP4 SLOAD DIV MUL DUP4 MSTORE SWAP2 PUSH1 0x20 ADD SWAP2 PUSH2 0xB20 JUMP JUMPDEST DUP3 ADD SWAP2 SWAP1 PUSH0 MSTORE PUSH1 0x20 PUSH0 KECCAK256 SWAP1 JUMPDEST DUP2 SLOAD DUP2 MSTORE SWAP1 PUSH1 0x1 ADD SWAP1 PUSH1 0x20 ADD DUP1 DUP4 GT PUSH2 0xB03 JUMPI DUP3 SWAP1 SUB PUSH1 0x1F AND DUP3 ADD SWAP2 JUMPDEST POP POP POP POP POP DUP2 JUMP JUMPDEST PUSH32 0x0 PUSH20 0xFFFFFFFFFFFFFFFFFFFFFFFFFFFFFFFFFFFFFFFF AND CALLER PUSH20 0xFFFFFFFFFFFFFFFFFFFFFFFFFFFFFFFFFFFFFFFF AND EQ PUSH2 0xBB6 JUMPI PUSH1 0x40 MLOAD PUSH32 0x8C379A000000000000000000000000000000000000000000000000000000000 DUP2 MSTORE PUSH1 0x4 ADD PUSH2 0xBAD SWAP1 PUSH2 0x2530 JUMP JUMPDEST PUSH1 0x40 MLOAD DUP1 SWAP2 SUB SWAP1 REVERT JUMPDEST PUSH0 PUSH1 0x7 PUSH0 DUP6 DUP2 MSTORE PUSH1 0x20 ADD SWAP1 DUP2 MSTORE PUSH1 0x20 ADD PUSH0 KECCAK256 SWAP1 POP DUP1 PUSH0 ADD PUSH0 SWAP1 SLOAD SWAP1 PUSH2 0x100 EXP SWAP1 DIV PUSH1 0xFF AND PUSH2 0xC19 JUMPI PUSH1 0x40 MLOAD PUSH32 0x8C379A000000000000000000000000000000000000000000000000000000000 DUP2 MSTORE PUSH1 0x4 ADD PUSH2 0xC10 SWAP1 PUSH2 0x2598 JUMP JUMPDEST PUSH1 0x40 MLOAD DUP1 SWAP2 SUB SWAP1 REVERT JUMPDEST DUP1 PUSH1 0x3 ADD PUSH0 SWAP1 SLOAD SWAP1 PUSH2 0x100 EXP SWAP1 DIV PUSH1 0xFF AND ISZERO PUSH2 0xC6A JUMPI PUSH1 0x40 MLOAD PUSH32 0x8C379A000000000000000000000000000000000000000000000000000000000 DUP2 MSTORE PUSH1 0x4 ADD PUSH2 0xC61 SWAP1 PUSH2 0x2600 JUMP JUMPDEST PUSH1 0x40 MLOAD DUP1 SWAP2 SUB SWAP1 REVERT JUMPDEST CALLER PUSH20 0xFFFFFFFFFFFFFFFFFFFFFFFFFFFFFFFFFFFFFFFF AND DUP5 PUSH32 0x57BEF5442A9200B3DECE1864CA545774940FC88E515BD251DDAB26F14567C828 DUP6 DUP6 PUSH1 0x40 MLOAD PUSH2 0xCB3 SWAP3 SWAP2 SWAP1 PUSH2 0x2658 JUMP JUMPDEST PUSH1 0x40 MLOAD DUP1 SWAP2 SUB SWAP1 LOG3 POP POP POP POP JUMP JUMPDEST PUSH1 0x8 DUP1 PUSH0 ADD PUSH0 SWAP1 SLOAD SWAP1 PUSH2 0x100 EXP SWAP1 DIV PUSH1 0xFF AND SWAP1 DUP1 PUSH0 ADD PUSH1 0x1 SWAP1 SLOAD SWAP1 PUSH2 0x100 EXP SWAP1 DIV PUSH1 0xFF AND SWAP1 DUP1 PUSH0 ADD PUSH1 0x2 SWAP1 SLOAD SWAP1 PUSH2 0x100 EXP SWAP1 DIV PUSH1 0xFF AND SWAP1 DUP1 PUSH0 ADD PUSH1 0x3 SWAP1 SLOAD SWAP1 PUSH2 0x100 EXP SWAP1 DIV PUSH1 0xFF AND SWAP1 DUP1 PUSH0 ADD PUSH1 0x4 SWAP1 SLOAD SWAP1 PUSH2 0x100 EXP SWAP1 DIV PUSH1 0xFF AND SWAP1 DUP1 PUSH1 0x1 ADD DUP1 SLOAD PUSH2 0xD2B SWAP1 PUSH2 0x20DA JUMP JUMPDEST DUP1 PUSH1 0x1F ADD PUSH1 0x20 DUP1 SWAP2 DIV MUL PUSH1 0x20 ADD PUSH1 0x40 MLOAD SWAP1 DUP2 ADD PUSH1 0x40 MSTORE DUP1 SWAP3 SWAP2 SWAP1 DUP2 DUP2 MSTORE PUSH1 0x20 ADD DUP3 DUP1 SLOAD PUSH2 0xD57 SWAP1 PUSH2 0x20DA JUMP JUMPDEST DUP1 ISZERO PUSH2 0xDA2 JUMPI DUP1 PUSH1 0x1F LT PUSH2 0xD79 JUMPI PUSH2 0x100 DUP1 DUP4 SLOAD DIV MUL DUP4 MSTORE SWAP2 PUSH1 0x20 ADD SWAP2 PUSH2 0xDA2 JUMP JUMPDEST DUP3 ADD SWAP2 SWAP1 PUSH0 MSTORE PUSH1 0x20 PUSH0 KECCAK256 SWAP1 JUMPDEST DUP2 SLOAD DUP2 MSTORE SWAP1 PUSH1 0x1 ADD SWAP1 PUSH1 0x20 ADD DUP1 DUP4 GT PUSH2 0xD85 JUMPI DUP3 SWAP1 SUB PUSH1 0x1F AND DUP3 ADD SWAP2 JUMPDEST POP POP POP POP POP SWAP1 POP DUP7 JUMP JUMPDEST PUSH32 0x0 DUP2 JUMP JUMPDEST PUSH1 0x2 DUP1 PUSH0 ADD DUP1 SLOAD PUSH2 0xDE0 SWAP1 PUSH2 0x20DA JUMP JUMPDEST DUP1 PUSH1 0x1F ADD PUSH1 0x20 DUP1 SWAP2 DIV MUL PUSH1 0x20 ADD PUSH1 0x40 MLOAD SWAP1 DUP2 ADD PUSH1 0x40 MSTORE DUP1 SWAP3 SWAP2 SWAP1 DUP2 DUP2 MSTORE PUSH1 0x20 ADD DUP3 DUP1 SLOAD PUSH2 0xE0C SWAP1 PUSH2 0x20DA JUMP JUMPDEST DUP1 ISZERO PUSH2 0xE57 JUMPI DUP1 PUSH1 0x1F LT PUSH2 0xE2E JUMPI PUSH2 0x100 DUP1 DUP4 SLOAD DIV MUL DUP4 MSTORE SWAP2 PUSH1 0x20 ADD SWAP2 PUSH2 0xE57 JUMP JUMPDEST DUP3 ADD SWAP2 SWAP1 PUSH0 MSTORE PUSH1 0x20 PUSH0 KECCAK256 SWAP1 JUMPDEST DUP2 SLOAD DUP2 MSTORE SWAP1 PUSH1 0x1 ADD SWAP1 PUSH1 0x20 ADD DUP1 DUP4 GT PUSH2 0xE3A JUMPI DUP3 SWAP1 SUB PUSH1 0x1F AND DUP3 ADD SWAP2 JUMPDEST POP POP POP POP POP SWAP1 DUP1 PUSH1 0x1 ADD PUSH0 SWAP1 SLOAD SWAP1 PUSH2 0x100 EXP SWAP1 DIV PUSH20 0xFFFFFFFFFFFFFFFFFFFFFFFFFFFFFFFFFFFFFFFF AND SWAP1 DUP1 PUSH1 0x2 ADD SLOAD SWAP1 DUP1 PUSH1 0x3 ADD DUP1 SLOAD PUSH2 0xE97 SWAP1 PUSH2 0x20DA JUMP JUMPDEST DUP1 PUSH1 0x1F ADD PUSH1 0x20 DUP1 SWAP2 DIV MUL PUSH1 0x20 ADD PUSH1 0x40 MLOAD SWAP1 DUP2 ADD PUSH1 0x40 MSTORE DUP1 SWAP3 SWAP2 SWAP1 DUP2 DUP2 MSTORE PUSH1 0x20 ADD DUP3 DUP1 SLOAD PUSH2 0xEC3 SWAP1 PUSH2 0x20DA JUMP JUMPDEST DUP1 ISZERO PUSH2 0xF0E JUMPI DUP1 PUSH1 0x1F LT PUSH2 0xEE5 JUMPI PUSH2 0x100 DUP1 DUP4 SLOAD DIV MUL DUP4 MSTORE SWAP2 PUSH1 0x20 ADD SWAP2 PUSH2 0xF0E JUMP JUMPDEST DUP3 ADD SWAP2 SWAP1 PUSH0 MSTORE PUSH1 0x20 PUSH0 KECCAK256 SWAP1 JUMPDEST DUP2 SLOAD DUP2 MSTORE SWAP1 PUSH1 0x1 ADD SWAP1 PUSH1 0x20 ADD DUP1 DUP4 GT PUSH2 0xEF1 JUMPI DUP3 SWAP1 SUB PUSH1 0x1F AND DUP3 ADD SWAP2 JUMPDEST POP POP POP POP POP SWAP1 POP DUP5 JUMP JUMPDEST PUSH1 0x2 PUSH1 0x1 ADD PUSH0 SWAP1 SLOAD SWAP1 PUSH2 0x100 EXP SWAP1 DIV PUSH20 0xFFFFFFFFFFFFFFFFFFFFFFFFFFFFFFFFFFFFFFFF AND PUSH20 0xFFFFFFFFFFFFFFFFFFFFFFFFFFFFFFFFFFFFFFFF AND CALLER PUSH20 0xFFFFFFFFFFFFFFFFFFFFFFFFFFFFFFFFFFFFFFFF AND EQ PUSH2 0xFAA JUMPI PUSH1 0x40 MLOAD PUSH32 0x8C379A000000000000000000000000000000000000000000000000000000000 DUP2 MSTORE PUSH1 0x4 ADD PUSH2 0xFA1 SWAP1 PUSH2 0x26C4 JUMP JUMPDEST PUSH1 0x40 MLOAD DUP1 SWAP2 SUB SWAP1 REVERT JUMPDEST DUP1 PUSH8 0xFFFFFFFFFFFFFFFF AND DUP3 PUSH8 0xFFFFFFFFFFFFFFFF AND LT PUSH2 0x1000 JUMPI PUSH1 0x40 MLOAD PUSH32 0x8C379A000000000000000000000000000000000000000000000000000000000 DUP2 MSTORE PUSH1 0x4 ADD PUSH2 0xFF7 SWAP1 PUSH2 0x272C JUMP JUMPDEST PUSH1 0x40 MLOAD DUP1 SWAP2 SUB SWAP1 REVERT JUMPDEST DUP5 PUSH1 0x8 DUP2 DUP2 PUSH2 0x100F SWAP2 SWAP1 PUSH2 0x2A6F JUMP JUMPDEST SWAP1 POP POP DUP4 DUP4 PUSH1 0xA SWAP2 DUP3 PUSH2 0x1023 SWAP3 SWAP2 SWAP1 PUSH2 0x2419 JUMP JUMPDEST POP DUP2 PUSH1 0xB PUSH0 PUSH2 0x100 EXP DUP2 SLOAD DUP2 PUSH8 0xFFFFFFFFFFFFFFFF MUL NOT AND SWAP1 DUP4 PUSH8 0xFFFFFFFFFFFFFFFF AND MUL OR SWAP1 SSTORE POP DUP1 PUSH1 0xB PUSH1 0x8 PUSH2 0x100 EXP DUP2 SLOAD DUP2 PUSH8 0xFFFFFFFFFFFFFFFF MUL NOT AND SWAP1 DUP4 PUSH8 0xFFFFFFFFFFFFFFFF AND MUL OR SWAP1 SSTORE POP POP POP POP POP POP JUMP JUMPDEST PUSH0 PUSH1 0x60 DUP1 PUSH0 PUSH0 PUSH0 PUSH0 PUSH1 0x7 PUSH0 DUP10 DUP2 MSTORE PUSH1 0x20 ADD SWAP1 DUP2 MSTORE PUSH1 0x20 ADD PUSH0 KECCAK256 SWAP1 POP DUP1 PUSH0 ADD PUSH0 SWAP1 SLOAD SWAP1 PUSH2 0x100 EXP SWAP1 DIV PUSH1 0xFF AND PUSH2 0x10E6 JUMPI PUSH1 0x40 MLOAD PUSH32 0x8C379A000000000000000000000000000000000000000000000000000000000 DUP2 MSTORE PUSH1 0x4 ADD PUSH2 0x10DD SWAP1 PUSH2 0x2598 JUMP JUMPDEST PUSH1 0x40 MLOAD DUP1 SWAP2 SUB SWAP1 REVERT JUMPDEST PUSH1 0x2 PUSH1 0x1 ADD PUSH0 SWAP1 SLOAD SWAP1 PUSH2 0x100 EXP SWAP1 DIV PUSH20 0xFFFFFFFFFFFFFFFFFFFFFFFFFFFFFFFFFFFFFFFF AND DUP2 PUSH1 0x1 ADD DUP3 PUSH1 0x2 ADD DUP4 PUSH1 0x3 ADD PUSH0 SWAP1 SLOAD SWAP1 PUSH2 0x100 EXP SWAP1 DIV PUSH1 0xFF AND DUP5 PUSH1 0x3 ADD PUSH1 0x1 SWAP1 SLOAD SWAP1 PUSH2 0x100 EXP SWAP1 DIV PUSH8 0xFFFFFFFFFFFFFFFF AND DUP6 PUSH1 0x3 ADD PUSH1 0x9 SWAP1 SLOAD SWAP1 PUSH2 0x100 EXP SWAP1 DIV PUSH8 0xFFFFFFFFFFFFFFFF AND DUP5 DUP1 SLOAD PUSH2 0x1162 SWAP1 PUSH2 0x20DA JUMP JUMPDEST DUP1 PUSH1 0x1F ADD PUSH1 0x20 DUP1 SWAP2 DIV MUL PUSH1 0x20 ADD PUSH1 0x40 MLOAD SWAP1 DUP2 ADD PUSH1 0x40 MSTORE DUP1 SWAP3 SWAP2 SWAP1 DUP2 DUP2 MSTORE PUSH1 0x20 ADD DUP3 DUP1 SLOAD PUSH2 0x118E SWAP1 PUSH2 0x20DA JUMP JUMPDEST DUP1 ISZERO PUSH2 0x11D9 JUMPI DUP1 PUSH1 0x1F LT PUSH2 0x11B0 JUMPI PUSH2 0x100 DUP1 DUP4 SLOAD DIV MUL DUP4 MSTORE SWAP2 PUSH1 0x20 ADD SWAP2 PUSH2 0x11D9 JUMP JUMPDEST DUP3 ADD SWAP2 SWAP1 PUSH0 MSTORE PUSH1 0x20 PUSH0 KECCAK256 SWAP1 JUMPDEST DUP2 SLOAD DUP2 MSTORE SWAP1 PUSH1 0x1 ADD SWAP1 PUSH1 0x20 ADD DUP1 DUP4 GT PUSH2 0x11BC JUMPI DUP3 SWAP1 SUB PUSH1 0x1F AND DUP3 ADD SWAP2 JUMPDEST POP POP POP POP POP SWAP5 POP DUP4 DUP1 SLOAD PUSH2 0x11EC SWAP1 PUSH2 0x20DA JUMP JUMPDEST DUP1 PUSH1 0x1F ADD PUSH1 0x20 DUP1 SWAP2 DIV MUL PUSH1 0x20 ADD PUSH1 0x40 MLOAD SWAP1 DUP2 ADD PUSH1 0x40 MSTORE DUP1 SWAP3 SWAP2 SWAP1 DUP2 DUP2 MSTORE PUSH1 0x20 ADD DUP3 DUP1 SLOAD PUSH2 0x1218 SWAP1 PUSH2 0x20DA JUMP JUMPDEST DUP1 ISZERO PUSH2 0x1263 JUMPI DUP1 PUSH1 0x1F LT PUSH2 0x123A JUMPI PUSH2 0x100 DUP1 DUP4 SLOAD DIV MUL DUP4 MSTORE SWAP2 PUSH1 0x20 ADD SWAP2 PUSH2 0x1263 JUMP JUMPDEST DUP3 ADD SWAP2 SWAP1 PUSH0 MSTORE PUSH1 0x20 PUSH0 KECCAK256 SWAP1 JUMPDEST DUP2 SLOAD DUP2 MSTORE SWAP1 PUSH1 0x1 ADD SWAP1 PUSH1 0x20 ADD DUP1 DUP4 GT PUSH2 0x1246 JUMPI DUP3 SWAP1 SUB PUSH1 0x1F AND DUP3 ADD SWAP2 JUMPDEST POP POP POP POP POP SWAP4 POP SWAP7 POP SWAP7 POP SWAP7 POP SWAP7 POP SWAP7 POP SWAP7 POP POP SWAP2 SWAP4 SWAP6 POP SWAP2 SWAP4 SWAP6 JUMP JUMPDEST PUSH32 0x0 PUSH20 0xFFFFFFFFFFFFFFFFFFFFFFFFFFFFFFFFFFFFFFFF AND CALLER PUSH20 0xFFFFFFFFFFFFFFFFFFFFFFFFFFFFFFFFFFFFFFFF AND EQ PUSH2 0x130E JUMPI PUSH1 0x40 MLOAD PUSH32 0x8C379A000000000000000000000000000000000000000000000000000000000 DUP2 MSTORE PUSH1 0x4 ADD PUSH2 0x1305 SWAP1 PUSH2 0x2530 JUMP JUMPDEST PUSH1 0x40 MLOAD DUP1 SWAP2 SUB SWAP1 REVERT JUMPDEST PUSH0 PUSH1 0x7 PUSH0 DUP4 DUP2 MSTORE PUSH1 0x20 ADD SWAP1 DUP2 MSTORE PUSH1 0x20 ADD PUSH0 KECCAK256 SWAP1 POP DUP1 PUSH0 ADD PUSH0 SWAP1 SLOAD SWAP1 PUSH2 0x100 EXP SWAP1 DIV PUSH1 0xFF AND PUSH2 0x1371 JUMPI PUSH1 0x40 MLOAD PUSH32 0x8C379A000000000000000000000000000000000000000000000000000000000 DUP2 MSTORE PUSH1 0x4 ADD PUSH2 0x1368 SWAP1 PUSH2 0x2598 JUMP JUMPDEST PUSH1 0x40 MLOAD DUP1 SWAP2 SUB SWAP1 REVERT JUMPDEST DUP1 PUSH1 0x3 ADD PUSH0 SWAP1 SLOAD SWAP1 PUSH2 0x100 EXP SWAP1 DIV PUSH1 0xFF AND ISZERO PUSH2 0x13C2 JUMPI PUSH1 0x40 MLOAD PUSH32 0x8C379A000000000000000000000000000000000000000000000000000000000 DUP2 MSTORE PUSH1 0x4 ADD PUSH2 0x13B9 SWAP1 PUSH2 0x2600 JUMP JUMPDEST PUSH1 0x40 MLOAD DUP1 SWAP2 SUB SWAP1 REVERT JUMPDEST PUSH1 0x1 DUP2 PUSH1 0x3 ADD PUSH0 PUSH2 0x100 EXP DUP2 SLOAD DUP2 PUSH1 0xFF MUL NOT AND SWAP1 DUP4 ISZERO ISZERO MUL OR SWAP1 SSTORE POP TIMESTAMP DUP2 PUSH1 0x3 ADD PUSH1 0x9 PUSH2 0x100 EXP DUP2 SLOAD DUP2 PUSH8 0xFFFFFFFFFFFFFFFF MUL NOT AND SWAP1 DUP4 PUSH8 0xFFFFFFFFFFFFFFFF AND MUL OR SWAP1 SSTORE POP CALLER PUSH20 0xFFFFFFFFFFFFFFFFFFFFFFFFFFFFFFFFFFFFFFFF AND DUP3 PUSH32 0x7B39C92A7E1A86E846EDAEFF6EBA715A046352C596794C2A374269C126A99768 PUSH1 0x40 MLOAD PUSH1 0x40 MLOAD DUP1 SWAP2 SUB SWAP1 LOG3 POP POP JUMP JUMPDEST PUSH32 0x0 PUSH20 0xFFFFFFFFFFFFFFFFFFFFFFFFFFFFFFFFFFFFFFFF AND CALLER PUSH20 0xFFFFFFFFFFFFFFFFFFFFFFFFFFFFFFFFFFFFFFFF AND EQ PUSH2 0x14DF JUMPI PUSH1 0x40 MLOAD PUSH32 0x8C379A000000000000000000000000000000000000000000000000000000000 DUP2 MSTORE PUSH1 0x4 ADD PUSH2 0x14D6 SWAP1 PUSH2 0x2530 JUMP JUMPDEST PUSH1 0x40 MLOAD DUP1 SWAP2 SUB SWAP1 REVERT JUMPDEST DUP1 PUSH1 0x6 PUSH0 PUSH2 0x100 EXP DUP2 SLOAD DUP2 PUSH20 0xFFFFFFFFFFFFFFFFFFFFFFFFFFFFFFFFFFFFFFFF MUL NOT AND SWAP1 DUP4 PUSH20 0xFFFFFFFFFFFFFFFFFFFFFFFFFFFFFFFFFFFFFFFF AND MUL OR SWAP1 SSTORE POP PUSH32 0xBCE2D31C3E166333DE6F7791CA106F1D1D9B1BEE2F24A42E07F7D0C7A2C437C5 DUP2 PUSH1 0x40 MLOAD PUSH2 0x154E SWAP2 SWAP1 PUSH2 0x19BB JUMP JUMPDEST PUSH1 0x40 MLOAD DUP1 SWAP2 SUB SWAP1 LOG1 POP JUMP JUMPDEST PUSH0 DUP1 SLOAD PUSH2 0x1565 SWAP1 PUSH2 0x20DA JUMP JUMPDEST DUP1 PUSH1 0x1F ADD PUSH1 0x20 DUP1 SWAP2 DIV MUL PUSH1 0x20 ADD PUSH1 0x40 MLOAD SWAP1 DUP2 ADD PUSH1 0x40 MSTORE DUP1 SWAP3 SWAP2 SWAP1 DUP2 DUP2 MSTORE PUSH1 0x20 ADD DUP3 DUP1 SLOAD PUSH2 0x1591 SWAP1 PUSH2 0x20DA JUMP JUMPDEST DUP1 ISZERO PUSH2 0x15DC JUMPI DUP1 PUSH1 0x1F LT PUSH2 0x15B3 JUMPI PUSH2 0x100 DUP1 DUP4 SLOAD DIV MUL DUP4 MSTORE SWAP2 PUSH1 0x20 ADD SWAP2 PUSH2 0x15DC JUMP JUMPDEST DUP3 ADD SWAP2 SWAP1 PUSH0 MSTORE PUSH1 0x20 PUSH0 KECCAK256 SWAP1 JUMPDEST DUP2 SLOAD DUP2 MSTORE SWAP1 PUSH1 0x1 ADD SWAP1 PUSH1 0x20 ADD DUP1 DUP4 GT PUSH2 0x15BF JUMPI DUP3 SWAP1 SUB PUSH1 0x1F AND DUP3 ADD SWAP2 JUMPDEST POP POP POP POP POP DUP2 JUMP JUMPDEST PUSH1 0x6 PUSH0 SWAP1 SLOAD SWAP1 PUSH2 0x100 EXP SWAP1 DIV PUSH20 0xFFFFFFFFFFFFFFFFFFFFFFFFFFFFFFFFFFFFFFFF AND DUP2 JUMP JUMPDEST PUSH1 0xB PUSH1 0x8 SWAP1 SLOAD SWAP1 PUSH2 0x100 EXP SWAP1 DIV PUSH8 0xFFFFFFFFFFFFFFFF AND DUP2 JUMP JUMPDEST PUSH32 0x0 DUP2 JUMP JUMPDEST PUSH32 0x0 PUSH20 0xFFFFFFFFFFFFFFFFFFFFFFFFFFFFFFFFFFFFFFFF AND CALLER PUSH20 0xFFFFFFFFFFFFFFFFFFFFFFFFFFFFFFFFFFFFFFFF AND EQ DUP1 PUSH2 0x16F0 JUMPI POP PUSH1 0x2 PUSH1 0x1 ADD PUSH0 SWAP1 SLOAD SWAP1 PUSH2 0x100 EXP SWAP1 DIV PUSH20 0xFFFFFFFFFFFFFFFFFFFFFFFFFFFFFFFFFFFFFFFF AND PUSH20 0xFFFFFFFFFFFFFFFFFFFFFFFFFFFFFFFFFFFFFFFF AND CALLER PUSH20 0xFFFFFFFFFFFFFFFFFFFFFFFFFFFFFFFFFFFFFFFF AND EQ JUMPDEST DUP1 PUSH2 0x174A JUMPI POP PUSH0 PUSH20 0xFFFFFFFFFFFFFFFFFFFFFFFFFFFFFFFFFFFFFFFF AND PUSH1 0x2 PUSH1 0x1 ADD PUSH0 SWAP1 SLOAD SWAP1 PUSH2 0x100 EXP SWAP1 DIV PUSH20 0xFFFFFFFFFFFFFFFFFFFFFFFFFFFFFFFFFFFFFFFF AND PUSH20 0xFFFFFFFFFFFFFFFFFFFFFFFFFFFFFFFFFFFFFFFF AND EQ JUMPDEST PUSH2 0x1789 JUMPI PUSH1 0x40 MLOAD PUSH32 0x8C379A000000000000000000000000000000000000000000000000000000000 DUP2 MSTORE PUSH1 0x4 ADD PUSH2 0x1780 SWAP1 PUSH2 0x2AC7 JUMP JUMPDEST PUSH1 0x40 MLOAD DUP1 SWAP2 SUB SWAP1 REVERT JUMPDEST PUSH1 0x40 MLOAD DUP1 PUSH1 0x80 ADD PUSH1 0x40 MSTORE DUP1 DUP8 DUP8 DUP1 DUP1 PUSH1 0x1F ADD PUSH1 0x20 DUP1 SWAP2 DIV MUL PUSH1 0x20 ADD PUSH1 0x40 MLOAD SWAP1 DUP2 ADD PUSH1 0x40 MSTORE DUP1 SWAP4 SWAP3 SWAP2 SWAP1 DUP2 DUP2 MSTORE PUSH1 0x20 ADD DUP4 DUP4 DUP1 DUP3 DUP5 CALLDATACOPY PUSH0 DUP2 DUP5 ADD MSTORE PUSH1 0x1F NOT PUSH1 0x1F DUP3 ADD AND SWAP1 POP DUP1 DUP4 ADD SWAP3 POP POP POP POP POP POP POP DUP2 MSTORE PUSH1 0x20 ADD DUP6 PUSH20 0xFFFFFFFFFFFFFFFFFFFFFFFFFFFFFFFFFFFFFFFF AND DUP2 MSTORE PUSH1 0x20 ADD DUP5 DUP2 MSTORE PUSH1 0x20 ADD DUP4 DUP4 DUP1 DUP1 PUSH1 0x1F ADD PUSH1 0x20 DUP1 SWAP2 DIV MUL PUSH1 0x20 ADD PUSH1 0x40 MLOAD SWAP1 DUP2 ADD PUSH1 0x40 MSTORE DUP1 SWAP4 SWAP3 SWAP2 SWAP1 DUP2 DUP2 MSTORE PUSH1 0x20 ADD DUP4 DUP4 DUP1 DUP3 DUP5 CALLDATACOPY PUSH0 DUP2 DUP5 ADD MSTORE PUSH1 0x1F NOT PUSH1 0x1F DUP3 ADD AND SWAP1 POP DUP1 DUP4 ADD SWAP3 POP POP POP POP POP POP POP DUP2 MSTORE POP PUSH1 0x2 PUSH0 DUP3 ADD MLOAD DUP2 PUSH0 ADD SWAP1 DUP2 PUSH2 0x185B SWAP2 SWAP1 PUSH2 0x2AE5 JUMP JUMPDEST POP PUSH1 0x20 DUP3 ADD MLOAD DUP2 PUSH1 0x1 ADD PUSH0 PUSH2 0x100 EXP DUP2 SLOAD DUP2 PUSH20 0xFFFFFFFFFFFFFFFFFFFFFFFFFFFFFFFFFFFFFFFF MUL NOT AND SWAP1 DUP4 PUSH20 0xFFFFFFFFFFFFFFFFFFFFFFFFFFFFFFFFFFFFFFFF AND MUL OR SWAP1 SSTORE POP PUSH1 0x40 DUP3 ADD MLOAD DUP2 PUSH1 0x2 ADD SSTORE PUSH1 0x60 DUP3 ADD MLOAD DUP2 PUSH1 0x3 ADD SWAP1 DUP2 PUSH2 0x18C1 SWAP2 SWAP1 PUSH2 0x2AE5 JUMP JUMPDEST POP SWAP1 POP POP PUSH32 0x732966C78028F36977A02708AC5F1AD1B8495E3AE6EC7D56E586C0923641C6B4 DUP7 DUP7 DUP7 PUSH1 0x40 MLOAD PUSH2 0x18F8 SWAP4 SWAP3 SWAP2 SWAP1 PUSH2 0x2BB4 JUMP JUMPDEST PUSH1 0x40 MLOAD DUP1 SWAP2 SUB SWAP1 LOG1 POP POP POP POP POP POP JUMP JUMPDEST PUSH1 0x40 MLOAD DUP1 PUSH1 0x40 ADD PUSH1 0x40 MSTORE DUP1 PUSH1 0x4 DUP2 MSTORE PUSH1 0x20 ADD PUSH32 0x56312E3000000000000000000000000000000000000000000000000000000000 DUP2 MSTORE POP DUP2 JUMP JUMPDEST PUSH0 PUSH8 0xFFFFFFFFFFFFFFFF DUP3 AND SWAP1 POP SWAP2 SWAP1 POP JUMP JUMPDEST PUSH2 0x195D DUP2 PUSH2 0x1941 JUMP JUMPDEST DUP3 MSTORE POP POP JUMP JUMPDEST PUSH0 PUSH1 0x20 DUP3 ADD SWAP1 POP PUSH2 0x1976 PUSH0 DUP4 ADD DUP5 PUSH2 0x1954 JUMP JUMPDEST SWAP3 SWAP2 POP POP JUMP JUMPDEST PUSH0 PUSH20 0xFFFFFFFFFFFFFFFFFFFFFFFFFFFFFFFFFFFFFFFF DUP3 AND SWAP1 POP SWAP2 SWAP1 POP JUMP JUMPDEST PUSH0 PUSH2 0x19A5 DUP3 PUSH2 0x197C JUMP JUMPDEST SWAP1 POP SWAP2 SWAP1 POP JUMP JUMPDEST PUSH2 0x19B5 DUP2 PUSH2 0x199B JUMP JUMPDEST DUP3 MSTORE POP POP JUMP JUMPDEST PUSH0 PUSH1 0x20 DUP3 ADD SWAP1 POP PUSH2 0x19CE PUSH0 DUP4 ADD DUP5 PUSH2 0x19AC JUMP JUMPDEST SWAP3 SWAP2 POP POP JUMP JUMPDEST PUSH0 DUP2 MLOAD SWAP1 POP SWAP2 SWAP1 POP JUMP JUMPDEST PUSH0 DUP3 DUP3 MSTORE PUSH1 0x20 DUP3 ADD SWAP1 POP SWAP3 SWAP2 POP POP JUMP JUMPDEST DUP3 DUP2 DUP4 MCOPY PUSH0 DUP4 DUP4 ADD MSTORE POP POP POP JUMP JUMPDEST PUSH0 PUSH1 0x1F NOT PUSH1 0x1F DUP4 ADD AND SWAP1 POP SWAP2 SWAP1 POP JUMP JUMPDEST PUSH0 PUSH2 0x1A16 DUP3 PUSH2 0x19D4 JUMP JUMPDEST PUSH2 0x1A20 DUP2 DUP6 PUSH2 0x19DE JUMP JUMPDEST SWAP4 POP PUSH2 0x1A30 DUP2 DUP6 PUSH1 0x20 DUP7 ADD PUSH2 0x19EE JUMP JUMPDEST PUSH2 0x1A39 DUP2 PUSH2 0x19FC JUMP JUMPDEST DUP5 ADD SWAP2 POP POP SWAP3 SWAP2 POP POP JUMP JUMPDEST PUSH0 PUSH1 0x20 DUP3 ADD SWAP1 POP DUP2 DUP2 SUB PUSH0 DUP4 ADD MSTORE PUSH2 0x1A5C DUP2 DUP5 PUSH2 0x1A0C JUMP JUMPDEST SWAP1 POP SWAP3 SWAP2 POP POP JUMP JUMPDEST PUSH0 PUSH0 REVERT JUMPDEST PUSH0 PUSH0 REVERT JUMPDEST PUSH0 DUP2 SWAP1 POP SWAP2 SWAP1 POP JUMP JUMPDEST PUSH2 0x1A7E DUP2 PUSH2 0x1A6C JUMP JUMPDEST DUP2 EQ PUSH2 0x1A88 JUMPI PUSH0 PUSH0 REVERT JUMPDEST POP JUMP JUMPDEST PUSH0 DUP2 CALLDATALOAD SWAP1 POP PUSH2 0x1A99 DUP2 PUSH2 0x1A75 JUMP JUMPDEST SWAP3 SWAP2 POP POP JUMP JUMPDEST PUSH0 PUSH0 REVERT JUMPDEST PUSH0 PUSH0 REVERT JUMPDEST PUSH0 PUSH0 REVERT JUMPDEST PUSH0 PUSH0 DUP4 PUSH1 0x1F DUP5 ADD SLT PUSH2 0x1AC0 JUMPI PUSH2 0x1ABF PUSH2 0x1A9F JUMP JUMPDEST JUMPDEST DUP3 CALLDATALOAD SWAP1 POP PUSH8 0xFFFFFFFFFFFFFFFF DUP2 GT ISZERO PUSH2 0x1ADD JUMPI PUSH2 0x1ADC PUSH2 0x1AA3 JUMP JUMPDEST JUMPDEST PUSH1 0x20 DUP4 ADD SWAP2 POP DUP4 PUSH1 0x1 DUP3 MUL DUP4 ADD GT ISZERO PUSH2 0x1AF9 JUMPI PUSH2 0x1AF8 PUSH2 0x1AA7 JUMP JUMPDEST JUMPDEST SWAP3 POP SWAP3 SWAP1 POP JUMP JUMPDEST PUSH0 PUSH0 PUSH0 PUSH0 PUSH0 PUSH1 0x60 DUP7 DUP9 SUB SLT ISZERO PUSH2 0x1B19 JUMPI PUSH2 0x1B18 PUSH2 0x1A64 JUMP JUMPDEST JUMPDEST PUSH0 PUSH2 0x1B26 DUP9 DUP3 DUP10 ADD PUSH2 0x1A8B JUMP JUMPDEST SWAP6 POP POP PUSH1 0x20 DUP7 ADD CALLDATALOAD PUSH8 0xFFFFFFFFFFFFFFFF DUP2 GT ISZERO PUSH2 0x1B47 JUMPI PUSH2 0x1B46 PUSH2 0x1A68 JUMP JUMPDEST JUMPDEST PUSH2 0x1B53 DUP9 DUP3 DUP10 ADD PUSH2 0x1AAB JUMP JUMPDEST SWAP5 POP SWAP5 POP POP PUSH1 0x40 DUP7 ADD CALLDATALOAD PUSH8 0xFFFFFFFFFFFFFFFF DUP2 GT ISZERO PUSH2 0x1B76 JUMPI PUSH2 0x1B75 PUSH2 0x1A68 JUMP JUMPDEST JUMPDEST PUSH2 0x1B82 DUP9 DUP3 DUP10 ADD PUSH2 0x1AAB JUMP JUMPDEST SWAP3 POP SWAP3 POP POP SWAP3 SWAP6 POP SWAP3 SWAP6 SWAP1 SWAP4 POP JUMP JUMPDEST PUSH0 DUP2 ISZERO ISZERO SWAP1 POP SWAP2 SWAP1 POP JUMP JUMPDEST PUSH2 0x1BA5 DUP2 PUSH2 0x1B91 JUMP JUMPDEST DUP3 MSTORE POP POP JUMP JUMPDEST PUSH0 PUSH1 0x20 DUP3 ADD SWAP1 POP PUSH2 0x1BBE PUSH0 DUP4 ADD DUP5 PUSH2 0x1B9C JUMP JUMPDEST SWAP3 SWAP2 POP POP JUMP JUMPDEST PUSH0 PUSH1 0x20 DUP3 DUP5 SUB SLT ISZERO PUSH2 0x1BD9 JUMPI PUSH2 0x1BD8 PUSH2 0x1A64 JUMP JUMPDEST JUMPDEST PUSH0 PUSH2 0x1BE6 DUP5 DUP3 DUP6 ADD PUSH2 0x1A8B JUMP JUMPDEST SWAP2 POP POP SWAP3 SWAP2 POP POP JUMP JUMPDEST PUSH0 PUSH1 0xE0 DUP3 ADD SWAP1 POP PUSH2 0x1C02 PUSH0 DUP4 ADD DUP11 PUSH2 0x1B9C JUMP JUMPDEST PUSH2 0x1C0F PUSH1 0x20 DUP4 ADD DUP10 PUSH2 0x19AC JUMP JUMPDEST DUP2 DUP2 SUB PUSH1 0x40 DUP4 ADD MSTORE PUSH2 0x1C21 DUP2 DUP9 PUSH2 0x1A0C JUMP JUMPDEST SWAP1 POP DUP2 DUP2 SUB PUSH1 0x60 DUP4 ADD MSTORE PUSH2 0x1C35 DUP2 DUP8 PUSH2 0x1A0C JUMP JUMPDEST SWAP1 POP PUSH2 0x1C44 PUSH1 0x80 DUP4 ADD DUP7 PUSH2 0x1B9C JUMP JUMPDEST PUSH2 0x1C51 PUSH1 0xA0 DUP4 ADD DUP6 PUSH2 0x1954 JUMP JUMPDEST PUSH2 0x1C5E PUSH1 0xC0 DUP4 ADD DUP5 PUSH2 0x1954 JUMP JUMPDEST SWAP9 SWAP8 POP POP POP POP POP POP POP POP JUMP JUMPDEST PUSH2 0x1C73 DUP2 PUSH2 0x1A6C JUMP JUMPDEST DUP3 MSTORE POP POP JUMP JUMPDEST PUSH0 PUSH1 0xC0 DUP3 ADD SWAP1 POP DUP2 DUP2 SUB PUSH0 DUP4 ADD MSTORE PUSH2 0x1C91 DUP2 DUP10 PUSH2 0x1A0C JUMP JUMPDEST SWAP1 POP DUP2 DUP2 SUB PUSH1 0x20 DUP4 ADD MSTORE PUSH2 0x1CA5 DUP2 DUP9 PUSH2 0x1A0C JUMP JUMPDEST SWAP1 POP DUP2 DUP2 SUB PUSH1 0x40 DUP4 ADD MSTORE PUSH2 0x1CB9 DUP2 DUP8 PUSH2 0x1A0C JUMP JUMPDEST SWAP1 POP PUSH2 0x1CC8 PUSH1 0x60 DUP4 ADD DUP7 PUSH2 0x1C6A JUMP JUMPDEST PUSH2 0x1CD5 PUSH1 0x80 DUP4 ADD DUP6 PUSH2 0x19AC JUMP JUMPDEST PUSH2 0x1CE2 PUSH1 0xA0 DUP4 ADD DUP5 PUSH2 0x1954 JUMP JUMPDEST SWAP8 SWAP7 POP POP POP POP POP POP POP JUMP JUMPDEST PUSH0 PUSH0 PUSH0 PUSH1 0x40 DUP5 DUP7 SUB SLT ISZERO PUSH2 0x1D04 JUMPI PUSH2 0x1D03 PUSH2 0x1A64 JUMP JUMPDEST JUMPDEST PUSH0 PUSH2 0x1D11 DUP7 DUP3 DUP8 ADD PUSH2 0x1A8B JUMP JUMPDEST SWAP4 POP POP PUSH1 0x20 DUP5 ADD CALLDATALOAD PUSH8 0xFFFFFFFFFFFFFFFF DUP2 GT ISZERO PUSH2 0x1D32 JUMPI PUSH2 0x1D31 PUSH2 0x1A68 JUMP JUMPDEST JUMPDEST PUSH2 0x1D3E DUP7 DUP3 DUP8 ADD PUSH2 0x1AAB JUMP JUMPDEST SWAP3 POP SWAP3 POP POP SWAP3 POP SWAP3 POP SWAP3 JUMP JUMPDEST PUSH0 PUSH1 0xC0 DUP3 ADD SWAP1 POP PUSH2 0x1D5D PUSH0 DUP4 ADD DUP10 PUSH2 0x1B9C JUMP JUMPDEST PUSH2 0x1D6A PUSH1 0x20 DUP4 ADD DUP9 PUSH2 0x1B9C JUMP JUMPDEST PUSH2 0x1D77 PUSH1 0x40 DUP4 ADD DUP8 PUSH2 0x1B9C JUMP JUMPDEST PUSH2 0x1D84 PUSH1 0x60 DUP4 ADD DUP7 PUSH2 0x1B9C JUMP JUMPDEST PUSH2 0x1D91 PUSH1 0x80 DUP4 ADD DUP6 PUSH2 0x1B9C JUMP JUMPDEST DUP2 DUP2 SUB PUSH1 0xA0 DUP4 ADD MSTORE PUSH2 0x1DA3 DUP2 DUP5 PUSH2 0x1A0C JUMP JUMPDEST SWAP1 POP SWAP8 SWAP7 POP POP POP POP POP POP POP JUMP JUMPDEST PUSH0 PUSH1 0x20 DUP3 ADD SWAP1 POP PUSH2 0x1DC3 PUSH0 DUP4 ADD DUP5 PUSH2 0x1C6A JUMP JUMPDEST SWAP3 SWAP2 POP POP JUMP JUMPDEST PUSH0 DUP2 SWAP1 POP SWAP2 SWAP1 POP JUMP JUMPDEST PUSH2 0x1DDB DUP2 PUSH2 0x1DC9 JUMP JUMPDEST DUP3 MSTORE POP POP JUMP JUMPDEST PUSH0 PUSH1 0x80 DUP3 ADD SWAP1 POP DUP2 DUP2 SUB PUSH0 DUP4 ADD MSTORE PUSH2 0x1DF9 DUP2 DUP8 PUSH2 0x1A0C JUMP JUMPDEST SWAP1 POP PUSH2 0x1E08 PUSH1 0x20 DUP4 ADD DUP7 PUSH2 0x19AC JUMP JUMPDEST PUSH2 0x1E15 PUSH1 0x40 DUP4 ADD DUP6 PUSH2 0x1DD2 JUMP JUMPDEST DUP2 DUP2 SUB PUSH1 0x60 DUP4 ADD MSTORE PUSH2 0x1E27 DUP2 DUP5 PUSH2 0x1A0C JUMP JUMPDEST SWAP1 POP SWAP6 SWAP5 POP POP POP POP POP JUMP JUMPDEST PUSH0 PUSH0 REVERT JUMPDEST PUSH0 PUSH1 0xC0 DUP3 DUP5 SUB SLT ISZERO PUSH2 0x1E4B JUMPI PUSH2 0x1E4A PUSH2 0x1E32 JUMP JUMPDEST JUMPDEST DUP2 SWAP1 POP SWAP3 SWAP2 POP POP JUMP JUMPDEST PUSH2 0x1E5D DUP2 PUSH2 0x1941 JUMP JUMPDEST DUP2 EQ PUSH2 0x1E67 JUMPI PUSH0 PUSH0 REVERT JUMPDEST POP JUMP JUMPDEST PUSH0 DUP2 CALLDATALOAD SWAP1 POP PUSH2 0x1E78 DUP2 PUSH2 0x1E54 JUMP JUMPDEST SWAP3 SWAP2 POP POP JUMP JUMPDEST PUSH0 PUSH0 PUSH0 PUSH0 PUSH0 PUSH1 0x80 DUP7 DUP9 SUB SLT ISZERO PUSH2 0x1E97 JUMPI PUSH2 0x1E96 PUSH2 0x1A64 JUMP JUMPDEST JUMPDEST PUSH0 DUP7 ADD CALLDATALOAD PUSH8 0xFFFFFFFFFFFFFFFF DUP2 GT ISZERO PUSH2 0x1EB4 JUMPI PUSH2 0x1EB3 PUSH2 0x1A68 JUMP JUMPDEST JUMPDEST PUSH2 0x1EC0 DUP9 DUP3 DUP10 ADD PUSH2 0x1E36 JUMP JUMPDEST SWAP6 POP POP PUSH1 0x20 DUP7 ADD CALLDATALOAD PUSH8 0xFFFFFFFFFFFFFFFF DUP2 GT ISZERO PUSH2 0x1EE1 JUMPI PUSH2 0x1EE0 PUSH2 0x1A68 JUMP JUMPDEST JUMPDEST PUSH2 0x1EED DUP9 DUP3 DUP10 ADD PUSH2 0x1AAB JUMP JUMPDEST SWAP5 POP SWAP5 POP POP PUSH1 0x40 PUSH2 0x1F00 DUP9 DUP3 DUP10 ADD PUSH2 0x1E6A JUMP JUMPDEST SWAP3 POP POP PUSH1 0x60 PUSH2 0x1F11 DUP9 DUP3 DUP10 ADD PUSH2 0x1E6A JUMP JUMPDEST SWAP2 POP POP SWAP3 SWAP6 POP SWAP3 SWAP6 SWAP1 SWAP4 POP JUMP JUMPDEST PUSH0 PUSH1 0xC0 DUP3 ADD SWAP1 POP PUSH2 0x1F31 PUSH0 DUP4 ADD DUP10 PUSH2 0x19AC JUMP JUMPDEST DUP2 DUP2 SUB PUSH1 0x20 DUP4 ADD MSTORE PUSH2 0x1F43 DUP2 DUP9 PUSH2 0x1A0C JUMP JUMPDEST SWAP1 POP DUP2 DUP2 SUB PUSH1 0x40 DUP4 ADD MSTORE PUSH2 0x1F57 DUP2 DUP8 PUSH2 0x1A0C JUMP JUMPDEST SWAP1 POP PUSH2 0x1F66 PUSH1 0x60 DUP4 ADD DUP7 PUSH2 0x1B9C JUMP JUMPDEST PUSH2 0x1F73 PUSH1 0x80 DUP4 ADD DUP6 PUSH2 0x1954 JUMP JUMPDEST PUSH2 0x1F80 PUSH1 0xA0 DUP4 ADD DUP5 PUSH2 0x1954 JUMP JUMPDEST SWAP8 SWAP7 POP POP POP POP POP POP POP JUMP JUMPDEST PUSH2 0x1F94 DUP2 PUSH2 0x199B JUMP JUMPDEST DUP2 EQ PUSH2 0x1F9E JUMPI PUSH0 PUSH0 REVERT JUMPDEST POP JUMP JUMPDEST PUSH0 DUP2 CALLDATALOAD SWAP1 POP PUSH2 0x1FAF DUP2 PUSH2 0x1F8B JUMP JUMPDEST SWAP3 SWAP2 POP POP JUMP JUMPDEST PUSH0 PUSH1 0x20 DUP3 DUP5 SUB SLT ISZERO PUSH2 0x1FCA JUMPI PUSH2 0x1FC9 PUSH2 0x1A64 JUMP JUMPDEST JUMPDEST PUSH0 PUSH2 0x1FD7 DUP5 DUP3 DUP6 ADD PUSH2 0x1FA1 JUMP JUMPDEST SWAP2 POP POP SWAP3 SWAP2 POP POP JUMP JUMPDEST PUSH2 0x1FE9 DUP2 PUSH2 0x1DC9 JUMP JUMPDEST DUP2 EQ PUSH2 0x1FF3 JUMPI PUSH0 PUSH0 REVERT JUMPDEST POP JUMP JUMPDEST PUSH0 DUP2 CALLDATALOAD SWAP1 POP PUSH2 0x2004 DUP2 PUSH2 0x1FE0 JUMP JUMPDEST SWAP3 SWAP2 POP POP JUMP JUMPDEST PUSH0 PUSH0 PUSH0 PUSH0 PUSH0 PUSH0 PUSH1 0x80 DUP8 DUP10 SUB SLT ISZERO PUSH2 0x2024 JUMPI PUSH2 0x2023 PUSH2 0x1A64 JUMP JUMPDEST JUMPDEST PUSH0 DUP8 ADD CALLDATALOAD PUSH8 0xFFFFFFFFFFFFFFFF DUP2 GT ISZERO PUSH2 0x2041 JUMPI PUSH2 0x2040 PUSH2 0x1A68 JUMP JUMPDEST JUMPDEST PUSH2 0x204D DUP10 DUP3 DUP11 ADD PUSH2 0x1AAB JUMP JUMPDEST SWAP7 POP SWAP7 POP POP PUSH1 0x20 PUSH2 0x2060 DUP10 DUP3 DUP11 ADD PUSH2 0x1FA1 JUMP JUMPDEST SWAP5 POP POP PUSH1 0x40 PUSH2 0x2071 DUP10 DUP3 DUP11 ADD PUSH2 0x1FF6 JUMP JUMPDEST SWAP4 POP POP PUSH1 0x60 DUP8 ADD CALLDATALOAD PUSH8 0xFFFFFFFFFFFFFFFF DUP2 GT ISZERO PUSH2 0x2092 JUMPI PUSH2 0x2091 PUSH2 0x1A68 JUMP JUMPDEST JUMPDEST PUSH2 0x209E DUP10 DUP3 DUP11 ADD PUSH2 0x1AAB JUMP JUMPDEST SWAP3 POP SWAP3 POP POP SWAP3 SWAP6 POP SWAP3 SWAP6 POP SWAP3 SWAP6 JUMP JUMPDEST PUSH32 0x4E487B7100000000000000000000000000000000000000000000000000000000 PUSH0 MSTORE PUSH1 0x22 PUSH1 0x4 MSTORE PUSH1 0x24 PUSH0 REVERT JUMPDEST PUSH0 PUSH1 0x2 DUP3 DIV SWAP1 POP PUSH1 0x1 DUP3 AND DUP1 PUSH2 0x20F1 JUMPI PUSH1 0x7F DUP3 AND SWAP2 POP JUMPDEST PUSH1 0x20 DUP3 LT DUP2 SUB PUSH2 0x2104 JUMPI PUSH2 0x2103 PUSH2 0x20AD JUMP JUMPDEST JUMPDEST POP SWAP2 SWAP1 POP JUMP JUMPDEST PUSH32 0x415554484F525F4E4F545F534554000000000000000000000000000000000000 PUSH0 DUP3 ADD MSTORE POP JUMP JUMPDEST PUSH0 PUSH2 0x213E PUSH1 0xE DUP4 PUSH2 0x19DE JUMP JUMPDEST SWAP2 POP PUSH2 0x2149 DUP3 PUSH2 0x210A JUMP JUMPDEST PUSH1 0x20 DUP3 ADD SWAP1 POP SWAP2 SWAP1 POP JUMP JUMPDEST PUSH0 PUSH1 0x20 DUP3 ADD SWAP1 POP DUP2 DUP2 SUB PUSH0 DUP4 ADD MSTORE PUSH2 0x216B DUP2 PUSH2 0x2132 JUMP JUMPDEST SWAP1 POP SWAP2 SWAP1 POP JUMP JUMPDEST PUSH32 0x4F4E4C595F415554484F525F5355424D49540000000000000000000000000000 PUSH0 DUP3 ADD MSTORE POP JUMP JUMPDEST PUSH0 PUSH2 0x21A6 PUSH1 0x12 DUP4 PUSH2 0x19DE JUMP JUMPDEST SWAP2 POP PUSH2 0x21B1 DUP3 PUSH2 0x2172 JUMP JUMPDEST PUSH1 0x20 DUP3 ADD SWAP1 POP SWAP2 SWAP1 POP JUMP JUMPDEST PUSH0 PUSH1 0x20 DUP3 ADD SWAP1 POP DUP2 DUP2 SUB PUSH0 DUP4 ADD MSTORE PUSH2 0x21D3 DUP2 PUSH2 0x219A JUMP JUMPDEST SWAP1 POP SWAP2 SWAP1 POP JUMP JUMPDEST PUSH32 0x414C52454144595F455849535453000000000000000000000000000000000000 PUSH0 DUP3 ADD MSTORE POP JUMP JUMPDEST PUSH0 PUSH2 0x220E PUSH1 0xE DUP4 PUSH2 0x19DE JUMP JUMPDEST SWAP2 POP PUSH2 0x2219 DUP3 PUSH2 0x21DA JUMP JUMPDEST PUSH1 0x20 DUP3 ADD SWAP1 POP SWAP2 SWAP1 POP JUMP JUMPDEST PUSH0 PUSH1 0x20 DUP3 ADD SWAP1 POP DUP2 DUP2 SUB PUSH0 DUP4 ADD MSTORE PUSH2 0x223B DUP2 PUSH2 0x2202 JUMP JUMPDEST SWAP1 POP SWAP2 SWAP1 POP JUMP JUMPDEST PUSH0 DUP3 SWAP1 POP SWAP3 SWAP2 POP POP JUMP JUMPDEST PUSH32 0x4E487B7100000000000000000000000000000000000000000000000000000000 PUSH0 MSTORE PUSH1 0x41 PUSH1 0x4 MSTORE PUSH1 0x24 PUSH0 REVERT JUMPDEST PUSH0 DUP2 SWAP1 POP DUP2 PUSH0 MSTORE PUSH1 0x20 PUSH0 KECCAK256 SWAP1 POP SWAP2 SWAP1 POP JUMP JUMPDEST PUSH0 PUSH1 0x20 PUSH1 0x1F DUP4 ADD DIV SWAP1 POP SWAP2 SWAP1 POP JUMP JUMPDEST PUSH0 DUP3 DUP3 SHL SWAP1 POP SWAP3 SWAP2 POP POP JUMP JUMPDEST PUSH0 PUSH1 0x8 DUP4 MUL PUSH2 0x22D5 PUSH32 0xFFFFFFFFFFFFFFFFFFFFFFFFFFFFFFFFFFFFFFFFFFFFFFFFFFFFFFFFFFFFFFFF DUP3 PUSH2 0x229A JUMP JUMPDEST PUSH2 0x22DF DUP7 DUP4 PUSH2 0x229A JUMP JUMPDEST SWAP6 POP DUP1 NOT DUP5 AND SWAP4 POP DUP1 DUP7 AND DUP5 OR SWAP3 POP POP POP SWAP4 SWAP3 POP POP POP JUMP JUMPDEST PUSH0 DUP2 SWAP1 POP SWAP2 SWAP1 POP JUMP JUMPDEST PUSH0 PUSH2 0x231A PUSH2 0x2315 PUSH2 0x2310 DUP5 PUSH2 0x1A6C JUMP JUMPDEST PUSH2 0x22F7 JUMP JUMPDEST PUSH2 0x1A6C JUMP JUMPDEST SWAP1 POP SWAP2 SWAP1 POP JUMP JUMPDEST PUSH0 DUP2 SWAP1 POP SWAP2 SWAP1 POP JUMP JUMPDEST PUSH2 0x2333 DUP4 PUSH2 0x2300 JUMP JUMPDEST PUSH2 0x2347 PUSH2 0x233F DUP3 PUSH2 0x2321 JUMP JUMPDEST DUP5 DUP5 SLOAD PUSH2 0x22A6 JUMP JUMPDEST DUP3 SSTORE POP POP POP POP JUMP JUMPDEST PUSH0 PUSH0 SWAP1 POP SWAP1 JUMP JUMPDEST PUSH2 0x235E PUSH2 0x234F JUMP JUMPDEST PUSH2 0x2369 DUP2 DUP5 DUP5 PUSH2 0x232A JUMP JUMPDEST POP POP POP JUMP JUMPDEST JUMPDEST DUP2 DUP2 LT ISZERO PUSH2 0x238C JUMPI PUSH2 0x2381 PUSH0 DUP3 PUSH2 0x2356 JUMP JUMPDEST PUSH1 0x1 DUP2 ADD SWAP1 POP PUSH2 0x236F JUMP JUMPDEST POP POP JUMP JUMPDEST PUSH1 0x1F DUP3 GT ISZERO PUSH2 0x23D1 JUMPI PUSH2 0x23A2 DUP2 PUSH2 0x2279 JUMP JUMPDEST PUSH2 0x23AB DUP5 PUSH2 0x228B JUMP JUMPDEST DUP2 ADD PUSH1 0x20 DUP6 LT ISZERO PUSH2 0x23BA JUMPI DUP2 SWAP1 POP JUMPDEST PUSH2 0x23CE PUSH2 0x23C6 DUP6 PUSH2 0x228B JUMP JUMPDEST DUP4 ADD DUP3 PUSH2 0x236E JUMP JUMPDEST POP POP JUMPDEST POP POP POP JUMP JUMPDEST PUSH0 DUP3 DUP3 SHR SWAP1 POP SWAP3 SWAP2 POP POP JUMP JUMPDEST PUSH0 PUSH2 0x23F1 PUSH0 NOT DUP5 PUSH1 0x8 MUL PUSH2 0x23D6 JUMP JUMPDEST NOT DUP1 DUP4 AND SWAP2 POP POP SWAP3 SWAP2 POP POP JUMP JUMPDEST PUSH0 PUSH2 0x2409 DUP4 DUP4 PUSH2 0x23E2 JUMP JUMPDEST SWAP2 POP DUP3 PUSH1 0x2 MUL DUP3 OR SWAP1 POP SWAP3 SWAP2 POP POP JUMP JUMPDEST PUSH2 0x2423 DUP4 DUP4 PUSH2 0x2242 JUMP JUMPDEST PUSH8 0xFFFFFFFFFFFFFFFF DUP2 GT ISZERO PUSH2 0x243C JUMPI PUSH2 0x243B PUSH2 0x224C JUMP JUMPDEST JUMPDEST PUSH2 0x2446 DUP3 SLOAD PUSH2 0x20DA JUMP JUMPDEST PUSH2 0x2451 DUP3 DUP3 DUP6 PUSH2 0x2390 JUMP JUMPDEST PUSH0 PUSH1 0x1F DUP4 GT PUSH1 0x1 DUP2 EQ PUSH2 0x247E JUMPI PUSH0 DUP5 ISZERO PUSH2 0x246C JUMPI DUP3 DUP8 ADD CALLDATALOAD SWAP1 POP JUMPDEST PUSH2 0x2476 DUP6 DUP3 PUSH2 0x23FE JUMP JUMPDEST DUP7 SSTORE POP PUSH2 0x24DD JUMP JUMPDEST PUSH1 0x1F NOT DUP5 AND PUSH2 0x248C DUP7 PUSH2 0x2279 JUMP JUMPDEST PUSH0 JUMPDEST DUP3 DUP2 LT ISZERO PUSH2 0x24B3 JUMPI DUP5 DUP10 ADD CALLDATALOAD DUP3 SSTORE PUSH1 0x1 DUP3 ADD SWAP2 POP PUSH1 0x20 DUP6 ADD SWAP5 POP PUSH1 0x20 DUP2 ADD SWAP1 POP PUSH2 0x248E JUMP JUMPDEST DUP7 DUP4 LT ISZERO PUSH2 0x24D0 JUMPI DUP5 DUP10 ADD CALLDATALOAD PUSH2 0x24CC PUSH1 0x1F DUP10 AND DUP3 PUSH2 0x23E2 JUMP JUMPDEST DUP4 SSTORE POP JUMPDEST PUSH1 0x1 PUSH1 0x2 DUP9 MUL ADD DUP9 SSTORE POP POP POP JUMPDEST POP POP POP POP POP POP POP JUMP JUMPDEST PUSH32 0x4F4E4C595F50524F564944455200000000000000000000000000000000000000 PUSH0 DUP3 ADD MSTORE POP JUMP JUMPDEST PUSH0 PUSH2 0x251A PUSH1 0xD DUP4 PUSH2 0x19DE JUMP JUMPDEST SWAP2 POP PUSH2 0x2525 DUP3 PUSH2 0x24E6 JUMP JUMPDEST PUSH1 0x20 DUP3 ADD SWAP1 POP SWAP2 SWAP1 POP JUMP JUMPDEST PUSH0 PUSH1 0x20 DUP3 ADD SWAP1 POP DUP2 DUP2 SUB PUSH0 DUP4 ADD MSTORE PUSH2 0x2547 DUP2 PUSH2 0x250E JUMP JUMPDEST SWAP1 POP SWAP2 SWAP1 POP JUMP JUMPDEST PUSH32 0x4E4F545F464F554E440000000000000000000000000000000000000000000000 PUSH0 DUP3 ADD MSTORE POP JUMP JUMPDEST PUSH0 PUSH2 0x2582 PUSH1 0x9 DUP4 PUSH2 0x19DE JUMP JUMPDEST SWAP2 POP PUSH2 0x258D DUP3 PUSH2 0x254E JUMP JUMPDEST PUSH1 0x20 DUP3 ADD SWAP1 POP SWAP2 SWAP1 POP JUMP JUMPDEST PUSH0 PUSH1 0x20 DUP3 ADD SWAP1 POP DUP2 DUP2 SUB PUSH0 DUP4 ADD MSTORE PUSH2 0x25AF DUP2 PUSH2 0x2576 JUMP JUMPDEST SWAP1 POP SWAP2 SWAP1 POP JUMP JUMPDEST PUSH32 0x414C52454144595F414354495645000000000000000000000000000000000000 PUSH0 DUP3 ADD MSTORE POP JUMP JUMPDEST PUSH0 PUSH2 0x25EA PUSH1 0xE DUP4 PUSH2 0x19DE JUMP JUMPDEST SWAP2 POP PUSH2 0x25F5 DUP3 PUSH2 0x25B6 JUMP JUMPDEST PUSH1 0x20 DUP3 ADD SWAP1 POP SWAP2 SWAP1 POP JUMP JUMPDEST PUSH0 PUSH1 0x20 DUP3 ADD SWAP1 POP DUP2 DUP2 SUB PUSH0 DUP4 ADD MSTORE PUSH2 0x2617 DUP2 PUSH2 0x25DE JUMP JUMPDEST SWAP1 POP SWAP2 SWAP1 POP JUMP JUMPDEST DUP3 DUP2 DUP4 CALLDATACOPY PUSH0 DUP4 DUP4 ADD MSTORE POP POP POP JUMP JUMPDEST PUSH0 PUSH2 0x2637 DUP4 DUP6 PUSH2 0x19DE JUMP JUMPDEST SWAP4 POP PUSH2 0x2644 DUP4 DUP6 DUP5 PUSH2 0x261E JUMP JUMPDEST PUSH2 0x264D DUP4 PUSH2 0x19FC JUMP JUMPDEST DUP5 ADD SWAP1 POP SWAP4 SWAP3 POP POP POP JUMP JUMPDEST PUSH0 PUSH1 0x20 DUP3 ADD SWAP1 POP DUP2 DUP2 SUB PUSH0 DUP4 ADD MSTORE PUSH2 0x2671 DUP2 DUP5 DUP7 PUSH2 0x262C JUMP JUMPDEST SWAP1 POP SWAP4 SWAP3 POP POP POP JUMP JUMPDEST PUSH32 0x4F4E4C595F415554484F52000000000000000000000000000000000000000000 PUSH0 DUP3 ADD MSTORE POP JUMP JUMPDEST PUSH0 PUSH2 0x26AE PUSH1 0xB DUP4 PUSH2 0x19DE JUMP JUMPDEST SWAP2 POP PUSH2 0x26B9 DUP3 PUSH2 0x267A JUMP JUMPDEST PUSH1 0x20 DUP3 ADD SWAP1 POP SWAP2 SWAP1 POP JUMP JUMPDEST PUSH0 PUSH1 0x20 DUP3 ADD SWAP1 POP DUP2 DUP2 SUB PUSH0 DUP4 ADD MSTORE PUSH2 0x26DB DUP2 PUSH2 0x26A2 JUMP JUMPDEST SWAP1 POP SWAP2 SWAP1 POP JUMP JUMPDEST PUSH32 0x494E56414C49445F5445524D0000000000000000000000000000000000000000 PUSH0 DUP3 ADD MSTORE POP JUMP JUMPDEST PUSH0 PUSH2 0x2716 PUSH1 0xC DUP4 PUSH2 0x19DE JUMP JUMPDEST SWAP2 POP PUSH2 0x2721 DUP3 PUSH2 0x26E2 JUMP JUMPDEST PUSH1 0x20 DUP3 ADD SWAP1 POP SWAP2 SWAP1 POP JUMP JUMPDEST PUSH0 PUSH1 0x20 DUP3 ADD SWAP1 POP DUP2 DUP2 SUB PUSH0 DUP4 ADD MSTORE PUSH2 0x2743 DUP2 PUSH2 0x270A JUMP JUMPDEST SWAP1 POP SWAP2 SWAP1 POP JUMP JUMPDEST PUSH2 0x2753 DUP2 PUSH2 0x1B91 JUMP JUMPDEST DUP2 EQ PUSH2 0x275D JUMPI PUSH0 PUSH0 REVERT JUMPDEST POP JUMP JUMPDEST PUSH0 DUP2 CALLDATALOAD PUSH2 0x276C DUP2 PUSH2 0x274A JUMP JUMPDEST DUP1 SWAP2 POP POP SWAP2 SWAP1 POP JUMP JUMPDEST PUSH0 DUP2 PUSH0 SHL SWAP1 POP SWAP2 SWAP1 POP JUMP JUMPDEST PUSH0 PUSH1 0xFF PUSH2 0x278C DUP5 PUSH2 0x2775 JUMP JUMPDEST SWAP4 POP DUP1 NOT DUP4 AND SWAP3 POP DUP1 DUP5 AND DUP4 OR SWAP2 POP POP SWAP3 SWAP2 POP POP JUMP JUMPDEST PUSH0 PUSH2 0x27AC DUP3 PUSH2 0x1B91 JUMP JUMPDEST SWAP1 POP SWAP2 SWAP1 POP JUMP JUMPDEST PUSH0 DUP2 SWAP1 POP SWAP2 SWAP1 POP JUMP JUMPDEST PUSH2 0x27C5 DUP3 PUSH2 0x27A2 JUMP JUMPDEST PUSH2 0x27D8 PUSH2 0x27D1 DUP3 PUSH2 0x27B3 JUMP JUMPDEST DUP4 SLOAD PUSH2 0x2780 JUMP JUMPDEST DUP3 SSTORE POP POP POP JUMP JUMPDEST PUSH0 DUP2 PUSH1 0x8 SHL SWAP1 POP SWAP2 SWAP1 POP JUMP JUMPDEST PUSH0 PUSH2 0xFF00 PUSH2 0x27F8 DUP5 PUSH2 0x27DF JUMP JUMPDEST SWAP4 POP DUP1 NOT DUP4 AND SWAP3 POP DUP1 DUP5 AND DUP4 OR SWAP2 POP POP SWAP3 SWAP2 POP POP JUMP JUMPDEST PUSH2 0x2817 DUP3 PUSH2 0x27A2 JUMP JUMPDEST PUSH2 0x282A PUSH2 0x2823 DUP3 PUSH2 0x27B3 JUMP JUMPDEST DUP4 SLOAD PUSH2 0x27EB JUMP JUMPDEST DUP3 SSTORE POP POP POP JUMP JUMPDEST PUSH0 DUP2 PUSH1 0x10 SHL SWAP1 POP SWAP2 SWAP1 POP JUMP JUMPDEST PUSH0 PUSH3 0xFF0000 PUSH2 0x284B DUP5 PUSH2 0x2831 JUMP JUMPDEST SWAP4 POP DUP1 NOT DUP4 AND SWAP3 POP DUP1 DUP5 AND DUP4 OR SWAP2 POP POP SWAP3 SWAP2 POP POP JUMP JUMPDEST PUSH2 0x286A DUP3 PUSH2 0x27A2 JUMP JUMPDEST PUSH2 0x287D PUSH2 0x2876 DUP3 PUSH2 0x27B3 JUMP JUMPDEST DUP4 SLOAD PUSH2 0x283D JUMP JUMPDEST DUP3 SSTORE POP POP POP JUMP JUMPDEST PUSH0 DUP2 PUSH1 0x18 SHL SWAP1 POP SWAP2 SWAP1 POP JUMP JUMPDEST PUSH0 PUSH4 0xFF000000 PUSH2 0x289F DUP5 PUSH2 0x2884 JUMP JUMPDEST SWAP4 POP DUP1 NOT DUP4 AND SWAP3 POP DUP1 DUP5 AND DUP4 OR SWAP2 POP POP SWAP3 SWAP2 POP POP JUMP JUMPDEST PUSH2 0x28BE DUP3 PUSH2 0x27A2 JUMP JUMPDEST PUSH2 0x28D1 PUSH2 0x28CA DUP3 PUSH2 0x27B3 JUMP JUMPDEST DUP4 SLOAD PUSH2 0x2890 JUMP JUMPDEST DUP3 SSTORE POP POP POP JUMP JUMPDEST PUSH0 DUP2 PUSH1 0x20 SHL SWAP1 POP SWAP2 SWAP1 POP JUMP JUMPDEST PUSH0 PUSH5 0xFF00000000 PUSH2 0x28F4 DUP5 PUSH2 0x28D8 JUMP JUMPDEST SWAP4 POP DUP1 NOT DUP4 AND SWAP3 POP DUP1 DUP5 AND DUP4 OR SWAP2 POP POP SWAP3 SWAP2 POP POP JUMP JUMPDEST PUSH2 0x2913 DUP3 PUSH2 0x27A2 JUMP JUMPDEST PUSH2 0x2926 PUSH2 0x291F DUP3 PUSH2 0x27B3 JUMP JUMPDEST DUP4 SLOAD PUSH2 0x28E4 JUMP JUMPDEST DUP3 SSTORE POP POP POP JUMP JUMPDEST PUSH0 PUSH0 REVERT JUMPDEST PUSH0 PUSH0 REVERT JUMPDEST PUSH0 PUSH0 REVERT JUMPDEST PUSH0 PUSH0 DUP4 CALLDATALOAD PUSH1 0x1 PUSH1 0x20 SUB DUP5 CALLDATASIZE SUB SUB DUP2 SLT PUSH2 0x2955 JUMPI PUSH2 0x2954 PUSH2 0x292D JUMP JUMPDEST JUMPDEST DUP1 DUP5 ADD SWAP3 POP DUP3 CALLDATALOAD SWAP2 POP PUSH8 0xFFFFFFFFFFFFFFFF DUP3 GT ISZERO PUSH2 0x2977 JUMPI PUSH2 0x2976 PUSH2 0x2931 JUMP JUMPDEST JUMPDEST PUSH1 0x20 DUP4 ADD SWAP3 POP PUSH1 0x1 DUP3 MUL CALLDATASIZE SUB DUP4 SGT ISZERO PUSH2 0x2993 JUMPI PUSH2 0x2992 PUSH2 0x2935 JUMP JUMPDEST JUMPDEST POP SWAP3 POP SWAP3 SWAP1 POP JUMP JUMPDEST PUSH2 0x29A6 DUP4 DUP4 DUP4 PUSH2 0x2419 JUMP JUMPDEST POP POP POP JUMP JUMPDEST PUSH0 DUP2 ADD PUSH0 DUP4 ADD DUP1 PUSH2 0x29BB DUP2 PUSH2 0x2760 JUMP JUMPDEST SWAP1 POP PUSH2 0x29C7 DUP2 DUP5 PUSH2 0x27BC JUMP JUMPDEST POP POP POP PUSH0 DUP2 ADD PUSH1 0x20 DUP4 ADD DUP1 PUSH2 0x29DB DUP2 PUSH2 0x2760 JUMP JUMPDEST SWAP1 POP PUSH2 0x29E7 DUP2 DUP5 PUSH2 0x280E JUMP JUMPDEST POP POP POP PUSH0 DUP2 ADD PUSH1 0x40 DUP4 ADD DUP1 PUSH2 0x29FB DUP2 PUSH2 0x2760 JUMP JUMPDEST SWAP1 POP PUSH2 0x2A07 DUP2 DUP5 PUSH2 0x2861 JUMP JUMPDEST POP POP POP PUSH0 DUP2 ADD PUSH1 0x60 DUP4 ADD DUP1 PUSH2 0x2A1B DUP2 PUSH2 0x2760 JUMP JUMPDEST SWAP1 POP PUSH2 0x2A27 DUP2 DUP5 PUSH2 0x28B5 JUMP JUMPDEST POP POP POP PUSH0 DUP2 ADD PUSH1 0x80 DUP4 ADD DUP1 PUSH2 0x2A3B DUP2 PUSH2 0x2760 JUMP JUMPDEST SWAP1 POP PUSH2 0x2A47 DUP2 DUP5 PUSH2 0x290A JUMP JUMPDEST POP POP POP PUSH1 0x1 DUP2 ADD PUSH1 0xA0 DUP4 ADD PUSH2 0x2A5C DUP2 DUP6 PUSH2 0x2939 JUMP JUMPDEST PUSH2 0x2A67 DUP2 DUP4 DUP7 PUSH2 0x299B JUMP JUMPDEST POP POP POP POP POP POP JUMP JUMPDEST PUSH2 0x2A79 DUP3 DUP3 PUSH2 0x29AB JUMP JUMPDEST POP POP JUMP JUMPDEST PUSH32 0x4E4F5F5045524D495353494F4E00000000000000000000000000000000000000 PUSH0 DUP3 ADD MSTORE POP JUMP JUMPDEST PUSH0 PUSH2 0x2AB1 PUSH1 0xD DUP4 PUSH2 0x19DE JUMP JUMPDEST SWAP2 POP PUSH2 0x2ABC DUP3 PUSH2 0x2A7D JUMP JUMPDEST PUSH1 0x20 DUP3 ADD SWAP1 POP SWAP2 SWAP1 POP JUMP JUMPDEST PUSH0 PUSH1 0x20 DUP3 ADD SWAP1 POP DUP2 DUP2 SUB PUSH0 DUP4 ADD MSTORE PUSH2 0x2ADE DUP2 PUSH2 0x2AA5 JUMP JUMPDEST SWAP1 POP SWAP2 SWAP1 POP JUMP JUMPDEST PUSH2 0x2AEE DUP3 PUSH2 0x19D4 JUMP JUMPDEST PUSH8 0xFFFFFFFFFFFFFFFF DUP2 GT ISZERO PUSH2 0x2B07 JUMPI PUSH2 0x2B06 PUSH2 0x224C JUMP JUMPDEST JUMPDEST PUSH2 0x2B11 DUP3 SLOAD PUSH2 0x20DA JUMP JUMPDEST PUSH2 0x2B1C DUP3 DUP3 DUP6 PUSH2 0x2390 JUMP JUMPDEST PUSH0 PUSH1 0x20 SWAP1 POP PUSH1 0x1F DUP4 GT PUSH1 0x1 DUP2 EQ PUSH2 0x2B4D JUMPI PUSH0 DUP5 ISZERO PUSH2 0x2B3B JUMPI DUP3 DUP8 ADD MLOAD SWAP1 POP JUMPDEST PUSH2 0x2B45 DUP6 DUP3 PUSH2 0x23FE JUMP JUMPDEST DUP7 SSTORE POP PUSH2 0x2BAC JUMP JUMPDEST PUSH1 0x1F NOT DUP5 AND PUSH2 0x2B5B DUP7 PUSH2 0x2279 JUMP JUMPDEST PUSH0 JUMPDEST DUP3 DUP2 LT ISZERO PUSH2 0x2B82 JUMPI DUP5 DUP10 ADD MLOAD DUP3 SSTORE PUSH1 0x1 DUP3 ADD SWAP2 POP PUSH1 0x20 DUP6 ADD SWAP5 POP PUSH1 0x20 DUP2 ADD SWAP1 POP PUSH2 0x2B5D JUMP JUMPDEST DUP7 DUP4 LT ISZERO PUSH2 0x2B9F JUMPI DUP5 DUP10 ADD MLOAD PUSH2 0x2B9B PUSH1 0x1F DUP10 AND DUP3 PUSH2 0x23E2 JUMP JUMPDEST DUP4 SSTORE POP JUMPDEST PUSH1 0x1 PUSH1 0x2 DUP9 MUL ADD DUP9 SSTORE POP POP POP JUMPDEST POP POP POP POP POP POP JUMP JUMPDEST PUSH0 PUSH1 0x40 DUP3 ADD SWAP1 POP DUP2 DUP2 SUB PUSH0 DUP4 ADD MSTORE PUSH2 0x2BCD DUP2 DUP6 DUP8 PUSH2 0x262C JUMP JUMPDEST SWAP1 POP PUSH2 0x2BDC PUSH1 0x20 DUP4 ADD DUP5 PUSH2 0x19AC JUMP JUMPDEST SWAP5 SWAP4 POP POP POP POP JUMP INVALID LOG2 PUSH5 0x6970667358 0x22 SLT KECCAK256 MULMOD 0xAD 0xB7 BLOBBASEFEE DUP2 DUP4 SWAP7 PUSH29 0xD633A1D0F9814C1EEC362CA263CC0DEB6BBE81E94568B2CB64736F6C63 NUMBER STOP ADDMOD 0x1E STOP CALLER "
				},
				"gasEstimates": {
					"creation": {
						"codeDepositCost": "2258000",
						"executionCost": "infinite",
						"totalCost": "infinite"
					},
					"external": {
						"VERSION()": "infinite",
						"approve(uint256)": "infinite",
						"author()": "infinite",
						"chainId()": "infinite",
						"configureRights((bool,bool,bool,bool,bool,string),string,uint64,uint64)": "infinite",
						"contractNumber()": "infinite",
						"deployedAt()": "infinite",
						"evidenceAgency()": "2552",
						"getCopyrightInfo(uint256)": "infinite",
						"getSummary()": "infinite",
						"networkName()": "infinite",
						"provider()": "infinite",
						"records(uint256)": "infinite",
						"registerCopyright(uint256,string,string)": "infinite",
						"reject(uint256,string)": "infinite",
						"rights()": "infinite",
						"rightsEndAt()": "2583",
						"rightsStartAt()": "2490",
						"setAuthorInfo(string,address,bytes32,string)": "infinite",
						"setEvidenceAgency(address)": "infinite",
						"territory()": "infinite"
					}
				},
				"methodIdentifiers": {
					"VERSION()": "ffa1ad74",
					"approve(uint256)": "b759f954",
					"author()": "a6c3e6b9",
					"chainId()": "9a8a0592",
					"configureRights((bool,bool,bool,bool,bool,string),string,uint64,uint64)": "b017fc9d",
					"contractNumber()": "cbfbcc17",
					"deployedAt()": "eae4c19f",
					"evidenceAgency()": "d159f8c0",
					"getCopyrightInfo(uint256)": "b2edd796",
					"getSummary()": "4051ddac",
					"networkName()": "107bf28c",
					"provider()": "085d4883",
					"records(uint256)": "34461067",
					"registerCopyright(uint256,string,string)": "1cc4a9d8",
					"reject(uint256,string)": "71d68a97",
					"rights()": "980e8db6",
					"rightsEndAt()": "d30f59d8",
					"rightsStartAt()": "07637095",
					"setAuthorInfo(string,address,bytes32,string)": "f9c808b7",
					"setEvidenceAgency(address)": "bba12fb4",
					"territory()": "68ed9356"
				}
			},
			"storageLayout": {
				"storage": [
					{
						"astId": 7,
						"contract": "CopyrightAgreementV1.sol:CopyrightAgreementV1",
						"label": "contractNumber",
						"offset": 0,
						"slot": "0",
						"type": "t_string_storage"
					},
					{
						"astId": 9,
						"contract": "CopyrightAgreementV1.sol:CopyrightAgreementV1",
						"label": "networkName",
						"offset": 0,
						"slot": "1",
						"type": "t_string_storage"
					},
					{
						"astId": 27,
						"contract": "CopyrightAgreementV1.sol:CopyrightAgreementV1",
						"label": "author",
						"offset": 0,
						"slot": "2",
						"type": "t_struct(Party)24_storage"
					},
					{
						"astId": 29,
						"contract": "CopyrightAgreementV1.sol:CopyrightAgreementV1",
						"label": "evidenceAgency",
						"offset": 0,
						"slot": "6",
						"type": "t_address"
					},
					{
						"astId": 74,
						"contract": "CopyrightAgreementV1.sol:CopyrightAgreementV1",
						"label": "records",
						"offset": 0,
						"slot": "7",
						"type": "t_mapping(t_uint256,t_struct(Record)69_storage)"
					},
					{
						"astId": 90,
						"contract": "CopyrightAgreementV1.sol:CopyrightAgreementV1",
						"label": "rights",
						"offset": 0,
						"slot": "8",
						"type": "t_struct(RightsScope)87_storage"
					},
					{
						"astId": 92,
						"contract": "CopyrightAgreementV1.sol:CopyrightAgreementV1",
						"label": "territory",
						"offset": 0,
						"slot": "10",
						"type": "t_string_storage"
					},
					{
						"astId": 94,
						"contract": "CopyrightAgreementV1.sol:CopyrightAgreementV1",
						"label": "rightsStartAt",
						"offset": 0,
						"slot": "11",
						"type": "t_uint64"
					},
					{
						"astId": 96,
						"contract": "CopyrightAgreementV1.sol:CopyrightAgreementV1",
						"label": "rightsEndAt",
						"offset": 8,
						"slot": "11",
						"type": "t_uint64"
					}
				],
				"types": {
					"t_address": {
						"encoding": "inplace",
						"label": "address",
						"numberOfBytes": "20"
					},
					"t_bool": {
						"encoding": "inplace",
						"label": "bool",
						"numberOfBytes": "1"
					},
					"t_bytes32": {
						"encoding": "inplace",
						"label": "bytes32",
						"numberOfBytes": "32"
					},
					"t_mapping(t_uint256,t_struct(Record)69_storage)": {
						"encoding": "mapping",
						"key": "t_uint256",
						"label": "mapping(uint256 => struct CopyrightAgreementV1.Record)",
						"numberOfBytes": "32",
						"value": "t_struct(Record)69_storage"
					},
					"t_string_storage": {
						"encoding": "bytes",
						"label": "string",
						"numberOfBytes": "32"
					},
					"t_struct(Party)24_storage": {
						"encoding": "inplace",
						"label": "struct CopyrightAgreementV1.Party",
						"members": [
							{
								"astId": 17,
								"contract": "CopyrightAgreementV1.sol:CopyrightAgreementV1",
								"label": "name",
								"offset": 0,
								"slot": "0",
								"type": "t_string_storage"
							},
							{
								"astId": 19,
								"contract": "CopyrightAgreementV1.sol:CopyrightAgreementV1",
								"label": "account",
								"offset": 0,
								"slot": "1",
								"type": "t_address"
							},
							{
								"astId": 21,
								"contract": "CopyrightAgreementV1.sol:CopyrightAgreementV1",
								"label": "idHash",
								"offset": 0,
								"slot": "2",
								"type": "t_bytes32"
							},
							{
								"astId": 23,
								"contract": "CopyrightAgreementV1.sol:CopyrightAgreementV1",
								"label": "contact",
								"offset": 0,
								"slot": "3",
								"type": "t_string_storage"
							}
						],
						"numberOfBytes": "128"
					},
					"t_struct(Record)69_storage": {
						"encoding": "inplace",
						"label": "struct CopyrightAgreementV1.Record",
						"members": [
							{
								"astId": 56,
								"contract": "CopyrightAgreementV1.sol:CopyrightAgreementV1",
								"label": "exists",
								"offset": 0,
								"slot": "0",
								"type": "t_bool"
							},
							{
								"astId": 58,
								"contract": "CopyrightAgreementV1.sol:CopyrightAgreementV1",
								"label": "submitter",
								"offset": 1,
								"slot": "0",
								"type": "t_address"
							},
							{
								"astId": 60,
								"contract": "CopyrightAgreementV1.sol:CopyrightAgreementV1",
								"label": "contentHash",
								"offset": 0,
								"slot": "1",
								"type": "t_string_storage"
							},
							{
								"astId": 62,
								"contract": "CopyrightAgreementV1.sol:CopyrightAgreementV1",
								"label": "metadataJson",
								"offset": 0,
								"slot": "2",
								"type": "t_string_storage"
							},
							{
								"astId": 64,
								"contract": "CopyrightAgreementV1.sol:CopyrightAgreementV1",
								"label": "isActive",
								"offset": 0,
								"slot": "3",
								"type": "t_bool"
							},
							{
								"astId": 66,
								"contract": "CopyrightAgreementV1.sol:CopyrightAgreementV1",
								"label": "submittedAt",
								"offset": 1,
								"slot": "3",
								"type": "t_uint64"
							},
							{
								"astId": 68,
								"contract": "CopyrightAgreementV1.sol:CopyrightAgreementV1",
								"label": "approvedAt",
								"offset": 9,
								"slot": "3",
								"type": "t_uint64"
							}
						],
						"numberOfBytes": "128"
					},
					"t_struct(RightsScope)87_storage": {
						"encoding": "inplace",
						"label": "struct CopyrightAgreementV1.RightsScope",
						"members": [
							{
								"astId": 76,
								"contract": "CopyrightAgreementV1.sol:CopyrightAgreementV1",
								"label": "reproductionRight",
								"offset": 0,
								"slot": "0",
								"type": "t_bool"
							},
							{
								"astId": 78,
								"contract": "CopyrightAgreementV1.sol:CopyrightAgreementV1",
								"label": "distributionRight",
								"offset": 1,
								"slot": "0",
								"type": "t_bool"
							},
							{
								"astId": 80,
								"contract": "CopyrightAgreementV1.sol:CopyrightAgreementV1",
								"label": "networkCommunicationRight",
								"offset": 2,
								"slot": "0",
								"type": "t_bool"
							},
							{
								"astId": 82,
								"contract": "CopyrightAgreementV1.sol:CopyrightAgreementV1",
								"label": "adaptationRight",
								"offset": 3,
								"slot": "0",
								"type": "t_bool"
							},
							{
								"astId": 84,
								"contract": "CopyrightAgreementV1.sol:CopyrightAgreementV1",
								"label": "translationRight",
								"offset": 4,
								"slot": "0",
								"type": "t_bool"
							},
							{
								"astId": 86,
								"contract": "CopyrightAgreementV1.sol:CopyrightAgreementV1",
								"label": "otherPropertyRights",
								"offset": 0,
								"slot": "1",
								"type": "t_string_storage"
							}
						],
						"numberOfBytes": "64"
					},
					"t_uint256": {
						"encoding": "inplace",
						"label": "uint256",
						"numberOfBytes": "32"
					},
					"t_uint64": {
						"encoding": "inplace",
						"label": "uint64",
						"numberOfBytes": "8"
					}
				}
			},
			"userdoc": {
				"kind": "user",
				"methods": {},
				"notice": "CopyrightAgreementV1 基于区块链的版权智能合约（V1.0） - 创作者提交信息与作品元数据 - 基础设施提供者（审核方）审核通过后，记录为有效版权合约 - 提供概要与记录查询接口，便于前端展示到“版权合约”位置",
				"version": 1
			}
		}
	}
}